:040000009AEF00F083
:100008005982FACF20F0FBCF21F0E9CF22F0EACFD6
:1000180023F0E1CF24F0E2CF25F0D9CF26F0DACFD4
:1000280027F0F3CF28F0F4CF29F0F6CF2AF0F7CF56
:100038002BF0F8CF2CF0F5CF2DF0F2AC26EF00F036
:1000480028EF00F07CEF00F09DAA2DEF00F02FEFD5
:1000580000F046EF00F09EAA34EF00F036EF00F013
:1000680046EF00F002D844EF00F005000101FA6EF7
:100078004051FD6E4151FE6EF850FF6EFA5012006D
:100088007CEF00F0A0A24BEF00F04DEF00F058EF2E
:1000980000F0A1A252EF00F054EF00F058EF00F08A
:1000A80075EC2EF07CEF00F0A3A45DEF00F05FEF9D
:1000B80000F06AEF00F0A4A464EF00F066EF00F02F
:1000C8006AEF00F09EEC08F07CEF00F09DAC6FEF5B
:1000D80000F071EF00F07CEF00F09EAC76EF00F0DE
:1000E80078EF00F07CEF00F0BCEC31F07CEF00F032
:1000F8002DC0F5FF2CC0F8FF2BC0F7FF2AC0F6FF74
:1001080029C0F4FF28C0F3FF27C0DAFF26C0D9FFB3
:1001180025C0E2FF24C0E1FF23C0EAFF22C0E9FFB7
:1001280021C0FBFF20C0FAFF599211001BEF16F007
:100138008CEC31F09EC0BEF09FC0BFF0000E0001F5
:10014800BA6F000EB96F290EB86F000EBB6FC1EF02
:1001580000F0BB51020D9A0EF324D96E040EF42060
:10016800DA6EDECF9EF0DDCF9FF0E3EC2BF00001DE
:100178009E51B9279F51BA23BB2BB851BB5DD8A05C
:10018800C8EF00F0CAEF00F0ADEF00F0FE0EB66F5A
:10019800FF0EB76FBEC09EF0BFC09FF0E3EC2BF020
:1001A8000001B6519E27B7519F239E51B9279F51F1
:1001B800BA23FE0EB66FFF0EB76F300EBE259E6FC8
:1001C800000EBF219F6FE3EC2BF00001B6519E2774
:1001D800B7519F239E51B9279F51BA23FE0EB66F80
:1001E800FF0EB76F380EBE259E6F000EBF219F6FA2
:1001F800E3EC2BF00001B6519E27B7519F239E5187
:10020800B9279F51BA23FE0EB66FFF0EB76F400E87
:10021800BE259E6F000EBF219F6FE3EC2BF00001FF
:10022800B6519E27B7519F239E51B9279F51BA2394
:10023800FE0EB66FFF0EB76F500EBE259E6F000EF6
:10024800BF219F6FE3EC2BF00001B6519E27B751F9
:100258009F239E51B9279F51BA2320EE60F0BE51CB
:10026800D926BF51DA22DFB03CEF01F03EEF01F0B2
:1002780053EF01F0FE0EB66FFF0EB76FCEC09EF0C3
:10028800CFC09FF0E3EC2BF00001B6519E27B75189
:100298009F239E51B9279F51BA2366EF01F0FE0EA6
:1002A800B66FFF0EB76FD0C09EF0D1C09FF0E3ECE1
:1002B8002BF00001B6519E27B7519F239E51B927B5
:1002C8009F51BA2320EE60F0BE51D926BF51DA22E1
:1002D800DFB271EF01F073EF01F088EF01F0FE0E6D
:1002E800B66FFF0EB76FCEC09EF0CFC09FF0E3ECA5
:1002F8002BF00001B6519E27B7519F239E51B92775
:100308009F51BA239BEF01F0FE0EB66FFF0EB76F39
:10031800D0C09EF0D1C09FF0E3EC2BF00001B651A5
:100328009E27B7519F239E51B9279F51BA23B9C021
:10033800B3F0BAC0B4F0000EBBEC25F00009D8A4A5
:10034800A8EF01F0AAEF01F0ACEF01F0F9EF02F02D
:10035800000E0001BB6FE5EF02F0BB51020D9A0ED3
:10036800F324D96E040EF420DA6EDECFBCF0DDCFB4
:10037800BDF0BCC09EF0BDC09FF0E3EC2BF0D5EF04
:1003880002F0BCC0F6FFBDC0F7FF0800F550400AF8
:10039800D8A4D1EF01F0D3EF01F0C7EF02F00001CC
:1003A800BC4BBD2B8DEF02F0BEC0A1F0BFC0A2F0C8
:1003B800020EA36FFBEC2CF0D2EF02F0200EBE254C
:1003C800A16F000EBF21A26F020EA36FFBEC2CF0F1
:1003D800D2EF02F0280EBE25A16F000EBF21A26F3A
:1003E800020EA36FFBEC2CF0D2EF02F0300EBE250C
:1003F800A16F000EBF21A26F020EA36FFBEC2CF0C1
:10040800D2EF02F0380EBE25A16F000EBF21A26FF9
:10041800020EA36FFBEC2CF0D2EF02F0400EBE25CB
:10042800A16F000EBF21A26F020EA36FFBEC2CF090
:10043800D2EF02F0500EBE25A16F000EBF21A26FB1
:10044800020EA36FFBEC2CF0D2EF02F020EE60F06E
:10045800BE51D926BF51DA22DFA035EF02F037EFBF
:1004680002F041EF02F0D0C0A1F0D1C0A2F0020E1C
:10047800A36FFBEC2CF0D2EF02F0CEC0A1F0CFC0FE
:10048800A2F0020EA36FFBEC2CF0D2EF02F020EEEC
:1004980060F0BE51D926BF51DA22DFA256EF02F032
:1004A80058EF02F062EF02F0D0C0A1F0D1C0A2F084
:1004B800020EA36FFBEC2CF0D2EF02F0CEC0A1F03D
:1004C800CFC0A2F0020EA36FFBEC2CF0D2EF02F02B
:1004D80020EE60F0BE51D926BF51DA22DFA477EFB3
:1004E80002F079EF02F083EF02F0D0C0A1F0D1C0A2
:1004F800A2F0020EA36FFBEC2CF0D2EF02F0CEC0FC
:10050800A1F0CFC0A2F0020EA36FFBEC2CF0D2EF4B
:1005180002F0BCC0F6FFBDC0F7FF0800F550B66F8B
:10052800B76BB751000AD8B49CEF02F0D2EF02F0D3
:10053800B651410AD8B412EF02F0080AD8B4D8EF7D
:1005480001F0050AD8B4EEEF01F01C0AD8B4E2EFC6
:1005580001F0020AD8B4FAEF01F0040AD8B406EFA1
:1005680002F0010AD8B41EEF02F0340AD8B46CEFD6
:1005780002F0160AD8B44BEF02F0020AD8B42AEFF8
:1005880002F0D2EF02F0020E00019F6FBCC0F6FF2E
:10059800BDC0F7FF0800F550DEEC2FF00001BC4BA2
:1005A800BD2BBCC0F6FFBDC0F7FF0800F550000921
:1005B800D8A4E1EF02F0E3EF02F0C5EF01F000018B
:1005C800BB2BB851BB5DD8A0ECEF02F0EEEF02F008
:1005D800B1EF01F0FC0EAF6F7F0EB06F020EB16F7E
:1005E800FAEC25F0000EBAEC2AF012000001A7BFC1
:1005F80009EF03F0A75107E1030EA65DD8B007EF96
:1006080003F009EF03F00DEF03F0AEEF04F0AEEFE7
:1006180004F020EE02F0A851D926A951DA22DECF43
:100628009EF0DDCF9FF048EC2DF00001B16FB15185
:100638005FEC2AF00001AE6F000EB06F000EAF6FD6
:10064800AFC0AAF0B0C0ABF0D890AA37AB37D890FB
:10065800AA37AB37780EAA25F66E790EAB21F76E5E
:100668000900F5CF9EF00A00F5CF9FF020EE04F0C8
:10067800A851D926A951DA22DECFA0F0DDCFA1F00A
:1006880028EC1BF000019E519F11D8A44EEF03F0F7
:1006980050EF03F09EEF04F062EF04F0AE51D8B4CF
:1006A80058EF03F05AEF03F05CEF03F0AEEF04F0FD
:1006B80020EE06F0A851D926A951DA22DECF9EF005
:1006C800DDCF9FF0D60EA06F7F0EA16F28EC1BF038
:1006D80000019E519F11D8A474EF03F076EF03F048
:1006E8008DEF03F020EE06F0A451D926A551DA22A9
:1006F800DECFAAF0DDCFABF0B151AA27000EAB23B5
:10070800180EAA25D96E000EAB21DA6EDF96AEEF71
:1007180004F020EE06F0A851D926A951DA22DECF3E
:100728009EF0DDCF9FF0F00EA06F7F0EA16F28EC3A
:100738001BF000019E519F11D8A4A5EF03F0A7EF6D
:1007480003F0AEEF04F020EE06F0A451D926A5512F
:10075800DA22DECFAAF0DDCFABF0B151AA27000E26
:10076800AB23180EAA25D96E000EAB21DA6EDF86F0
:10077800AEEF04F0B151F20FB26FAE05D8A4C7EFD7
:1007880003F0C9EF03F0AEEF04F020EE06F0A45139
:10079800D926A551DA22DECFAAF0DDCFABF0B251CF
:1007A800AA27000EAB231D0EAA25D96E000EAB2179
:1007B800DA6EDFA0E2EF03F0E4EF03F0AEEF04F04F
:1007C80020EE06F0A451D926A551DA22DECFAAF0F0
:1007D800DDCFABF0B251AA27000EAB231D0EAA2520
:1007E800D96E000EAB21DA6EDF9020EE06F0A45130
:1007F800D926A551DA22DECFAAF0DDCFABF0B2516F
:10080800AA27000EAB231D0EAA25D96E000EAB2118
:10081800DA6EDF82AEEF04F0B151F20FB26FAE05BF
:10082800D8A419EF04F01BEF04F0AEEF04F020EEAB
:1008380006F0A451D926A551DA22DECFAAF0DDCFE1
:10084800ABF0B251AA27000EAB231D0EAA25D96E14
:10085800000EAB21DA6EDFB034EF04F036EF04F0AF
:10086800AEEF04F020EE06F0A451D926A551DA2205
:10087800DECFAAF0DDCFABF0B251AA27000EAB2332
:100888001D0EAA25D96E000EAB21DA6EDF8020EE90
:1008980006F0A451D926A551DA22DECFAAF0DDCF81
:1008A800ABF0B251AA27000EAB231D0EAA25D96EB4
:1008B800000EAB21DA6EDF82AEEF04F0AFC0AAF013
:1008C800B0C0ABF0D890AA37AB37D890AA37AB37BF
:1008D800020EAA27000EAB23780EAA25F66E790E13
:1008E800AB21F76E0900F5CFACF00900F5CFADF0FC
:1008F800AD51000AD8B483EF04F0AEEF04F0AC5168
:10090800000AD8B40BEF03F0010AD8B4AEEF04F034
:10091800030AD8B452EF03F0010AD8B4AEEF04F0DA
:10092800070AD8B4BEEF03F0010AD8B410EF04F0F8
:10093800AEEF04F0AF4BB02BB0BFACEF04F0B0514A
:1009480009E1080EAF5DD8A0ACEF04F0AEEF04F0FB
:1009580024EF03F0120004013205D8A4B6EF04F026
:10096800B8EF04F0D4EF04F030511F0B0009D8A4FD
:10097800C0EF04F0C2EF04F0D4EF04F000016B8F75
:10098800030E04013119D8A4CCEF04F0CEEF04F023
:10099800D2EF04F0010E516ED4EF04F0000E516E48
:1009A8003251D8A4DAEF04F0DCEF04F05CEF06F083
:1009B80030511F0B020AD8A4E4EF04F0E6EF04F06C
:1009C8005CEF06F034510F0B0009D8B4EEEF04F0D9
:1009D800F0EF04F05CEF06F034510F0B156E030EC8
:1009E8001560F9EF04F0FBEF04F05CEF06F0200E61
:1009F8005418D8A402EF05F004EF05F05CEF06F0F8
:100A080000016B8F040134BF0CEF05F00EEF05F009
:100A18002BEF05F034510F0B156E1550020D740EA7
:100A2800F324D96E000EF420DA6EDECF1AF0DDCF93
:100A38001BF034510F0B156E166A7E0E1524D96EF5
:100A4800000E1620DA6EDF50196E46EF05F03451AD
:100A58000F0B156E1550020D6E0EF324D96E000E95
:100A6800F420DA6EDECF1AF0DDCF1BF034510F0B15
:100A7800156E166A810E1524D96E000E1620DA6ED0
:100A8800DF50196E19B04BEF05F04DEF05F055EF3B
:100A980005F0FB0E1A141A6EFF0E1B141B6E5AEF8C
:100AA80005F0040E1A101A6E1B501B6E34BF5FEF50
:100AB80005F061EF05F072EF05F034510F0B156E7C
:100AC8001550020D740EF324D96E000EF420DA6E60
:100AD8001AC0DEFF1BC0DDFF81EF05F034510F0B9C
:100AE800156E1550020D6E0EF324D96E000EF4200B
:100AF800DA6E1AC0DEFF1BC0DDFF030E3119D8A461
:100B080088EF05F08AEF05F0C4EF05F01AC0D9FFA9
:100B18001BC0DAFFDFAE93EF05F095EF05F0B6EFF7
:100B280005F034BF9AEF05F09CEF05F0AAEF05F049
:100B380034510F0B156E166A7E0E1524D96E000EF1
:100B48001620DA6E0001DF82B6EF05F034510F0B84
:100B5800156E166A810E1524D96E000E1620DA6EEF
:100B68000001DF821AC0D9FF1BC0DAFF000EDB8448
:100B78001AC0D9FF1BC0DAFF000EDB8E5CEF06F04F
:100B8800040E1A181A6E1B501B6E1AC0D9FF1BC010
:100B9800DAFFDFAED2EF05F0D4EF05F0F0EF05F0A5
:100BA8001AC0D9FF1BC0DAFF7F0EDF161AC0D9FFA3
:100BB8001BC0DAFF000EDB8C000E0E6E050E0D6EEC
:100BC8001AC00FF01BC010F0000E126E020E116E4C
:100BD80034EC24F0F6EF05F01AC0D9FF1BC0DAFF99
:100BE800000EDB8C040E1A181A6E1B501B6E19B2FD
:100BF80000EF06F002EF06F00DEF06F01AC0D9FF7D
:100C08001BC0DAFFDFAE0BEF06F00DEF06F045EF85
:100C180006F0040134BF13EF06F015EF06F023EFDA
:100C280006F034510F0B156E166A7E0E1524D96E18
:100C3800000E1620DA6E0001DF922FEF06F0345115
:100C48000F0B156E166A810E1524D96E000E16202C
:100C5800DA6E0001DF921AC0D9FF1BC0DAFF3B0E23
:100C6800DF16000E0E6E050E0D6E1AC00FF01BC0BB
:100C780010F0000E126E020E116E34EC24F04BEFE1
:100C880006F01AC0D9FF1BC0DAFF3B0EDF160401BD
:100C980034510F0B156E166A6A0E1524176E0F0E57
:100CA8001620186E17C0D9FF18C0DAFFFE0EDF161F
:100CB80012008CEC31F09EC0BFF09FC0C0F0420E15
:100CC8000001A26F010EA36FAE0EA46F7F0EA56F79
:100CD80030EC2AF01AC19EF01BC19FF01CC1A0F095
:100CE8001DC1A1F0E5EC2EF09EC046F19FC047F172
:100CF800A0C048F1A1C049F1010E01011A27000E58
:100D08001B231C231D23000E4E6F000E4F6F000E79
:100D1800506F000E516F040E566F000E576F000E85
:100D2800586F000E596F0C0E626F200E636F640EC1
:100D38000001C76F010EC86F1EC1A4F01FC1A5F046
:100D480020C1A6F021C1A7F0C7C0A8F0C8C0A9F06B
:100D5800040EAA6F3FEC29F0000E0101686F080E1F
:100D6800696F6A0E0001C76F010EC86F000EC26F6F
:100D7800000EC16FC1C09EF0C2C09FF0000EA16FEF
:100D8800030EA06F32EC30F0B9C0BBF0BAC0BCF0B3
:100D980000019E51BB279F51BC23010EBB25D96E74
:100DA800000EBC21DA6EDECFBDF0DDCFBEF0BDC0D7
:100DB800A4F0BEC0A5F0A66BA76BC7C0A8F0C8C0BA
:100DC800A9F0020EAA6F3FEC29F0020E0001C72716
:100DD800000EC823C14BC22BC2BFFCEF06F0C251A4
:100DE80009E1080EC15DD8A0FCEF06F0FEEF06F0A1
:100DF800BEEF06F0010E01017A6F050E7B6F7C0EC7
:100E08000001C76F010EC86F000EC46F000EC36FDC
:100E1800C351B925BB6FC451BA21BC6F180EBB258D
:100E2800D96E000EBC21DA6EDF50010BC7C0D9FFA6
:100E3800C8C0DAFFDF6EC74BC82BC34BC42BC4BF77
:100E48002FEF07F0C45109E1050EC35DD8A02FEFBD
:100E580007F031EF07F00CEF07F0020E0101816F88
:100E6800050E826F830E0001C76F010EC86F000E5A
:100E7800C66F000EC56FC551B925BB6FC651BA21E3
:100E8800BC6F1D0EBB25D96E000EBC21DA6EDF507B
:100E9800010BC7C0D9FFC8C0DAFFDF6EC74BC82B2C
:100EA800C54BC62BC6BF62EF07F0C65109E1050E58
:100EB800C55DD8A062EF07F064EF07F03FEF07F0D9
:100EC800000EB46F460EB36FBFC0B5F0C0C0B6F029
:100ED800200EBF25B76F000EC021B86F8DEC2AF029
:100EE800420E0001B36F010EB46F000EB66F460ECE
:100EF800B56F020EB76F70EC29F0010E0001916F0B
:100F08001200B4EC2FF05A0E0001A06F020EA16F70
:100F18003EEC2BF0AA0E0001A06F060EA16FADECFF
:100F28002CF0DBEC31F02EEC22F00001CA6F86ECDD
:100F380031F09EC0A0F09FC0A1F0ECEC26F04CEC84
:100F480031F0DBEC28F09FEC2FF0F28EF28C3CECC9
:100F580025F0E9EC30F00009D8A4B5EF07F0B7EFB9
:100F680007F0D4EF07F00001CA51D8B4BEEF07F07C
:100F7800C0EF07F0D4EF07F001EC31F00009D8A476
:100F8800C8EF07F0CAEF07F0D6EF07F00CEC31F026
:100F98000009D8A4D2EF07F0D4EF07F0D6EF07F096
:100FA80035EC2EF001EC31F00009D8A4DEEF07F0A3
:100FB800E0EF07F0E2EF07F094EC2EF001EC31F0EF
:100FC8000009D8B4EAEF07F0ECEF07F031EF08F0CA
:100FD800000E0001CD6F0A0EC96F04EF08F076EC21
:100FE80026F00001CD6FCD51D8B4FDEF07F0FFEF2B
:100FF80007F001EF08F00EEF08F00A0E2EEC2FF0C4
:101008000001C907C929D8A40CEF08F00EEF08F0B1
:10101800F3EF07F0CD51D8A414EF08F016EF08F05D
:1010280022EF08F017EC31F00009D8B41EEF08F0F1
:1010380020EF08F022EF08F035EC2EF00001CD513A
:10104800D8A429EF08F02CEF08F0010E2DEF08F0D6
:10105800000E7FEC31F0B1EC2EF0ABEC31F00CEC83
:101068001CF086EC31F09EC0CBF09FC0CCF0CBC01A
:10107800A3F0CCC0A4F0C1EC1DF092EC1EF001EC82
:1010880031F00009D8B44BEF08F04DEF08F06DEFE0
:1010980008F095EC30F00009D8B455EF08F057EF98
:1010A80008F05DEF08F0CBC0B9F0CCC0BAF05DEC49
:1010B80006F082EC30F00009D8B465EF08F067EF6D
:1010C80008F06DEF08F0CBC0A5F0CCC0A6F0A6ECF8
:1010D80016F00CEC31F00009D8B475EF08F077EF92
:1010E80008F095EF08F0CEEC22F0EEEC14F068EC86
:1010F80031F00009D8B483EF08F085EF08F087EFE6
:1011080008F0BAEC24F0A4EC30F00009D8B48FEF62
:1011180008F091EF08F093EF08F0B2EC09F0ABECAF
:101128000AF00BEC28F00A0E2EEC2FF035EF08F041
:101138009AEF00F05404D8A4A4EF08F0A6EF08F042
:10114800B3EF08F060BAABEF08F0ADEF08F0B3EF1B
:1011580008F0000E656E64806488020E546E65A403
:10116800B8EF08F0BAEF08F0C4EF08F064A4BFEFD6
:1011780008F0C1EF08F0C4EF08F0659414EC2EF005
:1011880060A2C9EF08F0CBEF08F0CEEF08F0A49406
:10119800B1EF09F065A0D3EF08F0D5EF08F0E2EF62
:1011A80008F064A0DAEF08F0DCEF08F0E2EF08F0EE
:1011B800C5EC11F0A384040E546E659065A8E7EFA2
:1011C80008F0E9EF08F0F2EF08F064A8EEEF08F095
:1011D800F0EF08F0F2EF08F046EC2FF065ACF7EF0F
:1011E80008F0F9EF08F024EF09F064ACFEEF08F01E
:1011F80000EF09F00EEF09F0000E0E6E730E0D6E83
:10120800000E0F6E000E106E000E126E010E116EA3
:1012180034EC24F0659CCBEC2EF04E50D8B417EF8C
:1012280009F019EF09F01AEF09F04E064E50D8A44C
:1012380020EF09F022EF09F024EF09F0C3EC19F0D0
:1012480065AA29EF09F02BEF09F034EF09F064AA39
:1012580030EF09F032EF09F034EF09F0D1EC29F062
:1012680065A239EF09F03BEF09F051EF09F064A2EC
:1012780040EF09F042EF09F051EF09F07F0E0E6ED2
:101288000D68000E0F6E000E106E000E126E010E2D
:10129800116E34EC24F0000E676E040E546057EFA4
:1012A80009F059EF09F05CEF09F0A494B1EF09F0E7
:1012B80064A661EF09F063EF09F0B0EF09F0000EE2
:1012C8001F6E65A66AEF09F06CEF09F0B0EF09F040
:1012D80061CF57F05730E832E8320F0B506E659601
:1012E80057B479EF09F07BEF09F085EF09F07E0E2E
:1012F8005024D96EDA6A000EDA220001DF708DEF11
:1013080009F0810E5024D96EDA6A000EDA22000143
:10131800DF705050D8A493EF09F095EF09F099EFDA
:1013280009F01AEC20F0A7EF09F0000E0E6E720E0D
:101338000D6E570E0F6E000E106E000E126E000E20
:10134800116E34EC24F01F2A030E1F64AEEF09F06F
:10135800B0EF09F065EF09F0A494120039EC26F01B
:101368009EC0B7F09FC0B8F0B7C0B2F08CEF0AF0DB
:10137800B851020DED0EF324D96E010EF420DA6E89
:10138800DECFB3F0DDCFB4F0B851020DED0EF3248B
:10139800D96E010EF420DA6EDECF9EF0DDCF9FF01D
:1013A800E3EC2BF000019E51B56FB3C02DF1B4C032
:1013B8002EF1B5C099F0010E986F010E9A6FAAEF41
:1013C8000AF0B8C0B6F0AA0EA26F010EA36FA90E5C
:1013D800A46F7F0EA56F30EC2AF0AE0E0001A96F46
:1013E800010EAA6FB651090FAB6F7CEC25F020EE09
:1013F80006F02E50D9262F50DA22DECFB0F0DDCFFE
:10140800B1F00001B651B027000EB123180EB02577
:10141800D96E000EB121DA6EDFA015EF0AF017EFD2
:101428000AF023EF0AF0AA0EAC6F010EAD6FC60EDC
:10143800AE6F7F0EAF6F46EC30F02DEF0AF0AA0EBC
:10144800AC6F010EAD6FC20EAE6F7F0EAF6F46EC84
:1014580030F0AA0E0001B36F010EB46FAA0E9E6F92
:10146800010E9F6FE3EC2BF000019E51B56FB3C0E6
:101478002DF1B4C02EF1DDEF09F0B8C0B6F0AA0E18
:10148800A26F010EA36FA40EA46F7F0EA56F30ECA0
:101498002AF0AE0E0001A96F010EAA6FB6C0ABF01C
:1014A8007CEC25F0AA0E0001AC6F010EAD6FA70E03
:1014B800AE6F7F0EAF6F46EC30F0B00E0001A96F33
:1014C800010EAA6FB651BAEC2BF00001AB6F7CECA1
:1014D80025F0AA0E0001AC6F010EAD6FAD0EAE6F18
:1014E8007D0EAF6F46EC30F0AA0E0001B36F010E0F
:1014F800B46FAA0E9E6F010E9F6FE3EC2BF00001F4
:101508009E51B56FB3C02DF1B4C02EF1DDEF09F0D7
:101518000001B251B06FB16BB151000AD8B497EF66
:101528000AF0AAEF0AF0B051000AD8B4AAEF0AF0FC
:10153800010AD8B4BCEF09F0030AD8B4E5EF09F002
:10154800010AD8B441EF0AF0AAEF0AF01200A394F6
:1015580000018A518B11D8B4B4EF0AF0B6EF0AF043
:10156800C4EF0AF08AC0D9FF8BC0DAFFDFAEBFEF45
:101578000AF0C1EF0AF0C4EF0AF0A38493EF0BF06E
:10158800030E9A19D8A4CBEF0AF0CDEF0AF0CFEFEB
:101598000AF0000E9A6F9A51D8A4D5EF0AF0D7EF47
:1015A8000AF0DAEF0AF0A38493EF0BF0020E9A190F
:1015B800D8A4E1EF0AF0E3EF0AF0F7EF0AF0010E22
:1015C8009E6F000E9F6F000EA06F000EA16F020E9F
:1015D8000DEC13F09EC08AF09FC08BF0030E000143
:1015E8009A6F92EF0BF09A05D8A4FDEF0AF0FFEF7F
:1015F8000AF092EF0BF0400E996505EF0BF007EF3C
:101608000BF00BEF0BF0400EAA6F0DEF0BF099C02B
:10161800AAF0AA51995D996F000E01012A6F050E73
:101628002B6FAAC0A9F000019851D8A41EEF0BF0A7
:1016380020EF0BF064EF0BF03EEF0BF02DC1F6FF3F
:101648002EC1F7FFF86A2AC1D9FF2BC1DAFF070EAE
:10165800F76403D00800F55005D0F6CFE9FFF7CFBF
:10166800EAFFEF50DF6E01012A4B2B2B2D4B2E2B5F
:101678000001A907A951D8A444EF0BF046EF0BF0DD
:1016880022EF0BF06CEF0BF02DC1F6FF2EC1F7FF28
:10169800F86A2AC1D9FF2BC1DAFF070EF76403D015
:1016A8000800F55005D0F6CFE9FFF7CFEAFFEF5075
:1016B800DF6E01012A4B2B2B2D4B2E2B0001A90786
:1016C800A951D8A46AEF0BF06CEF0BF048EF0BF0C0
:1016D8009951D8A472EF0BF074EF0BF083EF0BF075
:1016E800400EAA19D8A47BEF0BF07DEF0BF081EF29
:1016F8000BF0020E9A6F83EF0BF0030E9A6F010E38
:101708009E6F000E9F6F050EA06FAAC0A1F0020E7B
:101718000DEC13F09EC08AF09FC08BF0A3841200DA
:10172800000120EE02F0B351D926B451DA22DECFFF
:101738009EF0DDCF9FF0BA0EA06F010EA16F000ED4
:10174800A36F070EA26F200EA46F000EA56F75EC95
:101758000CF00001BA6F000EBC6F000EBB6FBBC06F
:10176800B5F0BCC0B6F0D890B537B637D890B53715
:10177800B637980EB525F66E790EB621F76E0900C4
:10178800F5CF9EF00A00F5CF9FF0BAC1A0F0BBC11B
:10179800A1F028EC1BF000019E519F11D8A4D7EFAF
:1017A8000BF0D9EF0BF064EF0CF02CEF0CF035ECEC
:1017B8002CF074EF0CF035EC2CF0010E0001BE6F2C
:1017C800010EBD6FBDC0A5F0BEC0A6F0020EA76F8A
:1017D8007EEC22F074EF0CF0000EBE6F010EBD6FB0
:1017E800BDC0A5F0BEC0A6F0010EA76F7EEC22F02A
:1017F80074EF0CF0B3C0A4F0B4C0A5F0BAC0A6F062
:10180800A76BBA0EA86F010EA96FFAEC02F074EF7D
:101818000CF0B3C0A2F0B4C0A3F0BAC0A4F0A56B9A
:10182800BA0EA66F010EA76F8FEC2DF00001B96FED
:10183800B951D8A422EF0CF024EF0CF026EF0CF0ED
:1018480074EF0CF0B9C0BEF0030EBD6FF4EF0BF0EF
:10185800BBC0B5F0BCC0B6F0D890B537B637D89095
:10186800B537B637020EB527000EB623980EB52544
:10187800F66E790EB621F76E0900F5CFB7F00900BC
:10188800F5CFB8F0B851000AD8B44DEF0CF074EFAA
:101898000CF0B751000AD8B4DBEF0BF0010AD8B44A
:1018A800DFEF0BF0030AD8B4F0EF0BF0010AD8B45D
:1018B800FEEF0BF0070AD8B40DEF0CF074EF0CF044
:1018C800BB4BBC2BBCBF72EF0CF0BC5109E1050E41
:1018D800BB5DD8A072EF0CF074EF0CF0B3EF0BF017
:1018E8001200000E0001AD6F000EAE6FA0C0D9FF50
:1018F800A1C0DAFF9EC0DEFF9FC0DDFFAE2B9EC0F9
:10190800D9FF9FC0DAFFDF50D8A48DEF0CF08FEF1E
:101918000CF09AEF0CF0A0C0D9FFA1C0DAFF000EBE
:10192800DE6E000EDD6E000E49EF0DF0000EAC6F9E
:101938001AEF0DF0A551D8B4A4EF0CF0A6EF0CF0F7
:10194800E5EF0CF09EC0D9FF9FC0DAFFA551DE1865
:10195800D8A4B1EF0CF0B3EF0CF0E5EF0CF0AD51FB
:10196800D8B4B9EF0CF0BBEF0CF0C5EF0CF09EC08B
:10197800D9FF9FC0DAFF000EDF6E000EAD6FE5EFF6
:101988000CF0010E9E25A66F000E9F21A76FAE5189
:10199800A86FA96BD890A837A937A0C0AAF0A1C092
:1019A800ABF0A851AA27A951AB23FE0EAA25D96EE0
:1019B800FF0EAB21DA6EA6C0DEFFA7C0DDFF010E69
:1019C800AD6F9EC0D9FF9FC0DAFFA451DE18D8A41E
:1019D800F0EF0CF0F2EF0CF018EF0DF0AD51D8A4C9
:1019E800F8EF0CF0FAEF0CF018EF0DF09EC0D9FFED
:1019F8009FC0DAFF000EDF6EAC2B010E9E25A66F8E
:101A0800000E9F21A76FAE51020DF3CFA8F0F4CFBF
:101A1800A9F0A851A025D96EA951A121DA6EA6C0B6
:101A2800DEFFA7C0DDFFAE2B9E4B9F2B9EC0D9FFCC
:101A38009FC0DAFFDF50D8B424EF0DF026EF0DF089
:101A480038EF0DF0AC51A66FA76BA251A65DA75158
:101A5800800AA86FA351800AA859D8A036EF0DF0C4
:101A680038EF0DF09EEF0CF0AE51020DF3CFA6F05B
:101A7800F4CFA7F0A651A025D96EA751A121DA6EFF
:101A8800000EDE6E000EDD6EAE511200000E060175
:101A9800A46F000E0001946F000E936F000E926FFA
:101AA800630E0601A56F060EA66FD6EF0DF070EC5B
:101AB80031F00601A96FB8EF0DF0630E0601A56FAE
:101AC800060EA66F010EA46FD6EF0DF0010E0601EB
:101AD800A46FA5C6D9FFA6C6DAFF000EDF6E630E97
:101AE80000019E6F060E9F6F3D0E5DEC2CF0060107
:101AF800A36FA351D8B483EF0DF085EF0DF054EF29
:101B08000DF0630EA325D96EDA6A060EDA22000EEE
:101B1800DF6E630E0001AC6F060EAD6F0601A351B8
:101B28000001B56FB66B010EB527000EB623630E24
:101B3800B525AE6F060EB621AF6F1CEC0EF054EF54
:101B48000DF0200E0601A965ACEF0DF0AEEF0DF01B
:101B5800D6EF0DF0A5C6D9FFA6C6DAFFA9C6DFFFE6
:101B6800A54BA62BD6EF0DF0A9510001B56FB66BAA
:101B7800B651000AD8B4C3EF0DF0A5EF0DF0B5517A
:101B8800000AD8B46AEF0DF0200AD8B46AEF0DF055
:101B9800060AD8B46AEF0DF0190AD8B461EF0DF04F
:101BA800A5EF0DF0B0EC31F00009D8A4DEEF0DF090
:101BB800E0EF0DF05BEF0DF00601A451D8B4E7EFAC
:101BC8000DF0E9EF0DF01AEF0EF08CEC31F09EC03D
:101BD800A7F69FC0A8F6060120EE60F0A751D92607
:101BE800A851DA22000194B103D00601DF9002D097
:101BF8000601DF8020EE60F0A751D926A851DA222D
:101C0800000193B103D00601DF9202D00601DF8202
:101C180020EE60F0A751D926A851DA22000194B12C
:101C280003D00601DF9402D00601DF84A45112001C
:101C38008CEC31F09EC0B3F09FC0B4F0000E0001F0
:101C4800B26FACC09EF0ADC09FF0B251020DCA0E8B
:101C5800F324D96E020EF420DA6EDECFA0F0DDCFC9
:101C6800A1F028EC1BF000019E519F11D8A43FEF72
:101C78000EF041EF0EF0E4EF0EF0AFEF0EF0B3C050
:101C8800A2F0B4C0A3F0AEC0A4F0AFC0A5F030EC91
:101C98002AF0EDEF0EF0200EB325A26F000EB4214E
:101CA800A36FAEC0A4F0AFC0A5F030EC2AF0EDEF02
:101CB8000EF0280EB325A26F000EB421A36FAEC09C
:101CC800A4F0AFC0A5F030EC2AF0EDEF0EF0300E26
:101CD800B325A26F000EB421A36FAEC0A4F0AFC0AD
:101CE800A5F030EC2AF0EDEF0EF0380EB325A26F18
:101CF800000EB421A36FAEC0A4F0AFC0A5F030ECC5
:101D08002AF0EDEF0EF0400EB325A26F000EB421BD
:101D1800A36FAEC0A4F0AFC0A5F030EC2AF0EDEF91
:101D28000EF0500EB325A26F000EB421A36FAEC003
:101D3800A4F0AFC0A5F030EC2AF0EDEF0EF0010EE4
:101D4800946FEDEF0EF0010E936FEDEF0EF0010EB4
:101D5800926FEDEF0EF0B251B06FB16BB151000A56
:101D6800D8B4B9EF0EF0E4EF0EF0B051000AD8B4D1
:101D780043EF0EF0010AD8B44FEF0EF0030AD8B4BF
:101D88005DEF0EF0010AD8B46BEF0EF0070AD8B475
:101D980079EF0EF0010AD8B487EF0EF0030AD8B431
:101DA80095EF0EF0010AD8B4A3EF0EF00F0AD8B4DD
:101DB800A7EF0EF0010AD8B4ABEF0EF0E4EF0EF087
:101DC800B22B090EB265EBEF0EF0EDEF0EF025EF3A
:101DD8000EF012009EC0A8F09FC0A9F00001A25109
:101DE800A311D8A4FAEF0EF0FCEF0EF0FEEF0EF000
:101DF800A9EF0FF0A8C0D9FFA9C0DAFFA0C0DFFF84
:101E0800A251A825A46FA351A921A56FFF0EA4254F
:101E1800D96EFF0EA521DA6EA0C0DFFFA35107E13E
:101E2800030EA25DD8B01BEF0FF01DEF0FF01FEFF0
:101E38000FF0A9EF0FF020EE01F0A851D926A95113
:101E4800DA22A0C0DFFF20EE02F0A851D926A9515E
:101E5800DA22A0C0DFFFA251A825A46FA351A921AF
:101E6800A56FFE0EA425D96EFF0EA521DA6EA0C0BF
:101E7800DFFFA251A825A46FA351A921A56FFD0ECC
:101E8800A425D96EFF0EA521DA6EA0C0DFFFA351ED
:101E980007E1070EA25DD8B054EF0FF056EF0FF030
:101EA80058EF0FF0A9EF0FF020EE03F0A851D92654
:101EB800A951DA22A0C0DFFFA251A825A46FA3511F
:101EC800A921A56FFC0EA425D96EFF0EA521DA6EF7
:101ED800A0C0DFFFA35107E1090EA25DD8B077EFDC
:101EE8000FF079EF0FF07BEF0FF0A9EF0FF0A8C01C
:101EF800A4F0A9C0A5F0A41FA51FA44BA52B030EF1
:101F0800A415A66FA76BA651A827A751A923A65168
:101F1800A25FA751A35BFC0EA217FF0EA317A0EFA9
:101F28000FF0A8C0D9FFA9C0DAFFA0C0DFFFA20741
:101F3800D8A0A307A84BA92BA251A311D8A4A7EFF7
:101F48000FF0A9EF0FF095EF0FF0120001C00BF0A2
:101F580002C00CF005500610D8A4B5EF0FF0B7EF8B
:101F68000FF0B9EF0FF064EF10F00BC0D9FF0CC001
:101F7800DAFF03C0DFFF05500B24076E06500C2064
:101F8800086EFF0E0724D96EFF0E0820DA6E03C014
:101F9800DFFF065007E1030E055CD8B0D6EF0FF05F
:101FA800D8EF0FF0DAEF0FF064EF10F020EE01F049
:101FB8000B50D9260C50DA2203C0DFFF20EE02F0C6
:101FC8000B50D9260C50DA2203C0DFFF05500B2432
:101FD800076E06500C20086EFE0E0724D96EFF0E01
:101FE8000820DA6E03C0DFFF05500B24076E065089
:101FF8000C20086EFD0E0724D96EFF0E0820DA6E3D
:1020080003C0DFFF065007E1070E055CD8B00FEFED
:1020180010F011EF10F013EF10F064EF10F020EE55
:1020280003F00B50D9260C50DA2203C0DFFF05500D
:102038000B24076E06500C20086EFC0E0724D96E80
:10204800FF0E0820DA6E03C0DFFF065007E1090E15
:10205800055CD8B032EF10F034EF10F036EF10F026
:1020680064EF10F00BC007F00CC008F0071E081E44
:10207800074A082A030E0714096E0A6A09500B2634
:102088000A500C220950055E0A50065AFC0E051625
:10209800FF0E06165BEF10F00BC0D9FF0CC0DAFF7D
:1020A80003C0DFFF0506D8A006060B4A0C2A055018
:1020B8000610D8A462EF10F064EF10F050EF10F0A3
:1020C8001200800E04013019D8A46DEF10F06FEFE4
:1020D80010F01EEF11F0C00E00016B6F04EF11F04D
:1020E8002D0E0001686F7A0E696F000E6D6F120E6B
:1020F8006C6F1EEF11F03251D8A485EF10F087EF06
:1021080010F0C8EF10F03251020DB40EF324F66E41
:10211800790EF420F76E0900F5CF68F00A00F5CFC4
:1021280069F0020E00016825016E000E6921026E39
:1021380001C0F6FF02C0F7FFF86A070EF76403D084
:102148000800F55005D0F6CFE9FFF7CFEAFFEF50CA
:1021580000016C6F030E6825016E000E6921026E86
:1021680001C0F6FF02C0F7FFF86A070EF76403D054
:102178000800F55005D0F6CFE9FFF7CFEAFFEF509A
:1021880000016D6F1EEF11F0000E00016B6F1EEF66
:1021980011F0040E3261D3EF10F0D5EF10F0FAEF22
:1021A80010F03251020DAC0EF324F66E790EF420C5
:1021B800F76E0900F5CF68F00A00F5CF69F068C03E
:1021C800F6FF69C0F7FFF86A070EF76403D0080046
:1021D800F55005D0F6CFE9FFF7CFEAFFEF50016ED3
:1021E800015000016C6F6D6B1EEF11F0000E0001C5
:1021F8006B6F1EEF11F0000E00016B6F1EEF11F0F8
:1022080004013351016E026A0250000AD8B40FEF7C
:1022180011F0FFEF10F00150010AD8B474EF10F07C
:10222800030AD8B47FEF10F0010AD8B4CDEF10F04C
:10223800FFEF10F01200A394000E676E000E656E9B
:10224800000E6A6E6B0E00019E6F0F0E9F6F000EE0
:10225800A16F000EA06F000EA36F020EA26FEEEC2E
:102268000EF0160E626E9F0E666E7B0E646E000E8A
:102278000001AA6FAA51040D000EF324D96E040EB2
:10228800F420DA6EDE6ADE6ADE6ADD6AAA2B0B0EDD
:10229800AA6551EF11F053EF11F03EEF11F0608C89
:1022A800000E636E6098609C6596000E6B6F000E62
:1022B800636F000E656F000E646F65B666EF11F010
:1022C80068EF11F058EF11F0010E4C6E010E4B6ED5
:1022D800000E4A6E000E496E000E9D6F000EAA6F2A
:1022E800AA51020D6E0EF324D96E000EF420DA6E98
:1022F800000EDE6E000EDD6EAA51020D740EF32480
:10230800D96E000EF420DA6E000EDE6E000EDD6E61
:10231800810EAA25D96EDA6A000EDA22000EDF6E67
:102328007E0EAA25D96EDA6A000EDA22000EDF6E5A
:10233800AA2B020EAA65A3EF11F0A5EF11F074EF16
:1023480011F0080E6E6F040E6F6F160E6A6E040E93
:102358000401036F300E026F080E016F040E006F48
:10236800008F000E586E000E00017A6F000E7B6F12
:10237800000E7C6F000E7D6F000E9C6F000E546E79
:102388001200A394000E676E000E656E000E6A6E52
:102398006B0E016E0F0E026E000E046E000E036EC1
:1023A800000E066E020E056EAAEC0FF0160E626E97
:1023B8009F0E666E7B0E646E000E0D6E0D50040D42
:1023C800000EF324D96E040EF420DA6EDE6ADE6A9B
:1023D800DE6ADD6A0D2A0B0E0D64F5EF11F0F7EFDA
:1023E80011F0E2EF11F0608C000E636E6098609C53
:1023F8006596000E00016B6F000E636F000E656F2F
:10240800000E646F65B60BEF12F00DEF12F0FCEFE3
:1024180011F0010E4C6E010E4B6E000E4A6E000E4E
:10242800496E000E9D6F000E0D6E0D50020D6E0E62
:10243800F324D96E000EF420DA6E000EDE6E000E64
:10244800DD6E0D50020D740EF324D96E000EF420CB
:10245800DA6E000EDE6E000EDD6E810E0D24D96E72
:10246800DA6A000EDA22000EDF6E7E0E0D24D96EB7
:10247800DA6A000EDA22000EDF6E0D2A020E0D64F3
:1024880048EF12F04AEF12F019EF12F0080E0001AF
:102498006E6F040E6F6F160E6A6E040E0401036FE2
:1024A800300E026F080E016F040E006F008F000ED1
:1024B800586E000E00017A6F000E7B6F000E7C6F65
:1024C800000E7D6F000E9C6F000E546E120020EE01
:1024D80001F03450D9263550DA22DF50026E02500E
:1024E8000001645D000E6559D8B07DEF12F07FEFF2
:1024F80012F081EF12F064C002F00250645F000E27
:10250800655B000E016E98EF12F0380E0124D96E4B
:10251800DA6A040EDA2260C0E1FF61C0E2FFDFCFB1
:10252800E7FF604B612B012A0250015CD8A09FEFA6
:1025380012F0A1EF12F089EF12F064516511D8B4CE
:10254800A8EF12F0AAEF12F0E3EF12F020EE01F07C
:102558003250D9263350DA22080EDF6E20EE02F010
:102568003250D9263350DA22380EDE6E040EDD6E74
:1025780034C0D9FF35C0DAFFDFBCC5EF12F0C7EFB2
:1025880012F0D5EF12F032C0D9FF33C0DAFF480E8F
:10259800DF6E32C0D9FF33C0DAFF000EDB8E0CEFDE
:1025A80013F032C0D9FF33C0DAFF080EDF6E32C035
:1025B800D9FF33C0DAFF000EDB8E0CEF13F020EEEC
:1025C80001F03250D9263350DA22080EDF6E20EEA1
:1025D80002F03250D9263350DA22300EDE6E040E65
:1025E800DD6E32C0D9FF33C0DAFF040EDF6E32C0B1
:1025F800D9FF33C0DAFF000EDB8E639F4D50D8A49D
:1026080008EF13F00AEF13F00CEF13F0C3EC19F016
:1026180012000001A66F00019E51D8B416EF13F006
:1026280018EF13F026EF13F0A651020D6E0EF324E7
:10263800D96E000EF420DA6EDECFA7F0DDCFA8F059
:1026480032EF13F0A651020D740EF324D96E000E6A
:10265800F420DA6EDECFA7F0DDCFA8F0A751A811DD
:10266800D8A439EF13F03BEF13F041EF13F0000E4D
:102678009E6F000E9F6FADEF13F020EE02F0A75192
:10268800D926A851DA229FC0DEFFA0C0DDFF20EEC8
:1026980001F0A751D926A851DA22A1C0DFFFA7C0AF
:1026A800D9FFA8C0DAFF400EDF16A7C0D9FFA8C01F
:1026B800DAFF000EDB86A7C0D9FFA8C0DAFF000E3C
:1026C800DB8E9E51D8B46BEF13F06DEF13F08CEFE7
:1026D80013F0A651020D6E0EF324D96E000EF420ED
:1026E800DA6EDECFA2F0DDCFA3F0040EA219A46F3C
:1026F800A351A56FA651020D6E0EF324D96E000EDC
:10270800F420DA6EA4C0DEFFA5C0DDFFA9EF13F048
:10271800A651020D740EF324D96E000EF420DA6E61
:10272800DECFA2F0DDCFA3F0040EA219A46FA3514F
:10273800A56FA651020D740EF324D96E000EF42075
:10274800DA6EA4C0DEFFA5C0DDFFA7C09EF0A8C05A
:102758009FF01200609800016BBFB5EF13F0B7EF60
:1027680013F0FCEF13F063AFBCEF13F0BEEF13F000
:10277800D0EF13F0020E526E4950D8A4C6EF13F0F2
:10278800C8EF13F0CAEF13F076EC20F0000E4B6E92
:10279800000E4C6E4EEF14F020EE01F03250D926A8
:1027A8003350DA22080EDF6E20EE02F03250D926BE
:1027B8003350DA22300EDE6E040EDD6E32C0D9FFE1
:1027C80033C0DAFF0C0EDF6E32C0D9FF33C0DAFF38
:1027D800000EDB8E6EC0D9FF6FC0DAFF040EDF6E0D
:1027E8006EC0D9FF6FC0DAFF000EDB8E4EEF14F01B
:1027F800040130AF02EF14F004EF14F020EF14F0EE
:10280800010E526E4A50D8A40CEF14F00EEF14F0DB
:1028180010EF14F076EC20F0000E4B6E000E4C6EAC
:102828004D50D8A41AEF14F01CEF14F04EEF14F02A
:10283800C3EC19F04EEF14F0020E526E20EE01F0C8
:102848003250D9263350DA22080EDF6E20EE02F01D
:102858003250D9263350DA22300EDE6E040EDD6E89
:1028680032C0D9FF33C0DAFF040EDF6E32C0D9FFA1
:1028780033C0DAFF000EDB8E000E4B6E000E4C6E7E
:102888004D50D8A44AEF14F04CEF14F04EEF14F06A
:102898001CEF14F01200096E0150D8B456EF14F072
:1028A80058EF14F066EF14F00950020D6E0EF32481
:1028B800D96E000EF420DA6EDECF0AF0DDCF0BF011
:1028C80072EF14F00950020D740EF324D96E000E45
:1028D800F420DA6EDECF0AF0DDCF0BF00A500B10D1
:1028E800D8A479EF14F07BEF14F081EF14F0000E08
:1028F800016E000E026EEDEF14F020EE02F00A50A9
:10290800D9260B50DA2202C0DEFF03C0DDFF20EE1D
:1029180001F00A50D9260B50DA2204C0DFFF0AC0A2
:10292800D9FF0BC0DAFF400EDF160AC0D9FF0BC073
:10293800DAFF000EDB860AC0D9FF0BC0DAFF000EF3
:10294800DB8E0150D8B4ABEF14F0ADEF14F0CCEF40
:1029580014F00950020D6E0EF324D96E000EF42007
:10296800DA6EDECF05F0DDCF06F0040E0518076E2F
:102978000650086E0950020D6E0EF324D96E000E33
:10298800F420DA6E07C0DEFF08C0DDFFE9EF14F0BF
:102998000950020D740EF324D96E000EF420DA6E7D
:1029A800DECF05F0DDCF06F0040E0518076E0650E1
:1029B800086E0950020D740EF324D96E000EF4202F
:1029C800DA6E07C0DEFF08C0DDFF0AC001F00BC0E9
:1029D80002F01200C80E0001C26F010EC36F6EEF45
:1029E80015F05A0E9E6F020E9F6F78EC24F00001CE
:1029F800C16FC151D8A403EF15F005EF15F007EF2B
:102A080015F087EF15F020EE04F0C251D926C35116
:102A1800DA22010EDE6E000EDD6E84C0D9FF85C09D
:102A2800DAFFC1C0DFFF844B852BC2C0D9FFC3C00A
:102A3800DAFF010EDF6E87EF15F05A0E9E6F020E59
:102A48009F6F78EC24F00001C16FC151D8A42FEF1B
:102A580015F031EF15F033EF15F087EF15F00A0E8A
:102A6800C119D8A43AEF15F03CEF15F05BEF15F05B
:102A7800C2C0D9FFC3C0DAFF000EDF6E84C0D9FF21
:102A880085C0DAFF000EDF6EC2C0B3F0C3C0B4F079
:102A980094EC0BF0000120EE02F0C251D926C3518C
:102AA800DA22DECF84F0DDCF85F087EF15F084C021
:102AB800D9FF85C0DAFFC1C0DFFF844B852B20EE2C
:102AC80004F0C251D926C351DA22DE2A000EDD22D3
:102AD80087EF15F0C2C0D9FFC3C0DAFFDF50BF6F60
:102AE800C06BC051000AD8B47CEF15F087EF15F021
:102AF800BF51000AD8B4F5EF14F0010AD8B421EF99
:102B080015F087EF15F0120004013039E832030B95
:102B18000009D8B492EF15F094EF15F0E1EF15F035
:102B28001AEF16F000016B8F080E546E1AEF16F0AC
:102B380065EC10F01AEF16F0B3EC1AF01AEF16F075
:102B4800580E0001686F000E696F6B81010E6C6F83
:102B58006B8F1AEF16F0B8EC17F01AEF16F0AFEC0F
:102B680004F01AEF16F0550E34250001686F696BF2
:102B7800000E69236B81010E6C6F6B8F1AEF16F0D4
:102B880000016B8F550E04013425D96EDA6A000EE8
:102B9800DA2232C4DFFF1AEF16F0000E0E6E020EB4
:102BA8000D6E000E0F6E000E106E000E126E000EEF
:102BB800116E34EC24F01AEF16F031511C6E1D6AB8
:102BC8001D50000AD8B4EBEF15F01AEF16F01C50A0
:102BD800000AD8B4AFEF15F0010AD8B4B3EF15F076
:102BE800020AD8B4B3EF15F0060AD8B496EF15F078
:102BF800030AD8B49CEF15F0010AD8B4D1EF15F048
:102C08000F0AD8B4A4EF15F0010AD8B4A0EF15F054
:102C1800030AD8B4B7EF15F0010AD8B4C4EF15F019
:102C2800070AD8B41AEF16F01AEF16F012001A0EA7
:102C3800F66E520EF76E000EF86E06EE00F010EE0D
:102C480063F00900F5CFEEFFE550E150FAE1840E9C
:102C5800F66E620EF76E000EF86E02EECAF010EE17
:102C680014F00900F5CFEEFFE550E150FAE1700EDF
:102C7800F66E620EF76E000EF86E01EEDFF010EEE3
:102C880014F00900F5CFEEFFE550E150FAE1D00E5F
:102C9800F66E560EF76E000EF86E04EE9AF010EE11
:102CA80052F00900F5CFEEFFE550E150FAE1AA0E27
:102CB800F66E630EF76E000EF86E00EECEF010EEB4
:102CC80004F00900F5CFEEFFE550E150FAE106EE19
:102CD800AAF011EE03F0EE6AE550E150FCE1E25093
:102CE800FAE103EE00F0E30EEE6AE806FDE102EE1B
:102CF80000F0CA0EEE6AE806FDE101EE00F0DF0E14
:102D0800EE6AE806FDE104EE40F05A0EEE6AE806C7
:102D1800FDE100EE60F03E0EEE6AE806FDE105EE2C
:102D280080F0400EEE6AE806FDE100EE2EF02B0E74
:102D3800EE6AE806FDE159905992000EF86E00011E
:102D480085EF07F09D0E0001AB6F020EAC6F050E0C
:102D5800AB27000EAC23ABC09FF0ACC0A0F0000EB8
:102D6800A26F280EA16F0A0EA36F60EC27F0000176
:102D7800AD6FAD51D8A4C3EF16F0C5EF16F0C7EF8D
:102D880016F02FEF17F0C4C2AAF086EC31F09EC0FF
:102D9800AEF09FC0AFF0000E0001B06F24EF17F047
:102DA800B051AE25A76F000EAF21A86F1D0EA72545
:102DB800D96E000EA821DA6EDFB0E5EF16F0E9EF64
:102DC80016F0A96BA92BEBEF16F00001A96BC50E45
:102DD800B025D96EDA6A020EDA22DF50010BA91982
:102DE800D8B4F9EF16F0FBEF16F023EF17F0C50E85
:102DF800B025D96EDA6A020EDA22DF50A76F010E0B
:102E0800A717B051AE25A86F000EAF21A96F1D0EF0
:102E1800A825D96E000EA921DA6EDF50A719FE0B7E
:102E2800A719DF6EB051AE25A76F000EAF21A86FAE
:102E38001D0EA725D96E000EA821DA6EDF82B02BF1
:102E4800AA51B05DD8A02BEF17F02DEF17F0D4EFF3
:102E580016F0000E916F1200080E016E00016D5100
:102E680007E1080E6C5DD8B03CEF17F03EEF17F0A5
:102E780056EF17F06CC001F05350D8A446EF17F086
:102E880048EF17F04CEF17F0010E536E56EF17F09E
:102E98005304D8A452EF17F054EF17F056EF17F079
:102EA800020E536E01506C5F000E6D5B20EE01F058
:102EB8006E51D9266F51DA2201C0DFFF380E8E6FAE
:102EC800040E8F6F6BB16BEF17F06DEF17F0AFEF6C
:102ED80017F08AEF17F068C0F6FF69C0F7FFF86AC5
:102EE8008EC0D9FF8FC0DAFF070EF76403D0080041
:102EF800F55005D0F6CFE9FFF7CFEAFFEF50DF6EC8
:102F08000001684B692B8E4B8F2B01060150D8A40A
:102F180090EF17F092EF17F06FEF17F0B7EF17F089
:102F280068C0F6FF69C0F7FFF86A8EC0D9FF8FC086
:102F3800DAFF070EF76403D00800F55005D0F6CF86
:102F4800E9FFF7CFEAFFEF50DF6E0001684B692B0E
:102F58008E4B8F2B01060150D8A4B5EF17F0B7EFB1
:102F680017F094EF17F01200000E0401386F000EEE
:102F7800396F15EF18F000016B8F5104D8A4C7EF13
:102F880017F0C9EF17F02FEF18F0040138832FEF6F
:102F980018F000016B8F2FEF18F000016B8F040100
:102FA80034BFD9EF17F0DBEF17F0ECEF17F034511F
:102FB8000F0B016E0150020D740EF324D96E000E32
:102FC800F420DA6EDECF03F0DDCF04F0FBEF17F06C
:102FD80034510F0B016E0150020D6E0EF324D96EA1
:102FE800000EF420DA6EDECF03F0DDCF04F003C06C
:102FF800D9FF04C0DAFFDFAE04EF18F006EF18F0CF
:103008002FEF18F003C0D9FF04C0DAFFDFA40FEFD9
:1030180018F011EF18F02FEF18F0010E386F2FEF9E
:1030280018F030511F0B016E026A0250000AD8B422
:1030380020EF18F02FEF18F00150000AD8B4BFEFB6
:1030480017F0010AD8B4CDEF17F0030AD8B4D1EFBE
:1030580017F02FEF18F000016BAF35EF18F037EFCE
:1030680018F03EEF18F0380E686F040E696F6B8128
:10307800020E6C6F1200040130511F0BE806D8B421
:1030880048EF18F04AEF18F04CEF18F0C4EF18F0BA
:103098003039E832030BE806D8B455EF18F057EF8B
:1030A80018F059EF18F0C4EF18F03451D8B45FEFA6
:1030B80018F061EF18F0A3EF18F03405D8B467EFF3
:1030C80018F069EF18F0A3EF18F0C4EF18F0D00E5D
:1030D8000001686F010E696F000E6D6F080E6C6F4E
:1030E8006B816B8FC4EF18F0D00E0001686F010E72
:1030F800696F6B8FC4EF18F036C464F037C465F09D
:10310800D80E0001606F010E616F000E666F000E31
:10311800676F638FC4EF18F0D80E0001686F010E57
:10312800696F000E6D6F070E6C6FC10E6B6FC4EF89
:1031380018F032C448F000016B8FC4EF18F0315119
:10314800016E026A0250000AD8B4ADEF18F0C4EF5D
:1031580018F00150000AD8B46BEF18F0010AD8B47F
:1031680078EF18F0210AD8B480EF18F0010AD8B423
:1031780090EF18F0030AD8B49DEF18F0C4EF18F0D8
:1031880012006EC0D9FF6FC0DAFF0001000EDFBC6D
:10319800010E026E040E6E196E6F6F516F6F080E7E
:1031A8005418D8A4DAEF18F0DCEF18F0EEEF18F0A6
:1031B800040132517F0B636E6350D8B4E6EF18F008
:1031C800E8EF18F0ECEF18F0100E546EEEEF18F070
:1031D800040E546E5204D8A4F4EF18F0F6EF18F069
:1031E8003EEF19F0000120EE02F06E51D9266F5122
:1031F800DA22380EDE6E040EDD6E30EC17F0020EA9
:103208005318D8A40AEF19F00CEF19F01AEF19F0B7
:103218006EC0D9FF6FC0DAFF040EDF6E6EC0D9FF33
:103228006FC0DAFF000EDB8E49EF19F00250D8A408
:1032380020EF19F022EF19F030EF19F06EC0D9FF26
:103248006FC0DAFF480EDF6E6EC0D9FF6FC0DAFFBD
:10325800000EDB8E49EF19F06EC0D9FF6FC0DAFFA0
:10326800080EDF6E6EC0D9FF6FC0DAFF000EDB8E6E
:1032780049EF19F0000163AF44EF19F046EF19F078
:1032880047EF19F0639F000E526E1200850E000181
:10329800A16F7E0EA26F020EA36FFBEC2CF0FC0E4A
:1032A8000001AF6F7F0EB06F020EB16FFAEC25F020
:1032B8003B6E3B50D8A463EF19F065EF19F068EF47
:1032C80019F0000EC2EF19F0F90E0001A16F7D0E82
:1032D800A26F020EA36FFBEC2CF0B3C0A1F0B4C038
:1032E800A2F0020E0001A36FFBEC2CF0F90E000116
:1032F800A16F7F0EA26F020EA36FFBEC2CF0B5C07E
:10330800A1F0B6C0A2F0020E0001A36FFBEC2CF0F6
:10331800FA0E0001A16F7F0EA26F020EA36FFBECE5
:103328002CF0B7C0A1F0B8C0A2F0020E0001A36F44
:10333800FBEC2CF0FA0E0001A16F7F0EA26F020EBB
:10334800A36FFBEC2CF06F0E0001A16F7D0EA26F36
:10335800020EA36FFBEC2CF0AA0E00019E6F060E66
:103368009F6F16EC2FF0FC0E0001AF6F7F0EB06F51
:10337800020EB16FFAEC25F03B6E3B5012004C5038
:10338800D8A4C9EF19F0CBEF19F03BEF1AF0010EF2
:103398004C6E4B50D8A4D3EF19F0D5EF19F03BEF92
:1033A8001AF0010E4B6E020E5218D8A4DEEF19F077
:1033B800E0EF19F0F7EF19F0000120EE01F06E517F
:1033C800D9266F51DA22000EDF6E6EC0D9FF6FC0AA
:1033D800DAFF480EDF6E6EC0D9FF6FC0DAFF000E4D
:1033E800DB8E3BEF1AF05204D8A4FDEF19F0FFEF83
:1033F80019F03BEF1AF0000E4F6E20EE01F034503A
:10340800D9263550DA22080EDF6E20EE02F034504D
:10341800D9263550DA22300EDE6E040EDD6E34C049
:10342800D9FF35C0DAFF040EDF6E34C0D9FF35C0CE
:10343800DAFF000EDB8E010E4F6E20EE01F03250E7
:10344800D9263350DA22080EDF6E20EE02F0325011
:10345800D9263350DA22300EDE6E040EDD6E32C00D
:10346800D9FF33C0DAFF800EDF6E3BEF1AF012008F
:10347800A4C09EF0A5C09FF0E3EC2BF000019E5184
:10348800AE6F20EE02F0A251D926A351DA22AE5136
:10349800DE5CD8B052EF1AF054EF1AF057EF1AF07A
:1034A800000EB2EF1AF0A2C0D9FFA3C0DAFFDF50B6
:1034B800A66FA76BAE51A65F000EA75BFF0EA625F1
:1034C800AC6FFF0EA721AD6FADBF6FEF1AF06DEFB8
:1034D8001AF071EF1AF0010EAD27000EAB6F000E57
:1034E800AA6F9FEF1AF0AC51A225A66FAD51A32188
:1034F800A76F030EA625D96E000EA721DA6EDF503E
:10350800A96FAC4BAD2BAA51A425A66FAB51A52131
:10351800A76FA6C0F6FFA7C0F7FF0800F550A919C6
:10352800D8B499EF1AF09BEF1AF09DEF1AF054EF08
:103538001AF0AA4BAB2BAE51A66FA76BA651AA5D8A
:10354800AB51800AA86FA751800AA859D8A0AFEF3D
:103558001AF0B1EF1AF077EF1AF0010E120000011D
:103568006B8F6B0E016E0F0E026E000E046E000E56
:10357800036E000E066E020E056EAAEC0FF0000E2A
:10358800016E040E026E000E046E000E036E000E35
:10359800066E300E056EAAEC0FF0608C000E156EEC
:1035A800810E1524D96EDA6A000EDA22000EDF6E5B
:1035B8007E0E1524D96EDA6A000EDA22000EDF6E4E
:1035C800152A020E1564EBEF1AF0EDEF1AF0D4EF9E
:1035D8001AF0550E016E000E026E000E046E000EFB
:1035E800036E000E066E020E056EAAEC0FF0609CCC
:1035F800080E00016E6F040E6F6F000E346E040E1D
:10360800356E34C032F035C033F032C458F05850FB
:10361800D8A411EF1BF013EF1BF017EF1BF0100EDF
:10362800546E27EF1BF0000E0E6E010E0D6E580E35
:103638000F6E000E106E000E126E010E116E34EC3D
:1036480024F0200E546E12002FEF1BF000019E4B49
:103658009F2BA04BA12BA0C0F6FFA1C0F7FFF86AD3
:10366800070EF76403D00800F55005D0F6CFE9FF40
:10367800F7CFEAFFEF500001A26F9EC0F6FF9FC090
:10368800F7FFF86A070EF76403D00800F55005D075
:10369800F6CFE9FFF7CFEAFFEF50A219D8A457EF0A
:1036A8001BF059EF1BF071EF1BF09EC0F6FF9FC097
:1036B800F7FFF86A070EF76403D00800F55005D045
:1036C800F6CFE9FFF7CFEAFFEF500009D8A46FEF74
:1036D8001BF071EF1BF02AEF1BF09EC0F6FF9FC096
:1036E800F7FFF86A070EF76403D00800F55005D015
:1036F800F6CFE9FFF7CFEAFFEF500001A26FA0C0B5
:10370800F6FFA1C0F7FFF86A070EF76403D00800B8
:10371800F55005D0F6CFE9FFF7CFEAFFEF500001EB
:10372800A36FA351A25D9E6F9F6BD8A09F07120045
:10373800430E0001A16F7E0EA26F020EA36FFBEC79
:103748002CF0FC0E0001AF6F7F0EB06F020EB16F50
:10375800FAEC25F03B6E920E0001A16F7D0EA26F70
:10376800020EA36FFBEC2CF0FC0E0001AF6F7F0E76
:10377800B06F020EB16FFAEC25F03B6EDE0E000161
:10378800A16F7E0EA26F020EA36FFBEC2CF0B3C0EC
:10379800A1F0B4C0A2F0020E0001A36FFBEC2CF064
:1037A800090E0001A16F7E0EA26F020EA36FFBEC43
:1037B8002CF0B5C0A1F0B6C0A2F0020E0001A36FB4
:1037C800FBEC2CF0AB0E0001A16F7D0EA26F020E78
:1037D800A36FFBEC2CF0AA0E00019E6F060E9F6FE4
:1037E80016EC2FF0FC0E0001AF6F7F0EB06F020ECB
:1037F800B16FFAEC25F03B6E850E0001AF6F7F0EBE
:10380800B06F020EB16FFAEC25F03B6E3B50120020
:10381800000E0001A16FA1519E6F9F6B180E9E278D
:10382800000E9F23350E9E25F66E790E9F21F76EAA
:10383800A00EA125D96EDA6A010EDA220800F5CFAA
:10384800DFFFA12B040EA1652CEF1CF02EEF1CF05E
:103858000FEF1CF0000EA16FA1519E6F9F6B1D0E04
:103868009E27000E9F23350E9E25F66E790E9F210A
:10387800F76EA50EA125D96EDA6A010EDA220800C4
:10388800F5CFDFFFA12B040EA1654DEF1CF04FEF24
:103898001CF030EF1CF0000EA16FA151030D350E86
:1038A800F324F66E790EF420F76E0900F5CF9EF03A
:1038B8000900F5CF9FF00900F5CFA0F0A151030D45
:1038C800880EF324D96E010EF420DA6E9EC0DEFF56
:1038D8009FC0DEFFA0C0DEFFA12B070EA16577EF1A
:1038E8001CF079EF1CF051EF1CF01200AA0E000139
:1038F8009E6F060E9F6F16EC2FF0010E3B6E550E55
:103908000001A16F7E0EA26F020EA36FFBEC2CF0DC
:10391800FC0E0001AF6F7F0EB06F020EB16FFAECB4
:1039280025F03B6E3B50D8B49CEF1CF09EEF1CF08A
:10393800B1EF1CF04C0E0001A16F7D0EA26F020EBC
:10394800A36FFBEC2CF0FC0E0001AF6F7F0EB06F85
:10395800020EB16FFAEC25F03B6E3B50D8B4B7EFCE
:103968001CF0B9EF1CF0CCEF1CF0930E0001A16F16
:103978007E0EA26F020EA36FFBEC2CF0FC0E000172
:10398800AF6F7F0EB06F020EB16FFAEC25F03B6E91
:103998003B50D8B4D2EF1CF0D4EF1CF0E7EF1CF08A
:1039A800E50E0001A16F7D0EA26F020EA36FFBEC66
:1039B8002CF0FC0E0001AF6F7F0EB06F020EB16FDE
:1039C800FAEC25F03B6E12000001A16F32EF1DF0FA
:1039D8009E51D8B4F2EF1CF0F4EF1CF0F7EF1CF096
:1039E8008A8054EF1DF08A9054EF1DF09E51D8B490
:1039F80000EF1DF002EF1DF005EF1DF08A8254EF75
:103A08001DF08A9254EF1DF09E51D8B40EEF1DF0B0
:103A180010EF1DF013EF1DF08A8454EF1DF08A9407
:103A280054EF1DF09E51D8B41CEF1DF01EEF1DF091
:103A380021EF1DF08A8654EF1DF08A9654EF1DF091
:103A48009E51D8B42AEF1DF02CEF1DF02FEF1DF07A
:103A58008A8854EF1DF08A9854EF1DF00001A15197
:103A68009F6FA06BA051000AD8B43DEF1DF054EF32
:103A78001DF09F51000AD8B4ECEF1CF0010AD8B42D
:103A8800FAEF1CF0030AD8B408EF1DF0010AD8B405
:103A980016EF1DF0070AD8B424EF1DF054EF1DF0FF
:103AA80012000001A26F9AEF1DF080A05EEF1DF0DA
:103AB80061EF1DF0010E62EF1DF0000E9E6F9F6B0F
:103AC800C0EF1DF080A26BEF1DF06EEF1DF0010E30
:103AD8006FEF1DF0000E9E6F9F6BC0EF1DF080A46E
:103AE80078EF1DF07BEF1DF0010E7CEF1DF0000E4E
:103AF8009E6F9F6BC0EF1DF080A685EF1DF088EFCD
:103B08001DF0010E89EF1DF0000E9E6F9F6BC0EF38
:103B18001DF080A892EF1DF095EF1DF0010E96EFB5
:103B28001DF0000E9E6F9F6BC0EF1DF00001A251AB
:103B3800A06FA16BA151000AD8B4A5EF1DF0BCEF8E
:103B48001DF0A051000AD8B459EF1DF0010AD8B4ED
:103B580066EF1DF0030AD8B473EF1DF0010AD8B45C
:103B680080EF1DF0070AD8B48DEF1DF0BCEF1DF0F3
:103B7800000E9F6F000E9E6F12003950D8A4C7EF39
:103B88001DF0C9EF1DF0CBEF1DF02AEF1EF0DF0E80
:103B98003824D96EDA6A010EDA22DF5055EC2EF09D
:103BA8009EC0A9F09FC0AAF03850030DA3C0A5F08D
:103BB800A4C0A6F0F3500001A527F450A623010ED7
:103BC800A525D96E000EA621DA6EA9C0DEFFAAC00F
:103BD800DDFF3850030DA3C0A5F0A4C0A6F0F35034
:103BE800A527F450A623010EA525D96E000EA621FF
:103BF800DA6EA951DE1809E1AA51DE18D8B407EF28
:103C08001EF009EF1EF018EF1EF03850030DF3CF29
:103C1800A5F0F4CFA6F0A551A325D96EA651A421ED
:103C2800DA6EDF8025EF1EF03850030DF3CFA5F0D4
:103C3800F4CFA6F0A551A325D96EA651A421DA6E1A
:103C4800DF903828070B386EC1EC30F01200000EF8
:103C58000001AA6F000EAB6F000EAC6F000EAD6FC7
:103C68007DEF1EF0AAC0A2F0ABC0A3F0ACC0A4F0D8
:103C7800ADC0A5F0030ED890A237A337A437A53757
:103C8800E82E3FEF1EF0A2C0A6F0A3C0A7F0A4C084
:103C9800A8F0A5C0A9F0D890AA35A26FAB35A36F3C
:103CA800AC35A46FAD35A56FA251A627A351A723A4
:103CB800A451A823A551A923D00EA26FFF0EA36F6C
:103CC8009EC0D9FF9FC0DAFFDF50A46FA56BA25139
:103CD800A427A351A523A451A625AA6FA551A721BE
:103CE800AB6F000EA821AC6F000EA921AD6F9E4BE3
:103CF8009F2B9EC0D9FF9FC0DAFFDF50D8A487EF63
:103D08001EF089EF1EF036EF1EF0AAC09EF0ABC081
:103D18009FF0ACC0A0F0ADC0A1F01200000E0001F1
:103D2800A46FA45155EC1DF0010E00019E17A00EC2
:103D3800A425D96EDA6A010EDA22DF509E19FE0B2D
:103D48009E19DF6EA00EA425D96EDA6A010EDA225A
:103D58000101DFB0B2EF1EF0B5EF1EF0010EB6EFB5
:103D68001EF0000E0001A36FA00EA425D96EDA6A1A
:103D7800010EDA220101DFB2C4EF1EF0C7EF1EF018
:103D8800010EC8EF1EF0000E0001A31BD8B4CFEF40
:103D98001EF0D1EF1EF0EDEF1EF0A00EA425D96E97
:103DA800DA6A010EDA220101DF84A00E0001A425DF
:103DB800D96EDA6A010EDA22A00EA425E16EE26A53
:103DC800010EE2220101DFB002D0E79202D0010128
:103DD800E7820001A42B040EA465F5EF1EF0F7EFAF
:103DE8001EF095EF1EF01200000E0001A36FA1BF98
:103DF80002EF1FF000EF1FF008EF1FF0A06DA11FEA
:103E0800D8B0A12B010EA36F9FBF0FEF1FF00DEFCE
:103E18001FF015EF1FF09E6D9F1FD8B09F2B010E4E
:103E2800A31B000EA56F000EA46FA051A111D8B45A
:103E380020EF1FF022EF1FF04AEF1FF0010EA26FD4
:103E48002AEF1FF0D890A037A137A22BA1AF2FEFF0
:103E58001FF031EF1FF026EF1FF0D890A437A537D9
:103E6800A0519E5DA1519F59D8A03DEF1FF03FEF93
:103E78001FF044EF1FF0A0519E5FA1519F5BA481EA
:103E8800D890A133A033A22F31EF1FF0A351D8B49B
:103E980050EF1FF052EF1FF056EF1FF0A46DA51F53
:103EA800D8B0A52BA4C09EF0A5C09FF01200000EAC
:103EB8004724D96EDA6A020EDA22000EDF6EABA44E
:103EC80068EF1FF06AEF1FF080EF1FF0000E472425
:103ED800D96EDA6A020EDA220201DF8202D880EF96
:103EE8001FF005000101FA6E3E51FD6E3F51FE6E56
:103EF800F850FF6EFA501200ABA285EF1FF087EF63
:103F08001FF09DEF1FF0000E4724D96EDA6A020EEB
:103F1800DA220201DF8402D89DEF1FF005000101BB
:103F2800FA6E3C51FD6E3D51FE6EF850FF6EFA5030
:103F38001200000E4724D96EDA6A020EDA22DF5028
:103F4800D8B4A9EF1FF0ABEF1FF0BBEF1FF002D8FA
:103F5800B9EF1FF005000101FA6E3A51FD6E3B51B1
:103F6800FE6EF850FF6EFA501200BDEF1FF01DEC08
:103F780030F01200000E00019B6F8C518D11D8B4E7
:103F8800C8EF1FF0CAEF1FF0D5EF1FF08CC0D9FFA4
:103F98008DC0DAFFDFBED3EF1FF0D5EF1FF017EFAC
:103FA80020F020EE01F08C51D9268D51DA22AB5148
:103FB800DE5CD8B0E2EF1FF0E4EF1FF0ECEF1FF08B
:103FC80020EE01F08C51D9268D51DA22DF50AB6FEB
:103FD800000E9B6FFFEF1FF0400E9B25D96EDA6A2B
:103FE800050EDA229B51A925E16E000EAA21E26E88
:103FF800DFCFE7FF9B2BAB519B5DD8A006EF20F0EE
:1040080008EF20F0F0EF1FF0000E9E6F400E9F6F3C
:10401800050EA06F400EA16F020E0DEC13F09EC0AE
:104028008CF09FC08DF000019B5112002D0E4E6E3A
:1040380057C01EF0FD0E1E16D8A425EF20F027EF5E
:1040480020F069EF20F057C01EF0D8901E323F0EC6
:104058001E161E50040D000EF324346E040EF420B8
:10406800356E34C032F035C033F0040E3218326E7B
:104078003350336E34C0D9FF35C0DAFFDF30E83251
:104088000F0B0D0AD8A44BEF20F04DEF20F065EF91
:1040980020F0300E016E040E026E20EE02F0345055
:1040A800D9263550DA22DECF03F0DDCF04F0000E3A
:1040B800066E080E056E85EC2CF061EC23F075EFAA
:1040C80020F026EC27F075EF20F05750FD0B040A7E
:1040D800D8A471EF20F073EF20F075EF20F0C5EC55
:1040E80018F01200000E4A6E000E496E020E5218A9
:1040F800D8A481EF20F083EF20F0A3EF20F020EE8A
:1041080001F03250D9263350DA22080EDF6E20EE45
:1041180002F03250D9263350DA22380EDE6E040E01
:10412800DD6E32C0D9FF33C0DAFF480EDF6E32C011
:10413800D9FF33C0DAFF000EDB8ECFEF20F000018D
:104148006C510401365D00016D5104013759D8B036
:10415800B0EF20F0B2EF20F0B6EF20F036C46CF0EC
:1041680037C46DF030EC17F0000120EE02F06E510C
:10417800D9266F51DA22380EDE6E040EDD6E6EC05F
:10418800D9FF6FC0DAFF480EDF6E6EC0D9FF6FC06F
:10419800DAFF000EDB8E1200000E0001A36F9FBF36
:1041A800DAEF20F0D8EF20F0E0EF20F09E6D9F1FAF
:1041B800D8B09F2B010EA36FA1BFE7EF20F0E5EF6A
:1041C80020F0EBEF20F0A06DA11FD8B0A12BA051DB
:1041D800A111D8B4F2EF20F0F4EF20F018EF21F09D
:1041E800010EA26FFCEF20F0D890A037A137A22BC8
:1041F800A1AF01EF21F003EF21F0F8EF20F0A0517B
:104208009E5DA1519F59D8A00CEF21F00EEF21F02F
:1042180012EF21F0A0519E5FA1519F5BD890A1336E
:10422800A033A22F03EF21F0A351D8B41EEF21F041
:1042380020EF21F024EF21F09E6D9F1FD8B09F2B17
:104248009EC09EF09FC09FF012004450D8B42FEF3C
:1042580021F031EF21F080EF21F04DEF21F0410402
:10426800D8A439EF21F03CEF21F0010E3DEF21F009
:10427800000E416E66EF21F04250D8B446EF21F0AF
:1042880049EF21F0010E4AEF21F0000E426E66EF71
:1042980021F04350016E026A0250000AD8B457EF69
:1042A80021F080EF21F00150020AD8B433EF21F059
:1042B800060AD8B433EF21F0010AD8B440EF21F050
:1042C80080EF21F04150D8A46CEF21F06EEF21F07F
:1042D80072EF21F0B8EC31F080EF21F04250D8A411
:1042E80078EF21F07AEF21F07EEF21F0C9EC31F080
:1042F80080EF21F0C6EC31F012000001A06FA0C0E1
:1043080043F0B1EF21F0B4EC31F0000E446E000E32
:10431800416ED7EF21F0C3EC31F0000E446E000E71
:10432800426E010E416ED7EF21F0C3EC31F0010E61
:10433800446E93EF21F0C0EC31F0000E446E010E94
:10434800426E95EF21F0C0EC31F0010E446EA3EF00
:1043580021F0B4EC31F09BEF21F00001A0519E6FE9
:104368009F6B9F51000AD8B4BCEF21F0D7EF21F022
:104378009E51000AD8B487EF21F0010AD8B48FEF14
:1043880021F0030AD8B499EF21F0010AD8B49FEFBD
:1043980021F0070AD8B4A7EF21F0010AD8B4ADEF8D
:1043A80021F0D7EF21F01200066E000E076E040E02
:1043B800086E0150026E036AD89002360336065022
:1043C800046E056AD89004360536D890043605364A
:1043D8000250042603500522D89004360536D8909A
:1043E80004360536045007260550082207C0D9FFB1
:1043F80008C0DAFFDF9E0150D8A405EF22F007EFCE
:1044080022F015EF22F00650020D740EF324D96E37
:10441800000EF420DA6E07C0DEFF08C0DDFF21EFD2
:1044280022F00650020D6E0EF324D96E000EF42011
:10443800DA6E07C0DEFF08C0DDFF07C0D9FF08C07D
:10444800DAFFDF9C20EE04F00750D9260850DA2264
:10445800DF8C1200630E0001AC6F000EAE6F000E11
:10446800B06F000EAF6F49EF22F0AE5122EC31F081
:104478000001AD6FAE2B000EAF25D96E030EB02133
:10448800DA6EADC0DFFFAF4BB02BAC51A96FAA6B92
:10449800A951AF5DB051800AAB6FAA51800AAB59E0
:1044A800D8A059EF22F05BEF22F039EF22F0DA0EB4
:1044B8000301611907E1BE0E6219D8A466EF22F064
:1044C80068EF22F06BEF22F0010E7DEF22F0000E74
:1044D80000019E6F030E9F6F000EA06F060EA16F66
:1044E800000EA36F630EA26F91EC2BF0D4EC2CF0AE
:1044F800000E1200010E366E080E0001906187EF63
:1045080022F089EF22F0CBEF22F09051020D000E3D
:10451800F324D96E010EF420DA6EA5C0DEFFA6C022
:10452800DDFF902BB2EF22F0010E78EC31F020EE97
:1045380001F02E50D9262F50DA22010EDF6ECBEF74
:1045480022F0000E78EC31F020EE01F02E50D92642
:104558002F50DA22000EDF6ECBEF22F0A751A86FA2
:10456800A96BA951000AD8B4BCEF22F0CBEF22F016
:10457800A851000AD8B4CBEF22F0010AD8B498EFBA
:1045880022F0030AD8B4A5EF22F0CBEF22F0000EF8
:10459800366E1200200E5460D4EF22F0D6EF22F0CF
:1045A800D8EF22F018EF23F060A2DDEF22F0DFEF62
:1045B80022F0E1EF22F018EF23F000019A51D8A47D
:1045C800E8EF22F0EAEF22F018EF23F0A30EA96F2C
:1045D800030EAA6F400EAB6FBEEC1FF00001AD6F6B
:1045E800AD51D8B4FAEF22F0FCEF22F018EF23F027
:1045F800000EAE6F0FEF23F05A0E9E6F020E9F6FE4
:10460800A30EAE25D96EDA6A030EDA22DF50E7EC84
:104618002AF00001AE2BAD51AE5DD8A016EF23F005
:1046280018EF23F000EF23F01200000E0001A66F30
:10463800000EA56F50EF23F0A5C0A0F0A6C0A1F012
:10464800D890A037A137D890A037A137D890A037F5
:10465800A137A0C0A3F0A1C0A4F0A5C0A0F0A6C037
:10466800A1F0D890A037A137A051A327A151A42326
:104678009EC0D9FF9FC0DAFFDF50A06FA051A325CD
:10468800A16F000EA421A26FD00EA125A56FFF0E69
:10469800A221A66F9E4B9F2B9EC0D9FF9FC0DAFF19
:1046A800DF50D8A45AEF23F05CEF23F020EF23F07B
:1046B800A5C09EF0A6C09FF01200000E536E000E1B
:1046C8004D6E000E4A6E000E496E000E4F6E000EC3
:1046D800526E6EC0D9FF6FC0DAFF7F0EDF16040E70
:1046E80000016E196E6F6F516F6F6EC0D9FF6FC08A
:1046F800DAFF7F0EDF16040E6E196E6F6F516F6F43
:1047080032C0D9FF33C0DAFF7F0EDF16000E6B6FA1
:10471800000E6D6F000E6C6F000E636F000E656FFC
:10472800000E646F88EC15F0000E0E6E030E0D6E11
:10473800000E0F6E000E106E000E126E000E116E3F
:1047480034EC24F0AEEC13F01200AF0E0001B06FA1
:10475800000EB16FB0C0D9FFB1C0DAFF000EDF6E36
:10476800A5C09EF0A6C09FF0000EA16F0A0EA06F14
:1047780075EC28F0570E00019E25F66E790E9F21E4
:10478800F76EB007D8A0B107B0C0D9FFB1C0DAFF43
:104798000800F5CFDFFFA5C09EF0A6C09FF0000E71
:1047A800A16F0A0EA06FB1EC26F09EC0A5F09FC0C5
:1047B800A6F00001A551A611D8A4E5EF23F0E7EF74
:1047C80023F0B4EF23F0B0C0A1F0B1C0A2F0A7C0AD
:1047D800A3F0FBEC2CF012000001B16FAE0E00014B
:1047E800AF6F000EB06FAFC0D9FFB0C0DAFF000ED8
:1047F800DF6EB1C09EF09F6B000EA16F0A0EA06F16
:10480800D0EC20F0570E00019E25F66E790E9F2100
:10481800F76EAF07D8A0B007AFC0D9FFB0C0DAFFB6
:104828000800F5CFDFFFB1C09EF09F6B000EA16FAF
:104838000A0EA06FF8EC1EF000019E51B16FB15145
:10484800D8A429EF24F02BEF24F0FDEF23F0AFC01C
:10485800A1F0B0C0A2F0A6C0A3F0FBEC2CF01200AF
:104868003EEF24F0A8EC28F077EF24F03FEC18F0A6
:1048780077EF24F00DC013F00EC014F01450000AA6
:10488800D8B44DEF24F07F0AD8B470EF24F077EF56
:1048980024F01350010AD8B436EF24F0030AD8B430
:1048A80077EF24F0010AD8B43AEF24F0060AD8B416
:1048B80077EF24F0770AD8B477EF24F0010AD8B458
:1048C80077EF24F0070AD8B477EF24F0010AD8B4B8
:1048D80077EF24F077EF24F01350FF0AD8B477EF7E
:1048E80024F077EF24F01200000120EE02F09E5130
:1048F800D9269F51DA22DF50D8A485EF24F087EF1C
:1049080024F08AEF24F0000EB9EF24F020EE01F035
:104918009E51D9269F51DA22DF50A06FA0519E25C3
:10492800A16F000E9F21A26F030EA125D96E000E64
:10493800A221DA6EDF50A36F20EE01F09E51D92636
:104948009F51DA2210EE01F09E51E1269F51E2229A
:10495800E750A06FA0293F0BDF6E20EE02F09E51BA
:10496800D9269F51DA22DF06A3511200000E00015A
:10497800AC6FA00EAC25D96EDA6A010EDA220101FD
:10498800DFA4C9EF24F0CBEF24F0F0EF24F0A00E61
:104998000001AC25D96EDA6A010EDA220101DFA620
:1049A800D8EF24F0DAEF24F0F0EF24F0ACC0ABF04D
:1049B800020E0001AA6FAAC0A5F0ABC0A6F0000EB7
:1049C800A76F7EEC22F0A00E0001AC25D96EDA6A42
:1049D800010EDA220101DF940001AC2B040EAC6554
:1049E800F8EF24F0FAEF24F0BDEF24F012000001F4
:1049F80020EE02F09E51D9269F51DA22DF50D8A42A
:104A080008EF25F00AEF25F00DEF25F0000E3BEF3B
:104A180025F020EE01F09E51D9269F51DA22DF5071
:104A2800A06FA0519E25A16F000E9F21A26F030EBB
:104A3800A125D96E000EA221DA6EDF50A36F20EEF9
:104A480001F09E51D9269F51DA2210EE01F09E51B5
:104A5800E1269F51E222E750A06FA029DF6E20EEE9
:104A680002F09E51D9269F51DA22DF06A351120087
:104A7800AA0E00019E6F060E9F6F16EC2FF0010E16
:104A88003B6E3B50D8B44BEF25F04DEF25F060EF6F
:104A980025F0400E0001A16F7F0EA26F020EA36FDA
:104AA800FBEC2CF09E0E0001AF6F7F0EB06F020E74
:104AB800B16FFAEC25F03B6E3B50D8B466EF25F0A9
:104AC80068EF25F07BEF25F07E0E0001A16F7F0EC9
:104AD800A26F020EA36FFBEC2CF0FC0E0001AF6F6F
:104AE8007F0EB06F020EB16FFAEC25F03B6E12002C
:104AF800640E0001AD6FAAEF25F0AD51AB5DD8A0F3
:104B080088EF25F08AEF25F09EEF25F0ADC09EF0E6
:104B1800AB51A1EC29F00001AC6FAC51300FA9C02A
:104B2800D9FFAAC0DAFFDF6EA94BAA2BAC51AD039F
:104B3800F350AB5FADC09EF09F6B000EA16F0A0EE5
:104B4800A06FF8EC1EF000019E51AD6FAB51D8A4D8
:104B5800B0EF25F0B2EF25F081EF25F0A9C0D9FF1D
:104B6800AAC0DAFF000EDF6EA94BAA2B12000001C3
:104B7800B56FA10E0001A16F7E0EA26F020EA36F8A
:104B8800FBEC2CF0020E0001A66FB551F0EC23F0FF
:104B9800FA0E0001A16F7F0EA26F020EA36FFBEC4D
:104BA8002CF0B3C0A5F0B4C0A6F0020E0001A76FA8
:104BB800A9EC23F0AC0E0001A16F7D0EA26F020ECE
:104BC800A36FFBEC2CF0AA0E00019E6F060E9F6FE0
:104BD80016EC2FF0FC0E0001AF6F7F0EB06F020EC7
:104BE800B16FFAEC25F03B6E3B501200010E00014C
:104BF800956FB1C096F0000E956F2EEF26F02DEC54
:104C080031F00009D8B40BEF26F00DEF26F02EEFA7
:104C180026F00CEC2CF00001B26FAA0E9E6F060E67
:104C28009F6FB25113EC2BF0AA0E0001A26F060E73
:104C3800A36FAFC0A4F0B0C0A5F03CEC1AF0000917
:104C4800D8B429EF26F02BEF26F02EEF26F0010E30
:104C580038EF26F000019651D8A435EF26F037EF4B
:104C680026F003EF26F0000E12003650D8A43FEFCE
:104C780026F041EF26F039EF26F000019051D8A434
:104C880048EF26F04AEF26F05EEF26F020EE01F01E
:104C98002E50D9262F50DA22DF50D8B456EF26F0FE
:104CA80058EF26F071EF26F0F1C19EF0F2C19FF0A7
:104CB80075EF26F090079051020D000EF324D96E7F
:104CC800010EF420DA6EDECFA0F0DDCFA1F0A0C097
:104CD8009EF0A1C09FF075EF26F030C19EF031C163
:104CE8009FF012008CEC31F09EC0B8F09FC0B9F074
:104CF800380E0001B8259E6F000EB9219F6F19EC80
:104D080023F09EC038F19FC039F1300E0001B8255C
:104D18009E6F000EB9219F6F2BEC1EF09EC01EF1F6
:104D28009FC01FF1A0C020F1A1C021F138C136F108
:104D380039C137F1400E0001B825B36F000EB92113
:104D4800B46F500EB825B56F000EB921B66F9CEC44
:104D58001BF00001B76FB7511200000E0001A46FDD
:104D6800000EA36FA051A111D8B4BDEF26F0BFEF7C
:104D780026F0E7EF26F0010EA26FC7EF26F0D890D5
:104D8800A037A137A22BA1AFCCEF26F0CEEF26F0AB
:104D9800C3EF26F0D890A337A437A0519E5DA15148
:104DA8009F59D8A0DAEF26F0DCEF26F0E1EF26F0E5
:104DB800A0519E5FA1519F5BA381D890A133A033DE
:104DC800A22FCEEF26F0A3C09EF0A4C09FF0120041
:104DD800C80E0001A26F010EA36F20EE04F0A251CD
:104DE800D926A351DA22000EDE6E000EDD6EA2C0B7
:104DF800D9FFA3C0DAFF000EDF6E20EE06F0A25145
:104E0800D926A351DA22A0C0DEFFA1C0DDFF20EE23
:104E180002F0A251D926A351DA22800EDE6E050EC9
:104E2800DD6E20EE02F0A251D926A351DA22DECFA0
:104E380084F0DDCF85F0C80E9E6F010E9F6FC9EC20
:104E48002FF01200020E5218D8A42DEF27F02FEFE2
:104E580027F033EF27F06BEC12F05FEF27F0000E2E
:104E6800526E4F50D8A43BEF27F03DEF27F05DEF8F
:104E780027F020EE01F03250D9263350DA22080EFE
:104E8800DF6E20EE02F03250D9263350DA22300E8F
:104E9800DE6E040EDD6E32C0D9FF33C0DAFF0C0EB1
:104EA800DF6E32C0D9FF33C0DAFF000EDB8E5FEF52
:104EB80027F0000E4F6E1200010E0001956FA3C07F
:104EC80096F0000E956F8EEF27F02DEC31F000096B
:104ED800D8B471EF27F073EF27F08EEF27F00CECC2
:104EE8002CF00001A46F9FC0D9FFA0C0DAFFA4C0B6
:104EF800DFFF9F4BA02BA107D8A0A207A151A211A9
:104F0800D8A489EF27F08BEF27F08EEF27F0010E5A
:104F180098EF27F000019651D8A495EF27F097EF66
:104F280027F069EF27F0000E1200AA0E00019E6F0D
:104F3800060E9F6F16EC2FF0010E3B6E3B50D8B457
:104F4800A8EF27F0AAEF27F0B4EF27F0920E0001A0
:104F5800AF6F7F0EB06F0A0EB16FFAEC25F03B6EA3
:104F6800AA0E00019E6F060E9F6F16EC2FF03B50A5
:104F7800D8B4C1EF27F0C3EF27F0D0EF27F0BD0E6C
:104F88000001AF6F7F0EB06F020EB16FFAEC25F023
:104F98003B6E020EF3EC2DF03B5012003F503F24C5
:104FA80040100001A36FEDEF27F0000E81EC21F017
:104FB8000AEF28F0010E81EC21F00AEF28F0030E29
:104FC80081EC21F00AEF28F0050E81EC21F00AEFC0
:104FD80028F0A351A16FA26BA251000AD8B4F7EF31
:104FE80027F00AEF28F0A151000AD8B4D9EF27F02A
:104FF800010AD8B4DEEF27F0030AD8B4E3EF27F0AC
:10500800010AD8B4E8EF27F00AEF28F01200000EE2
:105018000001A26FA50EA225D96EDA6A010EDA2266
:105028000101DFA21AEF28F01CEF28F035EF28F075
:10503800A50E0001A225D96EDA6A010EDA22010155
:10504800000EDFB0010E00019E6FA251E8EC1CF0CB
:10505800A50E0001A225D96EDA6A010EDA22010135
:10506800DF920001A22B040EA2653DEF28F03FEF6E
:1050780028F00EEF28F0120089EC2FF001012251E0
:10508800231124112511D8A44CEF28F04EEF28F055
:1050980065EF28F0880E226F130E236F000E246F21
:1050A800000E256F29EC21F008EC30F073EC2FF09E
:1050B8003D50D8B462EF28F064EF28F065EF28F08F
:1050C8003D0601012207000E235B245B255B3E5051
:1050D800D8B471EF28F073EF28F074EF28F03E068B
:1050E80012000001A051A111D8B47DEF28F07FEF84
:1050F80028F0A3EF28F0010EA26F87EF28F0D890D0
:10510800A037A137A22BA1AF8CEF28F08EEF28F0A3
:1051180083EF28F0A0519E5DA1519F59D8A097EF29
:1051280028F099EF28F09DEF28F0A0519E5FA1513B
:105138009F5BD890A133A033A22F8EEF28F09EC09A
:105148009EF09FC09FF01200000E0101D86F4B0E19
:10515800D96F000EDA6F000EDB6F000EDC6F000EE9
:10516800DD6F080EDE6F000E00019B6F1A0E096ED0
:10517800010E22EC2DF01E0E096E020E22EC2DF00F
:10518800000E016E400E026E050E036E400E046E98
:10519800020E4FEC14F001C08CF002C08DF0000E2E
:1051A80000018A6F000E8B6F000E9A6F12009D9A95
:1051B800B60E00019E6F3E0E9F6F97EC31F0080E01
:1051C800B86E900EAB6E240EAC6E670EAF6E000E0E
:1051D800B06EC00E00019E6F630E9F6FA1EC31F0A0
:1051E800980E00019E6F630E9F6F9CEC31F09E0E2F
:1051F80000019E6F630E9F6FA6EC31F0000E000158
:10520800976F000E476E000E466E000E456E9D8A23
:1052180012003136392E33342E3130302E32000020
:105228000000000000000000000000000000000076
:105238000000343430303100000034353030310073
:105248000000333237363334350033300000000085
:1052580000004D79415000000000000000000000EF
:1052680000005061737377640000000000000000C4
:05527800000002DABE97
:10527E00A4C0ABF0A5C0ACF0A6C0ADF0A7C0AEF018
:10528E00FF0E0001AA25AF6FB06BFF0EB023B0BFAB
:10529E0055EF29F053EF29F057EF29F06FEF29F072
:1052AE00AB0EAF25D96E000EB021DA6EA8C0E1FFAD
:1052BE00A9C0E2FFDFCFE7FFA84BA92BAF07D8A00D
:1052CE00B007B0BF6FEF29F06DEF29F057EF29F05F
:1052DE001200AA0E00019E6F060E9F6F16EC2FF0A5
:1052EE00B3C0D9FFB4C0DAFFDF500001B86F8AEF48
:1052FE0029F0B7C09FF0B851DEEC2FF00001B34B90
:10530E00B42B77EF29F0B507D8A0B607B52906E17B
:10531E00B629D8A495EF29F097EF29F080EF29F060
:10532E00980EAF6F7F0EB06F020EB16FFAEC25F0D4
:10533E003B6E120000019F6F000E0001A16F9E5187
:10534E00D8B4ACEF29F0AEEF29F0CFEF29F0010E73
:10535E00A06FB5EF29F0D8909E37A02B9EAFBAEF75
:10536E0029F0BCEF29F0B2EF29F0D890A1379E5169
:10537E009F5DD8A0C5EF29F0C7EF29F0CAEF29F03D
:10538E009E519F5FA181D8909E33A02FBCEF29F034
:10539E00A15112006AA0D6EF29F0D8EF29F0FFEF45
:1053AE0029F034C0D9FF35C0DAFF800EDE18D8A43C
:1053BE00E3EF29F0E5EF29F0FEEF29F06EC0D9FFFB
:1053CE006FC0DAFF840EDE18D8A4F0EF29F0F2EFEA
:1053DE0029F0FEEF29F034C0D9FF35C0DAFF0C0EEC
:1053EE00DF6E34C0D9FF35C0DAFF000EDB8E6A9057
:1053FE00659A120024EF2AF00CEC2CF00001B16F2C
:10540E00AA0E9E6F060E9F6FB15113EC2BF0AA0ED3
:10541E000001A26F060EA36FAFC0A4F0B0C0A5F03E
:10542E003CEC1AF00009D8B41FEF2AF021EF2AF055
:10543E0024EF2AF0010E2FEF2AF02DEC31F00009A7
:10544E00D8A42CEF2AF02EEF2AF003EF2AF0000E4C
:10545E001200A4C0A8F0A5C0A9F0A2C0AAF0A3C0D3
:10546E00ABF00001A851A66FA951A76FA84BA92BAD
:10547E00A6C0F6FFA7C0F7FFF86AAAC0D9FFABC057
:10548E00DAFFAA4BAB2B070EF76403D00800F550DA
:10549E0005D0F6CFE9FFF7CFEAFFEF50DF6EDF5012
:1054AE00D8A45CEF2AF05EEF2AF038EF2AF0120053
:1054BE0000019E6F080E00019E6168EF2AF06AEFF0
:1054CE002AF06DEF2AF0060E8CEF2AF0070E9E657D
:1054DE0073EF2AF075EF2AF080EF2AF00D0E9E6121
:1054EE007BEF2AF07DEF2AF080EF2AF0000E8CEF92
:1054FE002AF00D0E9E6586EF2AF088EF2AF08BEFCC
:10550E002AF0010E8CEF2AF0070E1200AA0E0001EF
:10551E009E6F060E9F6F16EC2FF0BC0E0001A16F52
:10552E007E0EA26F020EA36FFBEC2CF0B3C0A5F0A3
:10553E00B4C0A6F0020E0001A76FA9EC23F0AC0ECA
:10554E000001A16F7D0EA26F020EA36FFBEC2CF07B
:10555E00FC0E0001AF6F7F0EB06F020EB16FFAEC52
:10556E0025F03B6E12000001B36FAF0E0001A16F6C
:10557E007E0EA26F020EA36FFBEC2CF0020E00014A
:10558E00A66FB351F0EC23F0AC0E0001A16F7D0EAF
:10559E00A26F020EA36FFBEC2CF0AA0E00019E6F01
:1055AE00060E9F6F16EC2FF0FC0E0001AF6F7F0EF4
:1055BE00B06F020EB16FFAEC25F03B6E3B5012004D
:1055CE000001A36F9EC0D9FF9FC0DAFFDF5000011C
:1055DE00A06FA0519E25A16F000E9F21A26F030EFA
:1055EE00A125D96E000EA221DA6EA3C0DFFF9EC0E8
:1055FE00D9FF9FC0DAFFDF50A06FA0293F0B9EC0DE
:10560E00D9FF9FC0DAFFDF6E20EE02F09E51D92641
:10561E009F51DA22DF2A12000001A36F9EC0D9FF2C
:10562E009FC0DAFFDF500001A06FA0519E25A16F31
:10563E00000E9F21A26F030EA125D96E000EA2218E
:10564E00DA6EA3C0DFFF9EC0D9FF9FC0DAFFDF5026
:10565E00A06FA0299EC0D9FF9FC0DAFFDF6E20EE9B
:10566E0002F09E51D9269F51DA22DF2A1200A0C0E5
:10567E009EF0A1C09FF0FEEC2EF0000E0001A56F73
:10568E00000EA46FA451A025A26FA551A121A36F56
:10569E00030EA225D96E000EA321DA6E000EDF6E68
:1056AE00A44BA52BA5BF65EF2BF0A55109E1400E2C
:1056BE00A45DD8A065EF2BF067EF2BF049EF2BF030
:1056CE0012001F7ECB7DAC7D0D7E257F377FAF7D9B
:1056DE002E7FE97E707F027C377B517F707FC97C85
:1056EE007B7B517F707F6D7CA17A517F707FF67CC2
:1056FE00517A517F707F9B7CEF7A517F707F3B7C1C
:10570E00737D237D317E337C517FC87EBF7BFD7ED2
:10571E00077FF37EA0C0A7F0A1C0A8F09EC0A5F0A1
:10572E009FC0A6F0ABEF2BF0A7C0D9FFA8C0DAFF41
:10573E00DF50A46FA74BA82BA5C0D9FFA6C0DAFFD8
:10574E00A4C0DFFFA54BA62B0001A207D8A0A3077C
:10575E00A22906E1A329D8A4B7EF2BF0B9EF2BF0BD
:10576E009BEF2BF012000001A46F86EC31F09EC06F
:10577E00A5F09FC0A6F00001A405A76FA751030DC9
:10578E00A5C0A0F0A6C0A1F0F350A027F450A1230D
:10579E00010EA025D96E000EA121DA6EDECFA2F089
:1057AE00DDCFA3F0D890A333A233D890A333A23386
:1057BE00A251A86FA85112009EC0A0F09FC0A1F0E8
:1057CE00ECEF2BF000019E4B9F2B9EC0F6FF9FC06F
:1057DE00F7FFF86A070EF76403D00800F55005D0FE
:1057EE00F6CFE9FFF7CFEAFFEF500009D8A402EF9A
:1057FE002CF004EF2CF0E9EF2BF00001A0519E5D90
:10580E009E6FA1519F599F6F12004550D8B412EF51
:10581E002CF014EF2CF00CEF2CF0000E4624D96E69
:10582E00DA6A020EDA22DF500001976F400E46242C
:10583E00D96EDA6A040EDA22DF509E6F462A590EAE
:10584E0046642CEF2CF02EEF2CF030EF2CF0000EE7
:10585E00466E9D9A45069D8A9E51120020EE01F0DD
:10586E002E50D9262F50DA22DF50D8A441EF2CF03B
:10587E0043EF2CF045EF2CF05CEF2CF0000E78ECA3
:10588E0031F020EE01F02E50D9262F50DA22000EE4
:10589E00DF6E000E0001906F000E0101336F780E67
:1058AE00326F000E376E0CEC1CF012000001A16F6F
:1058BE00000E0001A26F77EF2CF09EC0D9FF9FC0A3
:1058CE00DAFFA151DE18D8A46FEF2CF071EF2CF097
:1058DE0074EF2CF0A25184EF2CF09E4B9F2BA22B39
:1058EE009EC0D9FF9FC0DAFFDF50D8A481EF2CF005
:1058FE0083EF2CF064EF2CF0000E120003C009F0C1
:10590E0004C00AF001C007F002C008F09FEF2CF0AF
:10591E0009C0D9FF0AC0DAFFDF500B6E094A0A2A06
:10592E0007C0D9FF08C0DAFF0BC0DFFF074A082AFD
:10593E000506D8A00606052806E10628D8A4AAEF73
:10594E002CF0ACEF2CF08FEF2CF01200A0C09EF0DC
:10595E00A1C09FF016EC2FF0000E0001A56F000EF7
:10596E00A46FA451A025A26FA551A121A36F030E70
:10597E00A225D96E000EA321DA6E000EDF6EA44BA7
:10598E00A52BA5BFD1EF2CF0A505D8A0D1EF2CF0FB
:10599E00D3EF2CF0B8EF2CF01200000E0001A56F23
:1059AE00000EA36F030EA46F630EA16F000EA66F01
:1059BE00F1EF2CF0A3C0D9FFA4C0DAFFDF50A26F25
:1059CE00A2C09EF0A5516CEC2DF00001A52BA34BAF
:1059DE00A42BA62BA151A65DD8A0F8EF2CF0FAEFC0
:1059EE002CF0E1EF2CF01200A1C0F6FFA2C0F7FFE1
:1059FE00F86A070EF76403D00800F55005D0F6CF0D
:105A0E00E9FFF7CFEAFFEF500001A46F19EF2DF079
:105A1E00A3C09FF0A451DEEC2FF00001A14BA22BEE
:105A2E00FBEF2CF0A451D8A41FEF2DF021EF2DF099
:105A3E000FEF2DF012000C6E09A428EF2DF02AEFB7
:105A4E002DF02FEF2DF0000E016E0C50D8EC21F042
:105A5E0009A234EF2DF036EF2DF03BEF2DF0010EB5
:105A6E00016E0C50D8EC21F06A0E0C240A6E0B6AF3
:105A7E000F0E0B220AC0D9FF0BC0DAFF09C0DFFFE1
:105A8E001200000E0001A16F5EEF2DF0A139E84269
:105A9E00F80BA06FA151A125A0279EC0D9FF9FC0D2
:105AAE00DAFFDF50A025D00FA16F9E4B9F2B9EC01B
:105ABE00D9FF9FC0DAFFDF50D8A468EF2DF06AEF50
:105ACE002DF04DEF2DF0A151120000019F6F000E31
