:040000009AEF00F083
:100008005982FACF20F0FBCF21F0E9CF22F0EACFD6
:1000180023F0E1CF24F0E2CF25F0D9CF26F0DACFD4
:1000280027F0F3CF28F0F4CF29F0F6CF2AF0F7CF56
:100038002BF0F8CF2CF0F5CF2DF0F2AC26EF00F036
:1000480028EF00F07CEF00F09DAA2DEF00F02FEFD5
:1000580000F046EF00F09EAA34EF00F036EF00F013
:1000680046EF00F002D844EF00F005000101FA6EF7
:100078004251FD6E4351FE6EF850FF6EFA50120069
:100088007CEF00F0A0A24BEF00F04DEF00F058EF2E
:1000980000F0A1A252EF00F054EF00F058EF00F08A
:1000A80096EC2EF07CEF00F0A3A45DEF00F05FEF7C
:1000B80000F06AEF00F0A4A464EF00F066EF00F02F
:1000C8006AEF00F0A3EC08F07CEF00F09DAC6FEF56
:1000D80000F071EF00F07CEF00F09EAC76EF00F0DE
:1000E80078EF00F07CEF00F023EC32F07CEF00F0CA
:1000F8002DC0F5FF2CC0F8FF2BC0F7FF2AC0F6FF74
:1001080029C0F4FF28C0F3FF27C0DAFF26C0D9FFB3
:1001180025C0E2FF24C0E1FF23C0EAFF22C0E9FFB7
:1001280021C0FBFF20C0FAFF5992110023EF16F0FF
:10013800C8EC31F09EC0BEF09FC0BFF0000E0001B9
:10014800BA6F000EB96F290EB86F000EBB6FC1EF02
:1001580000F0BB51020D400EF324D96E040EF420BA
:10016800DA6EDECF9EF0DDCF9FF001EC2CF00001BF
:100178009E51B9279F51BA23BB2BB851BB5DD8A05C
:10018800C8EF00F0CAEF00F0ADEF00F0FE0EB66F5A
:10019800FF0EB76FBEC09EF0BFC09FF001EC2CF001
:1001A8000001B6519E27B7519F239E51B9279F51F1
:1001B800BA23FE0EB66FFF0EB76F300EBE259E6FC8
:1001C800000EBF219F6F01EC2CF00001B6519E2755
:1001D800B7519F239E51B9279F51BA23FE0EB66F80
:1001E800FF0EB76F380EBE259E6F000EBF219F6FA2
:1001F80001EC2CF00001B6519E27B7519F239E5168
:10020800B9279F51BA23FE0EB66FFF0EB76F400E87
:10021800BE259E6F000EBF219F6F01EC2CF00001E0
:10022800B6519E27B7519F239E51B9279F51BA2394
:10023800FE0EB66FFF0EB76F500EBE259E6F000EF6
:10024800BF219F6F01EC2CF00001B6519E27B751DA
:100258009F239E51B9279F51BA2320EE60F0BE51CB
:10026800D926BF51DA22DFB03CEF01F03EEF01F0B2
:1002780053EF01F0FE0EB66FFF0EB76FCEC09EF0C3
:10028800CFC09FF001EC2CF00001B6519E27B7516A
:100298009F239E51B9279F51BA2366EF01F0FE0EA6
:1002A800B66FFF0EB76FD0C09EF0D1C09FF001ECC3
:1002B8002CF00001B6519E27B7519F239E51B927B4
:1002C8009F51BA2320EE60F0BE51D926BF51DA22E1
:1002D800DFB271EF01F073EF01F088EF01F0FE0E6D
:1002E800B66FFF0EB76FCEC09EF0CFC09FF001EC87
:1002F8002CF00001B6519E27B7519F239E51B92774
:100308009F51BA239BEF01F0FE0EB66FFF0EB76F39
:10031800D0C09EF0D1C09FF001EC2CF00001B65186
:100328009E27B7519F239E51B9279F51BA23B9C021
:10033800B3F0BAC0B4F0000ED6EC25F00009D8A48A
:10034800A8EF01F0AAEF01F0ACEF01F0F9EF02F02D
:10035800000E0001BB6FE5EF02F0BB51020D400E2D
:10036800F324D96E040EF420DA6EDECFBCF0DDCFB4
:10037800BDF0BCC09EF0BDC09FF001EC2CF0D5EFE5
:1003880002F0BCC0F6FFBDC0F7FF0800F550400AF8
:10039800D8A4D1EF01F0D3EF01F0C7EF02F00001CC
:1003A800BC4BBD2B8DEF02F0BEC0A1F0BFC0A2F0C8
:1003B800020EA36F19EC2DF0D2EF02F0200EBE252D
:1003C800A16F000EBF21A26F020EA36F19EC2DF0D2
:1003D800D2EF02F0280EBE25A16F000EBF21A26F3A
:1003E800020EA36F19EC2DF0D2EF02F0300EBE25ED
:1003F800A16F000EBF21A26F020EA36F19EC2DF0A2
:10040800D2EF02F0380EBE25A16F000EBF21A26FF9
:10041800020EA36F19EC2DF0D2EF02F0400EBE25AC
:10042800A16F000EBF21A26F020EA36F19EC2DF071
:10043800D2EF02F0500EBE25A16F000EBF21A26FB1
:10044800020EA36F19EC2DF0D2EF02F020EE60F04F
:10045800BE51D926BF51DA22DFA035EF02F037EFBF
:1004680002F041EF02F0D0C0A1F0D1C0A2F0020E1C
:10047800A36F19EC2DF0D2EF02F0CEC0A1F0CFC0DF
:10048800A2F0020EA36F19EC2DF0D2EF02F020EECD
:1004980060F0BE51D926BF51DA22DFA256EF02F032
:1004A80058EF02F062EF02F0D0C0A1F0D1C0A2F084
:1004B800020EA36F19EC2DF0D2EF02F0CEC0A1F01E
:1004C800CFC0A2F0020EA36F19EC2DF0D2EF02F00C
:1004D80020EE60F0BE51D926BF51DA22DFA477EFB3
:1004E80002F079EF02F083EF02F0D0C0A1F0D1C0A2
:1004F800A2F0020EA36F19EC2DF0D2EF02F0CEC0DD
:10050800A1F0CFC0A2F0020EA36F19EC2DF0D2EF2C
:1005180002F0BCC0F6FFBDC0F7FF0800F550B66F8B
:10052800B76BB751000AD8B49CEF02F0D2EF02F0D3
:10053800B651410AD8B412EF02F0080AD8B4D8EF7D
:1005480001F0050AD8B4EEEF01F01C0AD8B4E2EFC6
:1005580001F0020AD8B4FAEF01F0040AD8B406EFA1
:1005680002F0010AD8B41EEF02F0340AD8B46CEFD6
:1005780002F0160AD8B44BEF02F0020AD8B42AEFF8
:1005880002F0D2EF02F0020E00019F6FBCC0F6FF2E
:10059800BDC0F7FF0800F5501AEC30F00001BC4B65
:1005A800BD2BBCC0F6FFBDC0F7FF0800F550000921
:1005B800D8A4E1EF02F0E3EF02F0C5EF01F000018B
:1005C800BB2BB851BB5DD8A0ECEF02F0EEEF02F008
:1005D800B1EF01F0FC0EAF6F7F0EB06F020EB16F7E
:1005E80015EC26F0000ED8EC2AF012000001A7BF87
:1005F80009EF03F0A75107E1030EA65DD8B007EF96
:1006080003F009EF03F00DEF03F0B1EF04F0B1EFE1
:1006180004F020EE02F0A851D926A951DA22DECF43
:100628009EF0DDCF9FF066EC2DF00001AF6FAF516B
:100638007DEC2AF00001AE6F000EB16F000EB06FB6
:10064800B0C0AAF0B1C0ABF0D890AA37AB37D890F9
:10065800AA37AB37780EAA25F66E790EAB21F76E5E
:100668000900F5CF9EF00A00F5CF9FF020EE04F0C8
:10067800A851D926A951DA22DECFA0F0DDCFA1F00A
:1006880030EC1BF000019E519F11D8A44EEF03F0EF
:1006980050EF03F0A1EF04F065EF04F0AF51F70F4E
:1006A800B26FAE51D8B45BEF03F05DEF03F05FEFCC
:1006B80003F0B1EF04F020EE06F0A851D926A951B5
:1006C800DA22DECF9EF0DDCF9FF0D60EA06F7F0E30
:1006D800A16F30EC1BF000019E519F11D8A477EF59
:1006E80003F079EF03F090EF03F020EE06F0A45149
:1006F800D926A551DA22DECFAAF0DDCFABF0B25170
:10070800AA27000EAB23180EAA25D96E000EAB211E
:10071800DA6EDF96B1EF04F020EE06F0A851D92684
:10072800A951DA22DECF9EF0DDCF9FF0F00EA06F48
:100738007F0EA16F30EC1BF000019E519F11D8A4D1
:10074800A8EF03F0AAEF03F0B1EF04F020EE06F0F3
:10075800A451D926A551DA22DECFAAF0DDCFABF01D
:10076800B251AA27000EAB23180EAA25D96E000E87
:10077800AB21DA6EDF86B1EF04F0AF51F20FB26F42
:10078800AE05D8A4CAEF03F0CCEF03F0B1EF04F044
:1007980020EE06F0A451D926A551DA22DECFAAF020
:1007A800DDCFABF0B251AA27000EAB231D0EAA2550
:1007B800D96E000EAB21DA6EDFA0E5EF03F0E7EFAC
:1007C80003F0B1EF04F020EE06F0A451D926A551AC
:1007D800DA22DECFAAF0DDCFABF0B251AA27000EA5
:1007E800AB231D0EAA25D96E000EAB21DA6EDF9061
:1007F80020EE06F0A451D926A551DA22DECFAAF0C0
:10080800DDCFABF0B251AA27000EAB231D0EAA25EF
:10081800D96E000EAB21DA6EDF82B1EF04F0AF5172
:10082800F20FB26FAE05D8A41CEF04F01EEF04F06F
:10083800B1EF04F020EE06F0A451D926A551DA2232
:10084800DECFAAF0DDCFABF0B251AA27000EAB2362
:100858001D0EAA25D96E000EAB21DA6EDFB037EF78
:1008680004F039EF04F0B1EF04F020EE06F0A451E3
:10087800D926A551DA22DECFAAF0DDCFABF0B251EE
:10088800AA27000EAB231D0EAA25D96E000EAB2198
:10089800DA6EDF8020EE06F0A451D926A551DA22BF
:1008A800DECFAAF0DDCFABF0B251AA27000EAB2302
:1008B8001D0EAA25D96E000EAB21DA6EDF82B1EFCC
:1008C80004F0B0C0AAF0B1C0ABF0D890AA37AB37EB
:1008D800D890AA37AB37020EAA27000EAB23780EA2
:1008E800AA25F66E790EAB21F76E0900F5CFACF0AC
:1008F8000900F5CFADF0AD51000AD8B486EF04F089
:10090800B1EF04F0AC51000AD8B40BEF03F0010AC0
:10091800D8B4B1EF04F0030AD8B452EF03F0010AD7
:10092800D8B4B1EF04F0070AD8B4C1EF03F0010A54
:10093800D8B413EF04F0B1EF04F0B04BB12BB1BF52
:10094800AFEF04F0B15109E1080EB05DD8A0AFEFE8
:1009580004F0B1EF04F024EF03F0120004013205B3
:10096800D8A4B9EF04F0BBEF04F0D7EF04F030518E
:100978001F0B0009D8A4C3EF04F0C5EF04F0D7EFAC
:1009880004F000016B8F030E04013119D8A4CFEFD6
:1009980004F0D1EF04F0D5EF04F0010E536ED7EF59
:1009A80004F0000E536E3251D8A4DDEF04F0DFEFEF
:1009B80004F05FEF06F030511F0B020AD8A4E7EFEE
:1009C80004F0E9EF04F05FEF06F034510F0B000973
:1009D800D8B4F1EF04F0F3EF04F05FEF06F0345110
:1009E8000F0B156E030E1560FCEF04F0FEEF04F01C
:1009F8005FEF06F0200E5618D8A405EF05F007EFB4
:100A080005F05FEF06F000016B8F040134BF0FEFB4
:100A180005F011EF05F02EEF05F034510F0B156EB0
:100A28001550020D740EF324D96E000EF420DA6E00
:100A3800DECF1AF0DDCF1BF034510F0B156E166A9E
:100A48007E0E1524D96E000E1620DA6EDF50196E50
:100A580049EF05F034510F0B156E1550020D6E0E4F
:100A6800F324D96E000EF420DA6EDECF1AF0DDCF53
:100A78001BF034510F0B156E166A810E1524D96EB2
:100A8800000E1620DA6EDF50196E19B04EEF05F021
:100A980050EF05F058EF05F0FB0E1A141A6EFF0E12
:100AA8001B141B6E5DEF05F0040E1A101A6E1B5016
:100AB8001B6E34BF62EF05F064EF05F075EF05F0CB
:100AC80034510F0B156E1550020D740EF324D96EA8
:100AD800000EF420DA6E1AC0DEFF1BC0DDFF84EFC3
:100AE80005F034510F0B156E1550020D6E0EF324E0
:100AF800D96E000EF420DA6E1AC0DEFF1BC0DDFFCF
:100B0800030E3119D8A48BEF05F08DEF05F0C7EF70
:100B180005F01AC0D9FF1BC0DAFFDFAE96EF05F06B
:100B280098EF05F0B9EF05F034BF9DEF05F09FEFA2
:100B380005F0ADEF05F034510F0B156E166A7E0EF9
:100B48001524D96E000E1620DA6E0001DF82B9EF87
:100B580005F034510F0B156E166A810E1524D96EE7
:100B6800000E1620DA6E0001DF821AC0D9FF1BC002
:100B7800DAFF000EDB841AC0D9FF1BC0DAFF000EB3
:100B8800DB8E5FEF06F0040E1A181A6E1B501B6EF0
:100B98001AC0D9FF1BC0DAFFDFAED5EF05F0D7EFDB
:100BA80005F0F3EF05F01AC0D9FF1BC0DAFF7F0E7E
:100BB800DF161AC0D9FF1BC0DAFF000EDB8C000E4F
:100BC8000E6E050E0D6E1AC00FF01BC010F0000E51
:100BD800126E020E116E8EEC24F0F9EF05F01AC0B9
:100BE800D9FF1BC0DAFF000EDB8C040E1A181A6E30
:100BF8001B501B6E19B203EF06F005EF06F010EF5D
:100C080006F01AC0D9FF1BC0DAFFDFAE0EEF06F000
:100C180010EF06F048EF06F0040134BF16EF06F0B7
:100C280018EF06F026EF06F034510F0B156E166A12
:100C38007E0E1524D96E000E1620DA6E0001DF92A2
:100C480032EF06F034510F0B156E166A810E15241B
:100C5800D96E000E1620DA6E0001DF921AC0D9FF95
:100C68001BC0DAFF3B0EDF16000E0E6E050E0D6E72
:100C78001AC00FF01BC010F0000E126E020E116E9B
:100C88008EEC24F04EEF06F01AC0D9FF1BC0DAFF35
:100C98003B0EDF16040134510F0B156E166A6A0EEF
:100CA8001524176E0F0E1620186E17C0D9FF18C01E
:100CB800DAFFFE0EDF161200C8EC31F09EC0BFF05E
:100CC8009FC0C0F0440E0001A26F010EA36FAE0ECC
:100CD800A46F7F0EA56F4EEC2AF01AC19EF01BC1BF
:100CE8009FF01CC1A0F01DC1A1F020EC2FF09EC008
:100CF80048F19FC049F1A0C04AF1A1C04BF1010ED3
:100D080001011A27000E1B231C231D23000E506F00
:100D1800000E516F000E526F000E536F040E586F85
:100D2800000E596F000E5A6F000E5B6F0C0E646F49
:100D3800200E656F660E0001C76F010EC86F1EC1D9
:100D4800A4F01FC1A5F020C1A6F021C1A7F0C7C01B
:100D5800A8F0C8C0A9F0040EAA6F5DEC29F0000E37
:100D680001016A6F080E6B6F6C0E0001C76F010EF0
:100D7800C86F000EC26F000EC16FC1C09EF0C2C026
:100D88009FF0000EA16F030EA06F6EEC30F0B9C09B
:100D9800BBF0BAC0BCF000019E51BB279F51BC23D9
:100DA800010EBB25D96E000EBC21DA6EDECFBDF078
:100DB800DDCFBEF0BDC0A4F0BEC0A5F0A66BA76B8A
:100DC800C7C0A8F0C8C0A9F0020EAA6F5DEC29F050
:100DD800020E0001C727000EC823C14BC22BC2BF99
:100DE800FFEF06F0C25109E1080EC15DD8A0FFEF80
:100DF80006F001EF07F0C1EF06F0010E01017C6F6C
:100E0800050E7D6F7E0E0001C76F010EC86F000EC4
:100E1800C46F000EC36FC351B925BB6FC451BA214B
:100E2800BC6F180EBB25D96E000EBC21DA6EDF50E0
:100E3800010BC7C0D9FFC8C0DAFFDF6EC74BC82B8C
:100E4800C34BC42BC4BF32EF07F0C45109E1050EF0
:100E5800C35DD8A032EF07F034EF07F00FEF07F0CB
:100E6800020E0101836F050E846F850E0001C76FA6
:100E7800010EC86F000EC66F000EC56FC551B925AB
:100E8800BB6FC651BA21BC6F1D0EBB25D96E000EB3
:100E9800BC21DA6EDF50010BC7C0D9FFC8C0DAFF2A
:100EA800DF6EC74BC82BC54BC62BC6BF65EF07F017
:100EB800C65109E1050EC55DD8A065EF07F067EFDB
:100EC80007F042EF07F0000EB46F460EB36FBFC0D5
:100ED800B5F0C0C0B6F0200EBF25B76F000EC02118
:100EE800B86FABEC2AF0440E0001B36F010EB46F7B
:100EF800000EB66F460EB56F020EB76F8EEC29F076
:100F0800010E00018F6F120098EC2FF0400E0001C7
:100F1800A06F020EA16F5CEC2BF0AA0E0001A06F6F
:100F2800060EA16FCBEC2CF01DEC32F088EC22F011
:100F38000001CA6FC2EC31F09EC0A0F09FC0A1F0C2
:100F480007EC27F088EC31F0F0EC2FF0E7EC31F00B
:100F5800F9EC28F0F28EF28C96EC25F025EC31F0C5
:100F68000009D8A4BAEF07F0BCEF07F0D9EF07F0F3
:100F78000001CA51D8B4C3EF07F0C5EF07F0D9EFA5
:100F880007F03DEC31F00009D8A4CDEF07F0CFEF22
:100F980007F0DBEF07F048EC31F00009D8A4D7EFF1
:100FA80007F0D9EF07F0DBEF07F076EC2EF03DEC19
:100FB80031F00009D8A4E3EF07F0E5EF07F0E7EF19
:100FC80007F0B5EC2EF03DEC31F00009D8B4EFEFA6
:100FD80007F0F1EF07F036EF08F0000E0001CD6FD3
:100FE8000A0EC96F09EF08F091EC26F00001CD6FE9
:100FF800CD51D8B402EF08F004EF08F006EF08F07E
:1010080013EF08F00A0E69EC2FF00001C907C9298F
:10101800D8A411EF08F013EF08F0F8EF07F0CD515E
:10102800D8A419EF08F01BEF08F027EF08F053ECED
:1010380031F00009D8B423EF08F025EF08F027EFC6
:1010480008F076EC2EF00001CD51D8A42EEF08F070
:1010580031EF08F0010E32EF08F0000EBBEC31F072
:10106800D2EC2EF0F1EC31F014EC1CF0C2EC31F0C3
:101078009EC0CBF09FC0CCF0CBC0A3F0CCC0A4F0F6
:10108800C9EC1DF09AEC1EF03DEC31F00009D8B423
:1010980050EF08F052EF08F072EF08F0D1EC30F0A2
:1010A8000009D8B45AEF08F05CEF08F062EF08F0D6
:1010B800CBC0B9F0CCC0BAF060EC06F0BEEC30F0B2
:1010C8000009D8B46AEF08F06CEF08F072EF08F086
:1010D800CBC0A5F0CCC0A6F0AEEC16F048EC31F0D1
:1010E8000009D8B47AEF08F07CEF08F09AEF08F01E
:1010F80028EC23F0F6EC14F0A4EC31F00009D8B495
:1011080088EF08F08AEF08F08CEF08F014EC25F06F
:10111800E0EC30F00009D8B494EF08F096EF08F04E
:1011280098EF08F0B7EC09F0B3EC0AF05EEC28F0A1
:101138000A0E69EC2FF03AEF08F09AEF00F0560427
:10114800D8A4A9EF08F0ABEF08F0B8EF08F060BA40
:10115800B0EF08F0B2EF08F0B8EF08F0000E656ED7
:1011680064806488020E566E65A4BDEF08F0BFEF78
:1011780008F0C9EF08F064A4C4EF08F0C6EF08F05F
:10118800C9EF08F0659455EC2EF060A2CEEF08F098
:10119800D0EF08F0D3EF08F0A494B6EF09F065A0FB
:1011A800D8EF08F0DAEF08F0E7EF08F064A0DFEF17
:1011B80008F0E1EF08F0E7EF08F0CDEC11F0A384B8
:1011C800040E566E659065A8ECEF08F0EEEF08F097
:1011D800F7EF08F064A8F3EF08F0F5EF08F0F7EF81
:1011E80008F081EC2FF065ACFCEF08F0FEEF08F09A
:1011F80029EF09F064AC03EF09F005EF09F013EFEC
:1012080009F0000E0E6E730E0D6E000E0F6E000EBE
:10121800106E000E126E010E116E8EEC24F0659C9D
:10122800ECEC2EF05050D8B41CEF09F01EEF09F08A
:101238001FEF09F050065050D8A425EF09F027EF0A
:1012480009F029EF09F0CBEC19F065AA2EEF09F0A7
:1012580030EF09F039EF09F064AA35EF09F037EFFC
:1012680009F039EF09F0EFEC29F065A23EEF09F03B
:1012780040EF09F056EF09F064A245EF09F047EF97
:1012880009F056EF09F07F0E0E6E0D68000E0F6E16
:10129800000E106E000E126E010E116E8EEC24F010
:1012A800000E676E040E56605CEF09F05EEF09F001
:1012B80061EF09F0A494B6EF09F064A666EF09F0AF
:1012C80068EF09F0B5EF09F0000E1F6E65A66FEF25
:1012D80009F071EF09F0B5EF09F061CF57F0573019
:1012E800E832E8320F0B526E659657B47EEF09F07C
:1012F80080EF09F08AEF09F07E0E5224D96EDA6A7F
:10130800000EDA220001DF7092EF09F0810E5224FC
:10131800D96EDA6A000EDA220001DF705250D8A4C2
:1013280098EF09F09AEF09F09EEF09F022EC20F00F
:10133800ACEF09F0000E0E6E720E0D6E570E0F6EAA
:10134800000E106E000E126E000E116E8EEC24F060
:101358001F2A030E1F64B3EF09F0B5EF09F06AEF17
:1013680009F0A494120054EC26F09EC0B7F09FC078
:10137800B8F0B7C0B2F094EF0AF0B851020DEF0E12
:10138800F324D96E010EF420DA6EDECFB3F0DDCF90
:10139800B4F0B851020DEF0EF324D96E010EF4200B
:1013A800DA6EDECF9EF0DDCF9FF001EC2CF000016D
:1013B8009E51B56FB3C02DF1B4C02EF1B5C097F0F2
:1013C800010E966F010E986FB2EF0AF0B8C0B6F032
:1013D800AC0EA26F010EA36FA90EA46F7F0EA56FAE
:1013E8004EEC2AF0B00E0001A96F010EAA6FB6519B
:1013F800090FAB6F36EC22F020EE06F02E50D926FE
:101408002F50DA22DECFB0F0DDCFB1F00001B651B7
:10141800B027000EB123180EB025D96E000EB121E9
:10142800DA6EDFA01AEF0AF01CEF0AF028EF0AF0D4
:10143800AC0EAC6F010EAD6FC60EAE6F7F0EAF6F08
:1014480082EC30F032EF0AF0AC0EAC6F010EAD6FEB
:10145800C20EAE6F7F0EAF6F82EC30F0AC0E0001A3
:10146800B36F010EB46FAC0E9E6F010E9F6F01EC4F
:101478002CF000019E51B56FB3C02DF1B4C02EF110
:10148800E2EF09F0ECEC31F0B8C0B6F0AC0E0001B8
:10149800A26F010EA36FA40EA46F7F0EA56F4EEC72
:1014A8002AF0B00E0001A96F010EAA6FB6C0ABF00A
:1014B80036EC22F0AC0E0001AC6F010EAD6FA70E3A
:1014C800AE6F7F0EAF6F82EC30F0B20E0001A96FE5
:1014D800010EAA6FB651D8EC2BF00001AB6F36ECB9
:1014E80022F0AC0E0001AC6F010EAD6FAD0EAE6F09
:1014F8007D0EAF6F82EC30F0AC0E0001B36F010EC1
:10150800B46FAC0E9E6F010E9F6F01EC2CF00001C2
:101518009E51B56FB3C02DF1B4C02EF1E2EF09F0C2
:101528000001B251B06FB16BB151000AD8B49FEF4E
:101538000AF0B2EF0AF0B051000AD8B4B2EF0AF0DC
:10154800010AD8B4C1EF09F0030AD8B4EAEF09F0E8
:10155800010AD8B446EF0AF0B2EF0AF01200A394D9
:10156800000188518911D8B4BCEF0AF0BEEF0AF027
:10157800CCEF0AF088C0D9FF89C0DAFFDFAEC7EF29
:101588000AF0C9EF0AF0CCEF0AF0A3849BEF0BF046
:10159800030E9819D8A4D3EF0AF0D5EF0AF0D7EFC5
:1015A8000AF0000E986F9851D8A4DDEF0AF0DFEF2B
:1015B8000AF0E2EF0AF0A3849BEF0BF0020E9819F1
:1015C800D8A4E9EF0AF0EBEF0AF0FFEF0AF0010EFA
:1015D8009E6F000E9F6F000EA06F000EA16F020E8F
:1015E80015EC13F09EC088F09FC089F0030E00012F
:1015F800986F9AEF0BF09805D8A405EF0BF007EF5A
:101608000BF09AEF0BF0400E97650DEF0BF00FEF14
:101618000BF013EF0BF0400EAA6F15EF0BF097C00D
:10162800AAF0AA51975D976F000E01012A6F050E67
:101638002B6FAAC0A9F000019651D8A426EF0BF091
:1016480028EF0BF06CEF0BF046EF0BF02DC1F6FF17
:101658002EC1F7FFF86A2AC1D9FF2BC1DAFF070E9E
:10166800F76403D00800F55005D0F6CFE9FFF7CFAF
:10167800EAFFEF50DF6E01012A4B2B2B2D4B2E2B4F
:101688000001A907A951D8A44CEF0BF04EEF0BF0BD
:101698002AEF0BF074EF0BF02DC1F6FF2EC1F7FF08
:1016A800F86A2AC1D9FF2BC1DAFF070EF76403D005
:1016B8000800F55005D0F6CFE9FFF7CFEAFFEF5065
:1016C800DF6E01012A4B2B2B2D4B2E2B0001A90776
:1016D800A951D8A472EF0BF074EF0BF050EF0BF098
:1016E8009751D8A47AEF0BF07CEF0BF08BEF0BF04F
:1016F800400EAA19D8A483EF0BF085EF0BF089EF01
:101708000BF0020E986F8BEF0BF0030E986F010E23
:101718009E6F000E9F6F050EA06FAAC0A1F0020E6B
:1017280015EC13F09EC088F09FC089F0A3841200C6
:10173800000120EE02F0B351D926B451DA22DECFEF
:101748009EF0DDCF9FF0BC0EA06F010EA16F000EC2
:10175800A36F070EA26F200EA46F000EA56F7DEC7D
:101768000CF00001BA6F000EBC6F000EBB6FBBC05F
:10177800B5F0BCC0B6F0D890B537B637D890B53705
:10178800B637980EB525F66E790EB621F76E0900B4
:10179800F5CF9EF00A00F5CF9FF0BCC1A0F0BDC107
:1017A800A1F030EC1BF000019E519F11D8A4DFEF8F
:1017B8000BF0E1EF0BF06CEF0CF034EF0CF053ECA6
:1017C8002CF07CEF0CF053EC2CF0010E0001BE6FF6
:1017D800010EBD6FBDC0A5F0BEC0A6F0020EA76F7A
:1017E800D8EC22F07CEF0CF0000EBE6F010EBD6F3E
:1017F800BDC0A5F0BEC0A6F0010EA76FD8EC22F0C0
:101808007CEF0CF0B3C0A4F0B4C0A5F0BAC0A6F049
:10181800A76BBC0EA86F010EA96FFAEC02F07CEF63
:101828000CF0B3C0A2F0B4C0A3F0BAC0A4F0A56B8A
:10183800BC0EA66F010EA76FD0EC2DF00001B96F9A
:10184800B951D8A42AEF0CF02CEF0CF02EEF0CF0C5
:101858007CEF0CF0B9C0BEF0030EBD6FFCEF0BF0CF
:10186800BBC0B5F0BCC0B6F0D890B537B637D89085
:10187800B537B637020EB527000EB623980EB52534
:10188800F66E790EB621F76E0900F5CFB7F00900AC
:10189800F5CFB8F0B851000AD8B455EF0CF07CEF8A
:1018A8000CF0B751000AD8B4E3EF0BF0010AD8B432
:1018B800E7EF0BF0030AD8B4F8EF0BF0010AD8B43D
:1018C80006EF0CF0070AD8B415EF0CF07CEF0CF01B
:1018D800BB4BBC2BBCBF7AEF0CF0BC5109E1050E29
:1018E800BB5DD8A07AEF0CF07CEF0CF0BBEF0BF0EF
:1018F8001200000E0001AD6F000EAE6FA0C0D9FF40
:10190800A1C0DAFF9EC0DEFF9FC0DDFFAE2B9EC0E8
:10191800D9FF9FC0DAFFDF50D8A495EF0CF097EFFE
:101928000CF0A2EF0CF0A0C0D9FFA1C0DAFF000EA6
:10193800DE6E000EDD6E000E51EF0DF0000EAC6F86
:1019480022EF0DF0A551D8B4ACEF0CF0AEEF0CF0CF
:10195800EDEF0CF09EC0D9FF9FC0DAFFA551DE184D
:10196800D8A4B9EF0CF0BBEF0CF0EDEF0CF0AD51D3
:10197800D8B4C1EF0CF0C3EF0CF0CDEF0CF09EC063
:10198800D9FF9FC0DAFF000EDF6E000EAD6FEDEFDE
:101998000CF0010E9E25A66F000E9F21A76FAE5179
:1019A800A86FA96BD890A837A937A0C0AAF0A1C082
:1019B800ABF0A851AA27A951AB23FE0EAA25D96ED0
:1019C800FF0EAB21DA6EA6C0DEFFA7C0DDFF010E59
:1019D800AD6F9EC0D9FF9FC0DAFFA451DE18D8A40E
:1019E800F8EF0CF0FAEF0CF020EF0DF0AD51D8A4A1
:1019F80000EF0DF002EF0DF020EF0DF09EC0D9FFC3
:101A08009FC0DAFF000EDF6EAC2B010E9E25A66F7D
:101A1800000E9F21A76FAE51020DF3CFA8F0F4CFAF
:101A2800A9F0A851A025D96EA951A121DA6EA6C0A6
:101A3800DEFFA7C0DDFFAE2B9E4B9F2B9EC0D9FFBC
:101A48009FC0DAFFDF50D8B42CEF0DF02EEF0DF069
:101A580040EF0DF0AC51A66FA76BA251A65DA75140
:101A6800800AA86FA351800AA859D8A03EEF0DF0AC
:101A780040EF0DF0A6EF0CF0AE51020DF3CFA6F03B
:101A8800F4CFA7F0A651A025D96EA751A121DA6EEF
:101A9800000EDE6E000EDD6EAE511200000E060165
:101AA800A46F000E0001926F000E916F000E906FF0
:101AB800630E0601A56F060EA66FDEEF0DF0ACEC07
:101AC80031F00601A96FC0EF0DF0630E0601A56F96
:101AD800060EA66F010EA46FDEEF0DF0010E0601D3
:101AE800A46FA5C6D9FFA6C6DAFF000EDF6E630E87
:101AF80000019E6F060E9F6F3D0E7BEC2CF00601D9
:101B0800A36FA351D8B48BEF0DF08DEF0DF05CEF00
:101B18000DF0630EA325D96EDA6A060EDA22000EDE
:101B2800DF6E630E0001AC6F060EAD6F0601A351A8
:101B38000001B56FB66B010EB527000EB623630E14
:101B4800B525AE6F060EB621AF6F24EC0EF05CEF34
:101B58000DF0200E0601A965B4EF0DF0B6EF0DF0FB
:101B6800DEEF0DF0A5C6D9FFA6C6DAFFA9C6DFFFCE
:101B7800A54BA62BDEEF0DF0A9510001B56FB66B92
:101B8800B651000AD8B4CBEF0DF0ADEF0DF0B5515A
:101B9800000AD8B472EF0DF0200AD8B472EF0DF035
:101BA800060AD8B472EF0DF0190AD8B469EF0DF02F
:101BB800ADEF0DF0F6EC31F00009D8A4E6EF0DF02A
:101BC800E8EF0DF063EF0DF00601A451D8B4EFEF84
:101BD8000DF0F1EF0DF022EF0EF0C8EC31F09EC0E1
:101BE800A7F69FC0A8F6060120EE60F0A751D926F7
:101BF800A851DA22000192B103D00601DF9002D089
:101C08000601DF8020EE60F0A751D926A851DA221C
:101C1800000191B103D00601DF9202D00601DF82F4
:101C280020EE60F0A751D926A851DA22000192B11E
:101C380003D00601DF9402D00601DF84A45112000C
:101C4800C8EC31F09EC0B3F09FC0B4F0000E0001A4
:101C5800B26FACC09EF0ADC09FF0B251020DB00E95
:101C6800F324D96E020EF420DA6EDECFA0F0DDCFB9
:101C7800A1F030EC1BF000019E519F11D8A447EF52
:101C88000EF049EF0EF0ECEF0EF0B7EF0EF0B3C028
:101C9800A2F0B4C0A3F0AEC0A4F0AFC0A5F04EEC63
:101CA8002AF0F5EF0EF0200EB325A26F000EB42136
:101CB800A36FAEC0A4F0AFC0A5F04EEC2AF0F5EFCC
:101CC8000EF0280EB325A26F000EB421A36FAEC08C
:101CD800A4F0AFC0A5F04EEC2AF0F5EF0EF0300EF0
:101CE800B325A26F000EB421A36FAEC0A4F0AFC09D
:101CF800A5F04EEC2AF0F5EF0EF0380EB325A26FE2
:101D0800000EB421A36FAEC0A4F0AFC0A5F04EEC96
:101D18002AF0F5EF0EF0400EB325A26F000EB421A5
:101D2800A36FAEC0A4F0AFC0A5F04EEC2AF0F5EF5B
:101D38000EF0500EB325A26F000EB421A36FAEC0F3
:101D4800A4F0AFC0A5F04EEC2AF0F5EF0EF0010EAE
:101D5800926FF5EF0EF0010E916FF5EF0EF0010E98
:101D6800906FF5EF0EF0B251B06FB16BB151000A40
:101D7800D8B4C1EF0EF0ECEF0EF0B051000AD8B4B1
:101D88004BEF0EF0010AD8B457EF0EF0030AD8B49F
:101D980065EF0EF0010AD8B473EF0EF0070AD8B455
:101DA80081EF0EF0010AD8B48FEF0EF0030AD8B411
:101DB8009DEF0EF0010AD8B4ABEF0EF00F0AD8B4BD
:101DC800AFEF0EF0010AD8B4B3EF0EF0ECEF0EF05F
:101DD800B22B090EB265F3EF0EF0F5EF0EF02DEF12
:101DE8000EF012009EC0A8F09FC0A9F00001A251F9
:101DF800A311D8A402EF0FF004EF0FF006EF0FF0D5
:101E0800B1EF0FF0A8C0D9FFA9C0DAFFA0C0DFFF6B
:101E1800A251A825A46FA351A921A56FFF0EA4253F
:101E2800D96EFF0EA521DA6EA0C0DFFFA35107E12E
:101E3800030EA25DD8B023EF0FF025EF0FF027EFC8
:101E48000FF0B1EF0FF020EE01F0A851D926A951FB
:101E5800DA22A0C0DFFF20EE02F0A851D926A9514E
:101E6800DA22A0C0DFFFA251A825A46FA351A9219F
:101E7800A56FFE0EA425D96EFF0EA521DA6EA0C0AF
:101E8800DFFFA251A825A46FA351A921A56FFD0EBC
:101E9800A425D96EFF0EA521DA6EA0C0DFFFA351DD
:101EA80007E1070EA25DD8B05CEF0FF05EEF0FF010
:101EB80060EF0FF0B1EF0FF020EE03F0A851D92634
:101EC800A951DA22A0C0DFFFA251A825A46FA3510F
:101ED800A921A56FFC0EA425D96EFF0EA521DA6EE7
:101EE800A0C0DFFFA35107E1090EA25DD8B07FEFC4
:101EF8000FF081EF0FF083EF0FF0B1EF0FF0A8C0F4
:101F0800A4F0A9C0A5F0A41FA51FA44BA52B030EE0
:101F1800A415A66FA76BA651A827A751A923A65158
:101F2800A25FA751A35BFC0EA217FF0EA317A8EF91
:101F38000FF0A8C0D9FFA9C0DAFFA0C0DFFFA20731
:101F4800D8A0A307A84BA92BA251A311D8A4AFEFDF
:101F58000FF0B1EF0FF09DEF0FF0120001C00BF082
:101F680002C00CF005500610D8A4BDEF0FF0BFEF6B
:101F78000FF0C1EF0FF06CEF10F00BC0D9FF0CC0E1
:101F8800DAFF03C0DFFF05500B24076E06500C2054
:101F9800086EFF0E0724D96EFF0E0820DA6E03C004
:101FA800DFFF065007E1030E055CD8B0DEEF0FF047
:101FB800E0EF0FF0E2EF0FF06CEF10F020EE01F021
:101FC8000B50D9260C50DA2203C0DFFF20EE02F0B6
:101FD8000B50D9260C50DA2203C0DFFF05500B2422
:101FE800076E06500C20086EFE0E0724D96EFF0EF1
:101FF8000820DA6E03C0DFFF05500B24076E065079
:102008000C20086EFD0E0724D96EFF0E0820DA6E2C
:1020180003C0DFFF065007E1070E055CD8B017EFD5
:1020280010F019EF10F01BEF10F06CEF10F020EE2D
:1020380003F00B50D9260C50DA2203C0DFFF0550FD
:102048000B24076E06500C20086EFC0E0724D96E70
:10205800FF0E0820DA6E03C0DFFF065007E1090E05
:10206800055CD8B03AEF10F03CEF10F03EEF10F0FE
:102078006CEF10F00BC007F00CC008F0071E081E2C
:10208800074A082A030E0714096E0A6A09500B2624
:102098000A500C220950055E0A50065AFC0E051615
:1020A800FF0E061663EF10F00BC0D9FF0CC0DAFF65
:1020B80003C0DFFF0506D8A006060B4A0C2A055008
:1020C8000610D8A46AEF10F06CEF10F058EF10F07B
:1020D8001200800E04013019D8A475EF10F077EFC4
:1020E80010F026EF11F0C00E00016B6F0CEF11F02D
:1020F8002D0E0001686F7A0E696F000E6D6F120E5B
:102108006C6F26EF11F03251D8A48DEF10F08FEFDD
:1021180010F0D0EF10F03251020DB40EF324F66E29
:10212800790EF420F76E0900F5CF68F00A00F5CFB4
:1021380069F0020E00016825016E000E6921026E29
:1021480001C0F6FF02C0F7FFF86A070EF76403D074
:102158000800F55005D0F6CFE9FFF7CFEAFFEF50BA
:1021680000016C6F030E6825016E000E6921026E76
:1021780001C0F6FF02C0F7FFF86A070EF76403D044
:102188000800F55005D0F6CFE9FFF7CFEAFFEF508A
:1021980000016D6F26EF11F0000E00016B6F26EF46
:1021A80011F0040E3261DBEF10F0DDEF10F002EFFA
:1021B80011F03251020DAC0EF324F66E790EF420B4
:1021C800F76E0900F5CF68F00A00F5CF69F068C02E
:1021D800F6FF69C0F7FFF86A070EF76403D0080036
:1021E800F55005D0F6CFE9FFF7CFEAFFEF50016EC3
:1021F800015000016C6F6D6B26EF11F0000E0001AD
:102208006B6F26EF11F0000E00016B6F26EF11F0D7
:1022180004013351016E026A0250000AD8B417EF64
:1022280011F007EF11F00150010AD8B47CEF10F05B
:10223800030AD8B487EF10F0010AD8B4D5EF10F02C
:1022480007EF11F01200A394000E676E000E656E82
:10225800000E6A6E6B0E00019E6F0F0E9F6F000ED0
:10226800A16F000EA06F000EA36F020EA26FF6EC16
:102278000EF0160E626E9F0E666E7B0E646E000E7A
:102288000001AA6FAA51040D000EF324D96E040EA2
:10229800F420DA6EDE6ADE6ADE6ADD6AAA2B0B0ECD
:1022A800AA6559EF11F05BEF11F046EF11F0608C61
:1022B800000E636E6098609C6596000E6B6F000E52
:1022C800636F000E656F000E646F65B66EEF11F0F8
:1022D80070EF11F060EF11F0010E4E6E010E4D6EB1
:1022E800000E4C6E000E4B6E000E9B6F000EAA6F18
:1022F800AA51020D6E0EF324D96E000EF420DA6E88
:10230800000EDE6E000EDD6EAA51020D740EF3246F
:10231800D96E000EF420DA6E000EDE6E000EDD6E51
:10232800810EAA25D96EDA6A000EDA22000EDF6E57
:102338007E0EAA25D96EDA6A000EDA22000EDF6E4A
:10234800AA2B020EAA65ABEF11F0ADEF11F07CEFEE
:1023580011F0080E6E6F040E6F6F160E6A6E040E83
:102368000401036F300E026F080E016F040E006F38
:10237800008F000E586E000E00017A6F000E7B6F02
:10238800000E7C6F000E7D6F000E9A6F000E566E69
:102398001200A394000E676E000E656E000E6A6E42
:1023A8006B0E016E0F0E026E000E046E000E036EB1
:1023B800000E066E020E056EB2EC0FF0160E626E7F
:1023C8009F0E666E7B0E646E000E0D6E0D50040D32
:1023D800000EF324D96E040EF420DA6EDE6ADE6A8B
:1023E800DE6ADD6A0D2A0B0E0D64FDEF11F0FFEFBA
:1023F80011F0EAEF11F0608C000E636E6098609C3B
:102408006596000E00016B6F000E636F000E656F1E
:10241800000E646F65B613EF12F015EF12F004EFBB
:1024280012F0010E4E6E010E4D6E000E4C6E000E37
:102438004B6E000E9B6F000E0D6E0D50020D6E0E52
:10244800F324D96E000EF420DA6E000EDE6E000E54
:10245800DD6E0D50020D740EF324D96E000EF420BB
:10246800DA6E000EDE6E000EDD6E810E0D24D96E62
:10247800DA6A000EDA22000EDF6E7E0E0D24D96EA7
:10248800DA6A000EDA22000EDF6E0D2A020E0D64E3
:1024980050EF12F052EF12F021EF12F0080E000187
:1024A8006E6F040E6F6F160E6A6E040E0401036FD2
:1024B800300E026F080E016F040E006F008F000EC1
:1024C800586E000E00017A6F000E7B6F000E7C6F55
:1024D800000E7D6F000E9A6F000E566E120020EEF1
:1024E80001F03450D9263550DA22DF50026E0250FE
:1024F8000001645D000E6559D8B085EF12F087EFD2
:1025080012F089EF12F064C002F00250645F000E0E
:10251800655B000E016EA0EF12F0380E0124D96E33
:10252800DA6A040EDA2260C0E1FF61C0E2FFDFCFA1
:10253800E7FF604B612B012A0250015CD8A0A7EF8E
:1025480012F0A9EF12F091EF12F064516511D8B4AE
:10255800B0EF12F0B2EF12F0EBEF12F020EE01F054
:102568003250D9263350DA22080EDF6E20EE02F000
:102578003250D9263350DA22380EDE6E040EDD6E64
:1025880034C0D9FF35C0DAFFDFBCCDEF12F0CFEF92
:1025980012F0DDEF12F032C0D9FF33C0DAFF480E77
:1025A800DF6E32C0D9FF33C0DAFF000EDB8E14EFC6
:1025B80013F032C0D9FF33C0DAFF080EDF6E32C025
:1025C800D9FF33C0DAFF000EDB8E14EF13F020EED4
:1025D80001F03250D9263350DA22080EDF6E20EE91
:1025E80002F03250D9263350DA22300EDE6E040E55
:1025F800DD6E32C0D9FF33C0DAFF040EDF6E32C0A1
:10260800D9FF33C0DAFF000EDB8E639F4F50D8A48A
:1026180010EF13F012EF13F014EF13F0CBEC19F0E6
:1026280012000001A66F00019E51D8B41EEF13F0EE
:1026380020EF13F02EEF13F0A651020D6E0EF324C7
:10264800D96E000EF420DA6EDECFA7F0DDCFA8F049
:102658003AEF13F0A651020D740EF324D96E000E52
:10266800F420DA6EDECFA7F0DDCFA8F0A751A811CD
:10267800D8A441EF13F043EF13F049EF13F0000E25
:102688009E6F000E9F6FB5EF13F020EE02F0A7517A
:10269800D926A851DA229FC0DEFFA0C0DDFF20EEB8
:1026A80001F0A751D926A851DA22A1C0DFFFA7C09F
:1026B800D9FFA8C0DAFF400EDF16A7C0D9FFA8C00F
:1026C800DAFF000EDB86A7C0D9FFA8C0DAFF000E2C
:1026D800DB8E9E51D8B473EF13F075EF13F094EFBF
:1026E80013F0A651020D6E0EF324D96E000EF420DD
:1026F800DA6EDECFA2F0DDCFA3F0040EA219A46F2C
:10270800A351A56FA651020D6E0EF324D96E000ECB
:10271800F420DA6EA4C0DEFFA5C0DDFFB1EF13F030
:10272800A651020D740EF324D96E000EF420DA6E51
:10273800DECFA2F0DDCFA3F0040EA219A46FA3513F
:10274800A56FA651020D740EF324D96E000EF42065
:10275800DA6EA4C0DEFFA5C0DDFFA7C09EF0A8C04A
:102768009FF01200609800016BBFBDEF13F0BFEF40
:1027780013F004EF14F063AFC4EF13F0C6EF13F0D7
:10278800D8EF13F0020E546E4B50D8A4CEEF13F0CE
:10279800D0EF13F0D2EF13F07EEC20F0000E4D6E68
:1027A800000E4E6E56EF14F020EE01F03250D9268E
:1027B8003350DA22080EDF6E20EE02F03250D926AE
:1027C8003350DA22300EDE6E040EDD6E32C0D9FFD1
:1027D80033C0DAFF0C0EDF6E32C0D9FF33C0DAFF28
:1027E800000EDB8E6EC0D9FF6FC0DAFF040EDF6EFD
:1027F8006EC0D9FF6FC0DAFF000EDB8E56EF14F003
:10280800040130AF0AEF14F00CEF14F028EF14F0C5
:10281800010E546E4C50D8A414EF14F016EF14F0B7
:1028280018EF14F07EEC20F0000E4D6E000E4E6E88
:102838004F50D8A422EF14F024EF14F056EF14F000
:10284800CBEC19F056EF14F0020E546E20EE01F0A6
:102858003250D9263350DA22080EDF6E20EE02F00D
:102868003250D9263350DA22300EDE6E040EDD6E79
:1028780032C0D9FF33C0DAFF040EDF6E32C0D9FF91
:1028880033C0DAFF000EDB8E000E4D6E000E4E6E6A
:102898004F50D8A452EF14F054EF14F056EF14F040
:1028A80024EF14F01200096E0150D8B45EEF14F052
:1028B80060EF14F06EEF14F00950020D6E0EF32461
:1028C800D96E000EF420DA6EDECF0AF0DDCF0BF001
:1028D8007AEF14F00950020D740EF324D96E000E2D
:1028E800F420DA6EDECF0AF0DDCF0BF00A500B10C1
:1028F800D8A481EF14F083EF14F089EF14F0000EE0
:10290800016E000E026EF5EF14F020EE02F00A5090
:10291800D9260B50DA2202C0DEFF03C0DDFF20EE0D
:1029280001F00A50D9260B50DA2204C0DFFF0AC092
:10293800D9FF0BC0DAFF400EDF160AC0D9FF0BC063
:10294800DAFF000EDB860AC0D9FF0BC0DAFF000EE3
:10295800DB8E0150D8B4B3EF14F0B5EF14F0D4EF18
:1029680014F00950020D6E0EF324D96E000EF420F7
:10297800DA6EDECF05F0DDCF06F0040E0518076E1F
:102988000650086E0950020D6E0EF324D96E000E23
:10299800F420DA6E07C0DEFF08C0DDFFF1EF14F0A7
:1029A8000950020D740EF324D96E000EF420DA6E6D
:1029B800DECF05F0DDCF06F0040E0518076E0650D1
:1029C800086E0950020D740EF324D96E000EF4201F
:1029D800DA6E07C0DEFF08C0DDFF0AC001F00BC0D9
:1029E80002F01200CA0E0001C26F010EC36F76EF2B
:1029F80015F0400E9E6F020E9F6FD2EC24F000017E
:102A0800C16FC151D8A40BEF15F00DEF15F00FEF02
:102A180015F08FEF15F020EE04F0C251D926C351FE
:102A2800DA22010EDE6E000EDD6E84C0D9FF85C08D
:102A3800DAFFC1C0DFFF844B852BC2C0D9FFC3C0FA
:102A4800DAFF010EDF6E8FEF15F0400E9E6F020E5B
:102A58009F6FD2EC24F00001C16FC151D8A437EFA9
:102A680015F039EF15F03BEF15F08FEF15F00A0E62
:102A7800C119D8A442EF15F044EF15F063EF15F033
:102A8800C2C0D9FFC3C0DAFF000EDF6E84C0D9FF11
:102A980085C0DAFF000EDF6EC2C0B3F0C3C0B4F069
:102AA8009CEC0BF0000120EE02F0C251D926C35174
:102AB800DA22DECF84F0DDCF85F08FEF15F084C009
:102AC800D9FF85C0DAFFC1C0DFFF844B852B20EE1C
:102AD80004F0C251D926C351DA22DE2A000EDD22C3
:102AE8008FEF15F0C2C0D9FFC3C0DAFFDF50BF6F48
:102AF800C06BC051000AD8B484EF15F08FEF15F001
:102B0800BF51000AD8B4FDEF14F0010AD8B429EF78
:102B180015F08FEF15F0120004013039E832030B7D
:102B28000009D8B49AEF15F09CEF15F0E9EF15F00D
:102B380022EF16F000016B8F080E566E22EF16F08A
:102B48006DEC10F022EF16F0BBEC1AF022EF16F045
:102B5800580E0001686F000E696F6B81010E6C6F73
:102B68006B8F22EF16F0C0EC17F022EF16F0B2ECE4
:102B780004F022EF16F09C0E34250001686F696B93
:102B8800000E69236B81010E6C6F6B8F22EF16F0BC
:102B980000016B8F9C0E04013425D96EDA6A000E91
:102BA800DA2232C4DFFF22EF16F0000E0E6E020E9C
:102BB8000D6E000E0F6E000E106E000E126E000EDF
:102BC800116E8EEC24F022EF16F031511C6E1D6A46
:102BD8001D50000AD8B4F3EF15F022EF16F01C5080
:102BE800000AD8B4B7EF15F0010AD8B4BBEF15F056
:102BF800020AD8B4BBEF15F0060AD8B49EEF15F058
:102C0800030AD8B4A4EF15F0010AD8B4D9EF15F027
:102C18000F0AD8B4ACEF15F0010AD8B4A8EF15F034
:102C2800030AD8B4BFEF15F0010AD8B4CCEF15F0F9
:102C3800070AD8B422EF16F022EF16F01200560E4B
:102C4800F66E520EF76E000EF86E06EE00F010EEFD
:102C580063F00900F5CFEEFFE550E150FAE1FC0E14
:102C6800F66E620EF76E000EF86E02EEB0F010EE21
:102C780014F00900F5CFEEFFE550E150FAE1E80E57
:102C8800F66E620EF76E000EF86E01EEE1F010EED1
:102C980014F00900F5CFEEFFE550E150FAE10C0E13
:102CA800F66E570EF76E000EF86E04EE40F010EE5A
:102CB80052F00900F5CFEEFFE550E150FAE12E0E93
:102CC800F66E640EF76E000EF86E00EECEF010EEA3
:102CD80004F00900F5CFEEFFE550E150FAE106EE09
:102CE800AAF011EE03F0EE6AE550E150FCE1E25083
:102CF800FAE103EE00F0E30EEE6AE806FDE102EE0B
:102D080000F0B00EEE6AE806FDE101EE00F0E10E1B
:102D1800EE6AE806FDE104EE92F0400EEE6AE8067F
:102D2800FDE100EE60F03E0EEE6AE806FDE105EE1C
:102D380080F0400EEE6AE806FDE100EE2EF02B0E64
:102D4800EE6AE806FDE159905992000EF86E00010E
:102D580088EF07F0830E0001AB6F020EAC6F050E13
:102D6800AB27000EAC23ABC09FF0ACC0A0F0000EA8
:102D7800A26F280EA16F0A0EA36F7BEC27F000014B
:102D8800AD6FAD51D8A4CBEF16F0CDEF16F0CFEF65
:102D980016F037EF17F0AAC2AAF0C2EC31F09EC0C5
:102DA800AEF09FC0AFF0000E0001B06F2CEF17F02F
:102DB800B051AE25A76F000EAF21A86F1D0EA72535
:102DC800D96E000EA821DA6EDFB0EDEF16F0F1EF44
:102DD80016F0A96BA92BF3EF16F00001A96BAB0E47
:102DE800B025D96EDA6A020EDA22DF50010BA91972
:102DF800D8B401EF17F003EF17F02BEF17F0AB0E75
:102E0800B025D96EDA6A020EDA22DF50A76F010EFA
:102E1800A717B051AE25A86F000EAF21A96F1D0EE0
:102E2800A825D96E000EA921DA6EDF50A719FE0B6E
:102E3800A719DF6EB051AE25A76F000EAF21A86F9E
:102E48001D0EA725D96E000EA821DA6EDF82B02BE1
:102E5800AA51B05DD8A033EF17F035EF17F0DCEFCB
:102E680016F0000E8F6F1200080E016E00016D51F2
:102E780007E1080E6C5DD8B044EF17F046EF17F085
:102E88005EEF17F06CC001F05550D8A44EEF17F064
:102E980050EF17F054EF17F0010E556E5EEF17F074
:102EA8005504D8A45AEF17F05CEF17F05EEF17F04F
:102EB800020E556E01506C5F000E6D5B20EE01F046
:102EC8006E51D9266F51DA2201C0DFFF380E8C6FA0
:102ED800040E8D6F6BB173EF17F075EF17F0B7EF46
:102EE80017F092EF17F068C0F6FF69C0F7FFF86AAD
:102EF8008CC0D9FF8DC0DAFF070EF76403D0080035
:102F0800F55005D0F6CFE9FFF7CFEAFFEF50DF6EB7
:102F18000001684B692B8C4B8D2B01060150D8A4FE
:102F280098EF17F09AEF17F077EF17F0BFEF17F059
:102F380068C0F6FF69C0F7FFF86A8CC0D9FF8DC07A
:102F4800DAFF070EF76403D00800F55005D0F6CF76
:102F5800E9FFF7CFEAFFEF50DF6E0001684B692BFE
:102F68008C4B8D2B01060150D8A4BDEF17F0BFEF95
:102F780017F09CEF17F01200000E0401386F000ED6
:102F8800396F1DEF18F000016B8F5304D8A4CFEFF1
:102F980017F0D1EF17F037EF18F00401388337EF47
:102FA80018F000016B8F37EF18F000016B8F0401E8
:102FB80034BFE1EF17F0E3EF17F0F4EF17F03451F7
:102FC8000F0B016E0150020D740EF324D96E000E22
:102FD800F420DA6EDECF03F0DDCF04F003EF18F053
:102FE80034510F0B016E0150020D6E0EF324D96E91
:102FF800000EF420DA6EDECF03F0DDCF04F003C05C
:10300800D9FF04C0DAFFDFAE0CEF18F00EEF18F0AE
:1030180037EF18F003C0D9FF04C0DAFFDFA417EFB9
:1030280018F019EF18F037EF18F0010E386F37EF76
:1030380018F030511F0B016E026A0250000AD8B412
:1030480028EF18F037EF18F00150000AD8B4C7EF8E
:1030580017F0010AD8B4D5EF17F0030AD8B4D9EF9E
:1030680017F037EF18F000016BAF3DEF18F03FEFA6
:1030780018F046EF18F0380E686F040E696F6B8110
:10308800020E6C6F1200040130511F0BE806D8B411
:1030980050EF18F052EF18F054EF18F0CCEF18F08A
:1030A8003039E832030BE806D8B45DEF18F05FEF6B
:1030B80018F061EF18F0CCEF18F03451D8B467EF7E
:1030C80018F069EF18F0ABEF18F03405D8B46FEFCB
:1030D80018F071EF18F0ABEF18F0CCEF18F0D20E33
:1030E8000001686F010E696F000E6D6F080E6C6F3E
:1030F8006B816B8FCCEF18F0D20E0001686F010E58
:10310800696F6B8FCCEF18F036C464F037C465F084
:10311800DA0E0001606F010E616F000E666F000E1F
:10312800676F638FCCEF18F0DA0E0001686F010E3D
:10313800696F000E6D6F070E6C6FC10E6B6FCCEF71
:1031480018F032C44AF000016B8FCCEF18F03151FF
:10315800016E026A0250000AD8B4B5EF18F0CCEF3D
:1031680018F00150000AD8B473EF18F0010AD8B467
:1031780080EF18F0210AD8B488EF18F0010AD8B403
:1031880098EF18F0030AD8B4A5EF18F0CCEF18F0B0
:1031980012006EC0D9FF6FC0DAFF0001000EDFBC5D
:1031A800010E026E040E6E196E6F6F516F6F080E6E
:1031B8005618D8A4E2EF18F0E4EF18F0F6EF18F07C
:1031C800040132517F0B636E6350D8B4EEEF18F0F0
:1031D800F0EF18F0F4EF18F0100E566EF6EF18F046
:1031E800040E566E5404D8A4FCEF18F0FEEF18F045
:1031F80046EF19F0000120EE02F06E51D9266F510A
:10320800DA22380EDE6E040EDD6E38EC17F0020E90
:103218005518D8A412EF19F014EF19F022EF19F08D
:103228006EC0D9FF6FC0DAFF040EDF6E6EC0D9FF23
:103238006FC0DAFF000EDB8E51EF19F00250D8A4F0
:1032480028EF19F02AEF19F038EF19F06EC0D9FFFE
:103258006FC0DAFF480EDF6E6EC0D9FF6FC0DAFFAD
:10326800000EDB8E51EF19F06EC0D9FF6FC0DAFF88
:10327800080EDF6E6EC0D9FF6FC0DAFF000EDB8E5E
:1032880051EF19F0000163AF4CEF19F04EEF19F050
:103298004FEF19F0639F000E546E1200850E000167
:1032A800A16F7E0EA26F020EA36F19EC2DF0FC0E1B
:1032B8000001AF6F7F0EB06F020EB16F15EC26F0F4
:1032C8003D6E3D50D8A46BEF19F06DEF19F070EF1B
:1032D80019F0000ECAEF19F0F90E0001A16F7D0E6A
:1032E800A26F020EA36F19EC2DF0B3C0A1F0B4C009
:1032F800A2F0020E0001A36F19EC2DF0F90E0001E7
:10330800A16F7F0EA26F020EA36F19EC2DF0B5C04E
:10331800A1F0B6C0A2F0020E0001A36F19EC2DF0C7
:10332800FA0E0001A16F7F0EA26F020EA36F19ECB7
:103338002DF0B7C0A1F0B8C0A2F0020E0001A36F33
:1033480019EC2DF0FA0E0001A16F7F0EA26F020E8C
:10335800A36F19EC2DF06F0E0001A16F7D0EA26F07
:10336800020EA36F19EC2DF0AA0E00019E6F060E37
:103378009F6F51EC2FF0FC0E0001AF6F7F0EB06F06
:10338800020EB16F15EC26F03D6E3D5012004E5006
:10339800D8A4D1EF19F0D3EF19F043EF1AF0010ECA
:1033A8004E6E4D50D8A4DBEF19F0DDEF19F043EF66
:1033B8001AF0010E4D6E020E5418D8A4E6EF19F05B
:1033C800E8EF19F0FFEF19F0000120EE01F06E515F
:1033D800D9266F51DA22000EDF6E6EC0D9FF6FC09A
:1033E800DAFF480EDF6E6EC0D9FF6FC0DAFF000E3D
:1033F800DB8E43EF1AF05404D8A405EF1AF007EF58
:103408001AF043EF1AF0000E516E20EE01F034501E
:10341800D9263550DA22080EDF6E20EE02F034503D
:10342800D9263550DA22300EDE6E040EDD6E34C039
:10343800D9FF35C0DAFF040EDF6E34C0D9FF35C0BE
:10344800DAFF000EDB8E010E516E20EE01F03250D5
:10345800D9263350DA22080EDF6E20EE02F0325001
:10346800D9263350DA22300EDE6E040EDD6E32C0FD
:10347800D9FF33C0DAFF800EDF6E43EF1AF0120077
:10348800A4C09EF0A5C09FF001EC2CF000019E5155
:10349800AE6F20EE02F0A251D926A351DA22AE5126
:1034A800DE5CD8B05AEF1AF05CEF1AF05FEF1AF052
:1034B800000EBAEF1AF0A2C0D9FFA3C0DAFFDF509E
:1034C800A66FA76BAE51A65F000EA75BFF0EA625E1
:1034D800AC6FFF0EA721AD6FADBF77EF1AF075EF98
:1034E8001AF079EF1AF0010EAD27000EAB6F000E3F
:1034F800AA6FA7EF1AF0AC51A225A66FAD51A32170
:10350800A76F030EA625D96E000EA721DA6EDF502D
:10351800A96FAC4BAD2BAA51A425A66FAB51A52121
:10352800A76FA6C0F6FFA7C0F7FF0800F550A919B6
:10353800D8B4A1EF1AF0A3EF1AF0A5EF1AF05CEFD8
:103548001AF0AA4BAB2BAE51A66FA76BA651AA5D7A
:10355800AB51800AA86FA751800AA859D8A0B7EF25
:103568001AF0B9EF1AF07FEF1AF0010E12000001FD
:103578006B8F6B0E016E0F0E026E000E046E000E46
:10358800036E000E066E020E056EB2EC0FF0000E12
:10359800016E040E026E000E046E000E036E000E25
:1035A800066E300E056EB2EC0FF0608C000E156ED4
:1035B800810E1524D96EDA6A000EDA22000EDF6E4B
:1035C8007E0E1524D96EDA6A000EDA22000EDF6E3E
:1035D800152A020E1564F3EF1AF0F5EF1AF0DCEF76
:1035E8001AF09C0E016E000E026E000E046E000EA4
:1035F800036E000E066E020E056EB2EC0FF0609CB4
:10360800080E00016E6F040E6F6F000E346E040E0C
:10361800356E34C032F035C033F032C458F05850EB
:10362800D8A419EF1BF01BEF1BF01FEF1BF0100EB7
:10363800566E2FEF1BF0000E0E6E010E0D6E580E1B
:103648000F6E000E106E000E126E010E116E8EECD3
:1036580024F0200E566E120037EF1BF000019E4B2F
:103668009F2BA04BA12BA0C0F6FFA1C0F7FFF86AC3
:10367800070EF76403D00800F55005D0F6CFE9FF30
:10368800F7CFEAFFEF500001A26F9EC0F6FF9FC080
:10369800F7FFF86A070EF76403D00800F55005D065
:1036A800F6CFE9FFF7CFEAFFEF50A219D8A45FEFF2
:1036B8001BF061EF1BF079EF1BF09EC0F6FF9FC077
:1036C800F7FFF86A070EF76403D00800F55005D035
:1036D800F6CFE9FFF7CFEAFFEF500009D8A477EF5C
:1036E8001BF079EF1BF032EF1BF09EC0F6FF9FC076
:1036F800F7FFF86A070EF76403D00800F55005D005
:10370800F6CFE9FFF7CFEAFFEF500001A26FA0C0A4
:10371800F6FFA1C0F7FFF86A070EF76403D00800A8
:10372800F55005D0F6CFE9FFF7CFEAFFEF500001DB
:10373800A36FA351A25D9E6F9F6BD8A09F07120035
:10374800430E0001A16F7E0EA26F020EA36F19EC4B
:103758002DF0FC0E0001AF6F7F0EB06F020EB16F3F
:1037680015EC26F03D6E920E0001A16F7D0EA26F42
:10377800020EA36F19EC2DF0FC0E0001AF6F7F0E47
:10378800B06F020EB16F15EC26F03D6EDE0E000133
:10379800A16F7E0EA26F020EA36F19EC2DF0B3C0BD
:1037A800A1F0B4C0A2F0020E0001A36F19EC2DF035
:1037B800090E0001A16F7E0EA26F020EA36F19EC15
:1037C8002DF0B5C0A1F0B6C0A2F0020E0001A36FA3
:1037D80019EC2DF0AB0E0001A16F7D0EA26F020E49
:1037E800A36F19EC2DF0AA0E00019E6F060E9F6FB5
:1037F80051EC2FF0FC0E0001AF6F7F0EB06F020E80
:10380800B16F15EC26F03D6E850E0001AF6F7F0E8F
:10381800B06F020EB16F15EC26F03D6E3D501200F0
:10382800000E0001A16FA1519E6F9F6B180E9E277D
:10383800000E9F23350E9E25F66E790E9F21F76E9A
:10384800A20EA125D96EDA6A010EDA220800F5CF98
:10385800DFFFA12B040EA16534EF1CF036EF1CF03E
:1038680017EF1CF0000EA16FA1519E6F9F6B1D0EEC
:103878009E27000E9F23350E9E25F66E790E9F21FA
:10388800F76EA70EA125D96EDA6A010EDA220800B2
:10389800F5CFDFFFA12B040EA16555EF1CF057EF04
:1038A8001CF038EF1CF0000EA16FA151030D350E6E
:1038B800F324F66E790EF420F76E0900F5CF9EF02A
:1038C8000900F5CF9FF00900F5CFA0F0A151030D35
:1038D8008A0EF324D96E010EF420DA6E9EC0DEFF44
:1038E8009FC0DEFFA0C0DEFFA12B070EA1657FEF02
:1038F8001CF081EF1CF059EF1CF01200AA0E000119
:103908009E6F060E9F6F51EC2FF0010E3D6E550E07
:103918000001A16F7E0EA26F020EA36F19EC2DF0AD
:10392800FC0E0001AF6F7F0EB06F020EB16F15EC89
:1039380026F03D6E3D50D8B4A4EF1CF0A6EF1CF065
:10394800B9EF1CF04C0E0001A16F7D0EA26F020EA4
:10395800A36F19EC2DF0FC0E0001AF6F7F0EB06F56
:10396800020EB16F15EC26F03D6E3D50D8B4BFEF96
:103978001CF0C1EF1CF0D4EF1CF0930E0001A16FF6
:103988007E0EA26F020EA36F19EC2DF0FC0E000143
:10399800AF6F7F0EB06F020EB16F15EC26F03D6E63
:1039A8003D50D8B4DAEF1CF0DCEF1CF0EFEF1CF060
:1039B800E50E0001A16F7D0EA26F020EA36F19EC38
:1039C8002DF0FC0E0001AF6F7F0EB06F020EB16FCD
:1039D80015EC26F03D6E12000001A16F3AEF1DF0C4
:1039E8009E51D8B4FAEF1CF0FCEF1CF0FFEF1CF06E
:1039F8008A805CEF1DF08A905CEF1DF09E51D8B470
:103A080008EF1DF00AEF1DF00DEF1DF08A825CEF44
:103A18001DF08A925CEF1DF09E51D8B416EF1DF090
:103A280018EF1DF01BEF1DF08A845CEF1DF08A94DF
:103A38005CEF1DF09E51D8B424EF1DF026EF1DF069
:103A480029EF1DF08A865CEF1DF08A965CEF1DF069
:103A58009E51D8B432EF1DF034EF1DF037EF1DF052
:103A68008A885CEF1DF08A985CEF1DF00001A15177
:103A78009F6FA06BA051000AD8B445EF1DF05CEF12
:103A88001DF09F51000AD8B4F4EF1CF0010AD8B415
:103A980002EF1DF0030AD8B410EF1DF0010AD8B4E4
:103AA8001EEF1DF0070AD8B42CEF1DF05CEF1DF0D7
:103AB80012000001A26FA2EF1DF080A066EF1DF0BA
:103AC80069EF1DF0010E6AEF1DF0000E9E6F9F6BEF
:103AD800C8EF1DF080A273EF1DF076EF1DF0010E08
:103AE80077EF1DF0000E9E6F9F6BC8EF1DF080A44E
:103AF80080EF1DF083EF1DF0010E84EF1DF0000E26
:103B08009E6F9F6BC8EF1DF080A68DEF1DF090EFA4
:103B18001DF0010E91EF1DF0000E9E6F9F6BC8EF18
:103B28001DF080A89AEF1DF09DEF1DF0010E9EEF8D
:103B38001DF0000E9E6F9F6BC8EF1DF00001A25193
:103B4800A06FA16BA151000AD8B4ADEF1DF0C4EF6E
:103B58001DF0A051000AD8B461EF1DF0010AD8B4D5
:103B68006EEF1DF0030AD8B47BEF1DF0010AD8B43C
:103B780088EF1DF0070AD8B495EF1DF0C4EF1DF0CB
:103B8800000E9F6F000E9E6F12003B50D8A4CFEF1F
:103B98001DF0D1EF1DF0D3EF1DF032EF1EF0E10E56
:103BA8003A24D96EDA6A010EDA22DF50ADEC2DF034
:103BB8009EC0A9F09FC0AAF03A50030DA3C0A5F07B
:103BC800A4C0A6F0F3500001A527F450A623010EC7
:103BD800A525D96E000EA621DA6EA9C0DEFFAAC0FF
:103BE800DDFF3A50030DA3C0A5F0A4C0A6F0F35022
:103BF800A527F450A623010EA525D96E000EA621EF
:103C0800DA6EA951DE1809E1AA51DE18D8B40FEF0F
:103C18001EF011EF1EF020EF1EF03A50030DF3CF07
:103C2800A5F0F4CFA6F0A551A325D96EA651A421DD
:103C3800DA6EDF802DEF1EF03A50030DF3CFA5F0BA
:103C4800F4CFA6F0A551A325D96EA651A421DA6E0A
:103C5800DF903A28070B3A6EFDEC30F01200000EA8
:103C68000001AA6F000EAB6F000EAC6F000EAD6FB7
:103C780085EF1EF0AAC0A2F0ABC0A3F0ACC0A4F0C0
:103C8800ADC0A5F0030ED890A237A337A437A53747
:103C9800E82E47EF1EF0A2C0A6F0A3C0A7F0A4C06C
:103CA800A8F0A5C0A9F0D890AA35A26FAB35A36F2C
:103CB800AC35A46FAD35A56FA251A627A351A72394
:103CC800A451A823A551A923D00EA26FFF0EA36F5C
:103CD8009EC0D9FF9FC0DAFFDF50A46FA56BA25129
:103CE800A427A351A523A451A625AA6FA551A721AE
:103CF800AB6F000EA821AC6F000EA921AD6F9E4BD3
:103D08009F2B9EC0D9FF9FC0DAFFDF50D8A48FEF4A
:103D18001EF091EF1EF03EEF1EF0AAC09EF0ABC061
:103D28009FF0ACC0A0F0ADC0A1F01200000E0001E1
:103D3800A46FA4515DEC1DF0010E00019E17A20EA8
:103D4800A425D96EDA6A010EDA22DF509E19FE0B1D
:103D58009E19DF6EA20EA425D96EDA6A010EDA2248
:103D68000101DFB0BAEF1EF0BDEF1EF0010EBEEF8D
:103D78001EF0000E0001A36FA20EA425D96EDA6A08
:103D8800010EDA220101DFB2CCEF1EF0CFEF1EF0F8
:103D9800010ED0EF1EF0000E0001A31BD8B4D7EF20
:103DA8001EF0D9EF1EF0F5EF1EF0A20EA425D96E75
:103DB800DA6A010EDA220101DF84A20E0001A425CD
:103DC800D96EDA6A010EDA22A20EA425E16EE26A41
:103DD800010EE2220101DFB002D0E79202D0010118
:103DE800E7820001A42B040EA465FDEF1EF0FFEF8F
:103DF8001EF09DEF1EF01200000E0001A36FA1BF80
:103E08000AEF1FF008EF1FF010EF1FF0A06DA11FC1
:103E1800D8B0A12B010EA36F9FBF17EF1FF015EFAE
:103E28001FF01DEF1FF09E6D9F1FD8B09F2B010E36
:103E3800A31B000EA56F000EA46FA051A111D8B44A
:103E480028EF1FF02AEF1FF052EF1FF0010EA26FAC
:103E580032EF1FF0D890A037A137A22BA1AF37EFD0
:103E68001FF039EF1FF02EEF1FF0D890A437A537B9
:103E7800A0519E5DA1519F59D8A045EF1FF047EF73
:103E88001FF04CEF1FF0A0519E5FA1519F5BA481D2
:103E9800D890A133A033A22F39EF1FF0A351D8B483
:103EA80058EF1FF05AEF1FF05EEF1FF0A46DA51F2B
:103EB800D8B0A52BA4C09EF0A5C09FF01200000E9C
:103EC8004924D96EDA6A020EDA22000EDF6EABA43C
:103ED80070EF1FF072EF1FF088EF1FF0000E4924FB
:103EE800D96EDA6A020EDA220201DF8202D888EF7E
:103EF8001FF005000101FA6E3E51FD6E3F51FE6E46
:103F0800F850FF6EFA501200ABA28DEF1FF08FEF42
:103F18001FF0A5EF1FF0000E4924D96EDA6A020ED1
:103F2800DA220201DF8402D8A5EF1FF005000101A3
:103F3800FA6E3C51FD6E3D51FE6EF850FF6EFA5020
:103F48001200000E4924D96EDA6A020EDA22DF5016
:103F5800D8B4B1EF1FF0B3EF1FF0C3EF1FF002D8D2
:103F6800C1EF1FF005000101FA6E3A51FD6E3B5199
:103F7800FE6EF850FF6EFA501200C5EF1FF059ECB4
:103F880030F01200000E0001996F8A518B11D8B4DD
:103F9800D0EF1FF0D2EF1FF0DDEF1FF08AC0D9FF7E
:103FA8008BC0DAFFDFBEDBEF1FF0DDEF1FF01FEF86
:103FB80020F020EE01F08A51D9268B51DA22AB513C
:103FC800DE5CD8B0EAEF1FF0ECEF1FF0F4EF1FF063
:103FD80020EE01F08A51D9268B51DA22DF50AB6FDF
:103FE800000E996F07EF20F0400E9925D96EDA6A16
:103FF800050EDA229951A925E16E000EAA21E26E7A
:10400800DFCFE7FF992BAB51995DD8A00EEF20F0D9
:1040180010EF20F0F8EF1FF0000E9E6F400E9F6F1C
:10402800050EA06F400EA16F020E15EC13F09EC096
:104038008AF09FC08BF00001995112002D0E506E2E
:1040480057C01EF0FD0E1E16D8A42DEF20F02FEF3E
:1040580020F071EF20F057C01EF0D8901E323F0EAE
:104068001E161E50040D000EF324346E040EF420A8
:10407800356E34C032F035C033F0040E3218326E6B
:104088003350336E34C0D9FF35C0DAFFDF30E83241
:104098000F0B0D0AD8A453EF20F055EF20F06DEF69
:1040A80020F0300E016E040E026E20EE02F0345045
:1040B800D9263550DA22DECF03F0DDCF04F0000E2A
:1040C800066E080E056EA3EC2CF0BBEC23F07DEF1A
:1040D80020F041EC27F07DEF20F05750FD0B040A4B
:1040E800D8A479EF20F07BEF20F07DEF20F0CDEC25
:1040F80018F01200000E4C6E000E4B6E020E541893
:10410800D8A489EF20F08BEF20F0ABEF20F020EE61
:1041180001F03250D9263350DA22080EDF6E20EE35
:1041280002F03250D9263350DA22380EDE6E040EF1
:10413800DD6E32C0D9FF33C0DAFF480EDF6E32C001
:10414800D9FF33C0DAFF000EDB8ED7EF20F0000175
:104158006C510401365D00016D5104013759D8B026
:10416800B8EF20F0BAEF20F0BEEF20F036C46CF0C4
:1041780037C46DF038EC17F0000120EE02F06E51F4
:10418800D9266F51DA22380EDE6E040EDD6E6EC04F
:10419800D9FF6FC0DAFF480EDF6E6EC0D9FF6FC05F
:1041A800DAFF000EDB8E1200000E0001A36F9FBF26
:1041B800E2EF20F0E0EF20F0E8EF20F09E6D9F1F87
:1041C800D8B09F2B010EA36FA1BFEFEF20F0EDEF4A
:1041D80020F0F3EF20F0A06DA11FD8B0A12BA051C3
:1041E800A111D8B4FAEF20F0FCEF20F020EF21F075
:1041F800010EA26F04EF21F0D890A037A137A22BAF
:10420800A1AF09EF21F00BEF21F000EF21F0A05151
:104218009E5DA1519F59D8A014EF21F016EF21F00F
:104228001AEF21F0A0519E5FA1519F5BD890A13356
:10423800A033A22F0BEF21F0A351D8B426EF21F021
:1042480028EF21F02CEF21F09E6D9F1FD8B09F2BF7
:104258009EC09EF09FC09FF012004650D8B437EF22
:1042680021F039EF21F088EF21F055EF21F04304D8
:10427800D8A441EF21F044EF21F0010E45EF21F0E1
:10428800000E436E6EEF21F04450D8B44EEF21F08B
:1042980051EF21F0010E52EF21F0000E446E6EEF47
:1042A80021F04550016E026A0250000AD8B45FEF4F
:1042B80021F088EF21F00150020AD8B43BEF21F039
:1042C800060AD8B43BEF21F0010AD8B448EF21F030
:1042D80088EF21F04350D8A474EF21F076EF21F055
:1042E8007AEF21F0FEEC31F088EF21F04450D8A4A9
:1042F80080EF21F082EF21F086EF21F00EEC32F012
:1043080088EF21F00BEC32F012000001A06FA0C082
:1043180045F0B9EF21F0FAEC31F0000E466E000ED0
:10432800436EDFEF21F005EC32F0000E466E000E12
:10433800446E010E436EDFEF21F005EC32F0010E02
:10434800466E9BEF21F002EC32F0000E466E010E35
:10435800446E9DEF21F002EC32F0010E466EABEF99
:1043680021F0FAEC31F0A3EF21F00001A0519E6F8B
:104378009F6B9F51000AD8B4C4EF21F0DFEF21F002
:104388009E51000AD8B48FEF21F0010AD8B497EFF4
:1043980021F0030AD8B4A1EF21F0010AD8B4A7EF9D
:1043A80021F0070AD8B4AFEF21F0010AD8B4B5EF6D
:1043B80021F0DFEF21F01200066E000E076E040EEA
:1043C800086E0150026E036AD89002360336065012
:1043D800046E056AD89004360536D890043605363A
:1043E8000250042603500522D89004360536D8908A
:1043F80004360536045007260550082207C0D9FFA1
:1044080008C0DAFFDF9E0150D8A40DEF22F00FEFAD
:1044180022F01DEF22F00650020D740EF324D96E1F
:10442800000EF420DA6E07C0DEFF08C0DDFF29EFBA
:1044380022F00650020D6E0EF324D96E000EF42001
:10444800DA6E07C0DEFF08C0DDFF07C0D9FF08C06D
:10445800DAFFDF9C20EE04F00750D9260850DA2254
:10446800DF8C1200640E0001AF6F000EAE6F000EFD
:10447800AD6FAF51AB5DD8A044EF22F046EF22F00C
:104488005AEF22F0AFC09EF0AB51BFEC29F000010B
:10449800AC6FAC51300FA9C0D9FFAAC0DAFFDF6EEC
:1044A800A94BAA2BAC51AF03F350AB5FAFC09EF042
:1044B8009F6B000EA16F0A0EA06F00EC1FF00001A9
:1044C8009E51AF6FAD4BAE2BAEBF74EF22F0AE5125
:1044D80009E1020EAD5DD8A074EF22F076EF22F06C
:1044E8003DEF22F0AB51300FA9C0D9FFAAC0DAFFC7
:1044F800DF6EA94BAA2BA9C0D9FFAAC0DAFF000E0C
:10450800DF6EA94BAA2B1200630E0001AC6F000EE0
:10451800AE6F000EB06F000EAF6FA3EF22F0AE517A
:104528005EEC31F00001AD6FAE2B400EAF25D96EB9
:10453800030EB021DA6EADC0DFFFAF4BB02BAC512C
:10454800A96FAA6BA951AF5DB051800AAB6FAA5190
:10455800800AAB59D8A0B3EF22F0B5EF22F093EF61
:1045680022F0DA0E0301A11907E1BE0EA219D8A4A0
:10457800C0EF22F0C2EF22F0C5EF22F0010ED7EF14
:1045880022F0400E00019E6F030E9F6F000EA06F79
:10459800060EA16F000EA36F630EA26FAFEC2BF097
:1045A800F2EC2CF0000E1200010E386E080E00011D
:1045B8008E61E1EF22F0E3EF22F025EF23F08E5138
:1045C800020D000EF324D96E010EF420DA6EA5C098
:1045D800DEFFA6C0DDFF8E2B0CEF23F0010EB4EC3E
:1045E80031F020EE01F02E50D9262F50DA22010E9C
:1045F800DF6E25EF23F0000EB4EC31F020EE01F071
:104608002E50D9262F50DA22000EDF6E25EF23F028
:10461800A751A86FA96BA951000AD8B416EF23F0C7
:1046280025EF23F0A851000AD8B425EF23F0010A9A
:10463800D8B4F2EF22F0030AD8B4FFEF22F025EF46
:1046480023F0000E386E1200200E56602EEF23F075
:1046580030EF23F032EF23F072EF23F060A237EF50
:1046680023F039EF23F03BEF23F072EF23F0000142
:104678009851D8A442EF23F044EF23F072EF23F0CF
:10468800920EA96F040EAA6F400EAB6FC6EC1FF016
:104698000001AD6FAD51D8B454EF23F056EF23F0BD
:1046A80072EF23F0000EAE6F69EF23F0400E9E6F9D
:1046B800020E9F6F920EAE25D96EDA6A040EDA22C8
:1046C800DF5005EC2BF00001AE2BAD51AE5DD8A04C
:1046D80070EF23F072EF23F05AEF23F01200000E70
:1046E8000001A66F000EA56FAAEF23F0A5C0A0F0E9
:1046F800A6C0A1F0D890A037A137D890A037A1378D
:10470800D890A037A137A0C0A3F0A1C0A4F0A5C03D
:10471800A0F0A6C0A1F0D890A037A137A051A32738
:10472800A151A4239EC0D9FF9FC0DAFFDF50A06F1C
:10473800A051A325A16F000EA421A26FD00EA12520
:10474800A56FFF0EA221A66F9E4B9F2B9EC0D9FF7F
:104758009FC0DAFFDF50D8A4B4EF23F0B6EF23F000
:104768007AEF23F0A5C09EF0A6C09FF01200000EBD
:10477800556E000E4F6E000E4C6E000E4B6E000E06
:10478800516E000E546E6EC0D9FF6FC0DAFF7F0EF7
:10479800DF16040E00016E196E6F6F516F6F6EC0D9
:1047A800D9FF6FC0DAFF7F0EDF16040E6E196E6F29
:1047B8006F516F6F32C0D9FF33C0DAFF7F0EDF163B
:1047C800000E6B6F000E6D6F000E6C6F000E636F46
:1047D800000E656F000E646F90EC15F0000E0E6E03
:1047E800030E0D6E000E0F6E000E106E000E126E90
:1047F800000E116E8EEC24F0B6EC13F01200AF0E22
:104808000001B06F000EB16FB0C0D9FFB1C0DAFFC0
:10481800000EDF6EA5C09EF0A6C09FF0000EA16F2F
:104828000A0EA06F93EC28F0570E00019E25F66E35
:10483800790E9F21F76EB007D8A0B107B0C0D9FF95
:10484800B1C0DAFF0800F5CFDFFFA5C09EF0A6C013
:104858009FF0000EA16F0A0EA06FCCEC26F09EC050
:10486800A5F09FC0A6F00001A551A611D8A43FEF5E
:1048780024F041EF24F00EEF24F0B0C0A1F0B1C055
:10488800A2F0A7C0A3F019EC2DF012000001B16F3F
:10489800AE0E0001AF6F000EB06FAFC0D9FFB0C051
:1048A800DAFF000EDF6EB1C09EF09F6B000EA16FA5
:1048B8000A0EA06FD8EC20F0570E00019E25F66E68
:1048C800790E9F21F76EAF07D8A0B007AFC0D9FF08
:1048D800B0C0DAFF0800F5CFDFFFB1C09EF09F6BD4
:1048E800000EA16F0A0EA06F00EC1FF000019E5190
:1048F800B16FB151D8A483EF24F085EF24F057EFBE
:1049080024F0AFC0A1F0B0C0A2F0A6C0A3F019EC8B
:104918002DF0120098EF24F0C6EC28F0D1EF24F027
:1049280047EC18F0D1EF24F00DC013F00EC014F0CE
:104938001450000AD8B4A7EF24F07F0AD8B4CAEFFD
:1049480024F0D1EF24F01350010AD8B490EF24F0EA
:10495800030AD8B4D1EF24F0010AD8B494EF24F0B4
:10496800060AD8B4D1EF24F0770AD8B4D1EF24F0EE
:10497800010AD8B4D1EF24F0070AD8B4D1EF24F053
:10498800010AD8B4D1EF24F0D1EF24F01350FF0A74
:10499800D8B4D1EF24F0D1EF24F01200000120EEBA
:1049A80002F09E51D9269F51DA22DF50D8A4DFEFBA
:1049B80024F0E1EF24F0E4EF24F0000E13EF25F0EB
:1049C80020EE01F09E51D9269F51DA22DF50A06FC8
:1049D800A0519E25A16F000E9F21A26F030EA12555
:1049E800D96E000EA221DA6EDF50A36F20EE01F01F
:1049F8009E51D9269F51DA2210EE01F09E51E126F0
:104A08009F51E222E750A06FA0293F0BDF6E20EEF6
:104A180002F09E51D9269F51DA22DF06A3511200D7
:104A2800000E0001AC6FA20EAC25D96EDA6A010E39
:104A3800DA220101DFA423EF25F025EF25F04AEF64
:104A480025F0A20E0001AC25D96EDA6A010EDA2231
:104A58000101DFA632EF25F034EF25F04AEF25F00B
:104A6800ACC0ABF0020E0001AA6FAAC0A5F0ABC0A3
:104A7800A6F0000EA76FD8EC22F0A20E0001AC251C
:104A8800D96EDA6A010EDA220101DF940001AC2B3B
:104A9800040EAC6552EF25F054EF25F017EF25F022
:104AA8001200000120EE02F09E51D9269F51DA2211
:104AB800DF50D8A462EF25F064EF25F067EF25F00A
:104AC800000E95EF25F020EE01F09E51D9269F515A
:104AD800DA22DF50A06FA0519E25A16F000E9F2102
:104AE800A26F030EA125D96E000EA221DA6EDF5047
:104AF800A36F20EE01F09E51D9269F51DA2210EEC5
:104B080001F09E51E1269F51E222E750A06FA029B3
:104B1800DF6E20EE02F09E51D9269F51DA22DF0681
:104B2800A3511200AA0E00019E6F060E9F6F51EC52
:104B38002FF0010E3D6E3D50D8B4A5EF25F0A7EF3C
:104B480025F0BAEF25F0400E0001A16F7F0EA26F8D
:104B5800020EA36F19EC2DF09E0E0001AF6F7F0EB1
:104B6800B06F020EB16F15EC26F03D6E3D50D8B413
:104B7800C0EF25F0C2EF25F0D5EF25F07E0E00013D
:104B8800A16F7F0EA26F020EA36F19EC2DF0FC0E21
:104B98000001AF6F7F0EB06F020EB16F15EC26F0FB
:104BA8003D6E12000001B56FA10E0001A16F7E0ECF
:104BB800A26F020EA36F19EC2DF0020E0001A66F72
:104BC800B5514AEC24F0FA0E0001A16F7F0EA26FD6
:104BD800020EA36F19EC2DF0B3C0A5F0B4C0A6F077
:104BE800020E0001A76F03EC24F0AC0E0001A16FC8
:104BF8007D0EA26F020EA36F19EC2DF0AA0E000114
:104C08009E6F060E9F6F51EC2FF0FC0E0001AF6FE8
:104C18007F0EB06F020EB16F15EC26F03D6E3D5061
:104C28001200010E0001936FB1C094F0000E936F53
:104C380049EF26F069EC31F00009D8B426EF26F0E8
:104C480028EF26F049EF26F02AEC2CF00001B26F8D
:104C5800AA0E9E6F060E9F6FB25131EC2BF0AA0E72
:104C68000001A26F060EA36FAFC0A4F0B0C0A5F0FC
:104C780044EC1AF00009D8B444EF26F046EF26F0C9
:104C880049EF26F0010E53EF26F000019451D8A405
:104C980050EF26F052EF26F01EEF26F0000E12001D
:104CA8003850D8A45AEF26F05CEF26F054EF26F0DF
:104CB80000018E51D8A463EF26F065EF26F079EF56
:104CC80026F020EE01F02E50D9262F50DA22DF50A0
:104CD800D8B471EF26F073EF26F08CEF26F0F3C10D
:104CE8009EF0F4C19FF090EF26F08E078E51020DD2
:104CF800000EF324D96E010EF420DA6EDECFA0F098
:104D0800DDCFA1F0A0C09EF0A1C09FF090EF26F0EB
:104D180030C19EF031C19FF01200C8EC31F09EC046
:104D2800B8F09FC0B9F0380E0001B8259E6F000E8C
:104D3800B9219F6F73EC23F09EC038F19FC039F101
:104D4800300E0001B8259E6F000EB9219F6F33EC1D
:104D58001EF09EC01EF19FC01FF1A0C020F1A1C08F
:104D680021F138C136F139C137F1400E0001B825BB
:104D7800B36F000EB921B46F500EB825B56F000E91
:104D8800B921B66FA4EC1BF00001B76FB751120040
:104D9800000E0001A46F000EA36FA051A111D8B49A
:104DA800D8EF26F0DAEF26F002EF27F0010EA26F17
:104DB800E2EF26F0D890A037A137A22BA1AFE7EFFA
:104DC80026F0E9EF26F0DEEF26F0D890A337A437D7
:104DD800A0519E5DA1519F59D8A0F5EF26F0F7EF9D
:104DE80026F0FCEF26F0A0519E5FA1519F5BA381A6
:104DF800D890A133A033A22FE9EF26F0A3C09EF0EC
:104E0800A4C09FF01200CA0E0001A26F010EA36F8A
:104E180020EE04F0A251D926A351DA22000EDE6E4C
:104E2800000EDD6EA2C0D9FFA3C0DAFF000EDF6E50
:104E380020EE06F0A251D926A351DA22A0C0DEFF47
:104E4800A1C0DDFF20EE02F0A251D926A351DA223B
:104E5800800EDE6E050EDD6E20EE02F0A251D92620
:104E6800A351DA22DECF84F0DDCF85F0CA0E9E6F23
:104E7800010E9F6F05EC30F01200020E5418D8A4F2
:104E880048EF27F04AEF27F04EEF27F073EC12F0C7
:104E98007AEF27F0000E546E5150D8A456EF27F041
:104EA80058EF27F078EF27F020EE01F03250D9269E
:104EB8003350DA22080EDF6E20EE02F03250D92687
:104EC8003350DA22300EDE6E040EDD6E32C0D9FFAA
:104ED80033C0DAFF0C0EDF6E32C0D9FF33C0DAFF01
:104EE800000EDB8E7AEF27F0000E516E1200010ED5
:104EF8000001936FA3C094F0000E936FA9EF27F001
:104F080069EC31F00009D8B48CEF27F08EEF27F068
:104F1800A9EF27F02AEC2CF00001A46F9FC0D9FF5D
:104F2800A0C0DAFFA4C0DFFF9F4BA02BA107D8A029
:104F3800A207A151A211D8A4A4EF27F0A6EF27F049
:104F4800A9EF27F0010EB3EF27F000019451D8A480
:104F5800B0EF27F0B2EF27F084EF27F0000E120031
:104F6800AA0E00019E6F060E9F6F51EC2FF0010EE6
:104F78003D6E3D50D8B4C3EF27F0C5EF27F0CFEF13
:104F880027F0920E0001AF6F7F0EB06F0A0EB16F5F
:104F980015EC26F03D6EAA0E00019E6F060E9F6F5F
:104FA80051EC2FF03D50D8B4DCEF27F0DEEF27F0BE
:104FB800EBEF27F0BD0E0001AF6F7F0EB06F020E52
:104FC800B16F15EC26F03D6E020E34EC2EF03D501C
:104FD80012004150412442100001A36F08EF28F04D
:104FE800000E89EC21F025EF28F0010E89EC21F064
:104FF80025EF28F0030E89EC21F025EF28F0050EA7
:1050080089EC21F025EF28F0A351A16FA26BA251E2
:10501800000AD8B412EF28F025EF28F0A151000AB1
:10502800D8B4F4EF27F0010AD8B4F9EF27F0030A4F
:10503800D8B4FEEF27F0010AD8B403EF28F025EF23
:1050480028F012000400DAEC2FF00101225123119C
:1050580024112511D8A433EF28F035EF28F04EEFAE
:1050680028F0880E226F130E236F000E246F000E97
:10507800256F31EC21F044EC30F0C4EC2FF006EC55
:105088002FF03F50D8B44BEF28F04DEF28F04EEFFB
:1050980028F03F0601012207000E235B245B255BF5
:1050A8004050D8B45AEF28F05CEF28F05DEF28F0B4
:1050B80040061200000E0001A26FA70EA225D96EAD
:1050C800DA6A010EDA220101DFA26DEF28F06FEF34
:1050D80028F088EF28F0A70E0001A225D96EDA6A19
:1050E800010EDA220101000EDFB0010E00019E6FF1
:1050F800A251F0EC1CF0A70E0001A225D96EDA6AC5
:10510800010EDA220101DF920001A22B040EA26532
:1051180090EF28F092EF28F061EF28F012000001DC
:10512800A051A111D8B49BEF28F09DEF28F0C1EF52
:1051380028F0010EA26FA5EF28F0D890A037A1376C
:10514800A22BA1AFAAEF28F0ACEF28F0A1EF28F02E
:10515800A0519E5DA1519F59D8A0B5EF28F0B7EF97
:1051680028F0BBEF28F0A0519E5FA1519F5BD8901B
:10517800A133A033A22FACEF28F09EC09EF09FC0B1
:105188009FF01200000E0101DA6F4B0EDB6F000E6C
:10519800DC6F000EDD6F000EDE6F000EDF6F080E95
:1051A800E06F000E0001996F1A0E096E010E40ECB7
:1051B8002DF01E0E096E020E40EC2DF0000E016E51
:1051C800400E026E050E036E400E046E020E57EC82
:1051D80014F001C08AF002C08BF0000E0001886F45
:1051E800000E896F000E986F12009D9AC60E00017E
:1051F8009E6F3E0E9F6FD3EC31F0080EB86E900E86
:10520800AB6E650EAC6E670EAF6E000EB06E4C0ED8
:1052180000019E6F640E9F6FDDEC31F0220E0001DD
:105228009E6F640E9F6FD8EC31F0280E00019E6FC0
:10523800640E9F6FE2EC31F0000E0001956F000ED6
:10524800496E000E486E000E476E9D8A1200313678
:10525800392E33342E3130302E3200000000000059
:1052680000000000000000000000000000003434CE
:105278003030310000003435303031000000333236
:1052880037363334350033300000000000004D79E4
:1052980041500000000000000000000000005061C4
:1052A800737377640000000000000000000002DA59
:0152B800BE37
:1052BA00A4C0ABF0A5C0ACF0A6C0ADF0A7C0AEF0DC
:1052CA00FF0E0001AA25AF6FB06BFF0EB023B0BF6F
:1052DA0073EF29F071EF29F075EF29F08DEF29F0BE
:1052EA00AB0EAF25D96E000EB021DA6EA8C0E1FF71
:1052FA00A9C0E2FFDFCFE7FFA84BA92BAF07D8A0D1
:10530A00B007B0BF8DEF29F08BEF29F075EF29F0C8
:10531A001200AA0E00019E6F060E9F6F51EC2FF02D
:10532A00B3C0D9FFB4C0DAFFDF500001B86FA8EFED
:10533A0029F0B7C09FF0B8511AEC30F00001B34B16
:10534A00B42B95EF29F0B507D8A0B607B52906E121
:10535A00B629D8A4B3EF29F0B5EF29F09EEF29F0CA
:10536A00980EAF6F7F0EB06F020EB16F15EC26F07C
:10537A003D6E120000019F6F000E0001A16F9E5149
:10538A00D8B4CAEF29F0CCEF29F0EDEF29F0010EDD
:10539A00A06FD3EF29F0D8909E37A02B9EAFD8EFFD
:1053AA0029F0DAEF29F0D0EF29F0D890A1379E51F1
:1053BA009F5DD8A0E3EF29F0E5EF29F0E8EF29F0A7
:1053CA009E519F5FA181D8909E33A02FDAEF29F0DA
:1053DA00A15112006AA0F4EF29F0F6EF29F01DEFAF
:1053EA002AF034C0D9FF35C0DAFF800EDE18D8A4FF
:1053FA0001EF2AF003EF2AF01CEF2AF06EC0D9FF62
:10540A006FC0DAFF840EDE18D8A40EEF2AF010EF70
:10541A002AF01CEF2AF034C0D9FF35C0DAFF0C0E8F
:10542A00DF6E34C0D9FF35C0DAFF000EDB8E6A901A
:10543A00659A120042EF2AF02AEC2CF00001B16FB3
:10544A00AA0E9E6F060E9F6FB15131EC2BF0AA0E79
:10545A000001A26F060EA36FAFC0A4F0B0C0A5F002
:10546A0044EC1AF00009D8B43DEF2AF03FEF2AF0D5
:10547A0042EF2AF0010E4DEF2AF069EC31F00009F3
:10548A00D8A44AEF2AF04CEF2AF021EF2AF0000EB6
:10549A001200A4C0A8F0A5C0A9F0A2C0AAF0A3C097
:1054AA00ABF00001A851A66FA951A76FA84BA92B71
:1054BA00A6C0F6FFA7C0F7FFF86AAAC0D9FFABC01B
:1054CA00DAFFAA4BAB2B070EF76403D00800F5509E
:1054DA0005D0F6CFE9FFF7CFEAFFEF50DF6EDF50D6
:1054EA00D8A47AEF2AF07CEF2AF056EF2AF01200BD
:1054FA0000019E6F080E00019E6186EF2AF088EF78
:10550A002AF08BEF2AF0060EAAEF2AF0070E9E6504
:10551A0091EF2AF093EF2AF09EEF2AF00D0E9E618A
:10552A0099EF2AF09BEF2AF09EEF2AF0000EAAEFDD
:10553A002AF00D0E9E65A4EF2AF0A6EF2AF0A9EF35
:10554A002AF0010EAAEF2AF0070E1200AA0E000195
:10555A009E6F060E9F6F51EC2FF0BC0E0001A16FDB
:10556A007E0EA26F020EA36F19EC2DF0B3C0A5F048
:10557A00B4C0A6F0020E0001A76F03EC24F0AC0E33
:10558A000001A16F7D0EA26F020EA36F19EC2DF020
:10559A00FC0E0001AF6F7F0EB06F020EB16F15ECFB
:1055AA0026F03D6E12000001B36FAF0E0001A16F2D
:1055BA007E0EA26F020EA36F19EC2DF0020E0001EF
:1055CA00A66FB3514AEC24F0AC0E0001A16F7D0E18
:1055DA00A26F020EA36F19EC2DF0AA0E00019E6FA6
:1055EA00060E9F6F51EC2FF0FC0E0001AF6F7F0E7D
:1055FA00B06F020EB16F15EC26F03D6E3D501200F1
:10560A000001A36F9EC0D9FF9FC0DAFFDF500001DF
:10561A00A06FA0519E25A16F000E9F21A26F030EBD
:10562A00A125D96E000EA221DA6EA3C0DFFF9EC0AB
:10563A00D9FF9FC0DAFFDF50A06FA0293F0B9EC0A1
:10564A00D9FF9FC0DAFFDF6E20EE02F09E51D92605
:10565A009F51DA22DF2A12000001A36F9EC0D9FFF0
:10566A009FC0DAFFDF500001A06FA0519E25A16FF5
:10567A00000E9F21A26F030EA125D96E000EA22152
:10568A00DA6EA3C0DFFF9EC0D9FF9FC0DAFFDF50EA
:10569A00A06FA0299EC0D9FF9FC0DAFFDF6E20EE5F
:1056AA0002F09E51D9269F51DA22DF2A1200A0C0A9
:1056BA009EF0A1C09FF039EC2FF0000E0001A56FFB
:1056CA00000EA46FA451A025A26FA551A121A36F1A
:1056DA00030EA225D96E000EA321DA6E000EDF6E2C
:1056EA00A44BA52BA5BF83EF2BF0A55109E1400ED2
:1056FA00A45DD8A083EF2BF085EF2BF067EF2BF09A
:10570A0012001F7ECB7DAC7D0D7E257F377FAF7D5E
:10571A002E7FE97E707F027C377B517F707FC97C48
:10572A007B7B517F707F6D7CA17A517F707FF67C85
:10573A00517A517F707F9B7CEF7A517F707F3B7CDF
:10574A00737D237D317E337C517FC87EBF7BFD7E96
:10575A00077FF37EA0C0A7F0A1C0A8F09EC0A5F065
:10576A009FC0A6F0C9EF2BF0A7C0D9FFA8C0DAFFE7
:10577A00DF50A46FA74BA82BA5C0D9FFA6C0DAFF9C
:10578A00A4C0DFFFA54BA62B0001A207D8A0A30740
:10579A00A22906E1A329D8A4D5EF2BF0D7EF2BF045
:1057AA00B9EF2BF012000001A46FC2EC31F09EC0D9
:1057BA00A5F09FC0A6F00001A405A76FA751030D8D
:1057CA00A5C0A0F0A6C0A1F0F350A027F450A123D1
:1057DA00010EA025D96E000EA121DA6EDECFA2F04D
:1057EA00DDCFA3F0D890A333A233D890A333A2334A
:1057FA00A251A86FA85112009EC0A0F09FC0A1F0AC
:10580A000AEF2CF000019E4B9F2B9EC0F6FF9FC013
:10581A00F7FFF86A070EF76403D00800F55005D0C1
:10582A00F6CFE9FFF7CFEAFFEF500009D8A420EF3F
:10583A002CF022EF2CF007EF2CF00001A0519E5D16
:10584A009E6FA1519F599F6F12004750D8B430EFF5
:10585A002CF032EF2CF02AEF2CF0000E4824D96EEF
:10586A00DA6A020EDA22DF500001956F000E482430
:10587A00D96EDA6A030EDA22DF509E6F482A3F0E8B
:10588A0048644AEF2CF04CEF2CF04EEF2CF0000E4F
:10589A00486E9D9A47069D8A9E51120020EE01F09D
:1058AA002E50D9262F50DA22DF50D8A45FEF2CF0E1
:1058BA0061EF2CF063EF2CF07AEF2CF0000EB4ECD1
:1058CA0031F020EE01F02E50D9262F50DA22000EA8
:1058DA00DF6E000E00018E6F000E0101336F780E2D
:1058EA00326F000E396E14EC1CF012000001A16F29
:1058FA00000E0001A26F95EF2CF09EC0D9FF9FC049
:10590A00DAFFA151DE18D8A48DEF2CF08FEF2CF01E
:10591A0092EF2CF0A251A2EF2CF09E4B9F2BA22BC0
:10592A009EC0D9FF9FC0DAFFDF50D8A49FEF2CF0AA
:10593A00A1EF2CF082EF2CF0000E120003C009F048
:10594A0004C00AF001C007F002C008F0BDEF2CF055
:10595A0009C0D9FF0AC0DAFFDF500B6E094A0A2ACA
:10596A0007C0D9FF08C0DAFF0BC0DFFF074A082AC1
:10597A000506D8A00606052806E10628D8A4C8EF19
:10598A002CF0CAEF2CF0ADEF2CF01200A0C09EF064
:10599A00A1C09FF051EC2FF0000E0001A56F000E80
:1059AA00A46FA451A025A26FA551A121A36F030E34
:1059BA00A225D96E000EA321DA6E000EDF6EA44B6B
:1059CA00A52BA5BFEFEF2CF0A505D8A0EFEF2CF083
:1059DA00F1EF2CF0D6EF2CF01200000E0001A56FAB
:1059EA00400EA36F030EA46F630EA16F000EA66F85
:1059FA000FEF2DF0A3C0D9FFA4C0DAFFDF50A26FCA
:105A0A00A2C09EF0A5518AEC2DF00001A52BA34B54
:105A1A00A42BA62BA151A65DD8A016EF2DF018EF46
:105A2A002DF0FFEF2CF01200A1C0F6FFA2C0F7FF85
:105A3A00F86A070EF76403D00800F55005D0F6CFD0
:105A4A00E9FFF7CFEAFFEF500001A46F37EF2DF01F
:105A5A00A3C09FF0A4511AEC30F00001A14BA22B75
:105A6A0019EF2DF0A451D8A43DEF2DF03FEF2DF002
:105A7A002DEF2DF012000C6E09A446EF2DF048EF21
:105A8A002DF04DEF2DF0000E016E0C50E0EC21F0E0
:105A9A0009A252EF2DF054EF2DF059EF2DF0010E1F
:105AAA00016E0C50E0EC21F06A0E0C240A6E0B6AAF
:105ABA000F0E0B220AC0D9FF0BC0DAFF09C0DFFFA5
:105ACA001200000E0001A16F7CEF2DF0A139E8420F
