:040000009AEF00F083
:100008005982FACF20F0FBCF21F0E9CF22F0EACFD6
:1000180023F0E1CF24F0E2CF25F0D9CF26F0DACFD4
:1000280027F0F3CF28F0F4CF29F0F6CF2AF0F7CF56
:100038002BF0F8CF2CF0F5CF2DF0F2AC26EF00F036
:1000480028EF00F07CEF00F09DAA2DEF00F02FEFD5
:1000580000F046EF00F09EAA34EF00F036EF00F013
:1000680046EF00F002D844EF00F005000101FA6EF7
:100078004251FD6E4351FE6EF850FF6EFA50120069
:100088007CEF00F0A0A24BEF00F04DEF00F058EF2E
:1000980000F0A1A252EF00F054EF00F058EF00F08A
:1000A800A2EC2EF07CEF00F0A3A45DEF00F05FEF70
:1000B80000F06AEF00F0A4A464EF00F066EF00F02F
:1000C8006AEF00F0A3EC08F07CEF00F09DAC6FEF56
:1000D80000F071EF00F07CEF00F09EAC76EF00F0DE
:1000E80078EF00F07CEF00F00DEC32F07CEF00F0E0
:1000F8002DC0F5FF2CC0F8FF2BC0F7FF2AC0F6FF74
:1001080029C0F4FF28C0F3FF27C0DAFF26C0D9FFB3
:1001180025C0E2FF24C0E1FF23C0EAFF22C0E9FFB7
:1001280021C0FBFF20C0FAFF599211002DEF16F0F5
:10013800D3EC31F09EC0BEF09FC0BFF0000E0001AE
:10014800BA6F000EB96F290EB86F000EBB6FC1EF02
:1001580000F0BB51020D9A0EF324D96E040EF42060
:10016800DA6EDECF9EF0DDCF9FF010EC2CF00001B0
:100178009E51B9279F51BA23BB2BB851BB5DD8A05C
:10018800C8EF00F0CAEF00F0ADEF00F0FE0EB66F5A
:10019800FF0EB76FBEC09EF0BFC09FF010EC2CF0F2
:1001A8000001B6519E27B7519F239E51B9279F51F1
:1001B800BA23FE0EB66FFF0EB76F300EBE259E6FC8
:1001C800000EBF219F6F10EC2CF00001B6519E2746
:1001D800B7519F239E51B9279F51BA23FE0EB66F80
:1001E800FF0EB76F380EBE259E6F000EBF219F6FA2
:1001F80010EC2CF00001B6519E27B7519F239E5159
:10020800B9279F51BA23FE0EB66FFF0EB76F400E87
:10021800BE259E6F000EBF219F6F10EC2CF00001D1
:10022800B6519E27B7519F239E51B9279F51BA2394
:10023800FE0EB66FFF0EB76F500EBE259E6F000EF6
:10024800BF219F6F10EC2CF00001B6519E27B751CB
:100258009F239E51B9279F51BA2320EE60F0BE51CB
:10026800D926BF51DA22DFB03CEF01F03EEF01F0B2
:1002780053EF01F0FE0EB66FFF0EB76FCEC09EF0C3
:10028800CFC09FF010EC2CF00001B6519E27B7515B
:100298009F239E51B9279F51BA2366EF01F0FE0EA6
:1002A800B66FFF0EB76FD0C09EF0D1C09FF010ECB4
:1002B8002CF00001B6519E27B7519F239E51B927B4
:1002C8009F51BA2320EE60F0BE51D926BF51DA22E1
:1002D800DFB271EF01F073EF01F088EF01F0FE0E6D
:1002E800B66FFF0EB76FCEC09EF0CFC09FF010EC78
:1002F8002CF00001B6519E27B7519F239E51B92774
:100308009F51BA239BEF01F0FE0EB66FFF0EB76F39
:10031800D0C09EF0D1C09FF010EC2CF00001B65177
:100328009E27B7519F239E51B9279F51BA23B9C021
:10033800B3F0BAC0B4F0000EE6EC25F00009D8A47A
:10034800A8EF01F0AAEF01F0ACEF01F0F9EF02F02D
:10035800000E0001BB6FE5EF02F0BB51020D9A0ED3
:10036800F324D96E040EF420DA6EDECFBCF0DDCFB4
:10037800BDF0BCC09EF0BDC09FF010EC2CF0D5EFD6
:1003880002F0BCC0F6FFBDC0F7FF0800F550400AF8
:10039800D8A4D1EF01F0D3EF01F0C7EF02F00001CC
:1003A800BC4BBD2B8DEF02F0BEC0A1F0BFC0A2F0C8
:1003B800020EA36F28EC2DF0D2EF02F0200EBE251E
:1003C800A16F000EBF21A26F020EA36F28EC2DF0C3
:1003D800D2EF02F0280EBE25A16F000EBF21A26F3A
:1003E800020EA36F28EC2DF0D2EF02F0300EBE25DE
:1003F800A16F000EBF21A26F020EA36F28EC2DF093
:10040800D2EF02F0380EBE25A16F000EBF21A26FF9
:10041800020EA36F28EC2DF0D2EF02F0400EBE259D
:10042800A16F000EBF21A26F020EA36F28EC2DF062
:10043800D2EF02F0500EBE25A16F000EBF21A26FB1
:10044800020EA36F28EC2DF0D2EF02F020EE60F040
:10045800BE51D926BF51DA22DFA035EF02F037EFBF
:1004680002F041EF02F0D0C0A1F0D1C0A2F0020E1C
:10047800A36F28EC2DF0D2EF02F0CEC0A1F0CFC0D0
:10048800A2F0020EA36F28EC2DF0D2EF02F020EEBE
:1004980060F0BE51D926BF51DA22DFA256EF02F032
:1004A80058EF02F062EF02F0D0C0A1F0D1C0A2F084
:1004B800020EA36F28EC2DF0D2EF02F0CEC0A1F00F
:1004C800CFC0A2F0020EA36F28EC2DF0D2EF02F0FD
:1004D80020EE60F0BE51D926BF51DA22DFA477EFB3
:1004E80002F079EF02F083EF02F0D0C0A1F0D1C0A2
:1004F800A2F0020EA36F28EC2DF0D2EF02F0CEC0CE
:10050800A1F0CFC0A2F0020EA36F28EC2DF0D2EF1D
:1005180002F0BCC0F6FFBDC0F7FF0800F550B66F8B
:10052800B76BB751000AD8B49CEF02F0D2EF02F0D3
:10053800B651410AD8B412EF02F0080AD8B4D8EF7D
:1005480001F0050AD8B4EEEF01F01C0AD8B4E2EFC6
:1005580001F0020AD8B4FAEF01F0040AD8B406EFA1
:1005680002F0010AD8B41EEF02F0340AD8B46CEFD6
:1005780002F0160AD8B44BEF02F0020AD8B42AEFF8
:1005880002F0D2EF02F0020E00019F6FBCC0F6FF2E
:10059800BDC0F7FF0800F55025EC30F00001BC4B5A
:1005A800BD2BBCC0F6FFBDC0F7FF0800F550000921
:1005B800D8A4E1EF02F0E3EF02F0C5EF01F000018B
:1005C800BB2BB851BB5DD8A0ECEF02F0EEEF02F008
:1005D800B1EF01F0FC0EAF6F7F0EB06F020EB16F7E
:1005E80025EC26F0000EE7EC2AF012000001A7BF68
:1005F80009EF03F0A75107E1030EA65DD8B007EF96
:1006080003F009EF03F00DEF03F0B1EF04F0B1EFE1
:1006180004F020EE02F0A851D926A951DA22DECF43
:100628009EF0DDCF9FF075EC2DF00001AF6FAF515C
:100638008CEC2AF00001AE6F000EB16F000EB06FA7
:10064800B0C0AAF0B1C0ABF0D890AA37AB37D890F9
:10065800AA37AB37780EAA25F66E790EAB21F76E5E
:100668000900F5CF9EF00A00F5CF9FF020EE04F0C8
:10067800A851D926A951DA22DECFA0F0DDCFA1F00A
:100688003AEC1BF000019E519F11D8A44EEF03F0E5
:1006980050EF03F0A1EF04F065EF04F0AF51F70F4E
:1006A800B26FAE51D8B45BEF03F05DEF03F05FEFCC
:1006B80003F0B1EF04F020EE06F0A851D926A951B5
:1006C800DA22DECF9EF0DDCF9FF0D60EA06F7F0E30
:1006D800A16F3AEC1BF000019E519F11D8A477EF4F
:1006E80003F079EF03F090EF03F020EE06F0A45149
:1006F800D926A551DA22DECFAAF0DDCFABF0B25170
:10070800AA27000EAB23180EAA25D96E000EAB211E
:10071800DA6EDF96B1EF04F020EE06F0A851D92684
:10072800A951DA22DECF9EF0DDCF9FF0F00EA06F48
:100738007F0EA16F3AEC1BF000019E519F11D8A4C7
:10074800A8EF03F0AAEF03F0B1EF04F020EE06F0F3
:10075800A451D926A551DA22DECFAAF0DDCFABF01D
:10076800B251AA27000EAB23180EAA25D96E000E87
:10077800AB21DA6EDF86B1EF04F0AF51F20FB26F42
:10078800AE05D8A4CAEF03F0CCEF03F0B1EF04F044
:1007980020EE06F0A451D926A551DA22DECFAAF020
:1007A800DDCFABF0B251AA27000EAB231D0EAA2550
:1007B800D96E000EAB21DA6EDFA0E5EF03F0E7EFAC
:1007C80003F0B1EF04F020EE06F0A451D926A551AC
:1007D800DA22DECFAAF0DDCFABF0B251AA27000EA5
:1007E800AB231D0EAA25D96E000EAB21DA6EDF9061
:1007F80020EE06F0A451D926A551DA22DECFAAF0C0
:10080800DDCFABF0B251AA27000EAB231D0EAA25EF
:10081800D96E000EAB21DA6EDF82B1EF04F0AF5172
:10082800F20FB26FAE05D8A41CEF04F01EEF04F06F
:10083800B1EF04F020EE06F0A451D926A551DA2232
:10084800DECFAAF0DDCFABF0B251AA27000EAB2362
:100858001D0EAA25D96E000EAB21DA6EDFB037EF78
:1008680004F039EF04F0B1EF04F020EE06F0A451E3
:10087800D926A551DA22DECFAAF0DDCFABF0B251EE
:10088800AA27000EAB231D0EAA25D96E000EAB2198
:10089800DA6EDF8020EE06F0A451D926A551DA22BF
:1008A800DECFAAF0DDCFABF0B251AA27000EAB2302
:1008B8001D0EAA25D96E000EAB21DA6EDF82B1EFCC
:1008C80004F0B0C0AAF0B1C0ABF0D890AA37AB37EB
:1008D800D890AA37AB37020EAA27000EAB23780EA2
:1008E800AA25F66E790EAB21F76E0900F5CFACF0AC
:1008F8000900F5CFADF0AD51000AD8B486EF04F089
:10090800B1EF04F0AC51000AD8B40BEF03F0010AC0
:10091800D8B4B1EF04F0030AD8B452EF03F0010AD7
:10092800D8B4B1EF04F0070AD8B4C1EF03F0010A54
:10093800D8B413EF04F0B1EF04F0B04BB12BB1BF52
:10094800AFEF04F0B15109E1080EB05DD8A0AFEFE8
:1009580004F0B1EF04F024EF03F0120004013205B3
:10096800D8A4B9EF04F0BBEF04F0D7EF04F030518E
:100978001F0B0009D8A4C3EF04F0C5EF04F0D7EFAC
:1009880004F000016B8F030E04013119D8A4CFEFD6
:1009980004F0D1EF04F0D5EF04F0010E536ED7EF59
:1009A80004F0000E536E3251D8A4DDEF04F0DFEFEF
:1009B80004F05FEF06F030511F0B020AD8A4E7EFEE
:1009C80004F0E9EF04F05FEF06F034510F0B000973
:1009D800D8B4F1EF04F0F3EF04F05FEF06F0345110
:1009E8000F0B156E030E1560FCEF04F0FEEF04F01C
:1009F8005FEF06F0200E5618D8A405EF05F007EFB4
:100A080005F05FEF06F000016B8F040134BF0FEFB4
:100A180005F011EF05F02EEF05F034510F0B156EB0
:100A28001550020D740EF324D96E000EF420DA6E00
:100A3800DECF1AF0DDCF1BF034510F0B156E166A9E
:100A48007E0E1524D96E000E1620DA6EDF50196E50
:100A580049EF05F034510F0B156E1550020D6E0E4F
:100A6800F324D96E000EF420DA6EDECF1AF0DDCF53
:100A78001BF034510F0B156E166A810E1524D96EB2
:100A8800000E1620DA6EDF50196E19B04EEF05F021
:100A980050EF05F058EF05F0FB0E1A141A6EFF0E12
:100AA8001B141B6E5DEF05F0040E1A101A6E1B5016
:100AB8001B6E34BF62EF05F064EF05F075EF05F0CB
:100AC80034510F0B156E1550020D740EF324D96EA8
:100AD800000EF420DA6E1AC0DEFF1BC0DDFF84EFC3
:100AE80005F034510F0B156E1550020D6E0EF324E0
:100AF800D96E000EF420DA6E1AC0DEFF1BC0DDFFCF
:100B0800030E3119D8A48BEF05F08DEF05F0C7EF70
:100B180005F01AC0D9FF1BC0DAFFDFAE96EF05F06B
:100B280098EF05F0B9EF05F034BF9DEF05F09FEFA2
:100B380005F0ADEF05F034510F0B156E166A7E0EF9
:100B48001524D96E000E1620DA6E0001DF82B9EF87
:100B580005F034510F0B156E166A810E1524D96EE7
:100B6800000E1620DA6E0001DF821AC0D9FF1BC002
:100B7800DAFF000EDB841AC0D9FF1BC0DAFF000EB3
:100B8800DB8E5FEF06F0040E1A181A6E1B501B6EF0
:100B98001AC0D9FF1BC0DAFFDFAED5EF05F0D7EFDB
:100BA80005F0F3EF05F01AC0D9FF1BC0DAFF7F0E7E
:100BB800DF161AC0D9FF1BC0DAFF000EDB8C000E4F
:100BC8000E6E050E0D6E1AC00FF01BC010F0000E51
:100BD800126E020E116E9EEC24F0F9EF05F01AC0A9
:100BE800D9FF1BC0DAFF000EDB8C040E1A181A6E30
:100BF8001B501B6E19B203EF06F005EF06F010EF5D
:100C080006F01AC0D9FF1BC0DAFFDFAE0EEF06F000
:100C180010EF06F048EF06F0040134BF16EF06F0B7
:100C280018EF06F026EF06F034510F0B156E166A12
:100C38007E0E1524D96E000E1620DA6E0001DF92A2
:100C480032EF06F034510F0B156E166A810E15241B
:100C5800D96E000E1620DA6E0001DF921AC0D9FF95
:100C68001BC0DAFF3B0EDF16000E0E6E050E0D6E72
:100C78001AC00FF01BC010F0000E126E020E116E9B
:100C88009EEC24F04EEF06F01AC0D9FF1BC0DAFF25
:100C98003B0EDF16040134510F0B156E166A6A0EEF
:100CA8001524176E0F0E1620186E17C0D9FF18C01E
:100CB800DAFFFE0EDF161200D3EC31F09EC0BFF053
:100CC8009FC0C0F0440E0001A26F010EA36FAE0ECC
:100CD800A46F7F0EA56F5DEC2AF01AC19EF01BC1B0
:100CE8009FF01CC1A0F01DC1A1F02CEC2FF09EC0FC
:100CF80048F19FC049F1A0C04AF1A1C04BF1010ED3
:100D080001011A27000E1B231C231D23000E506F00
:100D1800000E516F000E526F000E536F040E586F85
:100D2800000E596F000E5A6F000E5B6F0C0E646F49
:100D3800200E656F660E0001C76F010EC86F1EC1D9
:100D4800A4F01FC1A5F020C1A6F021C1A7F0C7C01B
:100D5800A8F0C8C0A9F0040EAA6F6CEC29F0000E28
:100D680001016A6F080E6B6F6C0E0001C76F010EF0
:100D7800C86F000EC26F000EC16FC1C09EF0C2C026
:100D88009FF0000EA16F030EA06F79EC30F0B9C090
:100D9800BBF0BAC0BCF000019E51BB279F51BC23D9
:100DA800010EBB25D96E000EBC21DA6EDECFBDF078
:100DB800DDCFBEF0BDC0A4F0BEC0A5F0A66BA76B8A
:100DC800C7C0A8F0C8C0A9F0020EAA6F6CEC29F041
:100DD800020E0001C727000EC823C14BC22BC2BF99
:100DE800FFEF06F0C25109E1080EC15DD8A0FFEF80
:100DF80006F001EF07F0C1EF06F0010E01017C6F6C
:100E0800050E7D6F7E0E0001C76F010EC86F000EC4
:100E1800C46F000EC36FC351B925BB6FC451BA214B
:100E2800BC6F180EBB25D96E000EBC21DA6EDF50E0
:100E3800010BC7C0D9FFC8C0DAFFDF6EC74BC82B8C
:100E4800C34BC42BC4BF32EF07F0C45109E1050EF0
:100E5800C35DD8A032EF07F034EF07F00FEF07F0CB
:100E6800020E0101836F050E846F850E0001C76FA6
:100E7800010EC86F000EC66F000EC56FC551B925AB
:100E8800BB6FC651BA21BC6F1D0EBB25D96E000EB3
:100E9800BC21DA6EDF50010BC7C0D9FFC8C0DAFF2A
:100EA800DF6EC74BC82BC54BC62BC6BF65EF07F017
:100EB800C65109E1050EC55DD8A065EF07F067EFDB
:100EC80007F042EF07F0000EB46F460EB36FBFC0D5
:100ED800B5F0C0C0B6F0200EBF25B76F000EC02118
:100EE800B86FBAEC2AF0440E0001B36F010EB46F6C
:100EF800000EB66F460EB56F020EB76F9DEC29F067
:100F0800010E00018F6F1200FBEC2FF05A0E00014A
:100F1800A06F020EA16F6BEC2BF0AA0E0001A06F60
:100F2800060EA16FDAEC2CF02FEC32F098EC22F0E0
:100F38000001CA6FCDEC31F09EC0A0F09FC0A1F0B7
:100F480017EC27F093EC31F0E6EC2FF0F2EC31F0EF
:100F580008EC29F0F28EF28CA6EC25F030EC31F09A
:100F68000009D8A4BAEF07F0BCEF07F0D9EF07F0F3
:100F78000001CA51D8B4C3EF07F0C5EF07F0D9EFA5
:100F880007F048EC31F00009D8A4CDEF07F0CFEF17
:100F980007F0DBEF07F053EC31F00009D8A4D7EFE6
:100FA80007F0D9EF07F0DBEF07F062EC2EF048EC22
:100FB80031F00009D8A4E3EF07F0E5EF07F0E7EF19
:100FC80007F0C1EC2EF048EC31F00009D8B4EFEF8F
:100FD80007F0F1EF07F036EF08F0000E0001CD6FD3
:100FE8000A0EC96F09EF08F0A1EC26F00001CD6FD9
:100FF800CD51D8B402EF08F004EF08F006EF08F07E
:1010080013EF08F00A0E75EC2FF00001C907C92983
:10101800D8A411EF08F013EF08F0F8EF07F0CD515E
:10102800D8A419EF08F01BEF08F027EF08F05EECE2
:1010380031F00009D8B423EF08F025EF08F027EFC6
:1010480008F062EC2EF00001CD51D8A42EEF08F084
:1010580031EF08F0010E32EF08F0000EC6EC31F067
:10106800DEEC2EF0FCEC31F01EEC1CF0CDEC31F097
:101078009EC0CBF09FC0CCF0CBC0A3F0CCC0A4F0F6
:10108800D3EC1DF0A4EC1EF048EC31F00009D8B404
:1010980050EF08F052EF08F072EF08F0DCEC30F097
:1010A8000009D8B45AEF08F05CEF08F062EF08F0D6
:1010B800CBC0B9F0CCC0BAF060EC06F0C9EC30F0A7
:1010C8000009D8B46AEF08F06CEF08F072EF08F086
:1010D800CBC0A5F0CCC0A6F0B8EC16F053EC31F0BC
:1010E8000009D8B47AEF08F07CEF08F09AEF08F01E
:1010F80038EC23F000EC15F0AFEC31F00009D8B46F
:1011080088EF08F08AEF08F08CEF08F024EC25F05F
:10111800EBEC30F00009D8B494EF08F096EF08F043
:1011280098EF08F0B7EC09F09EEC0BF06DEC28F0A6
:101138000A0E75EC2FF03AEF08F09AEF00F056041B
:10114800D8A4A9EF08F0ABEF08F0B8EF08F060BA40
:10115800B0EF08F0B2EF08F0B8EF08F0000E656ED7
:1011680064806488020E566E65A4BDEF08F0BFEF78
:1011780008F0C9EF08F064A4C4EF08F0C6EF08F05F
:10118800C9EF08F0659441EC2EF060A2CEEF08F0AC
:10119800D0EF08F0D3EF08F0A494B6EF09F065A0FB
:1011A800D8EF08F0DAEF08F0E7EF08F064A0DFEF17
:1011B80008F0E1EF08F0E7EF08F0D7EC11F0A384AE
:1011C800040E566E659065A8ECEF08F0EEEF08F097
:1011D800F7EF08F064A8F3EF08F0F5EF08F0F7EF81
:1011E80008F08DEC2FF065ACFCEF08F0FEEF08F08E
:1011F80029EF09F064AC03EF09F005EF09F013EFEC
:1012080009F0000E0E6E730E0D6E000E0F6E000EBE
:10121800106E000E126E010E116E9EEC24F0659C8D
:10122800F8EC2EF05050D8B41CEF09F01EEF09F07E
:101238001FEF09F050065050D8A425EF09F027EF0A
:1012480009F029EF09F0D5EC19F065AA2EEF09F09D
:1012580030EF09F039EF09F064AA35EF09F037EFFC
:1012680009F039EF09F0FEEC29F065A23EEF09F02C
:1012780040EF09F056EF09F064A245EF09F047EF97
:1012880009F056EF09F07F0E0E6E0D68000E0F6E16
:10129800000E106E000E126E010E116E9EEC24F000
:1012A800000E676E040E56605CEF09F05EEF09F001
:1012B80061EF09F0A494B6EF09F064A666EF09F0AF
:1012C80068EF09F0B5EF09F0000E1F6E65A66FEF25
:1012D80009F071EF09F0B5EF09F061CF57F0573019
:1012E800E832E8320F0B526E659657B47EEF09F07C
:1012F80080EF09F08AEF09F07E0E5224D96EDA6A7F
:10130800000EDA220001DF7092EF09F0810E5224FC
:10131800D96EDA6A000EDA220001DF705250D8A4C2
:1013280098EF09F09AEF09F09EEF09F02CEC20F005
:10133800ACEF09F0000E0E6E720E0D6E570E0F6EAA
:10134800000E106E000E126E000E116E9EEC24F050
:101358001F2A030E1F64B3EF09F0B5EF09F06AEF17
:1013680009F0A494120064EC26F09EC0B7F09FC068
:10137800B8F0B7C0B2F094EF0AF0B851020DEF0E12
:10138800F324D96E010EF420DA6EDECFB3F0DDCF90
:10139800B4F0B851020DEF0EF324D96E010EF4200B
:1013A800DA6EDECF9EF0DDCF9FF010EC2CF000015E
:1013B8009E51B56FB3C02DF1B4C02EF1B5C097F0F2
:1013C800010E966F010E986FB2EF0AF0B8C0B6F032
:1013D800AC0EA26F010EA36FA90EA46F7F0EA56FAE
:1013E8005DEC2AF0B00E0001A96F010EAA6FB6518C
:1013F800090FAB6F3BEC21F020EE06F02E50D926FA
:101408002F50DA22DECFB0F0DDCFB1F00001B651B7
:10141800B027000EB123180EB025D96E000EB121E9
:10142800DA6EDFA01AEF0AF01CEF0AF028EF0AF0D4
:10143800AC0EAC6F010EAD6FC60EAE6F7F0EAF6F08
:101448008DEC30F032EF0AF0AC0EAC6F010EAD6FE0
:10145800C20EAE6F7F0EAF6F8DEC30F0AC0E000198
:10146800B36F010EB46FAC0E9E6F010E9F6F10EC40
:101478002CF000019E51B56FB3C02DF1B4C02EF110
:10148800E2EF09F0F7EC31F0B8C0B6F0AC0E0001AD
:10149800A26F010EA36FA40EA46F7F0EA56F5DEC63
:1014A8002AF0B00E0001A96F010EAA6FB6C0ABF00A
:1014B8003BEC21F0AC0E0001AC6F010EAD6FA70E36
:1014C800AE6F7F0EAF6F8DEC30F0B20E0001A96FDA
:1014D800010EAA6FB651E7EC2BF00001AB6F3BECA5
:1014E80021F0AC0E0001AC6F010EAD6FAD0EAE6F0A
:1014F8007D0EAF6F8DEC30F0AC0E0001B36F010EB6
:10150800B46FAC0E9E6F010E9F6F10EC2CF00001B3
:101518009E51B56FB3C02DF1B4C02EF1E2EF09F0C2
:101528000001B251B06FB16BB151000AD8B49FEF4E
:101538000AF0B2EF0AF0B051000AD8B4B2EF0AF0DC
:10154800010AD8B4C1EF09F0030AD8B4EAEF09F0E8
:10155800010AD8B446EF0AF0B2EF0AF0120000010F
:1015680020EE02F0B351D926B451DA22DECF9EF034
:10157800DDCF9FF0BC0EA06F010EA16F000EA36F10
:10158800070EA26F200EA46F000EA56F87EC0CF05B
:101598000001BA6F000EBC6F000EBB6FBBC0B5F088
:1015A800BCC0B6F0D890B537B637D890B537B6378F
:1015B800980EB525F66E790EB621F76E0900F5CFAF
:1015C8009EF00A00F5CF9FF0BCC1A0F0BDC1A1F00C
:1015D8003AEC1BF000019E519F11D8A4F6EF0AF0D7
:1015E800F8EF0AF08DEF0BF055EF0BF062EC2CF0F2
:1015F8009DEF0BF062EC2CF0010E0001BE6F010EA6
:10160800BD6FBDC0A5F0BEC0A6F0020EA76FE8EC86
:1016180022F09DEF0BF0000EBE6F010EBD6FBDC036
:10162800A5F0BEC0A6F0010EA76FE8EC22F0F7EC1B
:1016380031F09DEF0BF0B3C0A4F0B4C0A5F0BAC070
:10164800A6F0A76BBC0EA86F010EA96FFAEC02F00A
:101658009DEF0BF0B3C0A2F0B4C0A3F0BAC0A4F0E1
:10166800A56BBC0EA66F010EA76FBCEC2DF0000198
:10167800B96FB951D8A443EF0BF045EF0BF047EF22
:101688000BF09DEF0BF0B9C0BEF0030EBD6FBDC0EF
:10169800A5F0BEC0A6F0010EA76FE8EC22F09DEF02
:1016A8000BF0BBC0B5F0BCC0B6F0D890B537B637B4
:1016B800D890B537B637020EB527000EB623980E68
:1016C800B525F66E790EB621F76E0900F5CFB7F09D
:1016D8000900F5CFB8F0B851000AD8B476EF0BF08E
:1016E8009DEF0BF0B751000AD8B4FAEF0AF0010ADF
:1016F800D8B4FEEF0AF0030AD8B40FEF0BF0010AD2
:10170800D8B41FEF0BF0070AD8B42EEF0BF09DEFFB
:101718000BF0BB4BBC2BBCBF9BEF0BF0BC5109E1E2
:10172800050EBB5DD8A09BEF0BF09DEF0BF0D2EF41
:101738000AF01200A394000188518911D8B4A7EFC8
:101748000BF0A9EF0BF0B7EF0BF088C0D9FF89C0F9
:10175800DAFFDFAEB2EF0BF0B4EF0BF0B7EF0BF040
:10176800A38486EF0CF0030E9819D8A4BEEF0BF0F3
:10177800C0EF0BF0C2EF0BF0000E986F9851D8A491
:10178800C8EF0BF0CAEF0BF0CDEF0BF0A38486EF98
:101798000CF0020E9819D8A4D4EF0BF0D6EF0BF08A
:1017A800EAEF0BF0010E9E6F000E9F6F000EA06F08
:1017B800000EA16F020E1FEC13F09EC088F09FC0B0
:1017C80089F0030E0001986F85EF0CF09805D8A4F6
:1017D800F0EF0BF0F2EF0BF085EF0CF0400E976591
:1017E800F8EF0BF0FAEF0BF0FEEF0BF0400EAA6FDC
:1017F80000EF0CF097C0AAF0AA51975D976F000E02
:1018080001012A6F050E2B6FAAC0A9F0000196519D
:10181800D8A411EF0CF013EF0CF057EF0CF031EFE8
:101828000CF02DC1F6FF2EC1F7FFF86A2AC1D9FFC7
:101838002BC1DAFF070EF76403D00800F55005D076
:10184800F6CFE9FFF7CFEAFFEF50DF6E01012A4B31
:101858002B2B2D4B2E2B0001A907A951D8A437EF0C
:101868000CF039EF0CF015EF0CF05FEF0CF02DC118
:10187800F6FF2EC1F7FFF86A2AC1D9FF2BC1DAFF9C
:10188800070EF76403D00800F55005D0F6CFE9FF3E
:10189800F7CFEAFFEF50DF6E01012A4B2B2B2D4BC0
:1018A8002E2B0001A907A951D8A45DEF0CF05FEF1A
:1018B8000CF03BEF0CF09751D8A465EF0CF067EFF4
:1018C8000CF076EF0CF0400EAA19D8A46EEF0CF0CD
:1018D80070EF0CF074EF0CF0020E986F76EF0CF0CE
:1018E800030E986F010E9E6F000E9F6F050EA06F7E
:1018F800AAC0A1F0020E1FEC13F09EC088F09FC092
:1019080089F0A3841200000E0001AD6F000EAE6FC7
:10191800A0C0D9FFA1C0DAFF9EC0DEFF9FC0DDFFD7
:10192800AE2B9EC0D9FF9FC0DAFFDF50D8A49FEF2F
:101938000CF0A1EF0CF0ACEF0CF0A0C0D9FFA1C0E7
:10194800DAFF000EDE6E000EDD6E000E5BEF0DF0AE
:10195800000EAC6F2CEF0DF0A551D8B4B6EF0CF01B
:10196800B8EF0CF0F7EF0CF09EC0D9FF9FC0DAFF7C
:10197800A551DE18D8A4C3EF0CF0C5EF0CF0F7EFB3
:101988000CF0AD51D8B4CBEF0CF0CDEF0CF0D7EF95
:101998000CF09EC0D9FF9FC0DAFF000EDF6E000E6C
:1019A800AD6FF7EF0CF0010E9E25A66F000E9F217C
:1019B800A76FAE51A86FA96BD890A837A937A0C058
:1019C800AAF0A1C0ABF0A851AA27A951AB23FE0EDB
:1019D800AA25D96EFF0EAB21DA6EA6C0DEFFA7C01E
:1019E800DDFF010EAD6F9EC0D9FF9FC0DAFFA45185
:1019F800DE18D8A402EF0DF004EF0DF02AEF0DF079
:101A0800AD51D8A40AEF0DF00CEF0DF02AEF0DF050
:101A18009EC0D9FF9FC0DAFF000EDF6EAC2B010E0F
:101A28009E25A66F000E9F21A76FAE51020DF3CF22
:101A3800A8F0F4CFA9F0A851A025D96EA951A121E9
:101A4800DA6EA6C0DEFFA7C0DDFFAE2B9E4B9F2B34
:101A58009EC0D9FF9FC0DAFFDF50D8B436EF0DF033
:101A680038EF0DF04AEF0DF0AC51A66FA76BA251FD
:101A7800A65DA751800AA86FA351800AA859D8A0CB
:101A880048EF0DF04AEF0DF0B0EF0CF0AE51020D3B
:101A9800F3CFA6F0F4CFA7F0A651A025D96EA75191
:101AA800A121DA6E000EDE6E000EDD6EAE51120060
:101AB800000E0601A46F000E0001926F000E916FD8
:101AC800000E906F630E0601A56F060EA66FE8EF75
:101AD8000DF0B7EC31F00601A96FCAEF0DF0630EF7
:101AE8000601A56F060EA66F010EA46FE8EF0DF0B4
:101AF800010E0601A46FA5C6D9FFA6C6DAFF000E1F
:101B0800DF6E630E00019E6F060E9F6F3D0E8AEC1E
:101B18002CF00601A36FA351D8B495EF0DF097EF01
:101B28000DF066EF0DF0630EA325D96EDA6A060E86
:101B3800DA22000EDF6E630E0001AC6F060EAD6F89
:101B48000601A3510001B56FB66B010EB527000E53
:101B5800B623630EB525AE6F060EB621AF6F2EEC19
:101B68000EF066EF0DF0200E0601A965BEEF0DF030
:101B7800C0EF0DF0E8EF0DF0A5C6D9FFA6C6DAFF55
:101B8800A9C6DFFFA54BA62BE8EF0DF0A951000170
:101B9800B56FB66BB651000AD8B4D5EF0DF0B7EFF4
:101BA8000DF0B551000AD8B47CEF0DF0200AD8B476
:101BB8007CEF0DF0060AD8B47CEF0DF0190AD8B402
:101BC80073EF0DF0B7EF0DF001EC32F00009D8A477
:101BD800F0EF0DF0F2EF0DF06DEF0DF00601A451EE
:101BE800D8B4F9EF0DF0FBEF0DF02CEF0EF0D3ECBD
:101BF80031F09EC0A7F69FC0A8F6060120EE60F05F
:101C0800A751D926A851DA22000192B103D00601C2
:101C1800DF9002D00601DF8020EE60F0A751D926C0
:101C2800A851DA22000191B103D00601DF9202D057
:101C38000601DF8220EE60F0A751D926A851DA22EA
:101C4800000192B103D00601DF9402D00601DF84BF
:101C5800A4511200D3EC31F09EC0B3F09FC0B4F091
:101C6800000E0001B26FACC09EF0ADC09FF0B25143
:101C7800020DCA0EF324D96E020EF420DA6EDECFFE
:101C8800A0F0DDCFA1F03AEC1BF000019E519F11AE
:101C9800D8A451EF0EF053EF0EF0F6EF0EF0C1EFAF
:101CA8000EF0B3C0A2F0B4C0A3F0AEC0A4F0AFC0B1
:101CB800A5F05DEC2AF0FFEF0EF0200EB325A26F21
:101CC800000EB421A36FAEC0A4F0AFC0A5F05DECC8
:101CD8002AF0FFEF0EF0280EB325A26F000EB421F4
:101CE800A36FAEC0A4F0AFC0A5F05DEC2AF0FFEF83
:101CF8000EF0300EB325A26F000EB421A36FAEC054
:101D0800A4F0AFC0A5F05DEC2AF0FFEF0EF0380E9E
:101D1800B325A26F000EB421A36FAEC0A4F0AFC06C
:101D2800A5F05DEC2AF0FFEF0EF0400EB325A26F90
:101D3800000EB421A36FAEC0A4F0AFC0A5F05DEC57
:101D48002AF0FFEF0EF0500EB325A26F000EB4215B
:101D5800A36FAEC0A4F0AFC0A5F05DEC2AF0FFEF12
:101D68000EF0010E926FFFEF0EF0010E916FFFEF74
:101D78000EF0010E906FFFEF0EF0B251B06FB16B25
:101D8800B151000AD8B4CBEF0EF0F6EF0EF0B05117
:101D9800000AD8B455EF0EF0010AD8B461EF0EF07E
:101DA800030AD8B46FEF0EF0010AD8B47DEF0EF035
:101DB800070AD8B48BEF0EF0010AD8B499EF0EF0E9
:101DC800030AD8B4A7EF0EF0010AD8B4B5EF0EF0A5
:101DD8000F0AD8B4B9EF0EF0010AD8B4BDEF0EF06F
:101DE800F6EF0EF0B22B090EB265FDEF0EF0FFEF25
:101DF8000EF037EF0EF012009EC0A8F09FC0A9F0B9
:101E08000001A251A311D8A40CEF0FF00EEF0FF0B0
:101E180010EF0FF0BBEF0FF0A8C0D9FFA9C0DAFF91
:101E2800A0C0DFFFA251A825A46FA351A921A56FC7
:101E3800FF0EA425D96EFF0EA521DA6EA0C0DFFF24
:101E4800A35107E1030EA25DD8B02DEF0FF02FEFDD
:101E58000FF031EF0FF0BBEF0FF020EE01F0A851BB
:101E6800D926A951DA22A0C0DFFF20EE02F0A8513E
:101E7800D926A951DA22A0C0DFFFA251A825A46F54
:101E8800A351A921A56FFE0EA425D96EFF0EA52189
:101E9800DA6EA0C0DFFFA251A825A46FA351A92123
:101EA800A56FFD0EA425D96EFF0EA521DA6EA0C080
:101EB800DFFFA35107E1070EA25DD8B066EF0FF070
:101EC80068EF0FF06AEF0FF0BBEF0FF020EE03F0B2
:101ED800A851D926A951DA22A0C0DFFFA251A8250E
:101EE800A46FA351A921A56FFC0EA425D96EFF0EDE
:101EF800A521DA6EA0C0DFFFA35107E1090EA25D9C
:101F0800D8B089EF0FF08BEF0FF08DEF0FF0BBEF2C
:101F18000FF0A8C0A4F0A9C0A5F0A41FA51FA44B4A
:101F2800A52B030EA415A66FA76BA651A827A7512A
:101F3800A923A651A25FA751A35BFC0EA217FF0E0F
:101F4800A317B2EF0FF0A8C0D9FFA9C0DAFFA0C04D
:101F5800DFFFA207D8A0A307A84BA92BA251A31162
:101F6800D8A4B9EF0FF0BBEF0FF0A7EF0FF01200F6
:101F780001C00BF002C00CF005500610D8A4C7EF42
:101F88000FF0C9EF0FF0CBEF0FF076EF10F00BC0AA
:101F9800D9FF0CC0DAFF03C0DFFF05500B24076E22
:101FA80006500C20086EFF0E0724D96EFF0E08207D
:101FB800DA6E03C0DFFF065007E1030E055CD8B0F8
:101FC800E8EF0FF0EAEF0FF0ECEF0FF076EF10F01C
:101FD80020EE01F00B50D9260C50DA2203C0DFFFA7
:101FE80020EE02F00B50D9260C50DA2203C0DFFF96
:101FF80005500B24076E06500C20086EFE0E0724B1
:10200800D96EFF0E0820DA6E03C0DFFF05500B24DF
:10201800076E06500C20086EFD0E0724D96EFF0EC1
:102028000820DA6E03C0DFFF065007E1070E055CE3
:10203800D8B021EF10F023EF10F025EF10F076EF75
:1020480010F020EE03F00B50D9260C50DA2203C012
:10205800DFFF05500B24076E06500C20086EFC0E9F
:102068000724D96EFF0E0820DA6E03C0DFFF065082
:1020780007E1090E055CD8B044EF10F046EF10F008
:1020880048EF10F076EF10F00BC007F00CC008F026
:10209800071E081E074A082A030E0714096E0A6A53
:1020A80009500B260A500C220950055E0A50065AA0
:1020B800FC0E0516FF0E06166DEF10F00BC0D9FFCB
:1020C8000CC0DAFF03C0DFFF0506D8A006060B4ADE
:1020D8000C2A05500610D8A474EF10F076EF10F013
:1020E80062EF10F01200800E04013019D8A47FEFBF
:1020F80010F081EF10F030EF11F0C00E00016B6F9F
:1021080016EF11F02D0E0001686F7A0E696F000E40
:102118006D6F120E6C6F30EF11F03251D8A497EF3B
:1021280010F099EF10F0DAEF10F03251020DB40E02
:10213800F324F66E790EF420F76E0900F5CF68F0F7
:102148000A00F5CF69F0020E00016825016E000E45
:102158006921026E01C0F6FF02C0F7FFF86A070E98
:10216800F76403D00800F55005D0F6CFE9FFF7CFA4
:10217800EAFFEF5000016C6F030E6825016E000E38
:102188006921026E01C0F6FF02C0F7FFF86A070E68
:10219800F76403D00800F55005D0F6CFE9FFF7CF74
:1021A800EAFFEF5000016D6F30EF11F0000E0001F3
:1021B8006B6F30EF11F0040E3261E5EF10F0E7EFCE
:1021C80010F00CEF11F03251020DAC0EF324F66E44
:1021D800790EF420F76E0900F5CF68F00A00F5CF04
:1021E80069F068C0F6FF69C0F7FFF86A070EF76480
:1021F80003D00800F55005D0F6CFE9FFF7CFEAFF86
:10220800EF50016E015000016C6F6D6B30EF11F0F3
:10221800000E00016B6F30EF11F0000E00016B6FC4
:1022280030EF11F004013351016E026A0250000AC6
:10223800D8B421EF11F011EF11F00150010AD8B410
:1022480086EF10F0030AD8B491EF10F0010AD8B461
:10225800DFEF10F011EF11F01200A394000E676E7B
:10226800000E656E000E6A6E6B0E00019E6F0F0EFB
:102278009F6F000EA16F000EA06F000EA36F020EDD
:10228800A26F00EC0FF0160E626E9F0E666E7B0E4C
:10229800646E000E0001AA6FAA51040D000EF3240B
:1022A800D96E040EF420DA6EDE6ADE6ADE6ADD6A52
:1022B800AA2B0B0EAA6563EF11F065EF11F050EF32
:1022C80011F0608C000E636E6098609C6596000E3D
:1022D8006B6F000E636F000E656F000E646F65B65E
:1022E80078EF11F07AEF11F06AEF11F0010E4E6EEF
:1022F800010E4D6E000E4C6E000E4B6E000E9B6F65
:10230800000EAA6FAA51020D6E0EF324D96E000EAC
:10231800F420DA6E000EDE6E000EDD6EAA51020D9C
:10232800740EF324D96E000EF420DA6E000EDE6E01
:10233800000EDD6E810EAA25D96EDA6A000EDA2249
:10234800000EDF6E7E0EAA25D96EDA6A000EDA223A
:10235800000EDF6EAA2B020EAA65B5EF11F0B7EFDB
:1023680011F086EF11F0080E6E6F040E6F6F160EE7
:102378006A6E040E0401036F300E026F080E016FBF
:10238800040E006F008F000E586E000E00017A6F69
:10239800000E7B6F000E7C6F000E7D6F000E9A6F33
:1023A800000E566E1200A394000E676E000E656E46
:1023B800000E6A6E6B0E016E0F0E026E000E046E3A
:1023C800000E036E000E066E020E056EBCEC0FF0DA
:1023D800160E626E9F0E666E7B0E646E000E0D6E9C
:1023E8000D50040D000EF324D96E040EF420DA6E9D
:1023F800DE6ADE6ADE6ADD6A0D2A0B0E0D6407EFFF
:1024080012F009EF12F0F4EF11F0608C000E636E19
:102418006098609C6596000E00016B6F000E636FFC
:10242800000E656F000E646F65B61DEF12F01FEFAA
:1024380012F00EEF12F0010E4E6E010E4D6E000EF0
:102448004C6E000E4B6E000E9B6F000E0D6E0D5005
:10245800020D6E0EF324D96E000EF420DA6E000E13
:10246800DE6E000EDD6E0D50020D740EF324D96E73
:10247800000EF420DA6E000EDE6E000EDD6E810EA8
:102488000D24D96EDA6A000EDA22000EDF6E7E0E97
:102498000D24D96EDA6A000EDA22000EDF6E0D2ADC
:1024A800020E0D645AEF12F05CEF12F02BEF12F0EF
:1024B800080E00016E6F040E6F6F160E6A6E040E22
:1024C8000401036F300E026F080E016F040E006FD7
:1024D800008F000E586E000E00017A6F000E7B6FA1
:1024E800000E7C6F000E7D6F000E9A6F000E566E08
:1024F800120020EE01F03450D9263550DA22DF5090
:10250800026E02500001645D000E6559D8B08FEF6D
:1025180012F091EF12F093EF12F064C002F0025043
:10252800645F000E655B000E016EAAEF12F0380EB4
:102538000124D96EDA6A040EDA2260C0E1FF61C0B4
:10254800E2FFDFCFE7FF604B612B012A0250015CFD
:10255800D8A0B1EF12F0B3EF12F09BEF12F0645174
:102568006511D8B4BAEF12F0BCEF12F0F5EF12F023
:1025780020EE01F03250D9263350DA22080EDF6EF1
:1025880020EE02F03250D9263350DA22380EDE6EB1
:10259800040EDD6E34C0D9FF35C0DAFFDFBCD7EFDB
:1025A80012F0D9EF12F0E7EF12F032C0D9FF33C0C2
:1025B800DAFF480EDF6E32C0D9FF33C0DAFF000EF3
:1025C800DB8E1EEF13F032C0D9FF33C0DAFF080EDE
:1025D800DF6E32C0D9FF33C0DAFF000EDB8E1EEF8C
:1025E80013F020EE01F03250D9263350DA22080ECB
:1025F800DF6E20EE02F03250D9263350DA22300E48
:10260800DE6E040EDD6E32C0D9FF33C0DAFF040E71
:10261800DF6E32C0D9FF33C0DAFF000EDB8E639F56
:102628004F50D8A41AEF13F01CEF13F01EEF13F05D
:10263800D5EC19F012000001A66F00019E51D8B424
:1026480028EF13F02AEF13F038EF13F0A651020D1C
:102658006E0EF324D96E000EF420DA6EDECFA7F0EA
:10266800DDCFA8F044EF13F0A651020D740EF32449
:10267800D96E000EF420DA6EDECFA7F0DDCFA8F019
:10268800A751A811D8A44BEF13F04DEF13F053EF57
:1026980013F0000E9E6F000E9F6FBFEF13F020EE39
:1026A80002F0A751D926A851DA229FC0DEFFA0C0A8
:1026B800DDFF20EE01F0A751D926A851DA22A1C0EA
:1026C800DFFFA7C0D9FFA8C0DAFF400EDF16A7C0FA
:1026D800D9FFA8C0DAFF000EDB86A7C0D9FFA8C0C3
:1026E800DAFF000EDB8E9E51D8B47DEF13F07FEF3A
:1026F80013F09EEF13F0A651020D6E0EF324D96E5F
:10270800000EF420DA6EDECFA2F0DDCFA3F0040EC7
:10271800A219A46FA351A56FA651020D6E0EF32442
:10272800D96E000EF420DA6EA4C0DEFFA5C0DDFF6E
:10273800BBEF13F0A651020D740EF324D96E000EF0
:10274800F420DA6EDECFA2F0DDCFA3F0040EA219DA
:10275800A46FA351A56FA651020D740EF324D96E70
:10276800000EF420DA6EA4C0DEFFA5C0DDFFA7C00E
:102778009EF0A8C09FF01200609800016BBFC7EFE1
:1027880013F0C9EF13F00EEF14F063AFCEEF13F0B0
:10279800D0EF13F0E2EF13F0020E546E4B50D8A4B2
:1027A800D8EF13F0DAEF13F0DCEF13F088EC20F039
:1027B800000E4D6E000E4E6E60EF14F020EE01F02C
:1027C8003250D9263350DA22080EDF6E20EE02F09E
:1027D8003250D9263350DA22300EDE6E040EDD6E0A
:1027E80032C0D9FF33C0DAFF0C0EDF6E32C0D9FF1A
:1027F80033C0DAFF000EDB8E6EC0D9FF6FC0DAFF80
:10280800040EDF6E6EC0D9FF6FC0DAFF000EDB8EDC
:1028180060EF14F0040130AF14EF14F016EF14F069
:1028280032EF14F0010E546E4C50D8A41EEF14F081
:1028380020EF14F022EF14F088EC20F0000E4D6E1B
:10284800000E4E6E4F50D8A42CEF14F02EEF14F05B
:1028580060EF14F0D5EC19F060EF14F0020E546E2E
:1028680020EE01F03250D9263350DA22080EDF6EFE
:1028780020EE02F03250D9263350DA22300EDE6EC6
:10288800040EDD6E32C0D9FF33C0DAFF040EDF6EEE
:1028980032C0D9FF33C0DAFF000EDB8E000E4D6E5A
:1028A800000E4E6E4F50D8A45CEF14F05EEF14F09B
:1028B80060EF14F02EEF14F01200096E0150D8B436
:1028C80068EF14F06AEF14F078EF14F00950020D75
:1028D8006E0EF324D96E000EF420DA6EDECF0AF005
:1028E800DDCF0BF084EF14F00950020D740EF324C1
:1028F800D96E000EF420DA6EDECF0AF0DDCF0BF0D1
:102908000A500B10D8A48BEF14F08DEF14F093EF4E
:1029180014F0000E016E000E026EFFEF14F020EEB0
:1029280002F00A50D9260B50DA2202C0DEFF03C09B
:10293800DDFF20EE01F00A50D9260B50DA2204C040
:10294800DFFF0AC0D9FF0BC0DAFF400EDF160AC04E
:10295800D9FF0BC0DAFF000EDB860AC0D9FF0BC017
:10296800DAFF000EDB8E0150D8B4BDEF14F0BFEFD4
:1029780014F0DEEF14F00950020D6E0EF324D96E38
:10298800000EF420DA6EDECF05F0DDCF06F0040E7F
:102998000518076E0650086E0950020D6E0EF324D6
:1029A800D96E000EF420DA6E07C0DEFF08C0DDFF26
:1029B800FBEF14F00950020D740EF324D96E000ECB
:1029C800F420DA6EDECF05F0DDCF06F0040E051830
:1029D800076E0650086E0950020D740EF324D96E66
:1029E800000EF420DA6E07C0DEFF08C0DDFF0AC063
:1029F80001F00BC002F01200CA0E0001C26F010EF6
:102A0800C36F80EF15F05A0E9E6F020E9F6FE2ECB7
:102A180024F00001C16FC151D8A415EF15F017EFCC
:102A280015F019EF15F099EF15F020EE04F0C251EA
:102A3800D926C351DA22010EDE6E000EDD6E84C087
:102A4800D9FF85C0DAFFC1C0DFFF844B852BC2C028
:102A5800D9FFC3C0DAFF010EDF6E99EF15F05A0EE9
:102A68009E6F020E9F6FE2EC24F00001C16FC1510E
:102A7800D8A441EF15F043EF15F045EF15F099EFA5
:102A880015F00A0EC119D8A44CEF15F04EEF15F049
:102A98006DEF15F0C2C0D9FFC3C0DAFF000EDF6EBC
:102AA80084C0D9FF85C0DAFF000EDF6EC2C0B3F064
:102AB800C3C0B4F0B3EC0AF0000120EE02F0C2513A
:102AC800D926C351DA22DECF84F0DDCF85F099EF25
:102AD80015F084C0D9FF85C0DAFFC1C0DFFF844B81
:102AE800852B20EE04F0C251D926C351DA22DE2A02
:102AF800000EDD2299EF15F0C2C0D9FFC3C0DAFF7E
:102B0800DF50BF6FC06BC051000AD8B48EEF15F00C
:102B180099EF15F0BF51000AD8B407EF15F0010A74
:102B2800D8B433EF15F099EF15F0120004013039DD
:102B3800E832030B0009D8B4A4EF15F0A6EF15F09E
:102B4800F3EF15F02CEF16F000016B8F080E566EA0
:102B58002CEF16F077EC10F02CEF16F0C5EC1AF00D
:102B68002CEF16F0580E0001686F000E696F6B812C
:102B7800010E6C6F6B8F2CEF16F0CAEC17F02CEF70
:102B880016F0B2EC04F02CEF16F09C0E3425000180
:102B9800686F696B000E69236B81010E6C6F6B8F18
:102BA8002CEF16F000016B8F9C0E04013425D96EB2
:102BB800DA6A000EDA2232C4DFFF2CEF16F0000EBC
:102BC8000E6E020E0D6E000E0F6E000E106E000ED1
:102BD800126E000E116E9EEC24F02CEF16F031519F
:102BE8001C6E1D6A1D50000AD8B4FDEF15F02CEFBD
:102BF80016F01C50000AD8B4C1EF15F0010AD8B479
:102C0800C5EF15F0020AD8B4C5EF15F0060AD8B416
:102C1800A8EF15F0030AD8B4AEEF15F0010AD8B43E
:102C2800E3EF15F00F0AD8B4B6EF15F0010AD8B4DF
:102C3800B2EF15F0030AD8B4C9EF15F0010AD8B4F9
:102C4800D6EF15F0070AD8B42CEF16F02CEF16F0D3
:102C58001200740EF66E520EF76E000EF86E06EE47
:102C680000F010EE63F00900F5CFEEFFE550E150FB
:102C7800FAE1120EF66E630EF76E000EF86E02EEB3
:102C8800CAF010EE14F00900F5CFEEFFE550E15060
:102C9800FAE1FE0EF66E620EF76E000EF86E01EEA9
:102CA800E1F010EE14F00900F5CFEEFFE550E15029
:102CB800FAE12A0EF66E570EF76E000EF86E04EE65
:102CC8009AF010EE52F00900F5CFEEFFE550E15012
:102CD800FAE1520EF66E640EF76E000EF86E00EE14
:102CE800CEF010EE04F00900F5CFEEFFE550E1500C
:102CF800FAE106EEAAF011EE03F0EE6AE550E150B3
:102D0800FCE1E250FAE103EE00F0E30EEE6AE806B9
:102D1800FDE102EE00F0CA0EEE6AE806FDE101EE02
:102D280000F0E10EEE6AE806FDE104EE40F05A0E0E
:102D3800EE6AE806FDE100EE60F03E0EEE6AE80697
:102D4800FDE105EE80F0400EEE6AE806FDE100EEDA
:102D58002EF02B0EEE6AE806FDE159905992000E0E
:102D6800F86E000188EF07F09D0E0001AB6F020EB0
:102D7800AC6F050EAB27000EAC23ABC09FF0ACC008
:102D8800A0F0000EA26F280EA16F0A0EA36F8BECA5
:102D980027F00001AD6FAD51D8A4D5EF16F0D7EFED
:102DA80016F0D9EF16F041EF17F0C4C2AAF0CDEC37
:102DB80031F09EC0AEF09FC0AFF0000E0001B06FC2
:102DC80036EF17F0B051AE25A76F000EAF21A86FF0
:102DD8001D0EA725D96E000EA821DA6EDFB0F7EF19
:102DE80016F0FBEF16F0A96BA92BFDEF16F000010A
:102DF800A96BC50EB025D96EDA6A020EDA22DF5049
:102E0800010BA919D8B40BEF17F00DEF17F035EF38
:102E180017F0C50EB025D96EDA6A020EDA22DF5035
:102E2800A76F010EA717B051AE25A86F000EAF21EE
:102E3800A96F1D0EA825D96E000EA921DA6EDF50E4
:102E4800A719FE0BA719DF6EB051AE25A76F000EAC
:102E5800AF21A86F1D0EA725D96E000EA821DA6E26
:102E6800DF82B02BAA51B05DD8A03DEF17F03FEF3D
:102E780017F0E6EF16F0000E8F6F1200080E016EC5
:102E880000016D5107E1080E6C5DD8B04EEF17F0E8
:102E980050EF17F068EF17F06CC001F05550D8A448
:102EA80058EF17F05AEF17F05EEF17F0010E556E56
:102EB80068EF17F05504D8A464EF17F066EF17F021
:102EC80068EF17F0020E556E01506C5F000E6D5BD7
:102ED80020EE01F06E51D9266F51DA2201C0DFFFD2
:102EE800380E8C6F040E8D6F6BB17DEF17F07FEF8E
:102EF80017F0C1EF17F09CEF17F068C0F6FF69C034
:102F0800F7FFF86A8CC0D9FF8DC0DAFF070EF764A7
:102F180003D00800F55005D0F6CFE9FFF7CFEAFF58
:102F2800EF50DF6E0001684B692B8C4B8D2B01062F
:102F38000150D8A4A2EF17F0A4EF17F081EF17F013
:102F4800C9EF17F068C0F6FF69C0F7FFF86A8CC0D0
:102F5800D9FF8DC0DAFF070EF76403D00800F550DB
:102F680005D0F6CFE9FFF7CFEAFFEF50DF6E00019B
:102F7800684B692B8C4B8D2B01060150D8A4C7EFE9
:102F880017F0C9EF17F0A6EF17F01200000E0401B2
:102F9800386F000E396F27EF18F000016B8F53045C
:102FA800D8A4D9EF17F0DBEF17F041EF18F00401C0
:102FB800388341EF18F000016B8F41EF18F00001E2
:102FC8006B8F040134BFEBEF17F0EDEF17F0FEEF56
:102FD80017F034510F0B016E0150020D740EF324DB
:102FE800D96E000EF420DA6EDECF03F0DDCF04F0E8
:102FF8000DEF18F034510F0B016E0150020D6E0EDB
:10300800F324D96E000EF420DA6EDECF03F0DDCFA4
:1030180004F003C0D9FF04C0DAFFDFAE16EF18F0E2
:1030280018EF18F041EF18F003C0D9FF04C0DAFF19
:10303800DFA421EF18F023EF18F041EF18F0010E8C
:10304800386F41EF18F030511F0B016E026A0250C1
:10305800000AD8B432EF18F041EF18F00150000A16
:10306800D8B4D1EF17F0010AD8B4DFEF17F0030A8C
:10307800D8B4E3EF17F041EF18F000016BAF47EF5A
:1030880018F049EF18F050EF18F0380E686F040E7A
:10309800696F6B81020E6C6F1200040130511F0BB7
:1030A800E806D8B45AEF18F05CEF18F05EEF18F0A5
:1030B800D6EF18F03039E832030BE806D8B467EFDA
:1030C80018F069EF18F06BEF18F0D6EF18F03451DC
:1030D800D8B471EF18F073EF18F0B5EF18F03405A5
:1030E800D8B479EF18F07BEF18F0B5EF18F0D6EFF9
:1030F80018F0D20E0001686F010E696F000E6D6F37
:10310800080E6C6F6B816B8FD6EF18F0D20E000132
:10311800686F010E696F6B8FD6EF18F036C464F0D4
:1031280037C465F0DA0E0001606F010E616F000EA2
:10313800666F000E676F638FD6EF18F0DA0E000126
:10314800686F010E696F000E6D6F070E6C6FC10E10
:103158006B6FD6EF18F032C44AF000016B8FD6EFD0
:1031680018F03151016E026A0250000AD8B4BFEF5C
:1031780018F0D6EF18F00150000AD8B47DEF18F017
:10318800010AD8B48AEF18F0210AD8B492EF18F0DF
:10319800010AD8B4A2EF18F0030AD8B4AFEF18F0B8
:1031A800D6EF18F012006EC0D9FF6FC0DAFF000129
:1031B800000EDFBC010E026E040E6E196E6F6F51A9
:1031C8006F6F080E5618D8A4ECEF18F0EEEF18F051
:1031D80000EF19F0040132517F0B636E6350D8B4CD
:1031E800F8EF18F0FAEF18F0FEEF18F0100E566E20
:1031F80000EF19F0040E566E5404D8A406EF19F027
:1032080008EF19F050EF19F0000120EE02F06E51AE
:10321800D9266F51DA22380EDE6E040EDD6E42ECCE
:1032280017F0020E5518D8A41CEF19F01EEF19F06C
:103238002CEF19F06EC0D9FF6FC0DAFF040EDF6EF5
:103248006EC0D9FF6FC0DAFF000EDB8E5BEF19F09E
:103258000250D8A432EF19F034EF19F042EF19F008
:103268006EC0D9FF6FC0DAFF480EDF6E6EC0D9FF9F
:103278006FC0DAFF000EDB8E5BEF19F06EC0D9FF6E
:103288006FC0DAFF080EDF6E6EC0D9FF6FC0DAFFBD
:10329800000EDB8E5BEF19F0000163AF56EF19F0FB
:1032A80058EF19F059EF19F0639F000E546E120091
:1032B800850E0001A16F7E0EA26F020EA36F28EC8F
:1032C8002DF0FC0E0001AF6F7F0EB06F020EB16FD4
:1032D80025EC26F03D6E3D50D8A475EF19F077EF38
:1032E80019F07AEF19F0000ED4EF19F0F90E000179
:1032F800A16F7D0EA26F020EA36F28EC2DF0B3C054
:10330800A1F0B4C0A2F0020E0001A36F28EC2DF0CA
:10331800F90E0001A16F7F0EA26F020EA36F28ECB9
:103328002DF0B5C0A1F0B6C0A2F0020E0001A36F47
:1033380028EC2DF0FA0E0001A16F7F0EA26F020E8D
:10334800A36F28EC2DF0B7C0A1F0B8C0A2F0020E10
:103358000001A36F28EC2DF0FA0E0001A16F7F0E7B
:10336800A26F020EA36F28EC2DF06F0E0001A16F63
:103378007D0EA26F020EA36F28EC2DF0AA0E00019D
:103388009E6F060E9F6F5DEC2FF0FC0E0001AF6F75
:103398007F0EB06F020EB16F25EC26F03D6E3D50EA
:1033A80012004E50D8A4DBEF19F0DDEF19F04DEF05
:1033B8001AF0010E4E6E4D50D8A4E5EF19F0E7EF64
:1033C80019F04DEF1AF0010E4D6E020E5418D8A4E4
:1033D800F0EF19F0F2EF19F009EF1AF0000120EE02
:1033E80001F06E51D9266F51DA22000EDF6E6EC0E1
:1033F800D9FF6FC0DAFF480EDF6E6EC0D9FF6FC00D
:10340800DAFF000EDB8E4DEF1AF05404D8A40FEF4C
:103418001AF011EF1AF04DEF1AF0000E516E20EE6F
:1034280001F03450D9263550DA22080EDF6E20EE2E
:1034380002F03450D9263550DA22300EDE6E040EF2
:10344800DD6E34C0D9FF35C0DAFF040EDF6E34C03C
:10345800D9FF35C0DAFF000EDB8E010E516E20EE6B
:1034680001F03250D9263350DA22080EDF6E20EEF2
:1034780002F03250D9263350DA22300EDE6E040EB6
:10348800DD6E32C0D9FF33C0DAFF800EDF6E4DEF3C
:103498001AF01200A4C09EF0A5C09FF010EC2CF00A
:1034A80000019E51AE6F20EE02F0A251D926A35121
:1034B800DA22AE51DE5CD8B064EF1AF066EF1AF08B
:1034C80069EF1AF0000EC4EF1AF0A2C0D9FFA3C02A
:1034D800DAFFDF50A66FA76BAE51A65F000EA75BA1
:1034E800FF0EA625AC6FFF0EA721AD6FADBF81EF14
:1034F8001AF07FEF1AF083EF1AF0010EAD27000ED5
:10350800AB6F000EAA6FB1EF1AF0AC51A225A66FEF
:10351800AD51A321A76F030EA625D96E000EA721D2
:10352800DA6EDF50A96FAC4BAD2BAA51A425A66F5C
:10353800AB51A521A76FA6C0F6FFA7C0F7FF0800EB
:10354800F550A919D8B4ABEF1AF0ADEF1AF0AFEFF8
:103558001AF066EF1AF0AA4BAB2BAE51A66FA76B09
:10356800A651AA5DAB51800AA86FA751800AA85935
:10357800D8A0C1EF1AF0C3EF1AF089EF1AF0010EC4
:10358800120000016B8F6B0E016E0F0E026E000EA3
:10359800046E000E036E000E066E020E056EBCEC85
:1035A8000FF0000E016E040E026E000E046E000E87
:1035B800036E000E066E300E056EBCEC0FF0608CCC
:1035C800000E156E810E1524D96EDA6A000EDA2205
:1035D800000EDF6E7E0E1524D96EDA6A000EDA222E
:1035E800000EDF6E152A020E1564FDEF1AF0FFEFCC
:1035F8001AF0E6EF1AF09C0E016E000E026E000E35
:10360800046E000E036E000E066E020E056EBCEC14
:103618000FF0609C080E00016E6F040E6F6F000EB5
:10362800346E040E356E34C032F035C033F032C417
:1036380058F05850D8A423EF1BF025EF1BF029EFC2
:103648001BF0100E566E39EF1BF0000E0E6E010EB9
:103658000D6E580E0F6E000E106E000E126E010EDB
:10366800116E9EEC24F0200E566E120041EF1BF0F6
:1036780000019E4B9F2BA04BA12BA0C0F6FFA1C021
:10368800F7FFF86A070EF76403D00800F55005D075
:10369800F6CFE9FFF7CFEAFFEF500001A26F9EC017
:1036A800F6FF9FC0F7FFF86A070EF76403D008001B
:1036B800F55005D0F6CFE9FFF7CFEAFFEF50A21992
:1036C800D8A469EF1BF06BEF1BF083EF1BF09EC0D3
:1036D800F6FF9FC0F7FFF86A070EF76403D00800EB
:1036E800F55005D0F6CFE9FFF7CFEAFFEF50000914
:1036F800D8A481EF1BF083EF1BF03CEF1BF09EC0BA
:10370800F6FF9FC0F7FFF86A070EF76403D00800BA
:10371800F55005D0F6CFE9FFF7CFEAFFEF500001EB
:10372800A26FA0C0F6FFA1C0F7FFF86A070EF76402
:1037380003D00800F55005D0F6CFE9FFF7CFEAFF30
:10374800EF500001A36FA351A25D9E6F9F6BD8A09D
:103758009F071200430E0001A16F7E0EA26F020E9A
:10376800A36F28EC2DF0FC0E0001AF6F7F0EB06F39
:10377800020EB16F25EC26F03D6E920E0001A16F8E
:103788007D0EA26F020EA36F28EC2DF0FC0E000137
:10379800AF6F7F0EB06F020EB16F25EC26F03D6E55
:1037A800DE0E0001A16F7E0EA26F020EA36F28EC41
:1037B8002DF0B3C0A1F0B4C0A2F0020E0001A36FB7
:1037C80028EC2DF0090E0001A16F7E0EA26F020EEB
:1037D800A36F28EC2DF0B5C0A1F0B6C0A2F0020E80
:1037E8000001A36F28EC2DF0AB0E0001A16F7D0E38
:1037F800A26F020EA36F28EC2DF0AA0E00019E6F97
:10380800060E9F6F5DEC2FF0FC0E0001AF6F7F0E70
:10381800B06F020EB16F25EC26F03D6E850E0001EB
:10382800AF6F7F0EB06F020EB16F25EC26F03D6EC4
:103838003D501200000E0001A16FA1519E6F9F6BB9
:10384800180E9E27000E9F23350E9E25F66E790EC4
:103858009F21F76EA20EA125D96EDA6A010EDA222F
:103868000800F5CFDFFFA12B040EA1653EEF1CF089
:1038780040EF1CF021EF1CF0000EA16FA1519E6FCC
:103888009F6B1D0E9E27000E9F23350E9E25F66EFC
:10389800790E9F21F76EA70EA125D96EDA6A010E5F
:1038A800DA220800F5CFDFFFA12B040EA1655FEF38
:1038B8001CF061EF1CF042EF1CF0000EA16FA1514B
:1038C800030D350EF324F66E790EF420F76E090019
:1038D800F5CF9EF00900F5CF9FF00900F5CFA0F0D5
:1038E800A151030D8A0EF324D96E010EF420DA6E6D
:1038F8009EC0DEFF9FC0DEFFA0C0DEFFA12B070E2B
:10390800A16589EF1CF08BEF1CF063EF1CF012002F
:10391800AA0E00019E6F060E9F6F5DEC2FF0010E40
:103928003D6E550E0001A16F7E0EA26F020EA36FB1
:1039380028EC2DF0FC0E0001AF6F7F0EB06F020E69
:10394800B16F25EC26F03D6E3D50D8B4AEEF1CF0BB
:10395800B0EF1CF0C3EF1CF04C0E0001A16F7D0E00
:10396800A26F020EA36F28EC2DF0FC0E0001AF6FC2
:103978007F0EB06F020EB16F25EC26F03D6E3D5004
:10398800D8B4C9EF1CF0CBEF1CF0DEEF1CF0930E9F
:103998000001A16F7E0EA26F020EA36F28EC2DF01E
:1039A800FC0E0001AF6F7F0EB06F020EB16F25ECF9
:1039B80026F03D6E3D50D8B4E4EF1CF0E6EF1CF065
:1039C800F9EF1CF0E50E0001A16F7D0EA26F020E4B
:1039D800A36F28EC2DF0FC0E0001AF6F7F0EB06FC7
:1039E800020EB16F25EC26F03D6E12000001A16FAA
:1039F80044EF1DF09E51D8B404EF1DF006EF1DF002
:103A080009EF1DF08A8066EF1DF08A9066EF1DF0C1
:103A18009E51D8B412EF1DF014EF1DF017EF1DF0F2
:103A28008A8266EF1DF08A9266EF1DF09E51D8B427
:103A380020EF1DF022EF1DF025EF1DF08A8466EFC0
:103A48001DF08A9466EF1DF09E51D8B42EEF1DF03C
:103A580030EF1DF033EF1DF08A8666EF1DF08A9671
:103A680066EF1DF09E51D8B43CEF1DF03EEF1DF0FF
:103A780041EF1DF08A8866EF1DF08A9866EF1DF009
:103A88000001A1519F6FA06BA051000AD8B44FEF5D
:103A98001DF066EF1DF09F51000AD8B4FEEF1CF030
:103AA800010AD8B40CEF1DF0030AD8B41AEF1DF0C0
:103AB800010AD8B428EF1DF0070AD8B436EF1DF074
:103AC80066EF1DF012000001A26FACEF1DF080A0A0
:103AD80070EF1DF073EF1DF0010E74EF1DF0000E76
:103AE8009E6F9F6BD2EF1DF080A27DEF1DF080EFDF
:103AF8001DF0010E81EF1DF0000E9E6F9F6BD2EF3F
:103B08001DF080A48AEF1DF08DEF1DF0010E8EEFE1
:103B18001DF0000E9E6F9F6BD2EF1DF080A697EFF1
:103B28001DF09AEF1DF0010E9BEF1DF0000E9E6F29
:103B38009F6BD2EF1DF080A8A4EF1DF0A7EF1DF03A
:103B4800010EA8EF1DF0000E9E6F9F6BD2EF1DF0C7
:103B58000001A251A06FA16BA151000AD8B4B7EF20
:103B68001DF0CEEF1DF0A051000AD8B46BEF1DF088
:103B7800010AD8B478EF1DF0030AD8B485EF1DF018
:103B8800010AD8B492EF1DF0070AD8B49FEF1DF0D0
:103B9800CEEF1DF0000E9F6F000E9E6F12003B507F
:103BA800D8A4D9EF1DF0DBEF1DF0DDEF1DF03CEFE1
:103BB8001EF0E10E3A24D96EDA6A010EDA22DF50DD
:103BC80082EC2EF09EC0A9F09FC0AAF03A50030DD7
:103BD800A3C0A5F0A4C0A6F0F3500001A527F45097
:103BE800A623010EA525D96E000EA621DA6EA9C05E
:103BF800DEFFAAC0DDFF3A50030DA3C0A5F0A4C0A4
:103C0800A6F0F350A527F450A623010EA525D96EDA
:103C1800000EA621DA6EA951DE1809E1AA51DE18B4
:103C2800D8B419EF1EF01BEF1EF02AEF1EF03A5021
:103C3800030DF3CFA5F0F4CFA6F0A551A325D96EB7
:103C4800A651A421DA6EDF8037EF1EF03A50030D3B
:103C5800F3CFA5F0F4CFA6F0A551A325D96EA651B0
:103C6800A421DA6EDF903A28070B3A6E08EC31F09F
:103C78001200000E0001AA6F000EAB6F000EAC6FB1
:103C8800000EAD6F8FEF1EF0AAC0A2F0ABC0A3F07C
:103C9800ACC0A4F0ADC0A5F0030ED890A237A337EE
:103CA800A437A537E82E51EF1EF0A2C0A6F0A3C096
:103CB800A7F0A4C0A8F0A5C0A9F0D890AA35A26F13
:103CC800AB35A36FAC35A46FAD35A56FA251A62750
:103CD800A351A723A451A823A551A923D00EA26FAD
:103CE800FF0EA36F9EC0D9FF9FC0DAFFDF50A46FFD
:103CF800A56BA251A427A351A523A451A625AA6F59
:103D0800A551A721AB6F000EA821AC6F000EA92109
:103D1800AD6F9E4B9F2B9EC0D9FF9FC0DAFFDF502F
:103D2800D8A499EF1EF09BEF1EF048EF1EF0AAC032
:103D38009EF0ABC09FF0ACC0A0F0ADC0A1F01200E7
:103D4800000E0001A46FA45167EC1DF0010E0001E4
:103D58009E17A20EA425D96EDA6A010EDA22DF5068
:103D68009E19FE0B9E19DF6EA20EA425D96EDA6A83
:103D7800010EDA220101DFB0C4EF1EF0C7EF1EF01A
:103D8800010EC8EF1EF0000E0001A36FA20EA425BD
:103D9800D96EDA6A010EDA220101DFB2D6EF1EF01F
:103DA800D9EF1EF0010EDAEF1EF0000E0001A31B82
:103DB800D8B4E1EF1EF0E3EF1EF0FFEF1EF0A20E05
:103DC800A425D96EDA6A010EDA220101DF84A20E77
:103DD8000001A425D96EDA6A010EDA22A20EA42502
:103DE800E16EE26A010EE2220101DFB002D0E79241
:103DF80002D00101E7820001A42B040EA46507EF9D
:103E08001FF009EF1FF0A7EF1EF01200000E0001CF
:103E1800A36FA1BF14EF1FF012EF1FF01AEF1FF0EE
:103E2800A06DA11FD8B0A12B010EA36F9FBF21EFDA
:103E38001FF01FEF1FF027EF1FF09E6D9F1FD8B0D8
:103E48009F2B010EA31B000EA56F000EA46FA0519F
:103E5800A111D8B432EF1FF034EF1FF05CEF1FF060
:103E6800010EA26F3CEF1FF0D890A037A137A22B0C
:103E7800A1AF41EF1FF043EF1FF038EF1FF0D890CC
:103E8800A437A537A0519E5DA1519F59D8A04FEFE7
:103E98001FF051EF1FF056EF1FF0A0519E5FA15188
:103EA8009F5BA481D890A133A033A22F43EF1FF0CA
:103EB800A351D8B462EF1FF064EF1FF068EF1FF052
:103EC800A46DA51FD8B0A52BA4C09EF0A5C09FF0D7
:103ED8001200000E4924D96EDA6A020EDA22000EA8
:103EE800DF6EABA47AEF1FF07CEF1FF092EF1FF0AC
:103EF800000E4924D96EDA6A020EDA220201DF8244
:103F080002D892EF1FF005000101FA6E3E51FD6ED6
:103F18003F51FE6EF850FF6EFA501200ABA297EFB9
:103F28001FF099EF1FF0AFEF1FF0000E4924D96E74
:103F3800DA6A020EDA220201DF8402D8AFEF1FF03C
:103F480005000101FA6E3C51FD6E3D51FE6EF850C0
:103F5800FF6EFA501200000E4924D96EDA6A020E7A
:103F6800DA22DF50D8B4BBEF1FF0BDEF1FF0CDEF62
:103F78001FF002D8CBEF1FF005000101FA6E3A518D
:103F8800FD6E3B51FE6EF850FF6EFA501200CFEFF7
:103F98001FF064EC30F01200000E0001996F8A5196
:103FA8008B11D8B4DAEF1FF0DCEF1FF0E7EF1FF04A
:103FB8008AC0D9FF8BC0DAFFDFBEE5EF1FF0E7EF5D
:103FC8001FF029EF20F020EE01F08A51D9268B51FD
:103FD800DA22AB51DE5CD8B0F4EF1FF0F6EF1FF039
:103FE800FEEF1FF020EE01F08A51D9268B51DA221C
:103FF800DF50AB6F000E996F11EF20F0400E99253E
:10400800D96EDA6A050EDA229951A925E16E000EF9
:10401800AA21E26EDFCFE7FF992BAB51995DD8A0BB
:1040280018EF20F01AEF20F002EF20F0000E9E6F3C
:10403800400E9F6F050EA06F400EA16F020E1FEC81
:1040480013F09EC08AF09FC08BF0000199511200B6
:104058002D0E506E57C01EF0FD0E1E16D8A437EF59
:1040680020F039EF20F07BEF20F057C01EF0D890F9
:104078001E323F0E1E161E50040D000EF324346E21
:10408800040EF420356E34C032F035C033F0040E1F
:104098003218326E3350336E34C0D9FF35C0DAFF70
:1040A800DF30E8320F0B0D0AD8A45DEF20F05FEF88
:1040B80020F077EF20F0300E016E040E026E20EE35
:1040C80002F03450D9263550DA22DECF03F0DDCFA6
:1040D80004F0000E066E080E056EB2EC2CF0CBEC68
:1040E80023F087EF20F051EC27F087EF20F05750AE
:1040F800FD0B040AD8A483EF20F085EF20F087EFAA
:1041080020F0D7EC18F01200000E4C6E000E4B6E2B
:10411800020E5418D8A493EF20F095EF20F0B5EFD5
:1041280020F020EE01F03250D9263350DA22080E62
:10413800DF6E20EE02F03250D9263350DA22380EE4
:10414800DE6E040EDD6E32C0D9FF33C0DAFF480ED2
:10415800DF6E32C0D9FF33C0DAFF000EDB8EE1EF2D
:1041680020F000016C510401365D00016D5104011D
:104178003759D8B0C2EF20F0C4EF20F0C8EF20F0D4
:1041880036C46CF037C46DF042EC17F0000120EE35
:1041980002F06E51D9266F51DA22380EDE6E040E07
:1041A800DD6E6EC0D9FF6FC0DAFF480EDF6E6EC0DD
:1041B800D9FF6FC0DAFF000EDB8E1200000E00017F
:1041C800A36F9FBFECEF20F0EAEF20F0F2EF20F0B2
:1041D8009E6D9F1FD8B09F2B010EA36FA1BFF9EF53
:1041E80020F0F7EF20F0FDEF20F0A06DA11FD8B070
:1041F800A12BA051A111D8B404EF21F006EF21F0B2
:104208002AEF21F0010EA26F0EEF21F0D890A0370F
:10421800A137A22BA1AF13EF21F015EF21F00AEF80
:1042280021F0A0519E5DA1519F59D8A01EEF21F009
:1042380020EF21F024EF21F0A0519E5FA1519F5B58
:10424800D890A133A033A22F15EF21F0A351D8B4F1
:1042580030EF21F032EF21F036EF21F09E6D9F1FF5
:10426800D8B09F2B9EC09EF09FC09FF01200640E96
:104278000001AE6F010EAC6F74EF21F0AEC09EF07E
:10428800AB51CEEC29F00001AD6FAD51AE03F35048
:10429800AB5FAEC09EF09F6B000EA16F0A0EA06FC1
:1042A8000AEC1FF000019E51AE6FAD51D8B45FEF1C
:1042B80021F061EF21F063EF21F0000EAC6FAC51FB
:1042C800D8A469EF21F06BEF21F074EF21F0AD5124
:1042D800300FA9C0D9FFAAC0DAFFDF6EA94BAA2BFD
:1042E800AE51D8A47AEF21F07CEF21F042EF21F013
:1042F800AC51D8B482EF21F084EF21F08CEF21F09B
:10430800A9C0D9FFAAC0DAFF300EDF6EA94BAA2BCD
:10431800A9C0D9FFAAC0DAFF000EDF6E120046500E
:10432800D8B499EF21F09BEF21F0EAEF21F0B7EF35
:1043380021F04304D8A4A3EF21F0A6EF21F0010E49
:10434800A7EF21F0000E436ED0EF21F04450D8B40F
:10435800B0EF21F0B3EF21F0010EB4EF21F0000E21
:10436800446ED0EF21F04550016E026A0250000AF7
:10437800D8B4C1EF21F0EAEF21F00150020AD8B415
:104388009DEF21F0060AD8B49DEF21F0010AD8B4B8
:10439800AAEF21F0EAEF21F04350D8A4D6EF21F09C
:1043A800D8EF21F0DCEF21F009EC32F0EAEF21F050
:1043B8004450D8A4E2EF21F0E4EF21F0E8EF21F037
:1043C8001DEC32F0EAEF21F01AEC32F01200000195
:1043D800A06FA0C045F01BEF22F005EC32F0000EF4
:1043E800466E000E436E41EF22F014EC32F0000EE0
:1043F800466E000E446E010E436E41EF22F014EC3F
:1044080032F0010E466EFDEF21F011EC32F0000E95
:10441800466E010E446EFFEF21F011EC32F0010EF2
:10442800466E0DEF22F005EC32F005EF22F00001A8
:10443800A0519E6F9F6B9F51000AD8B426EF22F0BF
:1044480041EF22F09E51000AD8B4F1EF21F0010AA1
:10445800D8B4F9EF21F0030AD8B403EF22F0010A27
:10446800D8B409EF22F0070AD8B411EF22F0010AF4
:10447800D8B417EF22F041EF22F01200066E000EBA
:10448800076E040E086E0150026E036AD890023659
:1044980003360650046E056AD89004360536D8905F
:1044A800043605360250042603500522D8900436F7
:1044B8000536D890043605360450072605500822DC
:1044C80007C0D9FF08C0DAFFDF9E0150D8A46FEFFC
:1044D80022F071EF22F07FEF22F00650020D740EE9
:1044E800F324D96E000EF420DA6E07C0DEFF08C090
:1044F800DDFF8BEF22F00650020D6E0EF324D96E0D
:10450800000EF420DA6E07C0DEFF08C0DDFF07C02A
:10451800D9FF08C0DAFFDF9C20EE04F00750D92647
:104528000850DA22DF8C1200630E0001AC6F000E17
:10453800AE6F000EB06F000EAF6FB3EF22F0AE514A
:1045480069EC31F00001AD6FAE2B000EAF25D96ECE
:10455800030EB021DA6EADC0DFFFAF4BB02BAC510C
:10456800A96FAA6BA951AF5DB051800AAB6FAA5170
:10457800800AAB59D8A0C3EF22F0C5EF22F0A3EF11
:1045880022F0DA0E0301611907E1BE0E6219D8A400
:10459800D0EF22F0D2EF22F0D5EF22F0010EE7EFB4
:1045A80022F0000E00019E6F030E9F6F000EA06F99
:1045B800060EA16F000EA36F630EA26FBEEC2BF068
:1045C80001EC2DF0000E1200010E386E080E0001ED
:1045D8008E61F1EF22F0F3EF22F035EF23F08E51E8
:1045E800020D000EF324D96E010EF420DA6EA5C078
:1045F800DEFFA6C0DDFF8E2B1CEF23F0010EBFEC03
:1046080031F020EE01F02E50D9262F50DA22010E7B
:10461800DF6E35EF23F0000EBFEC31F020EE01F035
:104628002E50D9262F50DA22000EDF6E35EF23F0F8
:10463800A751A86FA96BA951000AD8B426EF23F097
:1046480035EF23F0A851000AD8B435EF23F0010A5A
:10465800D8B402EF23F0030AD8B40FEF23F035EFF4
:1046680023F0000E386E1200200E56603EEF23F045
:1046780040EF23F042EF23F082EF23F060A247EFF0
:1046880023F049EF23F04BEF23F082EF23F00001F2
:104698009851D8A452EF23F054EF23F082EF23F07F
:1046A800A30EA96F030EAA6F400EAB6FD0EC1FF0DC
:1046B8000001AD6FAD51D8B464EF23F066EF23F07D
:1046C80082EF23F0000EAE6F79EF23F05A0E9E6F43
:1046D800020E9F6FA30EAE25D96EDA6A030EDA2298
:1046E800DF5014EC2BF00001AE2BAD51AE5DD8A01D
:1046F80080EF23F082EF23F06AEF23F01200000E20
:104708000001A66F000EA56FBAEF23F0A5C0A0F0B8
:10471800A6C0A1F0D890A037A137D890A037A1376C
:10472800D890A037A137A0C0A3F0A1C0A4F0A5C01D
:10473800A0F0A6C0A1F0D890A037A137A051A32718
:10474800A151A4239EC0D9FF9FC0DAFFDF50A06FFC
:10475800A051A325A16F000EA421A26FD00EA12500
:10476800A56FFF0EA221A66F9E4B9F2B9EC0D9FF5F
:104778009FC0DAFFDF50D8A4C4EF23F0C6EF23F0C0
:104788008AEF23F0A5C09EF0A6C09FF01200000E8D
:10479800556E000E4F6E000E4C6E000E4B6E000EE6
:1047A800516E000E546E6EC0D9FF6FC0DAFF7F0ED7
:1047B800DF16040E00016E196E6F6F516F6F6EC0B9
:1047C800D9FF6FC0DAFF7F0EDF16040E6E196E6F09
:1047D8006F516F6F32C0D9FF33C0DAFF7F0EDF161B
:1047E800000E6B6F000E6D6F000E6C6F000E636F26
:1047F800000E656F000E646F9AEC15F0000E0E6ED9
:10480800030E0D6E000E0F6E000E106E000E126E6F
:10481800000E116E9EEC24F0C0EC13F01200AF0EE7
:104828000001B06F000EB16FB0C0D9FFB1C0DAFFA0
:10483800000EDF6EA5C09EF0A6C09FF0000EA16F0F
:104848000A0EA06FA2EC28F0570E00019E25F66E06
:10485800790E9F21F76EB007D8A0B107B0C0D9FF75
:10486800B1C0DAFF0800F5CFDFFFA5C09EF0A6C0F3
:104878009FF0000EA16F0A0EA06FDCEC26F09EC020
:10488800A5F09FC0A6F00001A551A611D8A44FEF2E
:1048980024F051EF24F01EEF24F0B0C0A1F0B1C015
:1048A800A2F0A7C0A3F028EC2DF012000001B16F10
:1048B800AE0E0001AF6F000EB06FAFC0D9FFB0C031
:1048C800DAFF000EDF6EB1C09EF09F6B000EA16F85
:1048D8000A0EA06FE2EC20F0570E00019E25F66E3E
:1048E800790E9F21F76EAF07D8A0B007AFC0D9FFE8
:1048F800B0C0DAFF0800F5CFDFFFB1C09EF09F6BB4
:10490800000EA16F0A0EA06F0AEC1FF000019E5165
:10491800B16FB151D8A493EF24F095EF24F067EF6D
:1049280024F0AFC0A1F0B0C0A2F0A6C0A3F028EC5C
:104938002DF01200A8EF24F0D5EC28F0E1EF24F0D8
:1049480051EC18F0E1EF24F00DC013F00EC014F094
:104958001450000AD8B4B7EF24F07F0AD8B4DAEFBD
:1049680024F0E1EF24F01350010AD8B4A0EF24F0AA
:10497800030AD8B4E1EF24F0010AD8B4A4EF24F074
:10498800060AD8B4E1EF24F0770AD8B4E1EF24F0AE
:10499800010AD8B4E1EF24F0070AD8B4E1EF24F013
:1049A800010AD8B4E1EF24F0E1EF24F01350FF0A34
:1049B800D8B4E1EF24F0E1EF24F01200000120EE7A
:1049C80002F09E51D9269F51DA22DF50D8A4EFEF8A
:1049D80024F0F1EF24F0F4EF24F0000E23EF25F09B
:1049E80020EE01F09E51D9269F51DA22DF50A06FA8
:1049F800A0519E25A16F000E9F21A26F030EA12535
:104A0800D96E000EA221DA6EDF50A36F20EE01F0FE
:104A18009E51D9269F51DA2210EE01F09E51E126CF
:104A28009F51E222E750A06FA0293F0BDF6E20EED6
:104A380002F09E51D9269F51DA22DF06A3511200B7
:104A4800000E0001AC6FA20EAC25D96EDA6A010E19
:104A5800DA220101DFA433EF25F035EF25F05AEF14
:104A680025F0A20E0001AC25D96EDA6A010EDA2211
:104A78000101DFA642EF25F044EF25F05AEF25F0BB
:104A8800ACC0ABF0020E0001AA6FAAC0A5F0ABC083
:104A9800A6F0000EA76FE8EC22F0A20E0001AC25EC
:104AA800D96EDA6A010EDA220101DF940001AC2B1B
:104AB800040EAC6562EF25F064EF25F027EF25F0D2
:104AC8001200000120EE02F09E51D9269F51DA22F1
:104AD800DF50D8A472EF25F074EF25F077EF25F0BA
:104AE800000EA5EF25F020EE01F09E51D9269F512A
:104AF800DA22DF50A06FA0519E25A16F000E9F21E2
:104B0800A26F030EA125D96E000EA221DA6EDF5026
:104B1800A36F20EE01F09E51D9269F51DA2210EEA4
:104B280001F09E51E1269F51E222E750A06FA02993
:104B3800DF6E20EE02F09E51D9269F51DA22DF0661
:104B4800A3511200AA0E00019E6F060E9F6F5DEC26
:104B58002FF0010E3D6E3D50D8B4B5EF25F0B7EFFC
:104B680025F0CAEF25F0400E0001A16F7F0EA26F5D
:104B7800020EA36F28EC2DF09E0E0001AF6F7F0E82
:104B8800B06F020EB16F25EC26F03D6E3D50D8B4E3
:104B9800D0EF25F0D2EF25F0E5EF25F07E0E0001ED
:104BA800A16F7F0EA26F020EA36F28EC2DF0FC0EF2
:104BB8000001AF6F7F0EB06F020EB16F25EC26F0CB
:104BC8003D6E12000001B56FA10E0001A16F7E0EAF
:104BD800A26F020EA36F28EC2DF0020E0001A66F43
:104BE800B5515AEC24F0FA0E0001A16F7F0EA26FA6
:104BF800020EA36F28EC2DF0B3C0A5F0B4C0A6F048
:104C0800020E0001A76F13EC24F0AC0E0001A16F97
:104C18007D0EA26F020EA36F28EC2DF0AA0E0001E4
:104C28009E6F060E9F6F5DEC2FF0FC0E0001AF6FBC
:104C38007F0EB06F020EB16F25EC26F03D6E3D5031
:104C48001200010E0001936FB1C094F0000E936F33
:104C580059EF26F074EC31F00009D8B436EF26F09D
:104C680038EF26F059EF26F039EC2CF00001B26F3E
:104C7800AA0E9E6F060E9F6FB25140EC2BF0AA0E43
:104C88000001A26F060EA36FAFC0A4F0B0C0A5F0DC
:104C98004EEC1AF00009D8B454EF26F056EF26F07F
:104CA80059EF26F0010E63EF26F000019451D8A4C5
:104CB80060EF26F062EF26F02EEF26F0000E1200CD
:104CC8003850D8A46AEF26F06CEF26F064EF26F08F
:104CD80000018E51D8A473EF26F075EF26F089EF06
:104CE80026F020EE01F02E50D9262F50DA22DF5080
:104CF800D8B481EF26F083EF26F09CEF26F0F3C1BD
:104D08009EF0F4C19FF0A0EF26F08E078E51020DA1
:104D1800000EF324D96E010EF420DA6EDECFA0F077
:104D2800DDCFA1F0A0C09EF0A1C09FF0A0EF26F0BB
:104D380030C19EF031C19FF01200D3EC31F09EC01B
:104D4800B8F09FC0B9F0380E0001B8259E6F000E6C
:104D5800B9219F6F83EC23F09EC038F19FC039F1D1
:104D6800300E0001B8259E6F000EB9219F6F3DECF3
:104D78001EF09EC01EF19FC01FF1A0C020F1A1C06F
:104D880021F138C136F139C137F1400E0001B8259B
:104D9800B36F000EB921B46F500EB825B56F000E71
:104DA800B921B66FAEEC1BF00001B76FB751120016
:104DB800000E0001A46F000EA36FA051A111D8B47A
:104DC800E8EF26F0EAEF26F012EF27F0010EA26FC7
:104DD800F2EF26F0D890A037A137A22BA1AFF7EFBA
:104DE80026F0F9EF26F0EEEF26F0D890A337A43797
:104DF800A0519E5DA1519F59D8A005EF27F007EF5C
:104E080027F00CEF27F0A0519E5FA1519F5BA38173
:104E1800D890A133A033A22FF9EF26F0A3C09EF0BB
:104E2800A4C09FF01200CA0E0001A26F010EA36F6A
:104E380020EE04F0A251D926A351DA22000EDE6E2C
:104E4800000EDD6EA2C0D9FFA3C0DAFF000EDF6E30
:104E580020EE06F0A251D926A351DA22A0C0DEFF27
:104E6800A1C0DDFF20EE02F0A251D926A351DA221B
:104E7800800EDE6E050EDD6E20EE02F0A251D92600
:104E8800A351DA22DECF84F0DDCF85F0CA0E9E6F03
:104E9800010E9F6F10EC30F01200020E5418D8A4C7
:104EA80058EF27F05AEF27F05EEF27F07DEC12F06D
:104EB8008AEF27F0000E546E5150D8A466EF27F001
:104EC80068EF27F088EF27F020EE01F03250D9265E
:104ED8003350DA22080EDF6E20EE02F03250D92667
:104EE8003350DA22300EDE6E040EDD6E32C0D9FF8A
:104EF80033C0DAFF0C0EDF6E32C0D9FF33C0DAFFE1
:104F0800000EDB8E8AEF27F0000E516E1200010EA4
:104F18000001936FA3C094F0000E936FB9EF27F0D0
:104F280074EC31F00009D8B49CEF27F09EEF27F01D
:104F3800B9EF27F039EC2CF00001A46F9FC0D9FF1E
:104F4800A0C0DAFFA4C0DFFF9F4BA02BA107D8A009
:104F5800A207A151A211D8A4B4EF27F0B6EF27F009
:104F6800B9EF27F0010EC3EF27F000019451D8A440
:104F7800C0EF27F0C2EF27F094EF27F0000E1200E1
:104F8800AA0E00019E6F060E9F6F5DEC2FF0010EBA
:104F98003D6E3D50D8B4D3EF27F0D5EF27F0DFEFC3
:104FA80027F0920E0001AF6F7F0EB06F0A0EB16F3F
:104FB80025EC26F03D6EAA0E00019E6F060E9F6F2F
:104FC8005DEC2FF03D50D8B4ECEF27F0EEEF27F072
:104FD800FBEF27F0BD0E0001AF6F7F0EB06F020E22
:104FE800B16F25EC26F03D6E020E20EC2EF03D5000
:104FF80012004150412442100001A36F18EF28F01D
:10500800000EEBEC21F035EF28F0010EEBEC21F06F
:1050180035EF28F0030EEBEC21F035EF28F0050E04
:10502800EBEC21F035EF28F0A351A16FA26BA25150
:10503800000AD8B422EF28F035EF28F0A151000A71
:10504800D8B404EF28F0010AD8B409EF28F0030A0D
:10505800D8B40EEF28F0010AD8B413EF28F035EFD2
:1050680028F01200D0EC2FF0010122512311241155
:105078002511D8A442EF28F044EF28F05DEF28F07E
:10508800880E226F130E236F000E246F000E256FFB
:1050980093EC21F04FEC30F0BAEC2FF012EC2FF03B
:1050A8003F50D8B45AEF28F05CEF28F05DEF28F0B5
:1050B8003F0601012207000E235B245B255B40505D
:1050C800D8B469EF28F06BEF28F06CEF28F04006B1
:1050D8001200000E0001A26FA70EA225D96EDA6A8F
:1050E800010EDA220101DFA27CEF28F07EEF28F022
:1050F80097EF28F0A70E0001A225D96EDA6A010EF3
:10510800DA220101000EDFB0010E00019E6FA251EC
:10511800FAEC1CF0A70E0001A225D96EDA6A010E7E
:10512800DA220101DF920001A22B040EA2659FEF93
:1051380028F0A1EF28F070EF28F012000001A0512C
:10514800A111D8B4AAEF28F0ACEF28F0D0EF28F0DE
:10515800010EA26FB4EF28F0D890A037A137A22B88
:10516800A1AFB9EF28F0BBEF28F0B0EF28F0A051BD
:105178009E5DA1519F59D8A0C4EF28F0C6EF28F032
:10518800CAEF28F0A0519E5FA1519F5BD890A13330
:10519800A033A22FBBEF28F09EC09EF09FC09FF0C7
:1051A8001200000E0101DA6F4B0EDB6F000EDC6F90
:1051B800000EDD6F000EDE6F000EDF6F080EE06F71
:1051C800000E0001996F1A0E096E010E4FEC2DF0BA
:1051D8001E0E096E020E4FEC2DF0000E016E400EF1
:1051E800026E050E036E400E046E020E61EC14F0A2
:1051F80001C08AF002C08BF0000E0001886F000E1B
:10520800896F000E986F12009D9ADA0E00019E6F4A
:105218003E0E9F6FDEEC31F0080EB86E900EAB6E4E
:10522800240EAC6E670EAF6E000EB06E6C0E0001F1
:105238009E6F640E9F6FE8EC31F0400E00019E6F88
:10524800640E9F6FE3EC31F0460E00019E6F640E12
:105258009F6FEDEC31F0000E0001956F000E496E66
:10526800000E486E000E476E9D8A12003136392EA8
:1052780033342E3130302E320000000000000000A0
:10528800000000000000000000000000343430304E
:105298003100000034353030310000003332373609
:1052A8003334350033300000000000004D794150A0
:1052B800000000000000000000000000506173734F
:0F52C80077640000000000000000000002DABE62
:1052D800A4C0ABF0A5C0ACF0A6C0ADF0A7C0AEF0BE
:1052E800FF0E0001AA25AF6FB06BFF0EB023B0BF51
:1052F80082EF29F080EF29F084EF29F09CEF29F064
:10530800AB0EAF25D96E000EB021DA6EA8C0E1FF52
:10531800A9C0E2FFDFCFE7FFA84BA92BAF07D8A0B2
:10532800B007B0BF9CEF29F09AEF29F084EF29F07D
:105338001200AA0E00019E6F060E9F6F5DEC2FF003
:10534800B3C0D9FFB4C0DAFFDF500001B86FB7EFC0
:1053580029F0B7C09FF0B85125EC30F00001B34BED
:10536800B42BA4EF29F0B507D8A0B607B52906E1F4
:10537800B629D8A4C2EF29F0C4EF29F0ADEF29F07F
:10538800980EAF6F7F0EB06F020EB16F25EC26F04E
:105398003D6E120000019F6F000E0001A16F9E512B
:1053A800D8B4D9EF29F0DBEF29F0FCEF29F0010E92
:1053B800A06FE2EF29F0D8909E37A02B9EAFE7EFC1
:1053C80029F0E9EF29F0DFEF29F0D890A1379E51B5
:1053D8009F5DD8A0F2EF29F0F4EF29F0F7EF29F05C
:1053E8009E519F5FA181D8909E33A02FE9EF29F0AD
:1053F800A15112006AA003EF2AF005EF2AF02CEF62
:105408002AF034C0D9FF35C0DAFF800EDE18D8A4E0
:1054180010EF2AF012EF2AF02BEF2AF06EC0D9FF16
:105428006FC0DAFF840EDE18D8A41DEF2AF01FEF34
:105438002AF02BEF2AF034C0D9FF35C0DAFF0C0E62
:10544800DF6E34C0D9FF35C0DAFF000EDB8E6A90FC
:10545800659A120051EF2AF039EC2CF00001B16F77
:10546800AA0E9E6F060E9F6FB15140EC2BF0AA0E4C
:105478000001A26F060EA36FAFC0A4F0B0C0A5F0E4
:105488004EEC1AF00009D8B44CEF2AF04EEF2AF08F
:1054980051EF2AF0010E5CEF2AF074EC31F00009AC
:1054A800D8A459EF2AF05BEF2AF030EF2AF0000E6B
:1054B8001200A4C0A8F0A5C0A9F0A2C0AAF0A3C079
:1054C800ABF00001A851A66FA951A76FA84BA92B53
:1054D800A6C0F6FFA7C0F7FFF86AAAC0D9FFABC0FD
:1054E800DAFFAA4BAB2B070EF76403D00800F55080
:1054F80005D0F6CFE9FFF7CFEAFFEF50DF6EDF50B8
:10550800D8A489EF2AF08BEF2AF065EF2AF0120071
:1055180000019E6F080E00019E6195EF2AF097EF3B
:105528002AF09AEF2AF0060EB9EF2AF0070E9E65C8
:10553800A0EF2AF0A2EF2AF0ADEF2AF00D0E9E613F
:10554800A8EF2AF0AAEF2AF0ADEF2AF0000EB9EF83
:105558002AF00D0E9E65B3EF2AF0B5EF2AF0B8EFEA
:105568002AF0010EB9EF2AF0070E1200AA0E000168
:105578009E6F060E9F6F5DEC2FF0BC0E0001A16FB1
:105588007E0EA26F020EA36F28EC2DF0B3C0A5F01B
:10559800B4C0A6F0020E0001A76F13EC24F0AC0E05
:1055A8000001A16F7D0EA26F020EA36F28EC2DF0F3
:1055B800FC0E0001AF6F7F0EB06F020EB16F25ECCD
:1055C80026F03D6E12000001B36FAF0E0001A16F0F
:1055D8007E0EA26F020EA36F28EC2DF0020E0001C2
:1055E800A66FB3515AEC24F0AC0E0001A16F7D0EEA
:1055F800A26F020EA36F28EC2DF0AA0E00019E6F79
:10560800060E9F6F5DEC2FF0FC0E0001AF6F7F0E52
:10561800B06F020EB16F25EC26F03D6E3D501200C2
:105628000001A36F9EC0D9FF9FC0DAFFDF500001C1
:10563800A06FA0519E25A16F000E9F21A26F030E9F
:10564800A125D96E000EA221DA6EA3C0DFFF9EC08D
:10565800D9FF9FC0DAFFDF50A06FA0293F0B9EC083
:10566800D9FF9FC0DAFFDF6E20EE02F09E51D926E7
:105678009F51DA22DF2A12000001A36F9EC0D9FFD2
:105688009FC0DAFFDF500001A06FA0519E25A16FD7
:10569800000E9F21A26F030EA125D96E000EA22134
:1056A800DA6EA3C0DFFF9EC0D9FF9FC0DAFFDF50CC
:1056B800A06FA0299EC0D9FF9FC0DAFFDF6E20EE41
:1056C80002F09E51D9269F51DA22DF2A1200A0C08B
:1056D8009EF0A1C09FF045EC2FF0000E0001A56FD1
:1056E800000EA46FA451A025A26FA551A121A36FFC
:1056F800030EA225D96E000EA321DA6E000EDF6E0E
:10570800A44BA52BA5BF92EF2BF0A55109E1400EA4
:10571800A45DD8A092EF2BF094EF2BF076EF2BF04E
:1057280012001F7ECB7DAC7D0D7E257F377FAF7D40
:105738002E7FE97E707F027C377B517F707FC97C2A
:105748007B7B517F707F6D7CA17A517F707FF67C67
:10575800517A517F707F9B7CEF7A517F707F3B7CC1
:10576800737D237D317E337C517FC87EBF7BFD7E78
:10577800077FF37EA0C0A7F0A1C0A8F09EC0A5F047
:105788009FC0A6F0D8EF2BF0A7C0D9FFA8C0DAFFBA
:10579800DF50A46FA74BA82BA5C0D9FFA6C0DAFF7E
:1057A800A4C0DFFFA54BA62B0001A207D8A0A30722
:1057B800A22906E1A329D8A4E4EF2BF0E6EF2BF009
:1057C800C8EF2BF012000001A46FCDEC31F09EC0A1
:1057D800A5F09FC0A6F00001A405A76FA751030D6F
:1057E800A5C0A0F0A6C0A1F0F350A027F450A123B3
:1057F800010EA025D96E000EA121DA6EDECFA2F02F
:10580800DDCFA3F0D890A333A233D890A333A2332B
:10581800A251A86FA85112009EC0A0F09FC0A1F08D
:1058280019EF2CF000019E4B9F2B9EC0F6FF9FC0E6
:10583800F7FFF86A070EF76403D00800F55005D0A3
:10584800F6CFE9FFF7CFEAFFEF500009D8A42FEF12
:105858002CF031EF2CF016EF2CF00001A0519E5DDA
:105868009E6FA1519F599F6F12004750D8B43FEFC8
:105878002CF041EF2CF039EF2CF0000E4824D96EB3
:10588800DA6A020EDA22DF500001956F400E4824D2
:10589800D96EDA6A040EDA22DF509E6F482A590E52
:1058A800486459EF2CF05BEF2CF05DEF2CF0000E04
:1058B800486E9D9A47069D8A9E51120020EE01F07F
:1058C8002E50D9262F50DA22DF50D8A46EEF2CF0B4
:1058D80070EF2CF072EF2CF089EF2CF0000EBFEC7B
:1058E80031F020EE01F02E50D9262F50DA22000E8A
:1058F800DF6E000E00018E6F000E0101336F780E0F
:10590800326F000E396E1EEC1CF012000001A16F00
:10591800000E0001A26FA4EF2CF09EC0D9FF9FC01B
:10592800DAFFA151DE18D8A49CEF2CF09EEF2CF0E2
:10593800A1EF2CF0A251B1EF2CF09E4B9F2BA22B84
:105948009EC0D9FF9FC0DAFFDF50D8A4AEEF2CF07D
:10595800B0EF2CF091EF2CF0000E120003C009F00C
:1059680004C00AF001C007F002C008F0CCEF2CF028
:1059780009C0D9FF0AC0DAFFDF500B6E094A0A2AAC
:1059880007C0D9FF08C0DAFF0BC0DFFF074A082AA3
:105998000506D8A00606052806E10628D8A4D7EFEC
:1059A8002CF0D9EF2CF0BCEF2CF01200A0C09EF028
:1059B800A1C09FF05DEC2FF0000E0001A56F000E56
:1059C800A46FA451A025A26FA551A121A36F030E16
:1059D800A225D96E000EA321DA6E000EDF6EA44B4D
:1059E800A52BA5BFFEEF2CF0A505D8A0FEEF2CF047
:1059F80000EF2DF0E5EF2CF01200000E0001A56F6E
:105A0800000EA36F030EA46F630EA16F000EA66FA6
:105A18001EEF2DF0A3C0D9FFA4C0DAFFDF50A26F9C
:105A2800A2C09EF0A55199EC2DF00001A52BA34B27
:105A3800A42BA62BA151A65DD8A025EF2DF027EF0A
:105A48002DF00EEF2DF01200A1C0F6FFA2C0F7FF57
:105A5800F86A070EF76403D00800F55005D0F6CFB2
:105A6800E9FFF7CFEAFFEF500001A46F46EF2DF0F2
:105A7800A3C09FF0A45125EC30F00001A14BA22B4C
:105A880028EF2DF0A451D8A44CEF2DF04EEF2DF0B7
:105A98003CEF2DF012000C6E09A455EF2DF057EFD6
:105AA8002DF05CEF2DF0000E016E0C5042EC22F050
:105AB80009A261EF2DF063EF2DF068EF2DF0010ED4
:105AC800016E0C5042EC22F06A0E0C240A6E0B6A2E
:105AD8000F0E0B220AC0D9FF0BC0DAFF09C0DFFF87
