:040000009AEF00F083
:100008005982FACF20F0FBCF21F0E9CF22F0EACFD6
:1000180023F0E1CF24F0E2CF25F0D9CF26F0DACFD4
:1000280027F0F3CF28F0F4CF29F0F6CF2AF0F7CF56
:100038002BF0F8CF2CF0F5CF2DF0F2AC26EF00F036
:1000480028EF00F07CEF00F09DAA2DEF00F02FEFD5
:1000580000F046EF00F09EAA34EF00F036EF00F013
:1000680046EF00F002D844EF00F005000101FA6EF7
:100078004051FD6E4151FE6EF850FF6EFA5012006D
:100088007CEF00F0A0A24BEF00F04DEF00F058EF2E
:1000980000F0A1A252EF00F054EF00F058EF00F08A
:1000A8008BEC2EF07CEF00F0A3A45DEF00F05FEF87
:1000B80000F06AEF00F0A4A464EF00F066EF00F02F
:1000C8006AEF00F0A1EC08F07CEF00F09DAC6FEF58
:1000D80000F071EF00F07CEF00F09EAC76EF00F0DE
:1000E80078EF00F07CEF00F0D2EC31F07CEF00F01C
:1000F8002DC0F5FF2CC0F8FF2BC0F7FF2AC0F6FF74
:1001080029C0F4FF28C0F3FF27C0DAFF26C0D9FFB3
:1001180025C0E2FF24C0E1FF23C0EAFF22C0E9FFB7
:1001280021C0FBFF20C0FAFF599211001EEF16F004
:10013800A2EC31F09EC0BEF09FC0BFF0000E0001DF
:10014800BA6F000EB96F290EB86F000EBB6FC1EF02
:1001580000F0BB51020D9A0EF324D96E040EF42060
:10016800DA6EDECF9EF0DDCF9FF0F9EC2BF00001C8
:100178009E51B9279F51BA23BB2BB851BB5DD8A05C
:10018800C8EF00F0CAEF00F0ADEF00F0FE0EB66F5A
:10019800FF0EB76FBEC09EF0BFC09FF0F9EC2BF00A
:1001A8000001B6519E27B7519F239E51B9279F51F1
:1001B800BA23FE0EB66FFF0EB76F300EBE259E6FC8
:1001C800000EBF219F6FF9EC2BF00001B6519E275E
:1001D800B7519F239E51B9279F51BA23FE0EB66F80
:1001E800FF0EB76F380EBE259E6F000EBF219F6FA2
:1001F800F9EC2BF00001B6519E27B7519F239E5171
:10020800B9279F51BA23FE0EB66FFF0EB76F400E87
:10021800BE259E6F000EBF219F6FF9EC2BF00001E9
:10022800B6519E27B7519F239E51B9279F51BA2394
:10023800FE0EB66FFF0EB76F500EBE259E6F000EF6
:10024800BF219F6FF9EC2BF00001B6519E27B751E3
:100258009F239E51B9279F51BA2320EE60F0BE51CB
:10026800D926BF51DA22DFB03CEF01F03EEF01F0B2
:1002780053EF01F0FE0EB66FFF0EB76FCEC09EF0C3
:10028800CFC09FF0F9EC2BF00001B6519E27B75173
:100298009F239E51B9279F51BA2366EF01F0FE0EA6
:1002A800B66FFF0EB76FD0C09EF0D1C09FF0F9ECCB
:1002B8002BF00001B6519E27B7519F239E51B927B5
:1002C8009F51BA2320EE60F0BE51D926BF51DA22E1
:1002D800DFB271EF01F073EF01F088EF01F0FE0E6D
:1002E800B66FFF0EB76FCEC09EF0CFC09FF0F9EC8F
:1002F8002BF00001B6519E27B7519F239E51B92775
:100308009F51BA239BEF01F0FE0EB66FFF0EB76F39
:10031800D0C09EF0D1C09FF0F9EC2BF00001B6518F
:100328009E27B7519F239E51B9279F51BA23B9C021
:10033800B3F0BAC0B4F0000ED1EC25F00009D8A48F
:10034800A8EF01F0AAEF01F0ACEF01F0F9EF02F02D
:10035800000E0001BB6FE5EF02F0BB51020D9A0ED3
:10036800F324D96E040EF420DA6EDECFBCF0DDCFB4
:10037800BDF0BCC09EF0BDC09FF0F9EC2BF0D5EFEE
:1003880002F0BCC0F6FFBDC0F7FF0800F550400AF8
:10039800D8A4D1EF01F0D3EF01F0C7EF02F00001CC
:1003A800BC4BBD2B8DEF02F0BEC0A1F0BFC0A2F0C8
:1003B800020EA36F11EC2DF0D2EF02F0200EBE2535
:1003C800A16F000EBF21A26F020EA36F11EC2DF0DA
:1003D800D2EF02F0280EBE25A16F000EBF21A26F3A
:1003E800020EA36F11EC2DF0D2EF02F0300EBE25F5
:1003F800A16F000EBF21A26F020EA36F11EC2DF0AA
:10040800D2EF02F0380EBE25A16F000EBF21A26FF9
:10041800020EA36F11EC2DF0D2EF02F0400EBE25B4
:10042800A16F000EBF21A26F020EA36F11EC2DF079
:10043800D2EF02F0500EBE25A16F000EBF21A26FB1
:10044800020EA36F11EC2DF0D2EF02F020EE60F057
:10045800BE51D926BF51DA22DFA035EF02F037EFBF
:1004680002F041EF02F0D0C0A1F0D1C0A2F0020E1C
:10047800A36F11EC2DF0D2EF02F0CEC0A1F0CFC0E7
:10048800A2F0020EA36F11EC2DF0D2EF02F020EED5
:1004980060F0BE51D926BF51DA22DFA256EF02F032
:1004A80058EF02F062EF02F0D0C0A1F0D1C0A2F084
:1004B800020EA36F11EC2DF0D2EF02F0CEC0A1F026
:1004C800CFC0A2F0020EA36F11EC2DF0D2EF02F014
:1004D80020EE60F0BE51D926BF51DA22DFA477EFB3
:1004E80002F079EF02F083EF02F0D0C0A1F0D1C0A2
:1004F800A2F0020EA36F11EC2DF0D2EF02F0CEC0E5
:10050800A1F0CFC0A2F0020EA36F11EC2DF0D2EF34
:1005180002F0BCC0F6FFBDC0F7FF0800F550B66F8B
:10052800B76BB751000AD8B49CEF02F0D2EF02F0D3
:10053800B651410AD8B412EF02F0080AD8B4D8EF7D
:1005480001F0050AD8B4EEEF01F01C0AD8B4E2EFC6
:1005580001F0020AD8B4FAEF01F0040AD8B406EFA1
:1005680002F0010AD8B41EEF02F0340AD8B46CEFD6
:1005780002F0160AD8B44BEF02F0020AD8B42AEFF8
:1005880002F0D2EF02F0020E00019F6FBCC0F6FF2E
:10059800BDC0F7FF0800F550F4EC2FF00001BC4B8C
:1005A800BD2BBCC0F6FFBDC0F7FF0800F550000921
:1005B800D8A4E1EF02F0E3EF02F0C5EF01F000018B
:1005C800BB2BB851BB5DD8A0ECEF02F0EEEF02F008
:1005D800B1EF01F0FC0EAF6F7F0EB06F020EB16F7E
:1005E80010EC26F0000ED0EC2AF012000001A7BF94
:1005F80009EF03F0A75107E1030EA65DD8B007EF96
:1006080003F009EF03F00DEF03F0B1EF04F0B1EFE1
:1006180004F020EE02F0A851D926A951DA22DECF43
:100628009EF0DDCF9FF05EEC2DF00001AF6FAF5173
:1006380075EC2AF00001AE6F000EB16F000EB06FBE
:10064800B0C0AAF0B1C0ABF0D890AA37AB37D890F9
:10065800AA37AB37780EAA25F66E790EAB21F76E5E
:100668000900F5CF9EF00A00F5CF9FF020EE04F0C8
:10067800A851D926A951DA22DECFA0F0DDCFA1F00A
:100688002BEC1BF000019E519F11D8A44EEF03F0F4
:1006980050EF03F0A1EF04F065EF04F0AF51F70F4E
:1006A800B26FAE51D8B45BEF03F05DEF03F05FEFCC
:1006B80003F0B1EF04F020EE06F0A851D926A951B5
:1006C800DA22DECF9EF0DDCF9FF0D60EA06F7F0E30
:1006D800A16F2BEC1BF000019E519F11D8A477EF5E
:1006E80003F079EF03F090EF03F020EE06F0A45149
:1006F800D926A551DA22DECFAAF0DDCFABF0B25170
:10070800AA27000EAB23180EAA25D96E000EAB211E
:10071800DA6EDF96B1EF04F020EE06F0A851D92684
:10072800A951DA22DECF9EF0DDCF9FF0F00EA06F48
:100738007F0EA16F2BEC1BF000019E519F11D8A4D6
:10074800A8EF03F0AAEF03F0B1EF04F020EE06F0F3
:10075800A451D926A551DA22DECFAAF0DDCFABF01D
:10076800B251AA27000EAB23180EAA25D96E000E87
:10077800AB21DA6EDF86B1EF04F0AF51F20FB26F42
:10078800AE05D8A4CAEF03F0CCEF03F0B1EF04F044
:1007980020EE06F0A451D926A551DA22DECFAAF020
:1007A800DDCFABF0B251AA27000EAB231D0EAA2550
:1007B800D96E000EAB21DA6EDFA0E5EF03F0E7EFAC
:1007C80003F0B1EF04F020EE06F0A451D926A551AC
:1007D800DA22DECFAAF0DDCFABF0B251AA27000EA5
:1007E800AB231D0EAA25D96E000EAB21DA6EDF9061
:1007F80020EE06F0A451D926A551DA22DECFAAF0C0
:10080800DDCFABF0B251AA27000EAB231D0EAA25EF
:10081800D96E000EAB21DA6EDF82B1EF04F0AF5172
:10082800F20FB26FAE05D8A41CEF04F01EEF04F06F
:10083800B1EF04F020EE06F0A451D926A551DA2232
:10084800DECFAAF0DDCFABF0B251AA27000EAB2362
:100858001D0EAA25D96E000EAB21DA6EDFB037EF78
:1008680004F039EF04F0B1EF04F020EE06F0A451E3
:10087800D926A551DA22DECFAAF0DDCFABF0B251EE
:10088800AA27000EAB231D0EAA25D96E000EAB2198
:10089800DA6EDF8020EE06F0A451D926A551DA22BF
:1008A800DECFAAF0DDCFABF0B251AA27000EAB2302
:1008B8001D0EAA25D96E000EAB21DA6EDF82B1EFCC
:1008C80004F0B0C0AAF0B1C0ABF0D890AA37AB37EB
:1008D800D890AA37AB37020EAA27000EAB23780EA2
:1008E800AA25F66E790EAB21F76E0900F5CFACF0AC
:1008F8000900F5CFADF0AD51000AD8B486EF04F089
:10090800B1EF04F0AC51000AD8B40BEF03F0010AC0
:10091800D8B4B1EF04F0030AD8B452EF03F0010AD7
:10092800D8B4B1EF04F0070AD8B4C1EF03F0010A54
:10093800D8B413EF04F0B1EF04F0B04BB12BB1BF52
:10094800AFEF04F0B15109E1080EB05DD8A0AFEFE8
:1009580004F0B1EF04F024EF03F0120004013205B3
:10096800D8A4B9EF04F0BBEF04F0D7EF04F030518E
:100978001F0B0009D8A4C3EF04F0C5EF04F0D7EFAC
:1009880004F000016B8F030E04013119D8A4CFEFD6
:1009980004F0D1EF04F0D5EF04F0010E516ED7EF5B
:1009A80004F0000E516E3251D8A4DDEF04F0DFEFF1
:1009B80004F05FEF06F030511F0B020AD8A4E7EFEE
:1009C80004F0E9EF04F05FEF06F034510F0B000973
:1009D800D8B4F1EF04F0F3EF04F05FEF06F0345110
:1009E8000F0B156E030E1560FCEF04F0FEEF04F01C
:1009F8005FEF06F0200E5418D8A405EF05F007EFB6
:100A080005F05FEF06F000016B8F040134BF0FEFB4
:100A180005F011EF05F02EEF05F034510F0B156EB0
:100A28001550020D740EF324D96E000EF420DA6E00
:100A3800DECF1AF0DDCF1BF034510F0B156E166A9E
:100A48007E0E1524D96E000E1620DA6EDF50196E50
:100A580049EF05F034510F0B156E1550020D6E0E4F
:100A6800F324D96E000EF420DA6EDECF1AF0DDCF53
:100A78001BF034510F0B156E166A810E1524D96EB2
:100A8800000E1620DA6EDF50196E19B04EEF05F021
:100A980050EF05F058EF05F0FB0E1A141A6EFF0E12
:100AA8001B141B6E5DEF05F0040E1A101A6E1B5016
:100AB8001B6E34BF62EF05F064EF05F075EF05F0CB
:100AC80034510F0B156E1550020D740EF324D96EA8
:100AD800000EF420DA6E1AC0DEFF1BC0DDFF84EFC3
:100AE80005F034510F0B156E1550020D6E0EF324E0
:100AF800D96E000EF420DA6E1AC0DEFF1BC0DDFFCF
:100B0800030E3119D8A48BEF05F08DEF05F0C7EF70
:100B180005F01AC0D9FF1BC0DAFFDFAE96EF05F06B
:100B280098EF05F0B9EF05F034BF9DEF05F09FEFA2
:100B380005F0ADEF05F034510F0B156E166A7E0EF9
:100B48001524D96E000E1620DA6E0001DF82B9EF87
:100B580005F034510F0B156E166A810E1524D96EE7
:100B6800000E1620DA6E0001DF821AC0D9FF1BC002
:100B7800DAFF000EDB841AC0D9FF1BC0DAFF000EB3
:100B8800DB8E5FEF06F0040E1A181A6E1B501B6EF0
:100B98001AC0D9FF1BC0DAFFDFAED5EF05F0D7EFDB
:100BA80005F0F3EF05F01AC0D9FF1BC0DAFF7F0E7E
:100BB800DF161AC0D9FF1BC0DAFF000EDB8C000E4F
:100BC8000E6E050E0D6E1AC00FF01BC010F0000E51
:100BD800126E020E116E89EC24F0F9EF05F01AC0BE
:100BE800D9FF1BC0DAFF000EDB8C040E1A181A6E30
:100BF8001B501B6E19B203EF06F005EF06F010EF5D
:100C080006F01AC0D9FF1BC0DAFFDFAE0EEF06F000
:100C180010EF06F048EF06F0040134BF16EF06F0B7
:100C280018EF06F026EF06F034510F0B156E166A12
:100C38007E0E1524D96E000E1620DA6E0001DF92A2
:100C480032EF06F034510F0B156E166A810E15241B
:100C5800D96E000E1620DA6E0001DF921AC0D9FF95
:100C68001BC0DAFF3B0EDF16000E0E6E050E0D6E72
:100C78001AC00FF01BC010F0000E126E020E116E9B
:100C880089EC24F04EEF06F01AC0D9FF1BC0DAFF3A
:100C98003B0EDF16040134510F0B156E166A6A0EEF
:100CA8001524176E0F0E1620186E17C0D9FF18C01E
:100CB800DAFFFE0EDF161200A2EC31F09EC0BFF084
:100CC8009FC0C0F0420E0001A26F010EA36FAE0ECE
:100CD800A46F7F0EA56F46EC2AF01AC19EF01BC1C7
:100CE8009FF01CC1A0F01DC1A1F0FBEC2EF09EC02E
:100CF80046F19FC047F1A0C048F1A1C049F1010EDB
:100D080001011A27000E1B231C231D23000E4E6F02
:100D1800000E4F6F000E506F000E516F040E566F8D
:100D2800000E576F000E586F000E596F0C0E626F51
:100D3800200E636F640E0001C76F010EC86F1EC1DD
:100D4800A4F01FC1A5F020C1A6F021C1A7F0C7C01B
:100D5800A8F0C8C0A9F0040EAA6F55EC29F0000E3F
:100D68000101686F080E696F6A0E0001C76F010EF6
:100D7800C86F000EC26F000EC16FC1C09EF0C2C026
:100D88009FF0000EA16F030EA06F48EC30F0B9C0C1
:100D9800BBF0BAC0BCF000019E51BB279F51BC23D9
:100DA800010EBB25D96E000EBC21DA6EDECFBDF078
:100DB800DDCFBEF0BDC0A4F0BEC0A5F0A66BA76B8A
:100DC800C7C0A8F0C8C0A9F0020EAA6F55EC29F058
:100DD800020E0001C727000EC823C14BC22BC2BF99
:100DE800FFEF06F0C25109E1080EC15DD8A0FFEF80
:100DF80006F001EF07F0C1EF06F0010E01017A6F6E
:100E0800050E7B6F7C0E0001C76F010EC86F000EC8
:100E1800C46F000EC36FC351B925BB6FC451BA214B
:100E2800BC6F180EBB25D96E000EBC21DA6EDF50E0
:100E3800010BC7C0D9FFC8C0DAFFDF6EC74BC82B8C
:100E4800C34BC42BC4BF32EF07F0C45109E1050EF0
:100E5800C35DD8A032EF07F034EF07F00FEF07F0CB
:100E6800020E0101816F050E826F830E0001C76FAC
:100E7800010EC86F000EC66F000EC56FC551B925AB
:100E8800BB6FC651BA21BC6F1D0EBB25D96E000EB3
:100E9800BC21DA6EDF50010BC7C0D9FFC8C0DAFF2A
:100EA800DF6EC74BC82BC54BC62BC6BF65EF07F017
:100EB800C65109E1050EC55DD8A065EF07F067EFDB
:100EC80007F042EF07F0000EB46F460EB36FBFC0D5
:100ED800B5F0C0C0B6F0200EBF25B76F000EC02118
:100EE800B86FA3EC2AF0420E0001B36F010EB46F85
:100EF800000EB66F460EB56F020EB76F86EC29F07E
:100F0800010E0001916F1200CAEC2FF05A0E000179
:100F1800A06F020EA16F54EC2BF0AA0E0001A06F77
:100F2800060EA16FC3EC2CF0F1EC31F083EC22F04B
:100F38000001CA6F9CEC31F09EC0A0F09FC0A1F0E8
:100F480002EC27F062EC31F0F1EC28F0B5EC2FF070
:100F5800F28EF28C91EC25F0FFEC30F00009D8A469
:100F6800B8EF07F0BAEF07F0D7EF07F00001CA5162
:100F7800D8B4C1EF07F0C3EF07F0D7EF07F017ECCD
:100F880031F00009D8A4CBEF07F0CDEF07F0D9EF87
:100F980007F022EC31F00009D8A4D5EF07F0D7EF1D
:100FA80007F0D9EF07F04BEC2EF017EC31F0000901
:100FB800D8A4E1EF07F0E3EF07F0E5EF07F0AAECBC
:100FC8002EF017EC31F00009D8B4EDEF07F0EFEF91
:100FD80007F034EF08F0000E0001CD6F0A0EC96F5C
:100FE80007EF08F08CEC26F00001CD6FCD51D8B496
:100FF80000EF08F002EF08F004EF08F011EF08F036
:101008000A0E44EC2FF00001C907C929D8A40FEF34
:1010180008F011EF08F0F6EF07F0CD51D8A417EF5C
:1010280008F019EF08F025EF08F02DEC31F0000971
:10103800D8B421EF08F023EF08F025EF08F04BECC7
:101048002EF00001CD51D8A42CEF08F02FEF08F0B6
:10105800010E30EF08F0000E95EC31F0C7EC2EF0E1
:10106800C1EC31F00FEC1CF09CEC31F09EC0CBF0E1
:101078009FC0CCF0CBC0A3F0CCC0A4F0C4EC1DF052
:1010880095EC1EF017EC31F00009D8B44EEF08F0DB
:1010980050EF08F070EF08F0ABEC30F00009D8B46E
:1010A80058EF08F05AEF08F060EF08F0CBC0B9F03D
:1010B800CCC0BAF060EC06F098EC30F00009D8B477
:1010C80068EF08F06AEF08F070EF08F0CBC0A5F001
:1010D800CCC0A6F0A9EC16F022EC31F00009D8B487
:1010E80078EF08F07AEF08F098EF08F023EC23F097
:1010F800F1EC14F07EEC31F00009D8B486EF08F07A
:1011080088EF08F08AEF08F00FEC25F0BAEC30F021
:101118000009D8B492EF08F094EF08F096EF08F0C1
:10112800B5EC09F0AEEC0AF021EC28F00A0E44EC1C
:101138002FF038EF08F09AEF00F05404D8A4A7EF86
:1011480008F0A9EF08F0B6EF08F060BAAEEF08F0C3
:10115800B0EF08F0B6EF08F0000E656E64806488A2
:10116800020E546E65A4BBEF08F0BDEF08F0C7EFA0
:1011780008F064A4C2EF08F0C4EF08F0C7EF08F065
:1011880065942AEC2EF060A2CCEF08F0CEEF08F0C0
:10119800D1EF08F0A494B4EF09F065A0D6EF08F0F9
:1011A800D8EF08F0E5EF08F064A0DDEF08F0DFEF16
:1011B80008F0E5EF08F0C8EC11F0A384040E546EB3
:1011C800659065A8EAEF08F0ECEF08F0F5EF08F095
:1011D80064A8F1EF08F0F3EF08F0F5EF08F05CEC25
:1011E8002FF065ACFAEF08F0FCEF08F027EF09F0F4
:1011F80064AC01EF09F003EF09F011EF09F0000EFC
:101208000E6E730E0D6E000E0F6E000E106E000E39
:10121800126E010E116E89EC24F0659CE1EC2EF043
:101228004E50D8B41AEF09F01CEF09F01DEF09F081
:101238004E064E50D8A423EF09F025EF09F027EF0A
:1012480009F0C6EC19F065AA2CEF09F02EEF09F0A9
:1012580037EF09F064AA33EF09F035EF09F037EFFB
:1012680009F0E7EC29F065A23CEF09F03EEF09F040
:1012780054EF09F064A243EF09F045EF09F054EF89
:1012880009F07F0E0E6E0D68000E0F6E000E106EC8
:10129800000E126E010E116E89EC24F0000E676EBE
:1012A800040E54605AEF09F05CEF09F05FEF09F0A3
:1012B800A494B4EF09F064A664EF09F066EF09F0AE
:1012C800B3EF09F0000E1F6E65A66DEF09F06FEF22
:1012D80009F0B3EF09F061CF57F05730E832E83240
:1012E8000F0B506E659657B47CEF09F07EEF09F04E
:1012F80088EF09F07E0E5024D96EDA6A000EDA22E1
:101308000001DF7090EF09F0810E5024D96EDA6A7F
:10131800000EDA220001DF705050D8A496EF09F0D1
:1013280098EF09F09CEF09F01DEC20F0AAEF09F006
:10133800000E0E6E720E0D6E570E0F6E000E106EB2
:10134800000E126E000E116E89EC24F01F2A030E97
:101358001F64B1EF09F0B3EF09F068EF09F0A49446
:1013680012004FEC26F09EC0B7F09FC0B8F0B7C08F
:10137800B2F08FEF0AF0B851020DED0EF324D96EDA
:10138800010EF420DA6EDECFB3F0DDCFB4F0B85141
:10139800020DED0EF324D96E010EF420DA6EDECFC5
:1013A8009EF0DDCF9FF0F9EC2BF000019E51B56F58
:1013B800B3C02DF1B4C02EF1B5C099F0010E986FED
:1013C800010E9A6FADEF0AF0B8C0B6F0AA0EA26F80
:1013D800010EA36FA90EA46F7F0EA56F46EC2AF02D
:1013E800AE0E0001A96F010EAA6FB651090FAB6FBF
:1013F80031EC22F020EE06F02E50D9262F50DA22BA
:10140800DECFB0F0DDCFB1F00001B651B027000E4D
:10141800B123180EB025D96E000EB121DA6EDFA007
:1014280018EF0AF01AEF0AF026EF0AF0AA0EAC6FCE
:10143800010EAD6FC60EAE6F7F0EAF6F5CEC30F075
:1014480030EF0AF0AA0EAC6F010EAD6FC20EAE6F90
:101458007F0EAF6F5CEC30F0AA0E0001B36F010E87
:10146800B46FAA0E9E6F010E9F6FF9EC2BF000016E
:101478009E51B56FB3C02DF1B4C02EF1E0EF09F065
:10148800B8C0B6F0AA0EA26F010EA36FA40EA46F87
:101498007F0EA56F46EC2AF0AE0E0001A96F010E73
:1014A800AA6FB6C0ABF031EC22F0AA0E0001AC6F07
:1014B800010EAD6FA70EAE6F7F0EAF6F5CEC30F014
:1014C800B00E0001A96F010EAA6FB651D0EC2BF037
:1014D8000001AB6F31EC22F0AA0E0001AC6F010ED7
:1014E800AD6FAD0EAE6F7D0EAF6F5CEC30F0AA0E37
:1014F8000001B36F010EB46FAA0E9E6F010E9F6FAD
:10150800F9EC2BF000019E51B56FB3C02DF1B4C0BA
:101518002EF1E0EF09F00001B251B06FB16BB1519B
:10152800000AD8B49AEF0AF0ADEF0AF0B051000AF9
:10153800D8B4ADEF0AF0010AD8B4BFEF09F0030A36
:10154800D8B4E8EF09F0010AD8B444EF0AF0ADEFD7
:101558000AF01200A39400018A518B11D8B4B7EF96
:101568000AF0B9EF0AF0C7EF0AF08AC0D9FF8BC0BA
:10157800DAFFDFAEC2EF0AF0C4EF0AF0C7EF0AF0F5
:10158800A38496EF0BF0030E9A19D8A4CEEF0AF0B5
:10159800D0EF0AF0D2EF0AF0000E9A6F9A51D8A451
:1015A800D8EF0AF0DAEF0AF0DDEF0AF0A38496EF3D
:1015B8000BF0020E9A19D8A4E4EF0AF0E6EF0AF04D
:1015C800FAEF0AF0010E9E6F000E9F6F000EA06FDB
:1015D800000EA16F020E10EC13F09EC08AF09FC09F
:1015E8008BF0030E00019A6F95EF0BF09A05D8A4C3
:1015F80000EF0BF002EF0BF095EF0BF0400E996542
:1016080008EF0BF00AEF0BF00EEF0BF0400EAA6F8D
:1016180010EF0BF099C0AAF0AA51995D996F000ECE
:1016280001012A6F050E2B6FAAC0A9F0000198517D
:10163800D8A421EF0BF023EF0BF067EF0BF041EF8D
:101648000BF02DC1F6FF2EC1F7FFF86A2AC1D9FFAA
:101658002BC1DAFF070EF76403D00800F55005D058
:10166800F6CFE9FFF7CFEAFFEF50DF6E01012A4B13
:101678002B2B2D4B2E2B0001A907A951D8A447EFDE
:101688000BF049EF0BF025EF0BF06FEF0BF02DC1CE
:10169800F6FF2EC1F7FFF86A2AC1D9FF2BC1DAFF7E
:1016A800070EF76403D00800F55005D0F6CFE9FF20
:1016B800F7CFEAFFEF50DF6E01012A4B2B2B2D4BA2
:1016C8002E2B0001A907A951D8A46DEF0BF06FEFDD
:1016D8000BF04BEF0BF09951D8A475EF0BF077EFA7
:1016E8000BF086EF0BF0400EAA19D8A47EEF0BF092
:1016F80080EF0BF084EF0BF0020E9A6F86EF0BF081
:10170800030E9A6F010E9E6F000E9F6F050EA06F5D
:10171800AAC0A1F0020E10EC13F09EC08AF09FC080
:101728008BF0A3841200000120EE02F0B351D926F9
:10173800B451DA22DECF9EF0DDCF9FF0BA0EA06F53
:10174800010EA16F000EA36F070EA26F200EA46FEB
:10175800000EA56F78EC0CF00001BA6F000EBC6F9C
:10176800000EBB6FBBC0B5F0BCC0B6F0D890B537A3
:10177800B637D890B537B637980EB525F66E790EC8
:10178800B621F76E0900F5CF9EF00A00F5CF9FF05D
:10179800BAC1A0F0BBC1A1F02BEC1BF000019E5117
:1017A8009F11D8A4DAEF0BF0DCEF0BF067EF0CF029
:1017B8002FEF0CF04BEC2CF077EF0CF04BEC2CF0FF
:1017C800010E0001BE6F010EBD6FBDC0A5F0BEC009
:1017D800A6F0020EA76FD3EC22F077EF0CF0000E04
:1017E800BE6F010EBD6FBDC0A5F0BEC0A6F0010E54
:1017F800A76FD3EC22F077EF0CF0B3C0A4F0B4C01D
:10180800A5F0BAC0A6F0A76BBA0EA86F010EA96F13
:10181800FAEC02F077EF0CF0B3C0A2F0B4C0A3F07A
:10182800BAC0A4F0A56BBA0EA66F010EA76FA5ECFF
:101838002DF00001B96FB951D8A425EF0CF027EFAE
:101848000CF029EF0CF077EF0CF0B9C0BEF0030EE6
:10185800BD6FF7EF0BF0BBC0B5F0BCC0B6F0D890C9
:10186800B537B637D890B537B637020EB527000E5C
:10187800B623980EB525F66E790EB621F76E0900D7
:10188800F5CFB7F00900F5CFB8F0B851000AD8B4D1
:1018980050EF0CF077EF0CF0B751000AD8B4DEEF38
:1018A8000BF0010AD8B4E2EF0BF0030AD8B4F3EF57
:1018B8000BF0010AD8B401EF0CF0070AD8B410EF06
:1018C8000CF077EF0CF0BB4BBC2BBCBF75EF0CF0EA
:1018D800BC5109E1050EBB5DD8A075EF0CF077EFA0
:1018E8000CF0B6EF0BF01200000E0001AD6F000E09
:1018F800AE6FA0C0D9FFA1C0DAFF9EC0DEFF9FC0B7
:10190800DDFFAE2B9EC0D9FF9FC0DAFFDF50D8A401
:1019180090EF0CF092EF0CF09DEF0CF0A0C0D9FF07
:10192800A1C0DAFF000EDE6E000EDD6E000E4CEF79
:101938000DF0000EAC6F1DEF0DF0A551D8B4A7EF58
:101948000CF0A9EF0CF0E8EF0CF09EC0D9FF9FC097
:10195800DAFFA551DE18D8A4B4EF0CF0B6EF0CF0FE
:10196800E8EF0CF0AD51D8B4BCEF0CF0BEEF0CF0C2
:10197800C8EF0CF09EC0D9FF9FC0DAFF000EDF6EE3
:10198800000EAD6FE8EF0CF0010E9E25A66F000E5D
:101998009F21A76FAE51A86FA96BD890A837A93718
:1019A800A0C0AAF0A1C0ABF0A851AA27A951AB23A7
:1019B800FE0EAA25D96EFF0EAB21DA6EA6C0DEFF99
:1019C800A7C0DDFF010EAD6F9EC0D9FF9FC0DAFF33
:1019D800A451DE18D8A4F3EF0CF0F5EF0CF01BEFD0
:1019E8000DF0AD51D8A4FBEF0CF0FDEF0CF01BEFA0
:1019F8000DF09EC0D9FF9FC0DAFF000EDF6EAC2B42
:101A0800010E9E25A66F000E9F21A76FAE51020DF5
:101A1800F3CFA8F0F4CFA9F0A851A025D96EA95109
:101A2800A121DA6EA6C0DEFFA7C0DDFFAE2B9E4B5C
:101A38009F2B9EC0D9FF9FC0DAFFDF50D8B427EF95
:101A48000DF029EF0DF03BEF0DF0AC51A66FA76B31
:101A5800A251A65DA751800AA86FA351800AA85970
:101A6800D8A039EF0DF03BEF0DF0A1EF0CF0AE511F
:101A7800020DF3CFA6F0F4CFA7F0A651A025D96E9A
:101A8800A751A121DA6E000EDE6E000EDD6EAE519A
:101A98001200000E0601A46F000E0001946F000EE4
:101AA800936F000E926F630E0601A56F060EA66F68
:101AB800D9EF0DF086EC31F00601A96FBBEF0DF000
:101AC800630E0601A56F060EA66F010EA46FD9EF6F
:101AD8000DF0010E0601A46FA5C6D9FFA6C6DAFF50
:101AE800000EDF6E630E00019E6F060E9F6F3D0EA7
:101AF80073EC2CF00601A36FA351D8B486EF0DF058
:101B080088EF0DF057EF0DF0630EA325D96EDA6A52
:101B1800060EDA22000EDF6E630E0001AC6F060EB1
:101B2800AD6F0601A3510001B56FB66B010EB52765
:101B3800000EB623630EB525AE6F060EB621AF6F45
:101B48001FEC0EF057EF0DF0200E0601A965AFEF60
:101B58000DF0B1EF0DF0D9EF0DF0A5C6D9FFA6C66F
:101B6800DAFFA9C6DFFFA54BA62BD9EF0DF0A951C7
:101B78000001B56FB66BB651000AD8B4C6EF0DF0C8
:101B8800A8EF0DF0B551000AD8B46DEF0DF0200A9A
:101B9800D8B46DEF0DF0060AD8B46DEF0DF0190A40
:101BA800D8B464EF0DF0A8EF0DF0C6EC31F00009E1
:101BB800D8A4E1EF0DF0E3EF0DF05EEF0DF00601B4
:101BC800A451D8B4EAEF0DF0ECEF0DF01DEF0EF0D4
:101BD800A2EC31F09EC0A7F69FC0A8F6060120EE41
:101BE80060F0A751D926A851DA22000194B103D098
:101BF8000601DF9002D00601DF8020EE60F0A751D9
:101C0800D926A851DA22000193B103D00601DF9248
:101C180002D00601DF8220EE60F0A751D926A85134
:101C2800DA22000194B103D00601DF9402D0060144
:101C3800DF84A4511200A2EC31F09EC0B3F09FC023
:101C4800B4F0000E0001B26FACC09EF0ADC09FF0C2
:101C5800B251020DCA0EF324D96E020EF420DA6EC8
:101C6800DECFA0F0DDCFA1F02BEC1BF000019E51E0
:101C78009F11D8A442EF0EF044EF0EF0E7EF0EF0FC
:101C8800B2EF0EF0B3C0A2F0B4C0A3F0AEC0A4F09F
:101C9800AFC0A5F046EC2AF0F0EF0EF0200EB32509
:101CA800A26F000EB421A36FAEC0A4F0AFC0A5F020
:101CB80046EC2AF0F0EF0EF0280EB325A26F000EC6
:101CC800B421A36FAEC0A4F0AFC0A5F046EC2AF0D3
:101CD800F0EF0EF0300EB325A26F000EB421A36F03
:101CE800AEC0A4F0AFC0A5F046EC2AF0F0EF0EF0BD
:101CF800380EB325A26F000EB421A36FAEC0A4F0B6
:101D0800AFC0A5F046EC2AF0F0EF0EF0400EB32578
:101D1800A26F000EB421A36FAEC0A4F0AFC0A5F0AF
:101D280046EC2AF0F0EF0EF0500EB325A26F000E2D
:101D3800B421A36FAEC0A4F0AFC0A5F046EC2AF062
:101D4800F0EF0EF0010E946FF0EF0EF0010E936FAE
:101D5800F0EF0EF0010E926FF0EF0EF0B251B06F8F
:101D6800B16BB151000AD8B4BCEF0EF0E7EF0EF03A
:101D7800B051000AD8B446EF0EF0010AD8B452EFB9
:101D88000EF0030AD8B460EF0EF0010AD8B46EEF73
:101D98000EF0070AD8B47CEF0EF0010AD8B48AEF27
:101DA8000EF0030AD8B498EF0EF0010AD8B4A6EFE3
:101DB8000EF00F0AD8B4AAEF0EF0010AD8B4AEEFAD
:101DC8000EF0E7EF0EF0B22B090EB265EEEF0EF053
:101DD800F0EF0EF028EF0EF012009EC0A8F09FC0A2
:101DE800A9F00001A251A311D8A4FDEF0EF0FFEF56
:101DF8000EF001EF0FF0ACEF0FF0A8C0D9FFA9C0AB
:101E0800DAFFA0C0DFFFA251A825A46FA351A92122
:101E1800A56FFF0EA425D96EFF0EA521DA6EA0C00E
:101E2800DFFFA35107E1030EA25DD8B01EEF0FF04C
:101E380020EF0FF022EF0FF0ACEF0FF020EE01F0E3
:101E4800A851D926A951DA22A0C0DFFF20EE02F05E
:101E5800A851D926A951DA22A0C0DFFFA251A8258E
:101E6800A46FA351A921A56FFE0EA425D96EFF0E5C
:101E7800A521DA6EA0C0DFFFA251A825A46FA35147
:101E8800A921A56FFD0EA425D96EFF0EA521DA6E36
:101E9800A0C0DFFFA35107E1070EA25DD8B057EF3E
:101EA8000FF059EF0FF05BEF0FF0ACEF0FF020EEF3
:101EB80003F0A851D926A951DA22A0C0DFFFA25108
:101EC800A825A46FA351A921A56FFC0EA425D96E3E
:101ED800FF0EA521DA6EA0C0DFFFA35107E1090EAE
:101EE800A25DD8B07AEF0FF07CEF0FF07EEF0FF025
:101EF800ACEF0FF0A8C0A4F0A9C0A5F0A41FA51FBF
:101F0800A44BA52B030EA415A66FA76BA651A82753
:101F1800A751A923A651A25FA751A35BFC0EA21744
:101F2800FF0EA317A3EF0FF0A8C0D9FFA9C0DAFFCF
:101F3800A0C0DFFFA207D8A0A307A84BA92BA251D6
:101F4800A311D8A4AAEF0FF0ACEF0FF098EF0FF0A1
:101F5800120001C00BF002C00CF005500610D8A406
:101F6800B8EF0FF0BAEF0FF0BCEF0FF067EF10F01B
:101F78000BC0D9FF0CC0DAFF03C0DFFF05500B24EC
:101F8800076E06500C20086EFF0E0724D96EFF0E50
:101F98000820DA6E03C0DFFF065007E1030E055C78
:101FA800D8B0D9EF0FF0DBEF0FF0DDEF0FF067EFF0
:101FB80010F020EE01F00B50D9260C50DA2203C0A5
:101FC800DFFF20EE02F00B50D9260C50DA2203C0B6
:101FD800DFFF05500B24076E06500C20086EFE0E1E
:101FE8000724D96EFF0E0820DA6E03C0DFFF055004
:101FF8000B24076E06500C20086EFD0E0724D96EC0
:10200800FF0E0820DA6E03C0DFFF065007E1070E57
:10201800055CD8B012EF10F014EF10F016EF10F0C6
:1020280067EF10F020EE03F00B50D9260C50DA229F
:1020380003C0DFFF05500B24076E06500C20086E06
:10204800FC0E0724D96EFF0E0820DA6E03C0DFFFEE
:10205800065007E1090E055CD8B035EF10F037EFF0
:1020680010F039EF10F067EF10F00BC007F00CC05C
:1020780008F0071E081E074A082A030E0714096EEF
:102088000A6A09500B260A500C220950055E0A50AC
:10209800065AFC0E0516FF0E06165EEF10F00BC072
:1020A800D9FF0CC0DAFF03C0DFFF0506D8A006067B
:1020B8000B4A0C2A05500610D8A465EF10F067EFFC
:1020C80010F053EF10F01200800E04013019D8A45C
:1020D80070EF10F072EF10F021EF11F0C00E000158
:1020E8006B6F07EF11F02D0E0001686F7A0E696FA4
:1020F800000E6D6F120E6C6F21EF11F03251D8A4E3
:1021080088EF10F08AEF10F0CBEF10F03251020D8B
:10211800B40EF324F66E790EF420F76E0900F5CFAD
:1021280068F00A00F5CF69F0020E00016825016E1B
:10213800000E6921026E01C0F6FF02C0F7FFF86ABF
:10214800070EF76403D00800F55005D0F6CFE9FF75
:10215800F7CFEAFFEF5000016C6F030E6825016EA0
:10216800000E6921026E01C0F6FF02C0F7FFF86A8F
:10217800070EF76403D00800F55005D0F6CFE9FF45
:10218800F7CFEAFFEF5000016D6F21EF11F0000E5D
:1021980000016B6F21EF11F0040E3261D6EF10F0E1
:1021A800D8EF10F0FDEF10F03251020DAC0EF32411
:1021B800F66E790EF420F76E0900F5CF68F00A0084
:1021C800F5CF69F068C0F6FF69C0F7FFF86A070E37
:1021D800F76403D00800F55005D0F6CFE9FFF7CF34
:1021E800EAFFEF50016E015000016C6F6D6B21EF3B
:1021F80011F0000E00016B6F21EF11F0000E0001CD
:102208006B6F21EF11F004013351016E026A025025
:10221800000AD8B412EF11F002EF11F00150010AD0
:10222800D8B477EF10F0030AD8B482EF10F0010A9F
:10223800D8B4D0EF10F002EF11F01200A394000E02
:10224800676E000E656E000E6A6E6B0E00019E6F63
:102258000F0E9F6F000EA16F000EA06F000EA36FF0
:10226800020EA26FF1EC0EF0160E626E9F0E666EF5
:102278007B0E646E000E0001AA6FAA51040D000EB9
:10228800F324D96E040EF420DA6EDE6ADE6ADE6AA2
:10229800DD6AAA2B0B0EAA6554EF11F056EF11F068
:1022A80041EF11F0608C000E636E6098609C65963B
:1022B800000E6B6F000E636F000E656F000E646F8B
:1022C80065B669EF11F06BEF11F05BEF11F0010EDD
:1022D8004C6E010E4B6E000E4A6E000E496E000EDB
:1022E8009D6F000EAA6FAA51020D6E0EF324D96ECF
:1022F800000EF420DA6E000EDE6E000EDD6EAA51BE
:10230800020D740EF324D96E000EF420DA6E000E5E
:10231800DE6E000EDD6E810EAA25D96EDA6A000E19
:10232800DA22000EDF6E7E0EAA25D96EDA6A000E5A
:10233800DA22000EDF6EAA2B020EAA65A6EF11F0B4
:10234800A8EF11F077EF11F0080E6E6F040E6F6FA3
:10235800160E6A6E040E0401036F300E026F080E2B
:10236800016F040E006F008F000E586E000E000102
:102378007A6F000E7B6F000E7C6F000E7D6F000E73
:102388009C6F000E546E1200A394000E676E000E30
:10239800656E000E6A6E6B0E016E0F0E026E000EF9
:1023A800046E000E036E000E066E020E056EADEC96
:1023B8000FF0160E626E9F0E666E7B0E646E000E38
:1023C8000D6E0D50040D000EF324D96E040EF4208A
:1023D800DA6EDE6ADE6ADE6ADD6A0D2A0B0E0D64CD
:1023E800F8EF11F0FAEF11F0E5EF11F0608C000E44
:1023F800636E6098609C6596000E00016B6F000E1E
:10240800636F000E656F000E646F65B60EEF12F015
:1024180010EF12F0FFEF11F0010E4C6E010E4B6E33
:10242800000E4A6E000E496E000E9D6F000E0D6E76
:102438000D50020D6E0EF324D96E000EF420DA6EE4
:10244800000EDE6E000EDD6E0D50020D740EF324CC
:10245800D96E000EF420DA6E000EDE6E000EDD6E10
:10246800810E0D24D96EDA6A000EDA22000EDF6EB4
:102478007E0E0D24D96EDA6A000EDA22000EDF6EA7
:102488000D2A020E0D644BEF12F04DEF12F01CEF07
:1024980012F0080E00016E6F040E6F6F160E6A6E52
:1024A800040E0401036F300E026F080E016F040E54
:1024B800006F008F000E586E000E00017A6F000E3C
:1024C8007B6F000E7C6F000E7D6F000E9C6F000E00
:1024D800546E120020EE01F03450D9263550DA221D
:1024E800DF50026E02500001645D000E6559D8B0DD
:1024F80080EF12F082EF12F084EF12F064C002F065
:102508000250645F000E655B000E016E9BEF12F0D7
:10251800380E0124D96EDA6A040EDA2260C0E1FFAF
:1025280061C0E2FFDFCFE7FF604B612B012A025059
:10253800015CD8A0A2EF12F0A4EF12F08CEF12F019
:1025480064516511D8B4ABEF12F0ADEF12F0E6EFBD
:1025580012F020EE01F03250D9263350DA22080E5C
:10256800DF6E20EE02F03250D9263350DA22380ED0
:10257800DE6E040EDD6E34C0D9FF35C0DAFFDFBC75
:10258800C8EF12F0CAEF12F0D8EF12F032C0D9FF3C
:1025980033C0DAFF480EDF6E32C0D9FF33C0DAFF2E
:1025A800000EDB8E0FEF13F032C0D9FF33C0DAFF15
:1025B800080EDF6E32C0D9FF33C0DAFF000EDB8EA3
:1025C8000FEF13F020EE01F03250D9263350DA2203
:1025D800080EDF6E20EE02F03250D9263350DA2290
:1025E800300EDE6E040EDD6E32C0D9FF33C0DAFF66
:1025F800040EDF6E32C0D9FF33C0DAFF000EDB8E67
:10260800639F4D50D8A40BEF13F00DEF13F00FEFAD
:1026180013F0C6EC19F012000001A66F00019E51DC
:10262800D8B419EF13F01BEF13F029EF13F0A651EC
:10263800020D6E0EF324D96E000EF420DA6EDECF92
:10264800A7F0DDCFA8F035EF13F0A651020D740EF8
:10265800F324D96E000EF420DA6EDECFA7F0DDCFBA
:10266800A8F0A751A811D8A43CEF13F03EEF13F03F
:1026780044EF13F0000E9E6F000E9F6FB0EF13F043
:1026880020EE02F0A751D926A851DA229FC0DEFF1A
:10269800A0C0DDFF20EE01F0A751D926A851DA220B
:1026A800A1C0DFFFA7C0D9FFA8C0DAFF400EDF1620
:1026B800A7C0D9FFA8C0DAFF000EDB86A7C0D9FFE4
:1026C800A8C0DAFF000EDB8E9E51D8B46EEF13F06F
:1026D80070EF13F08FEF13F0A651020D6E0EF32476
:1026E800D96E000EF420DA6EDECFA2F0DDCFA3F0B3
:1026F800040EA219A46FA351A56FA651020D6E0E68
:10270800F324D96E000EF420DA6EA4C0DEFFA5C053
:10271800DDFFACEF13F0A651020D740EF324D96E51
:10272800000EF420DA6EDECFA2F0DDCFA3F0040EA7
:10273800A219A46FA351A56FA651020D740EF3241C
:10274800D96E000EF420DA6EA4C0DEFFA5C0DDFF4E
:10275800A7C09EF0A8C09FF01200609800016BBF50
:10276800B8EF13F0BAEF13F0FFEF13F063AFBFEF5A
:1027780013F0C1EF13F0D3EF13F0020E526E49506D
:10278800D8A4C9EF13F0CBEF13F0CDEF13F079EC29
:1027980020F0000E4B6E000E4C6E51EF14F020EE40
:1027A80001F03250D9263350DA22080EDF6E20EEBF
:1027B80002F03250D9263350DA22300EDE6E040E83
:1027C800DD6E32C0D9FF33C0DAFF0C0EDF6E32C0C7
:1027D800D9FF33C0DAFF000EDB8E6EC0D9FF6FC0A1
:1027E800DAFF040EDF6E6EC0D9FF6FC0DAFF000E8D
:1027F800DB8E51EF14F0040130AF05EF14F007EF52
:1028080014F023EF14F0010E526E4A50D8A40FEFC3
:1028180014F011EF14F013EF14F079EC20F0000E1F
:102828004B6E000E4C6E4D50D8A41DEF14F01FEFE8
:1028380014F051EF14F0C6EC19F051EF14F0020E39
:10284800526E20EE01F03250D9263350DA22080EAB
:10285800DF6E20EE02F03250D9263350DA22300EE5
:10286800DE6E040EDD6E32C0D9FF33C0DAFF040E0F
:10287800DF6E32C0D9FF33C0DAFF000EDB8E000EE8
:102888004B6E000E4C6E4D50D8A44DEF14F04FEF28
:1028980014F051EF14F01FEF14F01200096E0150FC
:1028A800D8B459EF14F05BEF14F069EF14F0095045
:1028B800020D6E0EF324D96E000EF420DA6EDECF10
:1028C8000AF0DDCF0BF075EF14F00950020D740E0D
:1028D800F324D96E000EF420DA6EDECF0AF0DDCFD5
:1028E8000BF00A500B10D8A47CEF14F07EEF14F014
:1028F80084EF14F0000E016E000E026EF0EF14F07B
:1029080020EE02F00A50D9260B50DA2202C0DEFF70
:1029180003C0DDFF20EE01F00A50D9260B50DA2261
:1029280004C0DFFF0AC0D9FF0BC0DAFF400EDF1674
:102938000AC0D9FF0BC0DAFF000EDB860AC0D9FF38
:102948000BC0DAFF000EDB8E0150D8B4AEEF14F0E6
:10295800B0EF14F0CFEF14F00950020D6E0EF3240F
:10296800D96E000EF420DA6EDECF05F0DDCF06F06A
:10297800040E0518076E0650086E0950020D6E0EFB
:10298800F324D96E000EF420DA6E07C0DEFF08C00B
:10299800DDFFECEF14F00950020D740EF324D96E2C
:1029A800000EF420DA6EDECF05F0DDCF06F0040E5F
:1029B8000518076E0650086E0950020D740EF324B0
:1029C800D96E000EF420DA6E07C0DEFF08C0DDFF06
:1029D8000AC001F00BC002F01200C80E0001C26F5D
:1029E800010EC36F71EF15F05A0E9E6F020E9F6FA6
:1029F800CDEC24F00001C16FC151D8A406EF15F049
:102A080008EF15F00AEF15F08AEF15F020EE04F044
:102A1800C251D926C351DA22010EDE6E000EDD6ED8
:102A280084C0D9FF85C0DAFFC1C0DFFF844B852B86
:102A3800C2C0D9FFC3C0DAFF010EDF6E8AEF15F0FE
:102A48005A0E9E6F020E9F6FCDEC24F00001C16FED
:102A5800C151D8A432EF15F034EF15F036EF15F068
:102A68008AEF15F00A0EC119D8A43DEF15F03FEF13
:102A780015F05EEF15F0C2C0D9FFC3C0DAFF000E33
:102A8800DF6E84C0D9FF85C0DAFF000EDF6EC2C0DA
:102A9800B3F0C3C0B4F097EC0BF0000120EE02F0E5
:102AA800C251D926C351DA22DECF84F0DDCF85F0BA
:102AB8008AEF15F084C0D9FF85C0DAFFC1C0DFFFF7
:102AC800844B852B20EE04F0C251D926C351DA225B
:102AD800DE2A000EDD228AEF15F0C2C0D9FFC3C07E
:102AE800DAFFDF50BF6FC06BC051000AD8B47FEF68
:102AF80015F08AEF15F0BF51000AD8B4F8EF14F0BA
:102B0800010AD8B424EF15F08AEF15F01200040179
:102B18003039E832030B0009D8B495EF15F097EF78
:102B280015F0E4EF15F01DEF16F000016B8F080E9D
:102B3800546E1DEF16F068EC10F01DEF16F0B6ECB1
:102B48001AF01DEF16F0580E0001686F000E696F3D
:102B58006B81010E6C6F6B8F1DEF16F0BBEC17F0DD
:102B68001DEF16F0B2EC04F01DEF16F0550E3425EB
:102B78000001686F696B000E69236B81010E6C6F31
:102B88006B8F1DEF16F000016B8F550E0401342575
:102B9800D96EDA6A000EDA2232C4DFFF1DEF16F0B2
:102BA800000E0E6E020E0D6E000E0F6E000E106EF1
:102BB800000E126E000E116E89EC24F01DEF16F057
:102BC80031511C6E1D6A1D50000AD8B4EEEF15F085
:102BD8001DEF16F01C50000AD8B4B2EF15F0010A28
:102BE800D8B4B6EF15F0020AD8B4B6EF15F0060A55
:102BF800D8B499EF15F0030AD8B49FEF15F0010A7D
:102C0800D8B4D4EF15F00F0AD8B4A7EF15F0010A1D
:102C1800D8B4A3EF15F0030AD8B4BAEF15F0010A37
:102C2800D8B4C7EF15F0070AD8B41DEF16F01DEF9A
:102C380016F01200460EF66E520EF76E000EF86E83
:102C480006EE00F010EE63F00900F5CFEEFFE55058
:102C5800E150FAE1B00EF66E620EF76E000EF86EF5
:102C680002EECAF010EE14F00900F5CFEEFFE550C1
:102C7800E150FAE19C0EF66E620EF76E000EF86EE9
:102C880001EEDFF010EE14F00900F5CFEEFFE5508D
:102C9800E150FAE1FC0EF66E560EF76E000EF86E75
:102CA80004EE9AF010EE52F00900F5CFEEFFE55071
:102CB800E150FAE1D60EF66E630EF76E000EF86E6E
:102CC80000EECEF010EE04F00900F5CFEEFFE5506F
:102CD800E150FAE106EEAAF011EE03F0EE6AE550D3
:102CE800E150FCE1E250FAE103EE00F0E30EEE6A97
:102CF800E806FDE102EE00F0CA0EEE6AE806FDE124
:102D080001EE00F0DF0EEE6AE806FDE104EE40F0A9
:102D18005A0EEE6AE806FDE100EE60F03E0EEE6A3D
:102D2800E806FDE105EE80F0400EEE6AE806FDE1FA
:102D380000EE2EF02B0EEE6AE806FDE1599059924E
:102D4800000EF86E000188EF07F09D0E0001AB6FD2
:102D5800020EAC6F050EAB27000EAC23ABC09FF084
:102D6800ACC0A0F0000EA26F280EA16F0A0EA36FD0
:102D780076EC27F00001AD6FAD51D8A4C6EF16F080
:102D8800C8EF16F0CAEF16F032EF17F0C4C2AAF077
:102D98009CEC31F09EC0AEF09FC0AFF0000E000179
:102DA800B06F27EF17F0B051AE25A76F000EAF2117
:102DB800A86F1D0EA725D96E000EA821DA6EDFB008
:102DC800E8EF16F0ECEF16F0A96BA92BEEEF16F072
:102DD8000001A96BC50EB025D96EDA6A020EDA2297
:102DE800DF50010BA919D8B4FCEF16F0FEEF16F06E
:102DF80026EF17F0C50EB025D96EDA6A020EDA2270
:102E0800DF50A76F010EA717B051AE25A86F000EAF
:102E1800AF21A96F1D0EA825D96E000EA921DA6E63
:102E2800DF50A719FE0BA719DF6EB051AE25A76FAB
:102E3800000EAF21A86F1D0EA725D96E000EA82180
:102E4800DA6EDF82B02BAA51B05DD8A02EEF17F052
:102E580030EF17F0D7EF16F0000E916F1200080E42
:102E6800016E00016D5107E1080E6C5DD8B03FEFAF
:102E780017F041EF17F059EF17F06CC001F05350FD
:102E8800D8A449EF17F04BEF17F04FEF17F0010EEA
:102E9800536E59EF17F05304D8A455EF17F057EFB6
:102EA80017F059EF17F0020E536E01506C5F000EC9
:102EB8006D5B20EE01F06E51D9266F51DA2201C008
:102EC800DFFF380E8E6F040E8F6F6BB16EEF17F049
:102ED80070EF17F0B2EF17F08DEF17F068C0F6FF3C
:102EE80069C0F7FFF86A8EC0D9FF8FC0DAFF070EF6
:102EF800F76403D00800F55005D0F6CFE9FFF7CF07
:102F0800EAFFEF50DF6E0001684B692B8E4B8F2B69
:102F180001060150D8A493EF17F095EF17F072EF60
:102F280017F0BAEF17F068C0F6FF69C0F7FFF86A44
:102F38008EC0D9FF8FC0DAFF070EF76403D00800F0
:102F4800F55005D0F6CFE9FFF7CFEAFFEF50DF6E77
:102F58000001684B692B8E4B8F2B01060150D8A4BA
:102F6800B8EF17F0BAEF17F097EF17F01200000E4E
:102F78000401386F000E396F18EF18F000016B8FDD
:102F88005104D8A4CAEF17F0CCEF17F032EF18F0BD
:102F98000401388332EF18F000016B8F32EF18F01C
:102FA80000016B8F040134BFDCEF17F0DEEF17F080
:102FB800EFEF17F034510F0B016E0150020D740E34
:102FC800F324D96E000EF420DA6EDECF03F0DDCFE5
:102FD80004F0FEEF17F034510F0B016E0150020D93
:102FE8006E0EF324D96E000EF420DA6EDECF03F0F5
:102FF800DDCF04F003C0D9FF04C0DAFFDFAE07EF6E
:1030080018F009EF18F032EF18F003C0D9FF04C028
:10301800DAFFDFA412EF18F014EF18F032EF18F00F
:10302800010E386F32EF18F030511F0B016E026A33
:103038000250000AD8B423EF18F032EF18F001500C
:10304800000AD8B4C2EF17F0010AD8B4D0EF17F0CD
:10305800030AD8B4D4EF17F032EF18F000016BAFC1
:1030680038EF18F03AEF18F041EF18F0380E686FA3
:10307800040E696F6B81020E6C6F120004013051EF
:103088001F0BE806D8B44BEF18F04DEF18F04FEFD0
:1030980018F0C7EF18F03039E832030BE806D8B457
:1030A80058EF18F05AEF18F05CEF18F0C7EF18F067
:1030B8003451D8B462EF18F064EF18F0A6EF18F0A6
:1030C8003405D8B46AEF18F06CEF18F0A6EF18F0D2
:1030D800C7EF18F0D00E0001686F010E696F000E7F
:1030E8006D6F080E6C6F6B816B8FC7EF18F0D00E89
:1030F8000001686F010E696F6B8FC7EF18F036C457
:1031080064F037C465F0D80E0001606F010E616F7E
:10311800000E666F000E676F638FC7EF18F0D80E4A
:103128000001686F010E696F000E6D6F070E6C6FFE
:10313800C10E6B6FC7EF18F032C448F000016B8FF7
:10314800C7EF18F03151016E026A0250000AD8B474
:10315800B0EF18F0C7EF18F00150000AD8B46EEFBE
:1031680018F0010AD8B47BEF18F0210AD8B483EF1D
:1031780018F0010AD8B493EF18F0030AD8B4A0EFF6
:1031880018F0C7EF18F012006EC0D9FF6FC0DAFF51
:103198000001000EDFBC010E026E040E6E196E6F88
:1031A8006F516F6F080E5418D8A4DDEF18F0DFEFD9
:1031B80018F0F1EF18F0040132517F0B636E635081
:1031C800D8B4E9EF18F0EBEF18F0EFEF18F0100EA5
:1031D800546EF1EF18F0040E546E5204D8A4F7EFB1
:1031E80018F0F9EF18F041EF19F0000120EE02F0A5
:1031F8006E51D9266F51DA22380EDE6E040EDD6E5E
:1032080033EC17F0020E5318D8A40DEF19F00FEF96
:1032180019F01DEF19F06EC0D9FF6FC0DAFF040E68
:10322800DF6E6EC0D9FF6FC0DAFF000EDB8E4CEF89
:1032380019F00250D8A423EF19F025EF19F033EF55
:1032480019F06EC0D9FF6FC0DAFF480EDF6E6EC08E
:10325800D9FF6FC0DAFF000EDB8E4CEF19F06EC09D
:10326800D9FF6FC0DAFF080EDF6E6EC0D9FF6FC0DE
:10327800DAFF000EDB8E4CEF19F0000163AF47EF69
:1032880019F049EF19F04AEF19F0639F000E526EDA
:103298001200850E0001A16F7E0EA26F020EA36FB1
:1032A80011EC2DF0FC0E0001AF6F7F0EB06F020E17
:1032B800B16F10EC26F03B6E3B50D8A466EF19F0C6
:1032C80068EF19F06BEF19F0000EC5EF19F0F90E61
:1032D8000001A16F7D0EA26F020EA36F11EC2DF0FD
:1032E800B3C0A1F0B4C0A2F0020E0001A36F11ECAC
:1032F8002DF0F90E0001A16F7F0EA26F020EA36FD1
:1033080011EC2DF0B5C0A1F0B6C0A2F0020E00017C
:10331800A36F11EC2DF0FA0E0001A16F7F0EA26FC2
:10332800020EA36F11EC2DF0B7C0A1F0B8C0A2F047
:10333800020E0001A36F11EC2DF0FA0E0001A16F2F
:103348007F0EA26F020EA36F11EC2DF06F0E00011D
:10335800A16F7D0EA26F020EA36F11EC2DF0AA0EC5
:1033680000019E6F060E9F6F2CEC2FF0FC0E0001E3
:10337800AF6F7F0EB06F020EB16F10EC26F03B6E90
:103388003B5012004C50D8A4CCEF19F0CEEF19F0F6
:103398003EEF1AF0010E4C6E4B50D8A4D6EF19F040
:1033A800D8EF19F03EEF1AF0010E4B6E020E5218CC
:1033B800D8A4E1EF19F0E3EF19F0FAEF19F00001E2
:1033C80020EE01F06E51D9266F51DA22000EDF6E21
:1033D8006EC0D9FF6FC0DAFF480EDF6E6EC0D9FF2E
:1033E8006FC0DAFF000EDB8E3EEF1AF05204D8A44D
:1033F80000EF1AF002EF1AF03EEF1AF0000E4F6ECF
:1034080020EE01F03450D9263550DA22080EDF6E4E
:1034180020EE02F03450D9263550DA22300EDE6E16
:10342800040EDD6E34C0D9FF35C0DAFF040EDF6E3E
:1034380034C0D9FF35C0DAFF000EDB8E010E4F6EA7
:1034480020EE01F03250D9263350DA22080EDF6E12
:1034580020EE02F03250D9263350DA22300EDE6EDA
:10346800040EDD6E32C0D9FF33C0DAFF800EDF6E86
:103478003EEF1AF01200A4C09EF0A5C09FF0F9EC30
:103488002BF000019E51AE6F20EE02F0A251D9261A
:10349800A351DA22AE51DE5CD8B055EF1AF057EFDF
:1034A8001AF05AEF1AF0000EB5EF1AF0A2C0D9FFC1
:1034B800A3C0DAFFDF50A66FA76BAE51A65F000E60
:1034C800A75BFF0EA625AC6FFF0EA721AD6FADBFA2
:1034D80072EF1AF070EF1AF074EF1AF0010EAD27C0
:1034E800000EAB6F000EAA6FA2EF1AF0AC51A22526
:1034F800A66FAD51A321A76F030EA625D96E000EA6
:10350800A721DA6EDF50A96FAC4BAD2BAA51A425C9
:10351800A66FAB51A521A76FA6C0F6FFA7C0F7FFFE
:103528000800F550A919D8B49CEF1AF09EEF1AF0CC
:10353800A0EF1AF057EF1AF0AA4BAB2BAE51A66FBB
:10354800A76BA651AA5DAB51800AA86FA751800A44
:10355800A859D8A0B2EF1AF0B4EF1AF07AEF1AF01F
:10356800010E120000016B8F6B0E016E0F0E026EC2
:10357800000E046E000E036E000E066E020E056E3F
:10358800ADEC0FF0000E016E040E026E000E046E1C
:10359800000E036E000E066E300E056EADEC0FF0D9
:1035A800608C000E156E810E1524D96EDA6A000E35
:1035B800DA22000EDF6E7E0E1524D96EDA6A000E4E
:1035C800DA22000EDF6E152A020E1564EEEF1AF0ED
:1035D800F0EF1AF0D7EF1AF0550E016E000E026EDA
:1035E800000E046E000E036E000E066E020E056ECF
:1035F800ADEC0FF0609C080E00016E6F040E6F6F4B
:10360800000E346E040E356E34C032F035C033F01F
:1036180032C458F05850D8A414EF1BF016EF1BF022
:103628001AEF1BF0100E546E2AEF1BF0000E0E6EF0
:10363800010E0D6E580E0F6E000E106E000E126EFB
:10364800010E116E89EC24F0200E546E120032EF38
:103658001BF000019E4B9F2BA04BA12BA0C0F6FF97
:10366800A1C0F7FFF86A070EF76403D00800F55009
:1036780005D0F6CFE9FFF7CFEAFFEF500001A26FC0
:103688009EC0F6FF9FC0F7FFF86A070EF76403D0E5
:103698000800F55005D0F6CFE9FFF7CFEAFFEF5065
:1036A800A219D8A45AEF1BF05CEF1BF074EF1BF0C3
:1036B8009EC0F6FF9FC0F7FFF86A070EF76403D0B5
:1036C8000800F55005D0F6CFE9FFF7CFEAFFEF5035
:1036D8000009D8A472EF1BF074EF1BF02DEF1BF05C
:1036E8009EC0F6FF9FC0F7FFF86A070EF76403D085
:1036F8000800F55005D0F6CFE9FFF7CFEAFFEF5005
:103708000001A26FA0C0F6FFA1C0F7FFF86A070E7C
:10371800F76403D00800F55005D0F6CFE9FFF7CFDE
:10372800EAFFEF500001A36FA351A25D9E6F9F6B4C
:10373800D8A09F071200430E0001A16F7E0EA26F52
:10374800020EA36F11EC2DF0FC0E0001AF6F7F0E7F
:10375800B06F020EB16F10EC26F03B6E920E0001B6
:10376800A16F7D0EA26F020EA36F11EC2DF0FC0E5F
:103778000001AF6F7F0EB06F020EB16F10EC26F034
:103788003B6EDE0E0001A16F7E0EA26F020EA36FCC
:1037980011EC2DF0B3C0A1F0B4C0A2F0020E0001EC
:1037A800A36F11EC2DF0090E0001A16F7E0EA26F20
:1037B800020EA36F11EC2DF0B5C0A1F0B6C0A2F0B7
:1037C800020E0001A36F11EC2DF0AB0E0001A16FEA
:1037D8007D0EA26F020EA36F11EC2DF0AA0E000150
:1037E8009E6F060E9F6F2CEC2FF0FC0E0001AF6F42
:1037F8007F0EB06F020EB16F10EC26F03B6E850E97
:103808000001AF6F7F0EB06F020EB16F10EC26F0A3
:103818003B6E3B501200000E0001A16FA1519E6F3C
:103828009F6B180E9E27000E9F23350E9E25F66E61
:10383800790E9F21F76EA00EA125D96EDA6A010EC6
:10384800DA220800F5CFDFFFA12B040EA1652FEFC8
:103858001CF031EF1CF012EF1CF0000EA16FA1510B
:103868009E6F9F6B1D0E9E27000E9F23350E9E2573
:10387800F66E790E9F21F76EA50EA125D96EDA6A2C
:10388800010EDA220800F5CFDFFFA12B040EA16597
:1038980050EF1CF052EF1CF033EF1CF0000EA16F3C
:1038A800A151030D350EF324F66E790EF420F76E50
:1038B8000900F5CF9EF00900F5CF9FF00900F5CF7C
:1038C800A0F0A151030D880EF324D96E010EF42047
:1038D800DA6E9EC0DEFF9FC0DEFFA0C0DEFFA12B18
:1038E800070EA1657AEF1CF07CEF1CF054EF1CF07A
:1038F8001200AA0E00019E6F060E9F6F2CEC2FF08F
:10390800010E3B6E550E0001A16F7E0EA26F020ED6
:10391800A36F11EC2DF0FC0E0001AF6F7F0EB06F9E
:10392800020EB16F10EC26F03B6E3B50D8B49FEFFF
:103938001CF0A1EF1CF0B4EF1CF04C0E0001A16FBD
:103948007D0EA26F020EA36F11EC2DF0FC0E00018C
:10395800AF6F7F0EB06F020EB16F10EC26F03B6EAA
:103968003B50D8B4BAEF1CF0BCEF1CF0CFEF1CF002
:10397800930E0001A16F7E0EA26F020EA36F11ECD1
:103988002DF0FC0E0001AF6F7F0EB06F020EB16F0D
:1039980010EC26F03B6E3B50D8B4D5EF1CF0D7EFB7
:1039A8001CF0EAEF1CF0E50E0001A16F7D0EA26F7E
:1039B800020EA36F11EC2DF0FC0E0001AF6F7F0E0D
:1039C800B06F020EB16F10EC26F03B6E12000001D2
:1039D800A16F35EF1DF09E51D8B4F5EF1CF0F7EF4D
:1039E8001CF0FAEF1CF08A8057EF1DF08A9057EF11
:1039F8001DF09E51D8B403EF1DF005EF1DF008EF40
:103A08001DF08A8257EF1DF08A9257EF1DF09E51E4
:103A1800D8B411EF1DF013EF1DF016EF1DF08A84D6
:103A280057EF1DF08A9457EF1DF09E51D8B41FEF41
:103A38001DF021EF1DF024EF1DF08A8657EF1DF0D1
:103A48008A9657EF1DF09E51D8B42DEF1DF02FEF39
:103A58001DF032EF1DF08A8857EF1DF08A9857EF56
:103A68001DF00001A1519F6FA06BA051000AD8B4AE
:103A780040EF1DF057EF1DF09F51000AD8B4EFEF4B
:103A88001CF0010AD8B4FDEF1CF0030AD8B40BEF00
:103A98001DF0010AD8B419EF1DF0070AD8B427EFB2
:103AA8001DF057EF1DF012000001A26F9DEF1DF0F1
:103AB80080A061EF1DF064EF1DF0010E65EF1DF0B1
:103AC800000E9E6F9F6BC3EF1DF080A26EEF1DF07E
:103AD80071EF1DF0010E72EF1DF0000E9E6F9F6BCF
:103AE800C3EF1DF080A47BEF1DF07EEF1DF0010EEB
:103AF8007FEF1DF0000E9E6F9F6BC3EF1DF080A639
:103B080088EF1DF08BEF1DF0010E8CEF1DF0000EFD
:103B18009E6F9F6BC3EF1DF080A895EF1DF098EF87
:103B28001DF0010E99EF1DF0000E9E6F9F6BC3EF05
:103B38001DF00001A251A06FA16BA151000AD8B4D9
:103B4800A8EF1DF0BFEF1DF0A051000AD8B45CEF3C
:103B58001DF0010AD8B469EF1DF0030AD8B476EF56
:103B68001DF0010AD8B483EF1DF0070AD8B490EF0E
:103B78001DF0BFEF1DF0000E9F6F000E9E6F12002C
:103B88003950D8A4CAEF1DF0CCEF1DF0CEEF1DF0D0
:103B98002DEF1EF0DF0E3824D96EDA6A010EDA2214
:103BA800DF506BEC2EF09EC0A9F09FC0AAF03850F1
:103BB800030DA3C0A5F0A4C0A6F0F3500001A527EB
:103BC800F450A623010EA525D96E000EA621DA6EA3
:103BD800A9C0DEFFAAC0DDFF3850030DA3C0A5F0C1
:103BE800A4C0A6F0F350A527F450A623010EA525DE
:103BF800D96E000EA621DA6EA951DE1809E1AA5184
:103C0800DE18D8B40AEF1EF00CEF1EF01BEF1EF002
:103C18003850030DF3CFA5F0F4CFA6F0A551A32596
:103C2800D96EA651A421DA6EDF8028EF1EF0385035
:103C3800030DF3CFA5F0F4CFA6F0A551A325D96EB7
:103C4800A651A421DA6EDF903828070B386ED7EC1E
:103C580030F01200000E0001AA6F000EAB6F000ECC
:103C6800AC6F000EAD6F80EF1EF0AAC0A2F0ABC023
:103C7800A3F0ACC0A4F0ADC0A5F0030ED890A23755
:103C8800A337A437A537E82E42EF1EF0A2C0A6F04E
:103C9800A3C0A7F0A4C0A8F0A5C0A9F0D890AA35E1
:103CA800A26FAB35A36FAC35A46FAD35A56FA2512C
:103CB800A627A351A723A451A823A551A923D00E11
:103CC800A26FFF0EA36F9EC0D9FF9FC0DAFFDF501F
:103CD800A46FA56BA251A427A351A523A451A6257F
:103CE800AA6FA551A721AB6F000EA821AC6F000EDB
:103CF800A921AD6F9E4B9F2B9EC0D9FF9FC0DAFFB5
:103D0800DF50D8A48AEF1EF08CEF1EF039EF1EF0BA
:103D1800AAC09EF0ABC09FF0ACC0A0F0ADC0A1F0AF
:103D28001200000E0001A46FA45158EC1DF0010E02
:103D380000019E17A00EA425D96EDA6A010EDA22B8
:103D4800DF509E19FE0B9E19DF6EA00EA425D96EBA
:103D5800DA6A010EDA220101DFB0B5EF1EF0B8EF22
:103D68001EF0010EB9EF1EF0000E0001A36FA00EA9
:103D7800A425D96EDA6A010EDA220101DFB2C7EF93
:103D88001EF0CAEF1EF0010ECBEF1EF0000E000170
:103D9800A31BD8B4D2EF1EF0D4EF1EF0F0EF1EF044
:103DA800A00EA425D96EDA6A010EDA220101DF8499
:103DB800A00E0001A425D96EDA6A010EDA22A00E3F
:103DC800A425E16EE26A010EE2220101DFB002D011
:103DD800E79202D00101E7820001A42B040EA4653A
:103DE800F8EF1EF0FAEF1EF098EF1EF01200000E2A
:103DF8000001A36FA1BF05EF1FF003EF1FF00BEF4A
:103E08001FF0A06DA11FD8B0A12B010EA36F9FBFFB
:103E180012EF1FF010EF1FF018EF1FF09E6D9F1F9D
:103E2800D8B09F2B010EA31B000EA56F000EA46F28
:103E3800A051A111D8B423EF1FF025EF1FF04DEFCB
:103E48001FF0010EA26F2DEF1FF0D890A037A137F9
:103E5800A22BA1AF32EF1FF034EF1FF029EF1FF0B4
:103E6800D890A437A537A0519E5DA1519F59D8A0DD
:103E780040EF1FF042EF1FF047EF1FF0A0519E5F89
:103E8800A1519F5BA481D890A133A033A22F34EF16
:103E98001FF0A351D8B453EF1FF055EF1FF059EF9F
:103EA8001FF0A46DA51FD8B0A52BA4C09EF0A5C077
:103EB8009FF01200000E4724D96EDA6A020EDA2249
:103EC800000EDF6EABA46BEF1FF06DEF1FF083EFFA
:103ED8001FF0000E4724D96EDA6A020EDA220201B8
:103EE800DF8202D883EF1FF005000101FA6E3E5110
:103EF800FD6E3F51FE6EF850FF6EFA501200ABA2F5
:103F080088EF1FF08AEF1FF0A0EF1FF0000E472484
:103F1800D96EDA6A020EDA220201DF8402D8A0EF33
:103F28001FF005000101FA6E3C51FD6E3D51FE6E19
:103F3800F850FF6EFA501200000E4724D96EDA6A64
:103F4800020EDA22DF50D8B4ACEF1FF0AEEF1FF04C
:103F5800BEEF1FF002D8BCEF1FF005000101FA6E9A
:103F68003A51FD6E3B51FE6EF850FF6EFA5012004A
:103F7800C0EF1FF033EC30F01200000E00019B6F11
:103F88008C518D11D8B4CBEF1FF0CDEF1FF0D8EFC7
:103F98001FF08CC0D9FF8DC0DAFFDFBED6EF1FF04F
:103FA800D8EF1FF01AEF20F020EE01F08C51D9263F
:103FB8008D51DA22AB51DE5CD8B0E5EF1FF0E7EFA8
:103FC8001FF0EFEF1FF020EE01F08C51D9268D5134
:103FD800DA22DF50AB6F000E9B6F02EF20F0400E2D
:103FE8009B25D96EDA6A050EDA229B51A925E16E66
:103FF800000EAA21E26EDFCFE7FF9B2BAB519B5D42
:10400800D8A009EF20F00BEF20F0F3EF1FF0000E1F
:104018009E6F400E9F6F050EA06F400EA16F020E9F
:1040280010EC13F09EC08CF09FC08DF000019B51E6
:1040380012002D0E4E6E57C01EF0FD0E1E16D8A48F
:1040480028EF20F02AEF20F06CEF20F057C01EF088
:10405800D8901E323F0E1E161E50040D000EF3247B
:10406800346E040EF420356E34C032F035C033F0AF
:10407800040E3218326E3350336E34C0D9FF35C057
:10408800DAFFDF30E8320F0B0D0AD8A44EEF20F02C
:1040980050EF20F068EF20F0300E016E040E026E33
:1040A80020EE02F03450D9263550DA22DECF03F064
:1040B800DDCF04F0000E066E080E056E9BEC2CF0AA
:1040C800B6EC23F078EF20F03CEC27F078EF20F006
:1040D8005750FD0B040AD8A474EF20F076EF20F0B7
:1040E80078EF20F0C8EC18F01200000E4A6E000EAF
:1040F800496E020E5218D8A484EF20F086EF20F003
:10410800A6EF20F020EE01F03250D9263350DA2203
:10411800080EDF6E20EE02F03250D9263350DA2234
:10412800380EDE6E040EDD6E32C0D9FF33C0DAFF02
:10413800480EDF6E32C0D9FF33C0DAFF000EDB8EC7
:10414800D2EF20F000016C510401365D00016D5181
:1041580004013759D8B0B3EF20F0B5EF20F0B9EF2C
:1041680020F036C46CF037C46DF033EC17F0000162
:1041780020EE02F06E51D9266F51DA22380EDE6E2B
:10418800040EDD6E6EC0D9FF6FC0DAFF480EDF6E19
:104198006EC0D9FF6FC0DAFF000EDB8E1200000E72
:1041A8000001A36F9FBFDDEF20F0DBEF20F0E3EF0E
:1041B80020F09E6D9F1FD8B09F2B010EA36FA1BF4B
:1041C800EAEF20F0E8EF20F0EEEF20F0A06DA11F5D
:1041D800D8B0A12BA051A111D8B4F5EF20F0F7EF7A
:1041E80020F01BEF21F0010EA26FFFEF20F0D89016
:1041F800A037A137A22BA1AF04EF21F006EF21F0E1
:10420800FBEF20F0A0519E5DA1519F59D8A00FEF60
:1042180021F011EF21F015EF21F0A0519E5FA1517F
:104228009F5BD890A133A033A22F06EF21F0A351B2
:10423800D8B421EF21F023EF21F027EF21F09E6D74
:104248009F1FD8B09F2B9EC09EF09FC09FF012006A
:104258004450D8B432EF21F034EF21F083EF21F04D
:1042680050EF21F04104D8A43CEF21F03FEF21F0BA
:10427800010E40EF21F0000E416E69EF21F042502F
:10428800D8B449EF21F04CEF21F0010E4DEF21F0A9
:10429800000E426E69EF21F04350016E026A02502F
:1042A800000AD8B45AEF21F083EF21F00150020A36
:1042B800D8B436EF21F0060AD8B436EF21F0010A57
:1042C800D8B443EF21F083EF21F04150D8A46FEF29
:1042D80021F071EF21F075EF21F0CEEC31F083EF92
:1042E80021F04250D8A47BEF21F07DEF21F081EF3F
:1042F80021F0DFEC31F083EF21F0DCEC31F012003B
:104308000001A06FA0C043F0B4EF21F0CAEC31F077
:10431800000E446E000E416EDAEF21F0D9EC31F058
:10432800000E446E000E426E010E416EDAEF21F06F
:10433800D9EC31F0010E446E96EF21F0D6EC31F055
:10434800000E446E010E426E98EF21F0D6EC31F06B
:10435800010E446EA6EF21F0CAEC31F09EEF21F079
:104368000001A0519E6F9F6B9F51000AD8B4BFEF08
:1043780021F0DAEF21F09E51000AD8B48AEF21F03B
:10438800010AD8B492EF21F0030AD8B49CEF21F0C7
:10439800010AD8B4A2EF21F0070AD8B4AAEF21F095
:1043A800010AD8B4B0EF21F0DAEF21F01200066E5E
:1043B800000E076E040E086E0150026E036AD89054
:1043C800023603360650046E056AD8900436053660
:1043D800D890043605360250042603500522D8909A
:1043E80004360536D890043605360450072605509D
:1043F800082207C0D9FF08C0DAFFDF9E0150D8A401
:1044080008EF22F00AEF22F018EF22F00650020D12
:10441800740EF324D96E000EF420DA6E07C0DEFFA6
:1044280008C0DDFF24EF22F00650020D6E0EF324C3
:10443800D96E000EF420DA6E07C0DEFF08C0DDFF7B
:1044480007C0D9FF08C0DAFFDF9C20EE04F0075050
:10445800D9260850DA22DF8C1200640E0001AF6FF3
:10446800000EAE6F000EAD6FAF51AB5DD8A03FEF41
:1044780022F041EF22F055EF22F0AFC09EF0AB5191
:10448800B7EC29F00001AC6FAC51300FA9C0D9FFCF
:10449800AAC0DAFFDF6EA94BAA2BAC51AF03F350C9
:1044A800AB5FAFC09EF09F6B000EA16F0A0EA06FAE
:1044B800FBEC1EF000019E51AF6FAD4BAE2BAEBFB3
:1044C8006FEF22F0AE5109E1020EAD5DD8A06FEF9B
:1044D80022F071EF22F038EF22F0AB51300FA9C073
:1044E800D9FFAAC0DAFFDF6EA94BAA2BA9C0D9FF52
:1044F800AAC0DAFF000EDF6EA94BAA2B1200630ECA
:104508000001AC6F000EAE6F000EB06F000EAF6F03
:104518009EEF22F0AE5138EC31F00001AD6FAE2BBA
:10452800000EAF25D96E030EB021DA6EADC0DFFFE5
:10453800AF4BB02BAC51A96FAA6BA951AF5DB0516D
:10454800800AAB6FAA51800AAB59D8A0AEEF22F00F
:10455800B0EF22F08EEF22F0DA0E0301611907E1C5
:10456800BE0E6219D8A4BBEF22F0BDEF22F0C0EF57
:1045780022F0010ED2EF22F0000E00019E6F030E12
:104588009F6F000EA06F060EA16F000EA36F630E43
:10459800A26FA7EC2BF0EAEC2CF0000E1200010E33
:1045A800366E080E00019061DCEF22F0DEEF22F09B
:1045B80020EF23F09051020D000EF324D96E010E66
:1045C800F420DA6EA5C0DEFFA6C0DDFF902B07EF52
:1045D80023F0010E8EEC31F020EE01F02E50D9269A
:1045E8002F50DA22010EDF6E20EF23F0000E8EEC42
:1045F80031F020EE01F02E50D9262F50DA22000E8D
:10460800DF6E20EF23F0A751A86FA96BA951000A0C
:10461800D8B411EF23F020EF23F0A851000AD8B442
:1046280020EF23F0010AD8B4EDEF22F0030AD8B442
:10463800FAEF22F020EF23F0000E366E1200200E63
:10464800546029EF23F02BEF23F02DEF23F06DEFCB
:1046580023F060A232EF23F034EF23F036EF23F09B
:104668006DEF23F000019A51D8A43DEF23F03FEFFE
:1046780023F06DEF23F0A30EA96F030EAA6F400E6F
:10468800AB6FC1EC1FF00001AD6FAD51D8B44FEF67
:1046980023F051EF23F06DEF23F0000EAE6F64EFBF
:1046A80023F05A0E9E6F020E9F6FA30EAE25D96E91
:1046B800DA6A030EDA22DF50FDEC2AF00001AE2B95
:1046C800AD51AE5DD8A06BEF23F06DEF23F055EF41
:1046D80023F01200000E0001A66F000EA56FA5EFD3
:1046E80023F0A5C0A0F0A6C0A1F0D890A037A137AC
:1046F800D890A037A137D890A037A137A0C0A3F091
:10470800A1C0A4F0A5C0A0F0A6C0A1F0D890A03781
:10471800A137A051A327A151A4239EC0D9FF9FC0B0
:10472800DAFFDF50A06FA051A325A16F000EA421CE
:10473800A26FD00EA125A56FFF0EA221A66F9E4BDA
:104748009F2B9EC0D9FF9FC0DAFFDF50D8A4AFEFE0
:1047580023F0B1EF23F075EF23F0A5C09EF0A6C0BB
:104768009FF01200000E536E000E4D6E000E4A6E42
:10477800000E496E000E4F6E000E526E6EC0D9FFCD
:104788006FC0DAFF7F0EDF16040E00016E196E6F20
:104798006F516F6F6EC0D9FF6FC0DAFF7F0EDF16E3
:1047A800040E6E196E6F6F516F6F32C0D9FF33C030
:1047B800DAFF7F0EDF16000E6B6F000E6D6F000EB6
:1047C8006C6F000E636F000E656F000E646F8BECEC
:1047D80015F0000E0E6E030E0D6E000E0F6E000E1D
:1047E800106E000E126E000E116E89EC24F0B1EC02
:1047F80013F01200AF0E0001B06F000EB16FB0C021
:10480800D9FFB1C0DAFF000EDF6EA5C09EF0A6C0CA
:104818009FF0000EA16F0A0EA06F8BEC28F0570EC8
:1048280000019E25F66E790E9F21F76EB007D8A07D
:10483800B107B0C0D9FFB1C0DAFF0800F5CFDFFF7C
:10484800A5C09EF0A6C09FF0000EA16F0A0EA06F33
:10485800C7EC26F09EC0A5F09FC0A6F00001A551A8
:10486800A611D8A43AEF24F03CEF24F009EF24F085
:10487800B0C0A1F0B1C0A2F0A7C0A3F011EC2DF018
:1048880012000001B16FAE0E0001AF6F000EB06FE5
:10489800AFC0D9FFB0C0DAFF000EDF6EB1C09EF026
:1048A8009F6B000EA16F0A0EA06FD3EC20F0570E7D
:1048B80000019E25F66E790E9F21F76EAF07D8A0EE
:1048C800B007AFC0D9FFB0C0DAFF0800F5CFDFFFEF
:1048D800B1C09EF09F6B000EA16F0A0EA06FFBEC9B
:1048E8001EF000019E51B16FB151D8A47EEF24F0A3
:1048F80080EF24F052EF24F0AFC0A1F0B0C0A2F0D6
:10490800A6C0A3F011EC2DF0120093EF24F0BEEC3A
:1049180028F0CCEF24F042EC18F0CCEF24F00DC0D6
:1049280013F00EC014F01450000AD8B4A2EF24F00B
:104938007F0AD8B4C5EF24F0CCEF24F01350010A55
:10494800D8B48BEF24F0030AD8B4CCEF24F0010AD2
:10495800D8B48FEF24F0060AD8B4CCEF24F0770A45
:10496800D8B4CCEF24F0010AD8B4CCEF24F0070A6D
:10497800D8B4CCEF24F0010AD8B4CCEF24F0CCEFB3
:1049880024F01350FF0AD8B4CCEF24F0CCEF24F075
:104998001200000120EE02F09E51D9269F51DA2222
:1049A800DF50D8A4DAEF24F0DCEF24F0DFEF24F0B6
:1049B800000E0EEF25F020EE01F09E51D9269F51F2
:1049C800DA22DF50A06FA0519E25A16F000E9F2113
:1049D800A26F030EA125D96E000EA221DA6EDF5058
:1049E800A36F20EE01F09E51D9269F51DA2210EED6
:1049F80001F09E51E1269F51E222E750A06FA029C5
:104A08003F0BDF6E20EE02F09E51D9269F51DA222D
:104A1800DF06A3511200000E0001AC6FA00EAC25FA
:104A2800D96EDA6A010EDA220101DFA41EEF25F041
:104A380020EF25F045EF25F0A00E0001AC25D96E3A
:104A4800DA6A010EDA220101DFA62DEF25F02FEF39
:104A580025F045EF25F0ACC0ABF0020E0001AA6FBF
:104A6800AAC0A5F0ABC0A6F0000EA76FD3EC22F049
:104A7800A00E0001AC25D96EDA6A010EDA22010116
:104A8800DF940001AC2B040EAC654DEF25F04FEF21
:104A980025F012EF25F01200000120EE02F09E51E1
:104AA800D9269F51DA22DF50D8A45DEF25F05FEFB9
:104AB80025F062EF25F0000E90EF25F020EE01F0D2
:104AC8009E51D9269F51DA22DF50A06FA0519E2512
:104AD800A16F000E9F21A26F030EA125D96E000EB3
:104AE800A221DA6EDF50A36F20EE01F09E51D92685
:104AF8009F51DA2210EE01F09E51E1269F51E222E9
:104B0800E750A06FA029DF6E20EE02F09E51D92653
:104B18009F51DA22DF06A3511200AA0E00019E6FF0
:104B2800060E9F6F2CEC2FF0010E3B6E3B50D8B455
:104B3800A0EF25F0A2EF25F0B5EF25F0400E00011B
:104B4800A16F7F0EA26F020EA36F11EC2DF09E0EC7
:104B58000001AF6F7F0EB06F020EB16F10EC26F040
:104B68003B6E3B50D8B4BBEF25F0BDEF25F0D0EF3E
:104B780025F07E0E0001A16F7F0EA26F020EA36FBB
:104B880011EC2DF0FC0E0001AF6F7F0EB06F020E1E
:104B9800B16F10EC26F03B6E12000001B56FA10E4C
:104BA8000001A16F7E0EA26F020EA36F11EC2DF013
:104BB800020E0001A66FB55145EC24F0FA0E000173
:104BC800A16F7F0EA26F020EA36F11EC2DF0B3C080
:104BD800A5F0B4C0A6F0020E0001A76FFEEC23F00A
:104BE800AC0E0001A16F7D0EA26F020EA36F11EC37
:104BF8002DF0AA0E00019E6F060E9F6F2CEC2FF071
:104C0800FC0E0001AF6F7F0EB06F020EB16F10EC9B
:104C180026F03B6E3B501200010E0001956FB1C0AB
:104C280096F0000E956F44EF26F043EC31F0000942
:104C3800D8B421EF26F023EF26F044EF26F022EC3B
:104C48002CF00001B26FAA0E9E6F060E9F6FB25134
:104C580029EC2BF0AA0E0001A26F060EA36FAFC0BD
:104C6800A4F0B0C0A5F03FEC1AF00009D8B43FEFAB
:104C780026F041EF26F044EF26F0010E4EEF26F025
:104C880000019651D8A44BEF26F04DEF26F019EF0E
:104C980026F0000E12003650D8A455EF26F057EF34
:104CA80026F04FEF26F000019051D8A45EEF26F0D1
:104CB80060EF26F074EF26F020EE01F02E50D92692
:104CC8002F50DA22DF50D8B46CEF26F06EEF26F0C2
:104CD80087EF26F0F1C19EF0F2C19FF08BEF26F02E
:104CE80090079051020D000EF324D96E010EF420A6
:104CF800DA6EDECFA0F0DDCFA1F0A0C09EF0A1C09B
:104D08009FF08BEF26F030C19EF031C19FF012006A
:104D1800A2EC31F09EC0B8F09FC0B9F0380E000187
:104D2800B8259E6F000EB9219F6F6EEC23F09EC0D0
:104D380038F19FC039F1300E0001B8259E6F000E82
:104D4800B9219F6F2EEC1EF09EC01EF19FC01FF16F
:104D5800A0C020F1A1C021F138C136F139C137F125
:104D6800400E0001B825B36F000EB921B46F500E84
:104D7800B825B56F000EB921B66F9FEC1BF0000186
:104D8800B76FB7511200000E0001A46F000EA36F99
:104D9800A051A111D8B4D3EF26F0D5EF26F0FDEF3E
:104DA80026F0010EA26FDDEF26F0D890A037A137CC
:104DB800A22BA1AFE2EF26F0E4EF26F0D9EF26F020
:104DC800D890A337A437A0519E5DA1519F59D8A070
:104DD800F0EF26F0F2EF26F0F7EF26F0A0519E5FF5
:104DE800A1519F5BA381D890A133A033A22FE4EFF8
:104DF80026F0A3C09EF0A4C09FF01200C80E0001C8
:104E0800A26F010EA36F20EE04F0A251D926A35180
:104E1800DA22000EDE6E000EDD6EA2C0D9FFA3C03E
:104E2800DAFF000EDF6E20EE06F0A251D926A3515C
:104E3800DA22A0C0DEFFA1C0DDFF20EE02F0A25101
:104E4800D926A351DA22800EDE6E050EDD6E20EE25
:104E580002F0A251D926A351DA22DECF84F0DDCFA9
:104E680085F0C80E9E6F010E9F6FDFEC2FF01200C9
:104E7800020E5218D8A443EF27F045EF27F049EF68
:104E880027F06EEC12F075EF27F0000E526E4F50BF
:104E9800D8A451EF27F053EF27F073EF27F020EE57
:104EA80001F03250D9263350DA22080EDF6E20EE98
:104EB80002F03250D9263350DA22300EDE6E040E5C
:104EC800DD6E32C0D9FF33C0DAFF0C0EDF6E32C0A0
:104ED800D9FF33C0DAFF000EDB8E75EF27F0000E26
:104EE8004F6E1200010E0001956FA3C096F0000EE0
:104EF800956FA4EF27F043EC31F00009D8B487EFA1
:104F080027F089EF27F0A4EF27F022EC2CF000011E
:104F1800A46F9FC0D9FFA0C0DAFFA4C0DFFF9F4BDA
:104F2800A02BA107D8A0A207A151A211D8A49FEF36
:104F380027F0A1EF27F0A4EF27F0010EAEEF27F03E
:104F480000019651D8A4ABEF27F0ADEF27F07FEF23
:104F580027F0000E1200AA0E00019E6F060E9F6F2A
:104F68002CEC2FF0010E3B6E3B50D8B4BEEF27F06F
:104F7800C0EF27F0CAEF27F0920E0001AF6F7F0E47
:104F8800B06F0A0EB16F10EC26F03B6EAA0E00014E
:104F98009E6F060E9F6F2CEC2FF03B50D8B4D7EFC6
:104FA80027F0D9EF27F0E6EF27F0BD0E0001AF6F2D
:104FB8007F0EB06F020EB16F10EC26F03B6E020E42
:104FC80009EC2EF03B5012003F503F2440100001E6
:104FD800A36F03EF28F0000E84EC21F020EF28F0F7
:104FE800010E84EC21F020EF28F0030E84EC21F070
:104FF80020EF28F0050E84EC21F020EF28F0A351D3
:10500800A16FA26BA251000AD8B40DEF28F020EFCF
:1050180028F0A151000AD8B4EFEF27F0010AD8B45C
:10502800F4EF27F0030AD8B4F9EF27F0010AD8B44F
:10503800FEEF27F020EF28F01200000E0001A26F0B
:10504800A50EA225D96EDA6A010EDA220101DFA2C5
:1050580030EF28F032EF28F04BEF28F0A50E0001D2
:10506800A225D96EDA6A010EDA220101000EDFB03C
:10507800010E00019E6FA251EBEC1CF0A50E000181
:10508800A225D96EDA6A010EDA220101DF92000147
:10509800A22B040EA26553EF28F055EF28F024EF59
:1050A80028F012009FEC2FF0010122512311241146
:1050B8002511D8A462EF28F064EF28F07BEF28F0E0
:1050C800880E226F130E236F000E246F000E256FBB
:1050D8002CEC21F01EEC30F089EC2FF03D50D8B4C8
:1050E80078EF28F07AEF28F07BEF28F03D060101F1
:1050F8002207000E235B245B255B3E50D8B487EF64
:1051080028F089EF28F08AEF28F03E061200000107
:10511800A051A111D8B493EF28F095EF28F0B9EF7A
:1051280028F0010EA26F9DEF28F0D890A037A13784
:10513800A22BA1AFA2EF28F0A4EF28F099EF28F056
:10514800A0519E5DA1519F59D8A0ADEF28F0AFEFB7
:1051580028F0B3EF28F0A0519E5FA1519F5BD89033
:10516800A133A033A22FA4EF28F09EC09EF09FC0C9
:105178009FF01200000E0101D86F4B0ED96F000E80
:10518800DA6F000EDB6F000EDC6F000EDD6F080EAD
:10519800DE6F000E00019B6F1A0E096E010E38ECCF
:1051A8002DF01E0E096E020E38EC2DF0000E016E69
:1051B800400E026E050E036E400E046E020E52EC97
:1051C80014F001C08CF002C08DF0000E00018A6F4F
:1051D800000E8B6F000E9A6F12009D9ABC0E000194
:1051E8009E6F3E0E9F6FADEC31F0080EB86E900EBC
:1051F800AB6E240EAC6E670EAF6E000EB06EEC0E8A
:1052080000019E6F630E9F6FB7EC31F0C40E000172
:105218009E6F630E9F6FB2EC31F0CA0E00019E6F55
:10522800630E9F6FBCEC31F0000E0001976F000E0B
:10523800476E000E466E000E456E9D8A120031368E
:10524800392E33342E3130302E3200000000000069
:1052580000000000000000000000000000003434DE
:105268003030310000003435303031000000333246
:1052780037363334350033300000000000004D79F4
:1052880041500000000000000000000000005061D4
:10529800737377640000000000000000000002DA69
:0152A800BE47
:1052AA00A4C0ABF0A5C0ACF0A6C0ADF0A7C0AEF0EC
:1052BA00FF0E0001AA25AF6FB06BFF0EB023B0BF7F
:1052CA006BEF29F069EF29F06DEF29F085EF29F0EE
:1052DA00AB0EAF25D96E000EB021DA6EA8C0E1FF81
:1052EA00A9C0E2FFDFCFE7FFA84BA92BAF07D8A0E1
:1052FA00B007B0BF85EF29F083EF29F06DEF29F0F1
:10530A001200AA0E00019E6F060E9F6F2CEC2FF062
:10531A00B3C0D9FFB4C0DAFFDF500001B86FA0EF05
:10532A0029F0B7C09FF0B851F4EC2FF00001B34B4D
:10533A00B42B8DEF29F0B507D8A0B607B52906E139
:10534A00B629D8A4ABEF29F0ADEF29F096EF29F0F2
:10535A00980EAF6F7F0EB06F020EB16F10EC26F091
:10536A003B6E120000019F6F000E0001A16F9E515B
:10537A00D8B4C2EF29F0C4EF29F0E5EF29F0010E05
:10538A00A06FCBEF29F0D8909E37A02B9EAFD0EF1D
:10539A0029F0D2EF29F0C8EF29F0D890A1379E5111
:1053AA009F5DD8A0DBEF29F0DDEF29F0E0EF29F0CF
:1053BA009E519F5FA181D8909E33A02FD2EF29F0F2
:1053CA00A15112006AA0ECEF29F0EEEF29F015EFD7
:1053DA002AF034C0D9FF35C0DAFF800EDE18D8A40F
:1053EA00F9EF29F0FBEF29F014EF2AF06EC0D9FF8C
:1053FA006FC0DAFF840EDE18D8A406EF2AF008EF91
:10540A002AF014EF2AF034C0D9FF35C0DAFF0C0EA7
:10541A00DF6E34C0D9FF35C0DAFF000EDB8E6A902A
:10542A00659A12003AEF2AF022EC2CF00001B16FD3
:10543A00AA0E9E6F060E9F6FB15129EC2BF0AA0E91
:10544A000001A26F060EA36FAFC0A4F0B0C0A5F012
:10545A003FEC1AF00009D8B435EF2AF037EF2AF0FA
:10546A003AEF2AF0010E45EF2AF043EC31F0000939
:10547A00D8A442EF2AF044EF2AF019EF2AF0000EDE
:10548A001200A4C0A8F0A5C0A9F0A2C0AAF0A3C0A7
:10549A00ABF00001A851A66FA951A76FA84BA92B81
:1054AA00A6C0F6FFA7C0F7FFF86AAAC0D9FFABC02B
:1054BA00DAFFAA4BAB2B070EF76403D00800F550AE
:1054CA0005D0F6CFE9FFF7CFEAFFEF50DF6EDF50E6
:1054DA00D8A472EF2AF074EF2AF04EEF2AF01200E5
:1054EA0000019E6F080E00019E617EEF2AF080EF98
:1054FA002AF083EF2AF0060EA2EF2AF0070E9E6525
:10550A0089EF2AF08BEF2AF096EF2AF00D0E9E61B2
:10551A0091EF2AF093EF2AF096EF2AF0000EA2EF0D
:10552A002AF00D0E9E659CEF2AF09EEF2AF0A1EF5D
:10553A002AF0010EA2EF2AF0070E1200AA0E0001AD
:10554A009E6F060E9F6F2CEC2FF0BC0E0001A16F10
:10555A007E0EA26F020EA36F11EC2DF0B3C0A5F060
:10556A00B4C0A6F0020E0001A76FFEEC23F0AC0E49
:10557A000001A16F7D0EA26F020EA36F11EC2DF038
:10558A00FC0E0001AF6F7F0EB06F020EB16F10EC10
:10559A0026F03B6E12000001B36FAF0E0001A16F3F
:1055AA007E0EA26F020EA36F11EC2DF0020E000107
:1055BA00A66FB35145EC24F0AC0E0001A16F7D0E2D
:1055CA00A26F020EA36F11EC2DF0AA0E00019E6FBE
:1055DA00060E9F6F2CEC2FF0FC0E0001AF6F7F0EB2
:1055EA00B06F020EB16F10EC26F03B6E3B5012000A
:1055FA000001A36F9EC0D9FF9FC0DAFFDF500001F0
:10560A00A06FA0519E25A16F000E9F21A26F030ECD
:10561A00A125D96E000EA221DA6EA3C0DFFF9EC0BB
:10562A00D9FF9FC0DAFFDF50A06FA0293F0B9EC0B1
:10563A00D9FF9FC0DAFFDF6E20EE02F09E51D92615
:10564A009F51DA22DF2A12000001A36F9EC0D9FF00
:10565A009FC0DAFFDF500001A06FA0519E25A16F05
:10566A00000E9F21A26F030EA125D96E000EA22162
:10567A00DA6EA3C0DFFF9EC0D9FF9FC0DAFFDF50FA
:10568A00A06FA0299EC0D9FF9FC0DAFFDF6E20EE6F
:10569A0002F09E51D9269F51DA22DF2A1200A0C0B9
:1056AA009EF0A1C09FF014EC2FF0000E0001A56F30
:1056BA00000EA46FA451A025A26FA551A121A36F2A
:1056CA00030EA225D96E000EA321DA6E000EDF6E3C
:1056DA00A44BA52BA5BF7BEF2BF0A55109E1400EEA
:1056EA00A45DD8A07BEF2BF07DEF2BF05FEF2BF0C2
:1056FA0012001F7ECB7DAC7D0D7E257F377FAF7D6F
:10570A002E7FE97E707F027C377B517F707FC97C58
:10571A007B7B517F707F6D7CA17A517F707FF67C95
:10572A00517A517F707F9B7CEF7A517F707F3B7CEF
:10573A00737D237D317E337C517FC87EBF7BFD7EA6
:10574A00077FF37EA0C0A7F0A1C0A8F09EC0A5F075
:10575A009FC0A6F0C1EF2BF0A7C0D9FFA8C0DAFFFF
:10576A00DF50A46FA74BA82BA5C0D9FFA6C0DAFFAC
:10577A00A4C0DFFFA54BA62B0001A207D8A0A30750
:10578A00A22906E1A329D8A4CDEF2BF0CFEF2BF065
:10579A00B1EF2BF012000001A46F9CEC31F09EC017
:1057AA00A5F09FC0A6F00001A405A76FA751030D9D
:1057BA00A5C0A0F0A6C0A1F0F350A027F450A123E1
:1057CA00010EA025D96E000EA121DA6EDECFA2F05D
:1057DA00DDCFA3F0D890A333A233D890A333A2335A
:1057EA00A251A86FA85112009EC0A0F09FC0A1F0BC
:1057FA0002EF2CF000019E4B9F2B9EC0F6FF9FC02C
:10580A00F7FFF86A070EF76403D00800F55005D0D1
:10581A00F6CFE9FFF7CFEAFFEF500009D8A418EF57
:10582A002CF01AEF2CF0FFEF2BF00001A0519E5D37
:10583A009E6FA1519F599F6F12004550D8B428EF0F
:10584A002CF02AEF2CF022EF2CF0000E4624D96E11
:10585A00DA6A020EDA22DF500001976F400E462400
:10586A00D96EDA6A040EDA22DF509E6F462A590E82
:10587A00466442EF2CF044EF2CF046EF2CF0000E79
:10588A00466E9D9A45069D8A9E51120020EE01F0B1
:10589A002E50D9262F50DA22DF50D8A457EF2CF0F9
:1058AA0059EF2CF05BEF2CF072EF2CF0000E8EEC1F
:1058BA0031F020EE01F02E50D9262F50DA22000EB8
:1058CA00DF6E000E0001906F000E0101336F780E3B
:1058DA00326F000E376E0FEC1CF012000001A16F40
:1058EA00000E0001A26F8DEF2CF09EC0D9FF9FC061
:1058FA00DAFFA151DE18D8A485EF2CF087EF2CF03F
:10590A008AEF2CF0A2519AEF2CF09E4B9F2BA22BE0
:10591A009EC0D9FF9FC0DAFFDF50D8A497EF2CF0C2
:10592A0099EF2CF07AEF2CF0000E120003C009F068
:10593A0004C00AF001C007F002C008F0B5EF2CF06D
:10594A0009C0D9FF0AC0DAFFDF500B6E094A0A2ADA
:10595A0007C0D9FF08C0DAFF0BC0DFFF074A082AD1
:10596A000506D8A00606052806E10628D8A4C0EF31
:10597A002CF0C2EF2CF0A5EF2CF01200A0C09EF084
:10598A00A1C09FF02CEC2FF0000E0001A56F000EB5
:10599A00A46FA451A025A26FA551A121A36F030E44
:1059AA00A225D96E000EA321DA6E000EDF6EA44B7B
:1059BA00A52BA5BFE7EF2CF0A505D8A0E7EF2CF0A3
:1059CA00E9EF2CF0CEEF2CF01200000E0001A56FCB
:1059DA00000EA36F030EA46F630EA16F000EA66FD5
:1059EA0007EF2DF0A3C0D9FFA4C0DAFFDF50A26FE2
:1059FA00A2C09EF0A55182EC2DF00001A52BA34B6D
:105A0A00A42BA62BA151A65DD8A00EEF2DF010EF66
:105A1A002DF0F7EF2CF01200A1C0F6FFA2C0F7FF9D
:105A2A00F86A070EF76403D00800F55005D0F6CFE0
:105A3A00E9FFF7CFEAFFEF500001A46F2FEF2DF037
:105A4A00A3C09FF0A451F4EC2FF00001A14BA22BAC
:105A5A0011EF2DF0A451D8A435EF2DF037EF2DF02A
:105A6A0025EF2DF012000C6E09A43EEF2DF040EF49
:105A7A002DF045EF2DF0000E016E0C50DBEC21F0FD
:105A8A0009A24AEF2DF04CEF2DF051EF2DF0010E47
:105A9A00016E0C50DBEC21F06A0E0C240A6E0B6AC4
:105AAA000F0E0B220AC0D9FF0BC0DAFF09C0DFFFB5
:105ABA001200000E0001A16F74EF2DF0A139E84227
:105ACA00F80BA06FA151A125A0279EC0D9FF9FC0A6
